{
	"contracts/oddEveAjay.sol": {
		"oddEveAjay": {
			"abi": [
				{
					"inputs": [],
					"stateMutability": "nonpayable",
					"type": "constructor"
				},
				{
					"inputs": [],
					"name": "out",
					"outputs": [
						{
							"internalType": "bool",
							"name": "",
							"type": "bool"
						}
					],
					"stateMutability": "view",
					"type": "function"
				},
				{
					"inputs": [],
					"name": "reset",
					"outputs": [
						{
							"internalType": "string",
							"name": "",
							"type": "string"
						}
					],
					"stateMutability": "nonpayable",
					"type": "function"
				},
				{
					"inputs": [],
					"name": "score",
					"outputs": [
						{
							"internalType": "uint256",
							"name": "",
							"type": "uint256"
						}
					],
					"stateMutability": "view",
					"type": "function"
				},
				{
					"inputs": [
						{
							"internalType": "uint256",
							"name": "_inputnumber",
							"type": "uint256"
						}
					],
					"name": "userinput",
					"outputs": [
						{
							"internalType": "string",
							"name": "stringg",
							"type": "string"
						}
					],
					"stateMutability": "nonpayable",
					"type": "function"
				}
			],
			"devdoc": {
				"kind": "dev",
				"methods": {},
				"version": 1
			},
			"evm": {
				"assembly": "    /* \"contracts/oddEveAjay.sol\":259:4021  contract oddEveAjay{... */\n  mstore(0x40, 0x80)\n    /* \"contracts/oddEveAjay.sol\":528:703  constructor()... */\n  callvalue\n  dup1\n  iszero\n  tag_1\n  jumpi\n  0x00\n  dup1\n  revert\ntag_1:\n  pop\n    /* \"contracts/oddEveAjay.sol\":566:567  0 */\n  0x00\n    /* \"contracts/oddEveAjay.sol\":558:563  score */\n  dup1\n    /* \"contracts/oddEveAjay.sol\":558:567  score = 0 */\n  dup2\n  swap1\n  sstore\n  pop\n    /* \"contracts/oddEveAjay.sol\":625:630  false */\n  0x00\n    /* \"contracts/oddEveAjay.sol\":621:624  out */\n  0x01\n  0x00\n    /* \"contracts/oddEveAjay.sol\":621:630  out=false */\n  0x0100\n  exp\n  dup2\n  sload\n  dup2\n  0xff\n  mul\n  not\n  and\n  swap1\n  dup4\n  iszero\n  iszero\n  mul\n  or\n  swap1\n  sstore\n  pop\n    /* \"contracts/oddEveAjay.sol\":694:695  0 */\n  0x00\n    /* \"contracts/oddEveAjay.sol\":679:693  randomvariable */\n  0x02\n    /* \"contracts/oddEveAjay.sol\":679:695  randomvariable=0 */\n  dup2\n  swap1\n  sstore\n  pop\n    /* \"contracts/oddEveAjay.sol\":259:4021  contract oddEveAjay{... */\n  dataSize(sub_0)\n  dup1\n  dataOffset(sub_0)\n  0x00\n  codecopy\n  0x00\n  return\nstop\n\nsub_0: assembly {\n        /* \"contracts/oddEveAjay.sol\":259:4021  contract oddEveAjay{... */\n      mstore(0x40, 0x80)\n      callvalue\n      dup1\n      iszero\n      tag_1\n      jumpi\n      0x00\n      dup1\n      revert\n    tag_1:\n      pop\n      jumpi(tag_2, lt(calldatasize, 0x04))\n      shr(0xe0, calldataload(0x00))\n      dup1\n      0xb2a1449b\n      eq\n      tag_3\n      jumpi\n      dup1\n      0xd74935b4\n      eq\n      tag_4\n      jumpi\n      dup1\n      0xd826f88f\n      eq\n      tag_5\n      jumpi\n      dup1\n      0xefedc669\n      eq\n      tag_6\n      jumpi\n    tag_2:\n      0x00\n      dup1\n      revert\n        /* \"contracts/oddEveAjay.sol\":345:360  bool public out */\n    tag_3:\n      tag_7\n      tag_8\n      jump\t// in\n    tag_7:\n      mload(0x40)\n      tag_9\n      swap2\n      swap1\n      tag_10\n      jump\t// in\n    tag_9:\n      mload(0x40)\n      dup1\n      swap2\n      sub\n      swap1\n      return\n        /* \"contracts/oddEveAjay.sol\":715:2740  function userinput(uint _inputnumber) public returns (string memory stringg)    ... */\n    tag_4:\n      tag_11\n      0x04\n      dup1\n      calldatasize\n      sub\n      dup2\n      add\n      swap1\n      tag_12\n      swap2\n      swap1\n      tag_13\n      jump\t// in\n    tag_12:\n      tag_14\n      jump\t// in\n    tag_11:\n      mload(0x40)\n      tag_15\n      swap2\n      swap1\n      tag_16\n      jump\t// in\n    tag_15:\n      mload(0x40)\n      dup1\n      swap2\n      sub\n      swap1\n      return\n        /* \"contracts/oddEveAjay.sol\":2748:3066  function reset() public returns(string memory)      //function to reset the game... */\n    tag_5:\n      tag_17\n      tag_18\n      jump\t// in\n    tag_17:\n      mload(0x40)\n      tag_19\n      swap2\n      swap1\n      tag_16\n      jump\t// in\n    tag_19:\n      mload(0x40)\n      dup1\n      swap2\n      sub\n      swap1\n      return\n        /* \"contracts/oddEveAjay.sol\":285:302  uint public score */\n    tag_6:\n      tag_20\n      tag_21\n      jump\t// in\n    tag_20:\n      mload(0x40)\n      tag_22\n      swap2\n      swap1\n      tag_23\n      jump\t// in\n    tag_22:\n      mload(0x40)\n      dup1\n      swap2\n      sub\n      swap1\n      return\n        /* \"contracts/oddEveAjay.sol\":345:360  bool public out */\n    tag_8:\n      0x01\n      0x00\n      swap1\n      sload\n      swap1\n      0x0100\n      exp\n      swap1\n      div\n      0xff\n      and\n      dup2\n      jump\t// out\n        /* \"contracts/oddEveAjay.sol\":715:2740  function userinput(uint _inputnumber) public returns (string memory stringg)    ... */\n    tag_14:\n        /* \"contracts/oddEveAjay.sol\":769:790  string memory stringg */\n      0x60\n        /* \"contracts/oddEveAjay.sol\":953:957  true */\n      0x01\n        /* \"contracts/oddEveAjay.sol\":948:957  out==true */\n      iszero\n      iszero\n        /* \"contracts/oddEveAjay.sol\":948:951  out */\n      0x01\n      0x00\n      swap1\n      sload\n      swap1\n      0x0100\n      exp\n      swap1\n      div\n      0xff\n      and\n        /* \"contracts/oddEveAjay.sol\":948:957  out==true */\n      iszero\n      iszero\n      sub\n        /* \"contracts/oddEveAjay.sol\":944:2733  if (out==true)          //if the batsman is out, we need to reset the game... */\n      tag_25\n      jumpi\n        /* \"contracts/oddEveAjay.sol\":1043:1077  stringg = \"BatsmanOut,PleaseReset\" */\n      mload(0x40)\n      dup1\n      0x40\n      add\n      0x40\n      mstore\n      dup1\n      0x16\n      dup2\n      mstore\n      0x20\n      add\n      0x426174736d616e4f75742c506c65617365526573657400000000000000000000\n      dup2\n      mstore\n      pop\n      swap1\n      pop\n        /* \"contracts/oddEveAjay.sol\":1092:1106  return stringg */\n      jump(tag_24)\n        /* \"contracts/oddEveAjay.sol\":944:2733  if (out==true)          //if the batsman is out, we need to reset the game... */\n    tag_25:\n        /* \"contracts/oddEveAjay.sol\":1214:1215  1 */\n      0x01\n        /* \"contracts/oddEveAjay.sol\":1201:1213  _inputnumber */\n      dup3\n        /* \"contracts/oddEveAjay.sol\":1201:1215  _inputnumber<1 */\n      lt\n        /* \"contracts/oddEveAjay.sol\":1201:1234  _inputnumber<1 || _inputnumber >6 */\n      dup1\n      tag_27\n      jumpi\n      pop\n        /* \"contracts/oddEveAjay.sol\":1233:1234  6 */\n      0x06\n        /* \"contracts/oddEveAjay.sol\":1219:1231  _inputnumber */\n      dup3\n        /* \"contracts/oddEveAjay.sol\":1219:1234  _inputnumber >6 */\n      gt\n        /* \"contracts/oddEveAjay.sol\":1201:1234  _inputnumber<1 || _inputnumber >6 */\n    tag_27:\n        /* \"contracts/oddEveAjay.sol\":1197:2722  if (_inputnumber<1 || _inputnumber >6)          //condition to check if the userinput is valid or not... */\n      iszero\n      tag_28\n      jumpi\n        /* \"contracts/oddEveAjay.sol\":1331:1359  stringg = \"EnterValidNumber\" */\n      mload(0x40)\n      dup1\n      0x40\n      add\n      0x40\n      mstore\n      dup1\n      0x10\n      dup2\n      mstore\n      0x20\n      add\n      0x456e74657256616c69644e756d62657200000000000000000000000000000000\n      dup2\n      mstore\n      pop\n      swap1\n      pop\n        /* \"contracts/oddEveAjay.sol\":1393:1407  return stringg */\n      jump(tag_24)\n        /* \"contracts/oddEveAjay.sol\":1197:2722  if (_inputnumber<1 || _inputnumber >6)          //condition to check if the userinput is valid or not... */\n    tag_28:\n        /* \"contracts/oddEveAjay.sol\":1514:1531  uint randomnumber */\n      0x00\n        /* \"contracts/oddEveAjay.sol\":1533:1557  randdomnumbergenerator() */\n      tag_30\n        /* \"contracts/oddEveAjay.sol\":1533:1555  randdomnumbergenerator */\n      tag_31\n        /* \"contracts/oddEveAjay.sol\":1533:1557  randdomnumbergenerator() */\n      jump\t// in\n    tag_30:\n        /* \"contracts/oddEveAjay.sol\":1514:1557  uint randomnumber =randdomnumbergenerator() */\n      swap1\n      pop\n        /* \"contracts/oddEveAjay.sol\":1857:1858  0 */\n      0x00\n        /* \"contracts/oddEveAjay.sol\":1843:1855  randomnumber */\n      dup2\n        /* \"contracts/oddEveAjay.sol\":1843:1858  randomnumber==0 */\n      sub\n        /* \"contracts/oddEveAjay.sol\":1839:1934  if (randomnumber==0)... */\n      tag_32\n      jumpi\n        /* \"contracts/oddEveAjay.sol\":1913:1914  6 */\n      0x06\n        /* \"contracts/oddEveAjay.sol\":1900:1914  randomnumber=6 */\n      swap1\n      pop\n        /* \"contracts/oddEveAjay.sol\":1839:1934  if (randomnumber==0)... */\n    tag_32:\n        /* \"contracts/oddEveAjay.sol\":1972:1984  _inputnumber */\n      dup3\n        /* \"contracts/oddEveAjay.sol\":1958:1970  randomnumber */\n      dup2\n        /* \"contracts/oddEveAjay.sol\":1958:1984  randomnumber==_inputnumber */\n      sub\n        /* \"contracts/oddEveAjay.sol\":1954:2707  if (randomnumber==_inputnumber)                           //batsman is out, return: the generated number and string “RUNS” ... */\n      tag_33\n      jumpi\n        /* \"contracts/oddEveAjay.sol\":2126:2130  true */\n      0x01\n        /* \"contracts/oddEveAjay.sol\":2122:2125  out */\n      dup1\n      0x00\n        /* \"contracts/oddEveAjay.sol\":2122:2130  out=true */\n      0x0100\n      exp\n      dup2\n      sload\n      dup2\n      0xff\n      mul\n      not\n      and\n      swap1\n      dup4\n      iszero\n      iszero\n      mul\n      or\n      swap1\n      sstore\n      pop\n        /* \"contracts/oddEveAjay.sol\":2163:2206  concatenate(Strings.toString(score), \"OUT\") */\n      tag_34\n        /* \"contracts/oddEveAjay.sol\":2175:2198  Strings.toString(score) */\n      tag_35\n        /* \"contracts/oddEveAjay.sol\":2192:2197  score */\n      sload(0x00)\n        /* \"contracts/oddEveAjay.sol\":2175:2191  Strings.toString */\n      tag_36\n        /* \"contracts/oddEveAjay.sol\":2175:2198  Strings.toString(score) */\n      jump\t// in\n    tag_35:\n        /* \"contracts/oddEveAjay.sol\":2163:2206  concatenate(Strings.toString(score), \"OUT\") */\n      mload(0x40)\n      dup1\n      0x40\n      add\n      0x40\n      mstore\n      dup1\n      0x03\n      dup2\n      mstore\n      0x20\n      add\n      0x4f55540000000000000000000000000000000000000000000000000000000000\n      dup2\n      mstore\n      pop\n        /* \"contracts/oddEveAjay.sol\":2163:2174  concatenate */\n      tag_37\n        /* \"contracts/oddEveAjay.sol\":2163:2206  concatenate(Strings.toString(score), \"OUT\") */\n      jump\t// in\n    tag_34:\n        /* \"contracts/oddEveAjay.sol\":2153:2206  stringg = concatenate(Strings.toString(score), \"OUT\") */\n      swap2\n      pop\n        /* \"contracts/oddEveAjay.sol\":2309:2323  return stringg */\n      pop\n      jump(tag_24)\n        /* \"contracts/oddEveAjay.sol\":1954:2707  if (randomnumber==_inputnumber)                           //batsman is out, return: the generated number and string “RUNS” ... */\n    tag_33:\n        /* \"contracts/oddEveAjay.sol\":2465:2477  randomnumber */\n      dup1\n        /* \"contracts/oddEveAjay.sol\":2457:2462  score */\n      sload(0x00)\n        /* \"contracts/oddEveAjay.sol\":2457:2477  score + randomnumber */\n      tag_39\n      swap2\n      swap1\n      tag_40\n      jump\t// in\n    tag_39:\n        /* \"contracts/oddEveAjay.sol\":2449:2454  score */\n      0x00\n        /* \"contracts/oddEveAjay.sol\":2449:2477  score = score + randomnumber */\n      dup2\n      swap1\n      sstore\n      pop\n        /* \"contracts/oddEveAjay.sol\":2510:2561  concatenate(Strings.toString(randomnumber), \"RUNS\") */\n      tag_41\n        /* \"contracts/oddEveAjay.sol\":2522:2552  Strings.toString(randomnumber) */\n      tag_42\n        /* \"contracts/oddEveAjay.sol\":2539:2551  randomnumber */\n      dup3\n        /* \"contracts/oddEveAjay.sol\":2522:2538  Strings.toString */\n      tag_36\n        /* \"contracts/oddEveAjay.sol\":2522:2552  Strings.toString(randomnumber) */\n      jump\t// in\n    tag_42:\n        /* \"contracts/oddEveAjay.sol\":2510:2561  concatenate(Strings.toString(randomnumber), \"RUNS\") */\n      mload(0x40)\n      dup1\n      0x40\n      add\n      0x40\n      mstore\n      dup1\n      0x04\n      dup2\n      mstore\n      0x20\n      add\n      0x52554e5300000000000000000000000000000000000000000000000000000000\n      dup2\n      mstore\n      pop\n        /* \"contracts/oddEveAjay.sol\":2510:2521  concatenate */\n      tag_37\n        /* \"contracts/oddEveAjay.sol\":2510:2561  concatenate(Strings.toString(randomnumber), \"RUNS\") */\n      jump\t// in\n    tag_41:\n        /* \"contracts/oddEveAjay.sol\":2500:2561  stringg = concatenate(Strings.toString(randomnumber), \"RUNS\") */\n      swap2\n      pop\n        /* \"contracts/oddEveAjay.sol\":2586:2600  return stringg */\n      pop\n        /* \"contracts/oddEveAjay.sol\":715:2740  function userinput(uint _inputnumber) public returns (string memory stringg)    ... */\n    tag_24:\n      swap2\n      swap1\n      pop\n      jump\t// out\n        /* \"contracts/oddEveAjay.sol\":2748:3066  function reset() public returns(string memory)      //function to reset the game... */\n    tag_18:\n        /* \"contracts/oddEveAjay.sol\":2780:2793  string memory */\n      0x60\n        /* \"contracts/oddEveAjay.sol\":2853:2854  0 */\n      0x00\n        /* \"contracts/oddEveAjay.sol\":2845:2850  score */\n      dup1\n        /* \"contracts/oddEveAjay.sol\":2845:2854  score = 0 */\n      dup2\n      swap1\n      sstore\n      pop\n        /* \"contracts/oddEveAjay.sol\":2869:2874  false */\n      0x00\n        /* \"contracts/oddEveAjay.sol\":2865:2868  out */\n      0x01\n      0x00\n        /* \"contracts/oddEveAjay.sol\":2865:2874  out=false */\n      0x0100\n      exp\n      dup2\n      sload\n      dup2\n      0xff\n      mul\n      not\n      and\n      swap1\n      dup4\n      iszero\n      iszero\n      mul\n      or\n      swap1\n      sstore\n      pop\n        /* \"contracts/oddEveAjay.sol\":2885:2912  return \"RESET Successfully\" */\n      mload(0x40)\n      dup1\n      0x40\n      add\n      0x40\n      mstore\n      dup1\n      0x12\n      dup2\n      mstore\n      0x20\n      add\n      0x5245534554205375636365737366756c6c790000000000000000000000000000\n      dup2\n      mstore\n      pop\n      swap1\n      pop\n        /* \"contracts/oddEveAjay.sol\":2748:3066  function reset() public returns(string memory)      //function to reset the game... */\n      swap1\n      jump\t// out\n        /* \"contracts/oddEveAjay.sol\":285:302  uint public score */\n    tag_21:\n      sload(0x00)\n      dup2\n      jump\t// out\n        /* \"contracts/oddEveAjay.sol\":3074:3793  function randdomnumbergenerator() private returns(uint)... */\n    tag_31:\n        /* \"contracts/oddEveAjay.sol\":3124:3128  uint */\n      0x00\n        /* \"contracts/oddEveAjay.sol\":3559:3573  randomvariable */\n      0x02\n      0x00\n        /* \"contracts/oddEveAjay.sol\":3559:3575  randomvariable++ */\n      dup2\n      sload\n      dup1\n      swap3\n      swap2\n      swap1\n      0x01\n      add\n      swap2\n      swap1\n      pop\n      sstore\n      pop\n        /* \"contracts/oddEveAjay.sol\":3784:3785  6 */\n      0x06\n        /* \"contracts/oddEveAjay.sol\":3740:3755  block.timestamp */\n      timestamp\n        /* \"contracts/oddEveAjay.sol\":3757:3762  score */\n      sload(0x00)\n        /* \"contracts/oddEveAjay.sol\":3764:3778  randomvariable */\n      sload(0x02)\n        /* \"contracts/oddEveAjay.sol\":3723:3779  abi.encodePacked(block.timestamp, score, randomvariable) */\n      add(0x20, mload(0x40))\n      tag_45\n      swap4\n      swap3\n      swap2\n      swap1\n      tag_46\n      jump\t// in\n    tag_45:\n      mload(0x40)\n      0x20\n      dup2\n      dup4\n      sub\n      sub\n      dup2\n      mstore\n      swap1\n      0x40\n      mstore\n        /* \"contracts/oddEveAjay.sol\":3713:3780  keccak256(abi.encodePacked(block.timestamp, score, randomvariable)) */\n      dup1\n      mload\n      swap1\n      0x20\n      add\n      keccak256\n        /* \"contracts/oddEveAjay.sol\":3708:3781  uint(keccak256(abi.encodePacked(block.timestamp, score, randomvariable))) */\n      0x00\n      shr\n        /* \"contracts/oddEveAjay.sol\":3708:3785  uint(keccak256(abi.encodePacked(block.timestamp, score, randomvariable))) % 6 */\n      tag_47\n      swap2\n      swap1\n      tag_48\n      jump\t// in\n    tag_47:\n        /* \"contracts/oddEveAjay.sol\":3701:3785  return uint(keccak256(abi.encodePacked(block.timestamp, score, randomvariable))) % 6 */\n      swap1\n      pop\n        /* \"contracts/oddEveAjay.sol\":3074:3793  function randdomnumbergenerator() private returns(uint)... */\n      swap1\n      jump\t// out\n        /* \"@openzeppelin/contracts/utils/Strings.sol\":392:1095  function toString(uint256 value) internal pure returns (string memory) {... */\n    tag_36:\n        /* \"@openzeppelin/contracts/utils/Strings.sol\":448:461  string memory */\n      0x60\n        /* \"@openzeppelin/contracts/utils/Strings.sol\":674:675  0 */\n      0x00\n        /* \"@openzeppelin/contracts/utils/Strings.sol\":665:670  value */\n      dup3\n        /* \"@openzeppelin/contracts/utils/Strings.sol\":665:675  value == 0 */\n      sub\n        /* \"@openzeppelin/contracts/utils/Strings.sol\":661:712  if (value == 0) {... */\n      tag_50\n      jumpi\n        /* \"@openzeppelin/contracts/utils/Strings.sol\":691:701  return \"0\" */\n      mload(0x40)\n      dup1\n      0x40\n      add\n      0x40\n      mstore\n      dup1\n      0x01\n      dup2\n      mstore\n      0x20\n      add\n      0x3000000000000000000000000000000000000000000000000000000000000000\n      dup2\n      mstore\n      pop\n      swap1\n      pop\n      jump(tag_49)\n        /* \"@openzeppelin/contracts/utils/Strings.sol\":661:712  if (value == 0) {... */\n    tag_50:\n        /* \"@openzeppelin/contracts/utils/Strings.sol\":721:733  uint256 temp */\n      0x00\n        /* \"@openzeppelin/contracts/utils/Strings.sol\":736:741  value */\n      dup3\n        /* \"@openzeppelin/contracts/utils/Strings.sol\":721:741  uint256 temp = value */\n      swap1\n      pop\n        /* \"@openzeppelin/contracts/utils/Strings.sol\":751:765  uint256 digits */\n      0x00\n        /* \"@openzeppelin/contracts/utils/Strings.sol\":775:850  while (temp != 0) {... */\n    tag_51:\n        /* \"@openzeppelin/contracts/utils/Strings.sol\":790:791  0 */\n      0x00\n        /* \"@openzeppelin/contracts/utils/Strings.sol\":782:786  temp */\n      dup3\n        /* \"@openzeppelin/contracts/utils/Strings.sol\":782:791  temp != 0 */\n      eq\n        /* \"@openzeppelin/contracts/utils/Strings.sol\":775:850  while (temp != 0) {... */\n      tag_52\n      jumpi\n        /* \"@openzeppelin/contracts/utils/Strings.sol\":807:815  digits++ */\n      dup1\n      dup1\n      tag_53\n      swap1\n      tag_54\n      jump\t// in\n    tag_53:\n      swap2\n      pop\n      pop\n        /* \"@openzeppelin/contracts/utils/Strings.sol\":837:839  10 */\n      0x0a\n        /* \"@openzeppelin/contracts/utils/Strings.sol\":829:839  temp /= 10 */\n      dup3\n      tag_55\n      swap2\n      swap1\n      tag_56\n      jump\t// in\n    tag_55:\n      swap2\n      pop\n        /* \"@openzeppelin/contracts/utils/Strings.sol\":775:850  while (temp != 0) {... */\n      jump(tag_51)\n    tag_52:\n        /* \"@openzeppelin/contracts/utils/Strings.sol\":859:878  bytes memory buffer */\n      0x00\n        /* \"@openzeppelin/contracts/utils/Strings.sol\":891:897  digits */\n      dup2\n        /* \"@openzeppelin/contracts/utils/Strings.sol\":881:898  new bytes(digits) */\n      0xffffffffffffffff\n      dup2\n      gt\n      iszero\n      tag_57\n      jumpi\n      tag_58\n      tag_59\n      jump\t// in\n    tag_58:\n    tag_57:\n      mload(0x40)\n      swap1\n      dup1\n      dup3\n      mstore\n      dup1\n      0x1f\n      add\n      not(0x1f)\n      and\n      0x20\n      add\n      dup3\n      add\n      0x40\n      mstore\n      dup1\n      iszero\n      tag_60\n      jumpi\n      dup2\n      0x20\n      add\n      0x01\n      dup3\n      mul\n      dup1\n      calldatasize\n      dup4\n      calldatacopy\n      dup1\n      dup3\n      add\n      swap2\n      pop\n      pop\n      swap1\n      pop\n    tag_60:\n      pop\n        /* \"@openzeppelin/contracts/utils/Strings.sol\":859:898  bytes memory buffer = new bytes(digits) */\n      swap1\n      pop\n        /* \"@openzeppelin/contracts/utils/Strings.sol\":908:1058  while (value != 0) {... */\n    tag_61:\n        /* \"@openzeppelin/contracts/utils/Strings.sol\":924:925  0 */\n      0x00\n        /* \"@openzeppelin/contracts/utils/Strings.sol\":915:920  value */\n      dup6\n        /* \"@openzeppelin/contracts/utils/Strings.sol\":915:925  value != 0 */\n      eq\n        /* \"@openzeppelin/contracts/utils/Strings.sol\":908:1058  while (value != 0) {... */\n      tag_62\n      jumpi\n        /* \"@openzeppelin/contracts/utils/Strings.sol\":951:952  1 */\n      0x01\n        /* \"@openzeppelin/contracts/utils/Strings.sol\":941:952  digits -= 1 */\n      dup3\n      tag_63\n      swap2\n      swap1\n      tag_64\n      jump\t// in\n    tag_63:\n      swap2\n      pop\n        /* \"@openzeppelin/contracts/utils/Strings.sol\":1017:1019  10 */\n      0x0a\n        /* \"@openzeppelin/contracts/utils/Strings.sol\":1009:1014  value */\n      dup6\n        /* \"@openzeppelin/contracts/utils/Strings.sol\":1009:1019  value % 10 */\n      tag_65\n      swap2\n      swap1\n      tag_48\n      jump\t// in\n    tag_65:\n        /* \"@openzeppelin/contracts/utils/Strings.sol\":996:998  48 */\n      0x30\n        /* \"@openzeppelin/contracts/utils/Strings.sol\":996:1020  48 + uint256(value % 10) */\n      tag_66\n      swap2\n      swap1\n      tag_40\n      jump\t// in\n    tag_66:\n        /* \"@openzeppelin/contracts/utils/Strings.sol\":983:1022  bytes1(uint8(48 + uint256(value % 10))) */\n      0xf8\n      shl\n        /* \"@openzeppelin/contracts/utils/Strings.sol\":966:972  buffer */\n      dup2\n        /* \"@openzeppelin/contracts/utils/Strings.sol\":973:979  digits */\n      dup4\n        /* \"@openzeppelin/contracts/utils/Strings.sol\":966:980  buffer[digits] */\n      dup2\n      mload\n      dup2\n      lt\n      tag_67\n      jumpi\n      tag_68\n      tag_69\n      jump\t// in\n    tag_68:\n    tag_67:\n      0x20\n      add\n      add\n        /* \"@openzeppelin/contracts/utils/Strings.sol\":966:1022  buffer[digits] = bytes1(uint8(48 + uint256(value % 10))) */\n      swap1\n      not(0xffffffffffffffffffffffffffffffffffffffffffffffffffffffffffffff)\n      and\n      swap1\n      dup2\n      0x00\n      byte\n      swap1\n      mstore8\n      pop\n        /* \"@openzeppelin/contracts/utils/Strings.sol\":1045:1047  10 */\n      0x0a\n        /* \"@openzeppelin/contracts/utils/Strings.sol\":1036:1047  value /= 10 */\n      dup6\n      tag_70\n      swap2\n      swap1\n      tag_56\n      jump\t// in\n    tag_70:\n      swap5\n      pop\n        /* \"@openzeppelin/contracts/utils/Strings.sol\":908:1058  while (value != 0) {... */\n      jump(tag_61)\n    tag_62:\n        /* \"@openzeppelin/contracts/utils/Strings.sol\":1081:1087  buffer */\n      dup1\n        /* \"@openzeppelin/contracts/utils/Strings.sol\":1067:1088  return string(buffer) */\n      swap4\n      pop\n      pop\n      pop\n      pop\n        /* \"@openzeppelin/contracts/utils/Strings.sol\":392:1095  function toString(uint256 value) internal pure returns (string memory) {... */\n    tag_49:\n      swap2\n      swap1\n      pop\n      jump\t// out\n        /* \"contracts/oddEveAjay.sol\":3801:4017  function concatenate(string memory a,string memory b) private pure returns (string memory)  //this function used to concatenate two strings... */\n    tag_37:\n        /* \"contracts/oddEveAjay.sol\":3877:3890  string memory */\n      0x60\n        /* \"contracts/oddEveAjay.sol\":3990:3991  a */\n      dup3\n        /* \"contracts/oddEveAjay.sol\":4005:4006  b */\n      dup3\n        /* \"contracts/oddEveAjay.sol\":3971:4008  bytes.concat(bytes(a), \" \", bytes(b)) */\n      add(0x20, mload(0x40))\n      tag_72\n      swap3\n      swap2\n      swap1\n      tag_73\n      jump\t// in\n    tag_72:\n      mload(0x40)\n      0x20\n      dup2\n      dup4\n      sub\n      sub\n      dup2\n      mstore\n      swap1\n      0x40\n      mstore\n        /* \"contracts/oddEveAjay.sol\":3957:4009  return string(bytes.concat(bytes(a), \" \", bytes(b))) */\n      swap1\n      pop\n        /* \"contracts/oddEveAjay.sol\":3801:4017  function concatenate(string memory a,string memory b) private pure returns (string memory)  //this function used to concatenate two strings... */\n      swap3\n      swap2\n      pop\n      pop\n      jump\t// out\n        /* \"#utility.yul\":7:97   */\n    tag_74:\n        /* \"#utility.yul\":41:48   */\n      0x00\n        /* \"#utility.yul\":84:89   */\n      dup2\n        /* \"#utility.yul\":77:90   */\n      iszero\n        /* \"#utility.yul\":70:91   */\n      iszero\n        /* \"#utility.yul\":59:91   */\n      swap1\n      pop\n        /* \"#utility.yul\":7:97   */\n      swap2\n      swap1\n      pop\n      jump\t// out\n        /* \"#utility.yul\":103:212   */\n    tag_75:\n        /* \"#utility.yul\":184:205   */\n      tag_99\n        /* \"#utility.yul\":199:204   */\n      dup2\n        /* \"#utility.yul\":184:205   */\n      tag_74\n      jump\t// in\n    tag_99:\n        /* \"#utility.yul\":179:182   */\n      dup3\n        /* \"#utility.yul\":172:206   */\n      mstore\n        /* \"#utility.yul\":103:212   */\n      pop\n      pop\n      jump\t// out\n        /* \"#utility.yul\":218:428   */\n    tag_10:\n        /* \"#utility.yul\":305:309   */\n      0x00\n        /* \"#utility.yul\":343:345   */\n      0x20\n        /* \"#utility.yul\":332:341   */\n      dup3\n        /* \"#utility.yul\":328:346   */\n      add\n        /* \"#utility.yul\":320:346   */\n      swap1\n      pop\n        /* \"#utility.yul\":356:421   */\n      tag_101\n        /* \"#utility.yul\":418:419   */\n      0x00\n        /* \"#utility.yul\":407:416   */\n      dup4\n        /* \"#utility.yul\":403:420   */\n      add\n        /* \"#utility.yul\":394:400   */\n      dup5\n        /* \"#utility.yul\":356:421   */\n      tag_75\n      jump\t// in\n    tag_101:\n        /* \"#utility.yul\":218:428   */\n      swap3\n      swap2\n      pop\n      pop\n      jump\t// out\n        /* \"#utility.yul\":515:632   */\n    tag_77:\n        /* \"#utility.yul\":624:625   */\n      0x00\n        /* \"#utility.yul\":621:622   */\n      dup1\n        /* \"#utility.yul\":614:626   */\n      revert\n        /* \"#utility.yul\":761:838   */\n    tag_79:\n        /* \"#utility.yul\":798:805   */\n      0x00\n        /* \"#utility.yul\":827:832   */\n      dup2\n        /* \"#utility.yul\":816:832   */\n      swap1\n      pop\n        /* \"#utility.yul\":761:838   */\n      swap2\n      swap1\n      pop\n      jump\t// out\n        /* \"#utility.yul\":844:966   */\n    tag_80:\n        /* \"#utility.yul\":917:941   */\n      tag_107\n        /* \"#utility.yul\":935:940   */\n      dup2\n        /* \"#utility.yul\":917:941   */\n      tag_79\n      jump\t// in\n    tag_107:\n        /* \"#utility.yul\":910:915   */\n      dup2\n        /* \"#utility.yul\":907:942   */\n      eq\n        /* \"#utility.yul\":897:960   */\n      tag_108\n      jumpi\n        /* \"#utility.yul\":956:957   */\n      0x00\n        /* \"#utility.yul\":953:954   */\n      dup1\n        /* \"#utility.yul\":946:958   */\n      revert\n        /* \"#utility.yul\":897:960   */\n    tag_108:\n        /* \"#utility.yul\":844:966   */\n      pop\n      jump\t// out\n        /* \"#utility.yul\":972:1111   */\n    tag_81:\n        /* \"#utility.yul\":1018:1023   */\n      0x00\n        /* \"#utility.yul\":1056:1062   */\n      dup2\n        /* \"#utility.yul\":1043:1063   */\n      calldataload\n        /* \"#utility.yul\":1034:1063   */\n      swap1\n      pop\n        /* \"#utility.yul\":1072:1105   */\n      tag_110\n        /* \"#utility.yul\":1099:1104   */\n      dup2\n        /* \"#utility.yul\":1072:1105   */\n      tag_80\n      jump\t// in\n    tag_110:\n        /* \"#utility.yul\":972:1111   */\n      swap3\n      swap2\n      pop\n      pop\n      jump\t// out\n        /* \"#utility.yul\":1117:1446   */\n    tag_13:\n        /* \"#utility.yul\":1176:1182   */\n      0x00\n        /* \"#utility.yul\":1225:1227   */\n      0x20\n        /* \"#utility.yul\":1213:1222   */\n      dup3\n        /* \"#utility.yul\":1204:1211   */\n      dup5\n        /* \"#utility.yul\":1200:1223   */\n      sub\n        /* \"#utility.yul\":1196:1228   */\n      slt\n        /* \"#utility.yul\":1193:1312   */\n      iszero\n      tag_112\n      jumpi\n        /* \"#utility.yul\":1231:1310   */\n      tag_113\n      tag_77\n      jump\t// in\n    tag_113:\n        /* \"#utility.yul\":1193:1312   */\n    tag_112:\n        /* \"#utility.yul\":1351:1352   */\n      0x00\n        /* \"#utility.yul\":1376:1429   */\n      tag_114\n        /* \"#utility.yul\":1421:1428   */\n      dup5\n        /* \"#utility.yul\":1412:1418   */\n      dup3\n        /* \"#utility.yul\":1401:1410   */\n      dup6\n        /* \"#utility.yul\":1397:1419   */\n      add\n        /* \"#utility.yul\":1376:1429   */\n      tag_81\n      jump\t// in\n    tag_114:\n        /* \"#utility.yul\":1366:1429   */\n      swap2\n      pop\n        /* \"#utility.yul\":1322:1439   */\n      pop\n        /* \"#utility.yul\":1117:1446   */\n      swap3\n      swap2\n      pop\n      pop\n      jump\t// out\n        /* \"#utility.yul\":1452:1551   */\n    tag_82:\n        /* \"#utility.yul\":1504:1510   */\n      0x00\n        /* \"#utility.yul\":1538:1543   */\n      dup2\n        /* \"#utility.yul\":1532:1544   */\n      mload\n        /* \"#utility.yul\":1522:1544   */\n      swap1\n      pop\n        /* \"#utility.yul\":1452:1551   */\n      swap2\n      swap1\n      pop\n      jump\t// out\n        /* \"#utility.yul\":1557:1726   */\n    tag_83:\n        /* \"#utility.yul\":1641:1652   */\n      0x00\n        /* \"#utility.yul\":1675:1681   */\n      dup3\n        /* \"#utility.yul\":1670:1673   */\n      dup3\n        /* \"#utility.yul\":1663:1682   */\n      mstore\n        /* \"#utility.yul\":1715:1719   */\n      0x20\n        /* \"#utility.yul\":1710:1713   */\n      dup3\n        /* \"#utility.yul\":1706:1720   */\n      add\n        /* \"#utility.yul\":1691:1720   */\n      swap1\n      pop\n        /* \"#utility.yul\":1557:1726   */\n      swap3\n      swap2\n      pop\n      pop\n      jump\t// out\n        /* \"#utility.yul\":1732:2039   */\n    tag_84:\n        /* \"#utility.yul\":1800:1801   */\n      0x00\n        /* \"#utility.yul\":1810:1923   */\n    tag_118:\n        /* \"#utility.yul\":1824:1830   */\n      dup4\n        /* \"#utility.yul\":1821:1822   */\n      dup2\n        /* \"#utility.yul\":1818:1831   */\n      lt\n        /* \"#utility.yul\":1810:1923   */\n      iszero\n      tag_120\n      jumpi\n        /* \"#utility.yul\":1909:1910   */\n      dup1\n        /* \"#utility.yul\":1904:1907   */\n      dup3\n        /* \"#utility.yul\":1900:1911   */\n      add\n        /* \"#utility.yul\":1894:1912   */\n      mload\n        /* \"#utility.yul\":1890:1891   */\n      dup2\n        /* \"#utility.yul\":1885:1888   */\n      dup5\n        /* \"#utility.yul\":1881:1892   */\n      add\n        /* \"#utility.yul\":1874:1913   */\n      mstore\n        /* \"#utility.yul\":1846:1848   */\n      0x20\n        /* \"#utility.yul\":1843:1844   */\n      dup2\n        /* \"#utility.yul\":1839:1849   */\n      add\n        /* \"#utility.yul\":1834:1849   */\n      swap1\n      pop\n        /* \"#utility.yul\":1810:1923   */\n      jump(tag_118)\n    tag_120:\n        /* \"#utility.yul\":1941:1947   */\n      dup4\n        /* \"#utility.yul\":1938:1939   */\n      dup2\n        /* \"#utility.yul\":1935:1948   */\n      gt\n        /* \"#utility.yul\":1932:2033   */\n      iszero\n      tag_121\n      jumpi\n        /* \"#utility.yul\":2021:2022   */\n      0x00\n        /* \"#utility.yul\":2012:2018   */\n      dup5\n        /* \"#utility.yul\":2007:2010   */\n      dup5\n        /* \"#utility.yul\":2003:2019   */\n      add\n        /* \"#utility.yul\":1996:2023   */\n      mstore\n        /* \"#utility.yul\":1932:2033   */\n    tag_121:\n        /* \"#utility.yul\":1781:2039   */\n      pop\n        /* \"#utility.yul\":1732:2039   */\n      pop\n      pop\n      pop\n      jump\t// out\n        /* \"#utility.yul\":2045:2147   */\n    tag_85:\n        /* \"#utility.yul\":2086:2092   */\n      0x00\n        /* \"#utility.yul\":2137:2139   */\n      0x1f\n        /* \"#utility.yul\":2133:2140   */\n      not\n        /* \"#utility.yul\":2128:2130   */\n      0x1f\n        /* \"#utility.yul\":2121:2126   */\n      dup4\n        /* \"#utility.yul\":2117:2131   */\n      add\n        /* \"#utility.yul\":2113:2141   */\n      and\n        /* \"#utility.yul\":2103:2141   */\n      swap1\n      pop\n        /* \"#utility.yul\":2045:2147   */\n      swap2\n      swap1\n      pop\n      jump\t// out\n        /* \"#utility.yul\":2153:2517   */\n    tag_86:\n        /* \"#utility.yul\":2241:2244   */\n      0x00\n        /* \"#utility.yul\":2269:2308   */\n      tag_124\n        /* \"#utility.yul\":2302:2307   */\n      dup3\n        /* \"#utility.yul\":2269:2308   */\n      tag_82\n      jump\t// in\n    tag_124:\n        /* \"#utility.yul\":2324:2395   */\n      tag_125\n        /* \"#utility.yul\":2388:2394   */\n      dup2\n        /* \"#utility.yul\":2383:2386   */\n      dup6\n        /* \"#utility.yul\":2324:2395   */\n      tag_83\n      jump\t// in\n    tag_125:\n        /* \"#utility.yul\":2317:2395   */\n      swap4\n      pop\n        /* \"#utility.yul\":2404:2456   */\n      tag_126\n        /* \"#utility.yul\":2449:2455   */\n      dup2\n        /* \"#utility.yul\":2444:2447   */\n      dup6\n        /* \"#utility.yul\":2437:2441   */\n      0x20\n        /* \"#utility.yul\":2430:2435   */\n      dup7\n        /* \"#utility.yul\":2426:2442   */\n      add\n        /* \"#utility.yul\":2404:2456   */\n      tag_84\n      jump\t// in\n    tag_126:\n        /* \"#utility.yul\":2481:2510   */\n      tag_127\n        /* \"#utility.yul\":2503:2509   */\n      dup2\n        /* \"#utility.yul\":2481:2510   */\n      tag_85\n      jump\t// in\n    tag_127:\n        /* \"#utility.yul\":2476:2479   */\n      dup5\n        /* \"#utility.yul\":2472:2511   */\n      add\n        /* \"#utility.yul\":2465:2511   */\n      swap2\n      pop\n        /* \"#utility.yul\":2245:2517   */\n      pop\n        /* \"#utility.yul\":2153:2517   */\n      swap3\n      swap2\n      pop\n      pop\n      jump\t// out\n        /* \"#utility.yul\":2523:2836   */\n    tag_16:\n        /* \"#utility.yul\":2636:2640   */\n      0x00\n        /* \"#utility.yul\":2674:2676   */\n      0x20\n        /* \"#utility.yul\":2663:2672   */\n      dup3\n        /* \"#utility.yul\":2659:2677   */\n      add\n        /* \"#utility.yul\":2651:2677   */\n      swap1\n      pop\n        /* \"#utility.yul\":2723:2732   */\n      dup2\n        /* \"#utility.yul\":2717:2721   */\n      dup2\n        /* \"#utility.yul\":2713:2733   */\n      sub\n        /* \"#utility.yul\":2709:2710   */\n      0x00\n        /* \"#utility.yul\":2698:2707   */\n      dup4\n        /* \"#utility.yul\":2694:2711   */\n      add\n        /* \"#utility.yul\":2687:2734   */\n      mstore\n        /* \"#utility.yul\":2751:2829   */\n      tag_129\n        /* \"#utility.yul\":2824:2828   */\n      dup2\n        /* \"#utility.yul\":2815:2821   */\n      dup5\n        /* \"#utility.yul\":2751:2829   */\n      tag_86\n      jump\t// in\n    tag_129:\n        /* \"#utility.yul\":2743:2829   */\n      swap1\n      pop\n        /* \"#utility.yul\":2523:2836   */\n      swap3\n      swap2\n      pop\n      pop\n      jump\t// out\n        /* \"#utility.yul\":2842:2960   */\n    tag_87:\n        /* \"#utility.yul\":2929:2953   */\n      tag_131\n        /* \"#utility.yul\":2947:2952   */\n      dup2\n        /* \"#utility.yul\":2929:2953   */\n      tag_79\n      jump\t// in\n    tag_131:\n        /* \"#utility.yul\":2924:2927   */\n      dup3\n        /* \"#utility.yul\":2917:2954   */\n      mstore\n        /* \"#utility.yul\":2842:2960   */\n      pop\n      pop\n      jump\t// out\n        /* \"#utility.yul\":2966:3188   */\n    tag_23:\n        /* \"#utility.yul\":3059:3063   */\n      0x00\n        /* \"#utility.yul\":3097:3099   */\n      0x20\n        /* \"#utility.yul\":3086:3095   */\n      dup3\n        /* \"#utility.yul\":3082:3100   */\n      add\n        /* \"#utility.yul\":3074:3100   */\n      swap1\n      pop\n        /* \"#utility.yul\":3110:3181   */\n      tag_133\n        /* \"#utility.yul\":3178:3179   */\n      0x00\n        /* \"#utility.yul\":3167:3176   */\n      dup4\n        /* \"#utility.yul\":3163:3180   */\n      add\n        /* \"#utility.yul\":3154:3160   */\n      dup5\n        /* \"#utility.yul\":3110:3181   */\n      tag_87\n      jump\t// in\n    tag_133:\n        /* \"#utility.yul\":2966:3188   */\n      swap3\n      swap2\n      pop\n      pop\n      jump\t// out\n        /* \"#utility.yul\":3194:3374   */\n    tag_88:\n        /* \"#utility.yul\":3242:3319   */\n      0x4e487b7100000000000000000000000000000000000000000000000000000000\n        /* \"#utility.yul\":3239:3240   */\n      0x00\n        /* \"#utility.yul\":3232:3320   */\n      mstore\n        /* \"#utility.yul\":3339:3343   */\n      0x11\n        /* \"#utility.yul\":3336:3337   */\n      0x04\n        /* \"#utility.yul\":3329:3344   */\n      mstore\n        /* \"#utility.yul\":3363:3367   */\n      0x24\n        /* \"#utility.yul\":3360:3361   */\n      0x00\n        /* \"#utility.yul\":3353:3368   */\n      revert\n        /* \"#utility.yul\":3380:3685   */\n    tag_40:\n        /* \"#utility.yul\":3420:3423   */\n      0x00\n        /* \"#utility.yul\":3439:3459   */\n      tag_136\n        /* \"#utility.yul\":3457:3458   */\n      dup3\n        /* \"#utility.yul\":3439:3459   */\n      tag_79\n      jump\t// in\n    tag_136:\n        /* \"#utility.yul\":3434:3459   */\n      swap2\n      pop\n        /* \"#utility.yul\":3473:3493   */\n      tag_137\n        /* \"#utility.yul\":3491:3492   */\n      dup4\n        /* \"#utility.yul\":3473:3493   */\n      tag_79\n      jump\t// in\n    tag_137:\n        /* \"#utility.yul\":3468:3493   */\n      swap3\n      pop\n        /* \"#utility.yul\":3627:3628   */\n      dup3\n        /* \"#utility.yul\":3559:3625   */\n      0xffffffffffffffffffffffffffffffffffffffffffffffffffffffffffffffff\n        /* \"#utility.yul\":3555:3629   */\n      sub\n        /* \"#utility.yul\":3552:3553   */\n      dup3\n        /* \"#utility.yul\":3549:3630   */\n      gt\n        /* \"#utility.yul\":3546:3653   */\n      iszero\n      tag_138\n      jumpi\n        /* \"#utility.yul\":3633:3651   */\n      tag_139\n      tag_88\n      jump\t// in\n    tag_139:\n        /* \"#utility.yul\":3546:3653   */\n    tag_138:\n        /* \"#utility.yul\":3677:3678   */\n      dup3\n        /* \"#utility.yul\":3674:3675   */\n      dup3\n        /* \"#utility.yul\":3670:3679   */\n      add\n        /* \"#utility.yul\":3663:3679   */\n      swap1\n      pop\n        /* \"#utility.yul\":3380:3685   */\n      swap3\n      swap2\n      pop\n      pop\n      jump\t// out\n        /* \"#utility.yul\":3691:3770   */\n    tag_89:\n        /* \"#utility.yul\":3730:3737   */\n      0x00\n        /* \"#utility.yul\":3759:3764   */\n      dup2\n        /* \"#utility.yul\":3748:3764   */\n      swap1\n      pop\n        /* \"#utility.yul\":3691:3770   */\n      swap2\n      swap1\n      pop\n      jump\t// out\n        /* \"#utility.yul\":3776:3933   */\n    tag_90:\n        /* \"#utility.yul\":3881:3926   */\n      tag_142\n        /* \"#utility.yul\":3901:3925   */\n      tag_143\n        /* \"#utility.yul\":3919:3924   */\n      dup3\n        /* \"#utility.yul\":3901:3925   */\n      tag_79\n      jump\t// in\n    tag_143:\n        /* \"#utility.yul\":3881:3926   */\n      tag_89\n      jump\t// in\n    tag_142:\n        /* \"#utility.yul\":3876:3879   */\n      dup3\n        /* \"#utility.yul\":3869:3927   */\n      mstore\n        /* \"#utility.yul\":3776:3933   */\n      pop\n      pop\n      jump\t// out\n        /* \"#utility.yul\":3939:4477   */\n    tag_46:\n        /* \"#utility.yul\":4107:4110   */\n      0x00\n        /* \"#utility.yul\":4122:4197   */\n      tag_145\n        /* \"#utility.yul\":4193:4196   */\n      dup3\n        /* \"#utility.yul\":4184:4190   */\n      dup7\n        /* \"#utility.yul\":4122:4197   */\n      tag_90\n      jump\t// in\n    tag_145:\n        /* \"#utility.yul\":4222:4224   */\n      0x20\n        /* \"#utility.yul\":4217:4220   */\n      dup3\n        /* \"#utility.yul\":4213:4225   */\n      add\n        /* \"#utility.yul\":4206:4225   */\n      swap2\n      pop\n        /* \"#utility.yul\":4235:4310   */\n      tag_146\n        /* \"#utility.yul\":4306:4309   */\n      dup3\n        /* \"#utility.yul\":4297:4303   */\n      dup6\n        /* \"#utility.yul\":4235:4310   */\n      tag_90\n      jump\t// in\n    tag_146:\n        /* \"#utility.yul\":4335:4337   */\n      0x20\n        /* \"#utility.yul\":4330:4333   */\n      dup3\n        /* \"#utility.yul\":4326:4338   */\n      add\n        /* \"#utility.yul\":4319:4338   */\n      swap2\n      pop\n        /* \"#utility.yul\":4348:4423   */\n      tag_147\n        /* \"#utility.yul\":4419:4422   */\n      dup3\n        /* \"#utility.yul\":4410:4416   */\n      dup5\n        /* \"#utility.yul\":4348:4423   */\n      tag_90\n      jump\t// in\n    tag_147:\n        /* \"#utility.yul\":4448:4450   */\n      0x20\n        /* \"#utility.yul\":4443:4446   */\n      dup3\n        /* \"#utility.yul\":4439:4451   */\n      add\n        /* \"#utility.yul\":4432:4451   */\n      swap2\n      pop\n        /* \"#utility.yul\":4468:4471   */\n      dup2\n        /* \"#utility.yul\":4461:4471   */\n      swap1\n      pop\n        /* \"#utility.yul\":3939:4477   */\n      swap5\n      swap4\n      pop\n      pop\n      pop\n      pop\n      jump\t// out\n        /* \"#utility.yul\":4483:4663   */\n    tag_91:\n        /* \"#utility.yul\":4531:4608   */\n      0x4e487b7100000000000000000000000000000000000000000000000000000000\n        /* \"#utility.yul\":4528:4529   */\n      0x00\n        /* \"#utility.yul\":4521:4609   */\n      mstore\n        /* \"#utility.yul\":4628:4632   */\n      0x12\n        /* \"#utility.yul\":4625:4626   */\n      0x04\n        /* \"#utility.yul\":4618:4633   */\n      mstore\n        /* \"#utility.yul\":4652:4656   */\n      0x24\n        /* \"#utility.yul\":4649:4650   */\n      0x00\n        /* \"#utility.yul\":4642:4657   */\n      revert\n        /* \"#utility.yul\":4669:4845   */\n    tag_48:\n        /* \"#utility.yul\":4701:4702   */\n      0x00\n        /* \"#utility.yul\":4718:4738   */\n      tag_150\n        /* \"#utility.yul\":4736:4737   */\n      dup3\n        /* \"#utility.yul\":4718:4738   */\n      tag_79\n      jump\t// in\n    tag_150:\n        /* \"#utility.yul\":4713:4738   */\n      swap2\n      pop\n        /* \"#utility.yul\":4752:4772   */\n      tag_151\n        /* \"#utility.yul\":4770:4771   */\n      dup4\n        /* \"#utility.yul\":4752:4772   */\n      tag_79\n      jump\t// in\n    tag_151:\n        /* \"#utility.yul\":4747:4772   */\n      swap3\n      pop\n        /* \"#utility.yul\":4791:4792   */\n      dup3\n        /* \"#utility.yul\":4781:4816   */\n      tag_152\n      jumpi\n        /* \"#utility.yul\":4796:4814   */\n      tag_153\n      tag_91\n      jump\t// in\n    tag_153:\n        /* \"#utility.yul\":4781:4816   */\n    tag_152:\n        /* \"#utility.yul\":4837:4838   */\n      dup3\n        /* \"#utility.yul\":4834:4835   */\n      dup3\n        /* \"#utility.yul\":4830:4839   */\n      mod\n        /* \"#utility.yul\":4825:4839   */\n      swap1\n      pop\n        /* \"#utility.yul\":4669:4845   */\n      swap3\n      swap2\n      pop\n      pop\n      jump\t// out\n        /* \"#utility.yul\":4851:5084   */\n    tag_54:\n        /* \"#utility.yul\":4890:4893   */\n      0x00\n        /* \"#utility.yul\":4913:4937   */\n      tag_155\n        /* \"#utility.yul\":4931:4936   */\n      dup3\n        /* \"#utility.yul\":4913:4937   */\n      tag_79\n      jump\t// in\n    tag_155:\n        /* \"#utility.yul\":4904:4937   */\n      swap2\n      pop\n        /* \"#utility.yul\":4959:5025   */\n      0xffffffffffffffffffffffffffffffffffffffffffffffffffffffffffffffff\n        /* \"#utility.yul\":4952:4957   */\n      dup3\n        /* \"#utility.yul\":4949:5026   */\n      sub\n        /* \"#utility.yul\":4946:5049   */\n      tag_156\n      jumpi\n        /* \"#utility.yul\":5029:5047   */\n      tag_157\n      tag_88\n      jump\t// in\n    tag_157:\n        /* \"#utility.yul\":4946:5049   */\n    tag_156:\n        /* \"#utility.yul\":5076:5077   */\n      0x01\n        /* \"#utility.yul\":5069:5074   */\n      dup3\n        /* \"#utility.yul\":5065:5078   */\n      add\n        /* \"#utility.yul\":5058:5078   */\n      swap1\n      pop\n        /* \"#utility.yul\":4851:5084   */\n      swap2\n      swap1\n      pop\n      jump\t// out\n        /* \"#utility.yul\":5090:5275   */\n    tag_56:\n        /* \"#utility.yul\":5130:5131   */\n      0x00\n        /* \"#utility.yul\":5147:5167   */\n      tag_159\n        /* \"#utility.yul\":5165:5166   */\n      dup3\n        /* \"#utility.yul\":5147:5167   */\n      tag_79\n      jump\t// in\n    tag_159:\n        /* \"#utility.yul\":5142:5167   */\n      swap2\n      pop\n        /* \"#utility.yul\":5181:5201   */\n      tag_160\n        /* \"#utility.yul\":5199:5200   */\n      dup4\n        /* \"#utility.yul\":5181:5201   */\n      tag_79\n      jump\t// in\n    tag_160:\n        /* \"#utility.yul\":5176:5201   */\n      swap3\n      pop\n        /* \"#utility.yul\":5220:5221   */\n      dup3\n        /* \"#utility.yul\":5210:5245   */\n      tag_161\n      jumpi\n        /* \"#utility.yul\":5225:5243   */\n      tag_162\n      tag_91\n      jump\t// in\n    tag_162:\n        /* \"#utility.yul\":5210:5245   */\n    tag_161:\n        /* \"#utility.yul\":5267:5268   */\n      dup3\n        /* \"#utility.yul\":5264:5265   */\n      dup3\n        /* \"#utility.yul\":5260:5269   */\n      div\n        /* \"#utility.yul\":5255:5269   */\n      swap1\n      pop\n        /* \"#utility.yul\":5090:5275   */\n      swap3\n      swap2\n      pop\n      pop\n      jump\t// out\n        /* \"#utility.yul\":5281:5461   */\n    tag_59:\n        /* \"#utility.yul\":5329:5406   */\n      0x4e487b7100000000000000000000000000000000000000000000000000000000\n        /* \"#utility.yul\":5326:5327   */\n      0x00\n        /* \"#utility.yul\":5319:5407   */\n      mstore\n        /* \"#utility.yul\":5426:5430   */\n      0x41\n        /* \"#utility.yul\":5423:5424   */\n      0x04\n        /* \"#utility.yul\":5416:5431   */\n      mstore\n        /* \"#utility.yul\":5450:5454   */\n      0x24\n        /* \"#utility.yul\":5447:5448   */\n      0x00\n        /* \"#utility.yul\":5440:5455   */\n      revert\n        /* \"#utility.yul\":5467:5658   */\n    tag_64:\n        /* \"#utility.yul\":5507:5511   */\n      0x00\n        /* \"#utility.yul\":5527:5547   */\n      tag_165\n        /* \"#utility.yul\":5545:5546   */\n      dup3\n        /* \"#utility.yul\":5527:5547   */\n      tag_79\n      jump\t// in\n    tag_165:\n        /* \"#utility.yul\":5522:5547   */\n      swap2\n      pop\n        /* \"#utility.yul\":5561:5581   */\n      tag_166\n        /* \"#utility.yul\":5579:5580   */\n      dup4\n        /* \"#utility.yul\":5561:5581   */\n      tag_79\n      jump\t// in\n    tag_166:\n        /* \"#utility.yul\":5556:5581   */\n      swap3\n      pop\n        /* \"#utility.yul\":5600:5601   */\n      dup3\n        /* \"#utility.yul\":5597:5598   */\n      dup3\n        /* \"#utility.yul\":5594:5602   */\n      lt\n        /* \"#utility.yul\":5591:5625   */\n      iszero\n      tag_167\n      jumpi\n        /* \"#utility.yul\":5605:5623   */\n      tag_168\n      tag_88\n      jump\t// in\n    tag_168:\n        /* \"#utility.yul\":5591:5625   */\n    tag_167:\n        /* \"#utility.yul\":5650:5651   */\n      dup3\n        /* \"#utility.yul\":5647:5648   */\n      dup3\n        /* \"#utility.yul\":5643:5652   */\n      sub\n        /* \"#utility.yul\":5635:5652   */\n      swap1\n      pop\n        /* \"#utility.yul\":5467:5658   */\n      swap3\n      swap2\n      pop\n      pop\n      jump\t// out\n        /* \"#utility.yul\":5664:5844   */\n    tag_69:\n        /* \"#utility.yul\":5712:5789   */\n      0x4e487b7100000000000000000000000000000000000000000000000000000000\n        /* \"#utility.yul\":5709:5710   */\n      0x00\n        /* \"#utility.yul\":5702:5790   */\n      mstore\n        /* \"#utility.yul\":5809:5813   */\n      0x32\n        /* \"#utility.yul\":5806:5807   */\n      0x04\n        /* \"#utility.yul\":5799:5814   */\n      mstore\n        /* \"#utility.yul\":5833:5837   */\n      0x24\n        /* \"#utility.yul\":5830:5831   */\n      0x00\n        /* \"#utility.yul\":5823:5838   */\n      revert\n        /* \"#utility.yul\":5850:5948   */\n    tag_92:\n        /* \"#utility.yul\":5901:5907   */\n      0x00\n        /* \"#utility.yul\":5935:5940   */\n      dup2\n        /* \"#utility.yul\":5929:5941   */\n      mload\n        /* \"#utility.yul\":5919:5941   */\n      swap1\n      pop\n        /* \"#utility.yul\":5850:5948   */\n      swap2\n      swap1\n      pop\n      jump\t// out\n        /* \"#utility.yul\":5954:6101   */\n    tag_93:\n        /* \"#utility.yul\":6055:6066   */\n      0x00\n        /* \"#utility.yul\":6092:6095   */\n      dup2\n        /* \"#utility.yul\":6077:6095   */\n      swap1\n      pop\n        /* \"#utility.yul\":5954:6101   */\n      swap3\n      swap2\n      pop\n      pop\n      jump\t// out\n        /* \"#utility.yul\":6107:6480   */\n    tag_94:\n        /* \"#utility.yul\":6211:6214   */\n      0x00\n        /* \"#utility.yul\":6239:6277   */\n      tag_173\n        /* \"#utility.yul\":6271:6276   */\n      dup3\n        /* \"#utility.yul\":6239:6277   */\n      tag_92\n      jump\t// in\n    tag_173:\n        /* \"#utility.yul\":6293:6381   */\n      tag_174\n        /* \"#utility.yul\":6374:6380   */\n      dup2\n        /* \"#utility.yul\":6369:6372   */\n      dup6\n        /* \"#utility.yul\":6293:6381   */\n      tag_93\n      jump\t// in\n    tag_174:\n        /* \"#utility.yul\":6286:6381   */\n      swap4\n      pop\n        /* \"#utility.yul\":6390:6442   */\n      tag_175\n        /* \"#utility.yul\":6435:6441   */\n      dup2\n        /* \"#utility.yul\":6430:6433   */\n      dup6\n        /* \"#utility.yul\":6423:6427   */\n      0x20\n        /* \"#utility.yul\":6416:6421   */\n      dup7\n        /* \"#utility.yul\":6412:6428   */\n      add\n        /* \"#utility.yul\":6390:6442   */\n      tag_84\n      jump\t// in\n    tag_175:\n        /* \"#utility.yul\":6467:6473   */\n      dup1\n        /* \"#utility.yul\":6462:6465   */\n      dup5\n        /* \"#utility.yul\":6458:6474   */\n      add\n        /* \"#utility.yul\":6451:6474   */\n      swap2\n      pop\n        /* \"#utility.yul\":6215:6480   */\n      pop\n        /* \"#utility.yul\":6107:6480   */\n      swap3\n      swap2\n      pop\n      pop\n      jump\t// out\n        /* \"#utility.yul\":6486:6664   */\n    tag_95:\n        /* \"#utility.yul\":6654:6657   */\n      0x2000000000000000000000000000000000000000000000000000000000000000\n        /* \"#utility.yul\":6649:6652   */\n      dup2\n        /* \"#utility.yul\":6642:6658   */\n      mstore\n        /* \"#utility.yul\":6486:6664   */\n      pop\n      jump\t// out\n        /* \"#utility.yul\":6670:7361   */\n    tag_73:\n        /* \"#utility.yul\":6936:6939   */\n      0x00\n        /* \"#utility.yul\":6958:7051   */\n      tag_178\n        /* \"#utility.yul\":7047:7050   */\n      dup3\n        /* \"#utility.yul\":7038:7044   */\n      dup6\n        /* \"#utility.yul\":6958:7051   */\n      tag_94\n      jump\t// in\n    tag_178:\n        /* \"#utility.yul\":6951:7051   */\n      swap2\n      pop\n        /* \"#utility.yul\":7061:7198   */\n      tag_179\n        /* \"#utility.yul\":7194:7197   */\n      dup3\n        /* \"#utility.yul\":7061:7198   */\n      tag_95\n      jump\t// in\n    tag_179:\n        /* \"#utility.yul\":7223:7224   */\n      0x01\n        /* \"#utility.yul\":7218:7221   */\n      dup3\n        /* \"#utility.yul\":7214:7225   */\n      add\n        /* \"#utility.yul\":7207:7225   */\n      swap2\n      pop\n        /* \"#utility.yul\":7242:7335   */\n      tag_180\n        /* \"#utility.yul\":7331:7334   */\n      dup3\n        /* \"#utility.yul\":7322:7328   */\n      dup5\n        /* \"#utility.yul\":7242:7335   */\n      tag_94\n      jump\t// in\n    tag_180:\n        /* \"#utility.yul\":7235:7335   */\n      swap2\n      pop\n        /* \"#utility.yul\":7352:7355   */\n      dup2\n        /* \"#utility.yul\":7345:7355   */\n      swap1\n      pop\n        /* \"#utility.yul\":6670:7361   */\n      swap4\n      swap3\n      pop\n      pop\n      pop\n      jump\t// out\n\n    auxdata: 0xa2646970667358221220619f98e05e927e8ae9cbe34f9950f1adfba8c58377182a8d91dfe4bf89d6599b64736f6c634300080d0033\n}\n",
				"bytecode": {
					"linkReferences": {},
					"object": "608060405234801561001057600080fd5b50600080819055506000600160006101000a81548160ff02191690831515021790555060006002819055506109778061004a6000396000f3fe608060405234801561001057600080fd5b506004361061004c5760003560e01c8063b2a1449b14610051578063d74935b41461006f578063d826f88f1461009f578063efedc669146100bd575b600080fd5b6100596100db565b60405161006691906104eb565b60405180910390f35b61008960048036038101906100849190610541565b6100ee565b6040516100969190610607565b60405180910390f35b6100a7610288565b6040516100b49190610607565b60405180910390f35b6100c56102e7565b6040516100d29190610638565b60405180910390f35b600160009054906101000a900460ff1681565b606060011515600160009054906101000a900460ff16151503610148576040518060400160405280601681526020017f426174736d616e4f75742c506c656173655265736574000000000000000000008152509050610283565b60018210806101575750600682115b15610199576040518060400160405280601081526020017f456e74657256616c69644e756d626572000000000000000000000000000000008152509050610283565b60006101a36102ed565b9050600081036101b257600690505b8281036102245760018060006101000a81548160ff02191690831515021790555061021c6101e1600054610344565b6040518060400160405280600381526020017f4f555400000000000000000000000000000000000000000000000000000000008152506104a4565b915050610283565b806000546102329190610682565b60008190555061027f61024482610344565b6040518060400160405280600481526020017f52554e53000000000000000000000000000000000000000000000000000000008152506104a4565b9150505b919050565b6060600080819055506000600160006101000a81548160ff0219169083151502179055506040518060400160405280601281526020017f5245534554205375636365737366756c6c790000000000000000000000000000815250905090565b60005481565b600060026000815480929190600101919050555060064260005460025460405160200161031c939291906106f9565b6040516020818303038152906040528051906020012060001c61033f9190610765565b905090565b60606000820361038b576040518060400160405280600181526020017f3000000000000000000000000000000000000000000000000000000000000000815250905061049f565b600082905060005b600082146103bd5780806103a690610796565b915050600a826103b691906107de565b9150610393565b60008167ffffffffffffffff8111156103d9576103d861080f565b5b6040519080825280601f01601f19166020018201604052801561040b5781602001600182028036833780820191505090505b5090505b6000851461049857600182610424919061083e565b9150600a856104339190610765565b603061043f9190610682565b60f81b81838151811061045557610454610872565b5b60200101907effffffffffffffffffffffffffffffffffffffffffffffffffffffffffffff1916908160001a905350600a8561049191906107de565b945061040f565b8093505050505b919050565b606082826040516020016104b992919061090e565b604051602081830303815290604052905092915050565b60008115159050919050565b6104e5816104d0565b82525050565b600060208201905061050060008301846104dc565b92915050565b600080fd5b6000819050919050565b61051e8161050b565b811461052957600080fd5b50565b60008135905061053b81610515565b92915050565b60006020828403121561055757610556610506565b5b60006105658482850161052c565b91505092915050565b600081519050919050565b600082825260208201905092915050565b60005b838110156105a857808201518184015260208101905061058d565b838111156105b7576000848401525b50505050565b6000601f19601f8301169050919050565b60006105d98261056e565b6105e38185610579565b93506105f381856020860161058a565b6105fc816105bd565b840191505092915050565b6000602082019050818103600083015261062181846105ce565b905092915050565b6106328161050b565b82525050565b600060208201905061064d6000830184610629565b92915050565b7f4e487b7100000000000000000000000000000000000000000000000000000000600052601160045260246000fd5b600061068d8261050b565b91506106988361050b565b9250827fffffffffffffffffffffffffffffffffffffffffffffffffffffffffffffffff038211156106cd576106cc610653565b5b828201905092915050565b6000819050919050565b6106f36106ee8261050b565b6106d8565b82525050565b600061070582866106e2565b60208201915061071582856106e2565b60208201915061072582846106e2565b602082019150819050949350505050565b7f4e487b7100000000000000000000000000000000000000000000000000000000600052601260045260246000fd5b60006107708261050b565b915061077b8361050b565b92508261078b5761078a610736565b5b828206905092915050565b60006107a18261050b565b91507fffffffffffffffffffffffffffffffffffffffffffffffffffffffffffffffff82036107d3576107d2610653565b5b600182019050919050565b60006107e98261050b565b91506107f48361050b565b92508261080457610803610736565b5b828204905092915050565b7f4e487b7100000000000000000000000000000000000000000000000000000000600052604160045260246000fd5b60006108498261050b565b91506108548361050b565b92508282101561086757610866610653565b5b828203905092915050565b7f4e487b7100000000000000000000000000000000000000000000000000000000600052603260045260246000fd5b600081519050919050565b600081905092915050565b60006108c2826108a1565b6108cc81856108ac565b93506108dc81856020860161058a565b80840191505092915050565b7f2000000000000000000000000000000000000000000000000000000000000000815250565b600061091a82856108b7565b9150610925826108e8565b60018201915061093582846108b7565b9150819050939250505056fea2646970667358221220619f98e05e927e8ae9cbe34f9950f1adfba8c58377182a8d91dfe4bf89d6599b64736f6c634300080d0033",
					"opcodes": "PUSH1 0x80 PUSH1 0x40 MSTORE CALLVALUE DUP1 ISZERO PUSH2 0x10 JUMPI PUSH1 0x0 DUP1 REVERT JUMPDEST POP PUSH1 0x0 DUP1 DUP2 SWAP1 SSTORE POP PUSH1 0x0 PUSH1 0x1 PUSH1 0x0 PUSH2 0x100 EXP DUP2 SLOAD DUP2 PUSH1 0xFF MUL NOT AND SWAP1 DUP4 ISZERO ISZERO MUL OR SWAP1 SSTORE POP PUSH1 0x0 PUSH1 0x2 DUP2 SWAP1 SSTORE POP PUSH2 0x977 DUP1 PUSH2 0x4A PUSH1 0x0 CODECOPY PUSH1 0x0 RETURN INVALID PUSH1 0x80 PUSH1 0x40 MSTORE CALLVALUE DUP1 ISZERO PUSH2 0x10 JUMPI PUSH1 0x0 DUP1 REVERT JUMPDEST POP PUSH1 0x4 CALLDATASIZE LT PUSH2 0x4C JUMPI PUSH1 0x0 CALLDATALOAD PUSH1 0xE0 SHR DUP1 PUSH4 0xB2A1449B EQ PUSH2 0x51 JUMPI DUP1 PUSH4 0xD74935B4 EQ PUSH2 0x6F JUMPI DUP1 PUSH4 0xD826F88F EQ PUSH2 0x9F JUMPI DUP1 PUSH4 0xEFEDC669 EQ PUSH2 0xBD JUMPI JUMPDEST PUSH1 0x0 DUP1 REVERT JUMPDEST PUSH2 0x59 PUSH2 0xDB JUMP JUMPDEST PUSH1 0x40 MLOAD PUSH2 0x66 SWAP2 SWAP1 PUSH2 0x4EB JUMP JUMPDEST PUSH1 0x40 MLOAD DUP1 SWAP2 SUB SWAP1 RETURN JUMPDEST PUSH2 0x89 PUSH1 0x4 DUP1 CALLDATASIZE SUB DUP2 ADD SWAP1 PUSH2 0x84 SWAP2 SWAP1 PUSH2 0x541 JUMP JUMPDEST PUSH2 0xEE JUMP JUMPDEST PUSH1 0x40 MLOAD PUSH2 0x96 SWAP2 SWAP1 PUSH2 0x607 JUMP JUMPDEST PUSH1 0x40 MLOAD DUP1 SWAP2 SUB SWAP1 RETURN JUMPDEST PUSH2 0xA7 PUSH2 0x288 JUMP JUMPDEST PUSH1 0x40 MLOAD PUSH2 0xB4 SWAP2 SWAP1 PUSH2 0x607 JUMP JUMPDEST PUSH1 0x40 MLOAD DUP1 SWAP2 SUB SWAP1 RETURN JUMPDEST PUSH2 0xC5 PUSH2 0x2E7 JUMP JUMPDEST PUSH1 0x40 MLOAD PUSH2 0xD2 SWAP2 SWAP1 PUSH2 0x638 JUMP JUMPDEST PUSH1 0x40 MLOAD DUP1 SWAP2 SUB SWAP1 RETURN JUMPDEST PUSH1 0x1 PUSH1 0x0 SWAP1 SLOAD SWAP1 PUSH2 0x100 EXP SWAP1 DIV PUSH1 0xFF AND DUP2 JUMP JUMPDEST PUSH1 0x60 PUSH1 0x1 ISZERO ISZERO PUSH1 0x1 PUSH1 0x0 SWAP1 SLOAD SWAP1 PUSH2 0x100 EXP SWAP1 DIV PUSH1 0xFF AND ISZERO ISZERO SUB PUSH2 0x148 JUMPI PUSH1 0x40 MLOAD DUP1 PUSH1 0x40 ADD PUSH1 0x40 MSTORE DUP1 PUSH1 0x16 DUP2 MSTORE PUSH1 0x20 ADD PUSH32 0x426174736D616E4F75742C506C65617365526573657400000000000000000000 DUP2 MSTORE POP SWAP1 POP PUSH2 0x283 JUMP JUMPDEST PUSH1 0x1 DUP3 LT DUP1 PUSH2 0x157 JUMPI POP PUSH1 0x6 DUP3 GT JUMPDEST ISZERO PUSH2 0x199 JUMPI PUSH1 0x40 MLOAD DUP1 PUSH1 0x40 ADD PUSH1 0x40 MSTORE DUP1 PUSH1 0x10 DUP2 MSTORE PUSH1 0x20 ADD PUSH32 0x456E74657256616C69644E756D62657200000000000000000000000000000000 DUP2 MSTORE POP SWAP1 POP PUSH2 0x283 JUMP JUMPDEST PUSH1 0x0 PUSH2 0x1A3 PUSH2 0x2ED JUMP JUMPDEST SWAP1 POP PUSH1 0x0 DUP2 SUB PUSH2 0x1B2 JUMPI PUSH1 0x6 SWAP1 POP JUMPDEST DUP3 DUP2 SUB PUSH2 0x224 JUMPI PUSH1 0x1 DUP1 PUSH1 0x0 PUSH2 0x100 EXP DUP2 SLOAD DUP2 PUSH1 0xFF MUL NOT AND SWAP1 DUP4 ISZERO ISZERO MUL OR SWAP1 SSTORE POP PUSH2 0x21C PUSH2 0x1E1 PUSH1 0x0 SLOAD PUSH2 0x344 JUMP JUMPDEST PUSH1 0x40 MLOAD DUP1 PUSH1 0x40 ADD PUSH1 0x40 MSTORE DUP1 PUSH1 0x3 DUP2 MSTORE PUSH1 0x20 ADD PUSH32 0x4F55540000000000000000000000000000000000000000000000000000000000 DUP2 MSTORE POP PUSH2 0x4A4 JUMP JUMPDEST SWAP2 POP POP PUSH2 0x283 JUMP JUMPDEST DUP1 PUSH1 0x0 SLOAD PUSH2 0x232 SWAP2 SWAP1 PUSH2 0x682 JUMP JUMPDEST PUSH1 0x0 DUP2 SWAP1 SSTORE POP PUSH2 0x27F PUSH2 0x244 DUP3 PUSH2 0x344 JUMP JUMPDEST PUSH1 0x40 MLOAD DUP1 PUSH1 0x40 ADD PUSH1 0x40 MSTORE DUP1 PUSH1 0x4 DUP2 MSTORE PUSH1 0x20 ADD PUSH32 0x52554E5300000000000000000000000000000000000000000000000000000000 DUP2 MSTORE POP PUSH2 0x4A4 JUMP JUMPDEST SWAP2 POP POP JUMPDEST SWAP2 SWAP1 POP JUMP JUMPDEST PUSH1 0x60 PUSH1 0x0 DUP1 DUP2 SWAP1 SSTORE POP PUSH1 0x0 PUSH1 0x1 PUSH1 0x0 PUSH2 0x100 EXP DUP2 SLOAD DUP2 PUSH1 0xFF MUL NOT AND SWAP1 DUP4 ISZERO ISZERO MUL OR SWAP1 SSTORE POP PUSH1 0x40 MLOAD DUP1 PUSH1 0x40 ADD PUSH1 0x40 MSTORE DUP1 PUSH1 0x12 DUP2 MSTORE PUSH1 0x20 ADD PUSH32 0x5245534554205375636365737366756C6C790000000000000000000000000000 DUP2 MSTORE POP SWAP1 POP SWAP1 JUMP JUMPDEST PUSH1 0x0 SLOAD DUP2 JUMP JUMPDEST PUSH1 0x0 PUSH1 0x2 PUSH1 0x0 DUP2 SLOAD DUP1 SWAP3 SWAP2 SWAP1 PUSH1 0x1 ADD SWAP2 SWAP1 POP SSTORE POP PUSH1 0x6 TIMESTAMP PUSH1 0x0 SLOAD PUSH1 0x2 SLOAD PUSH1 0x40 MLOAD PUSH1 0x20 ADD PUSH2 0x31C SWAP4 SWAP3 SWAP2 SWAP1 PUSH2 0x6F9 JUMP JUMPDEST PUSH1 0x40 MLOAD PUSH1 0x20 DUP2 DUP4 SUB SUB DUP2 MSTORE SWAP1 PUSH1 0x40 MSTORE DUP1 MLOAD SWAP1 PUSH1 0x20 ADD KECCAK256 PUSH1 0x0 SHR PUSH2 0x33F SWAP2 SWAP1 PUSH2 0x765 JUMP JUMPDEST SWAP1 POP SWAP1 JUMP JUMPDEST PUSH1 0x60 PUSH1 0x0 DUP3 SUB PUSH2 0x38B JUMPI PUSH1 0x40 MLOAD DUP1 PUSH1 0x40 ADD PUSH1 0x40 MSTORE DUP1 PUSH1 0x1 DUP2 MSTORE PUSH1 0x20 ADD PUSH32 0x3000000000000000000000000000000000000000000000000000000000000000 DUP2 MSTORE POP SWAP1 POP PUSH2 0x49F JUMP JUMPDEST PUSH1 0x0 DUP3 SWAP1 POP PUSH1 0x0 JUMPDEST PUSH1 0x0 DUP3 EQ PUSH2 0x3BD JUMPI DUP1 DUP1 PUSH2 0x3A6 SWAP1 PUSH2 0x796 JUMP JUMPDEST SWAP2 POP POP PUSH1 0xA DUP3 PUSH2 0x3B6 SWAP2 SWAP1 PUSH2 0x7DE JUMP JUMPDEST SWAP2 POP PUSH2 0x393 JUMP JUMPDEST PUSH1 0x0 DUP2 PUSH8 0xFFFFFFFFFFFFFFFF DUP2 GT ISZERO PUSH2 0x3D9 JUMPI PUSH2 0x3D8 PUSH2 0x80F JUMP JUMPDEST JUMPDEST PUSH1 0x40 MLOAD SWAP1 DUP1 DUP3 MSTORE DUP1 PUSH1 0x1F ADD PUSH1 0x1F NOT AND PUSH1 0x20 ADD DUP3 ADD PUSH1 0x40 MSTORE DUP1 ISZERO PUSH2 0x40B JUMPI DUP2 PUSH1 0x20 ADD PUSH1 0x1 DUP3 MUL DUP1 CALLDATASIZE DUP4 CALLDATACOPY DUP1 DUP3 ADD SWAP2 POP POP SWAP1 POP JUMPDEST POP SWAP1 POP JUMPDEST PUSH1 0x0 DUP6 EQ PUSH2 0x498 JUMPI PUSH1 0x1 DUP3 PUSH2 0x424 SWAP2 SWAP1 PUSH2 0x83E JUMP JUMPDEST SWAP2 POP PUSH1 0xA DUP6 PUSH2 0x433 SWAP2 SWAP1 PUSH2 0x765 JUMP JUMPDEST PUSH1 0x30 PUSH2 0x43F SWAP2 SWAP1 PUSH2 0x682 JUMP JUMPDEST PUSH1 0xF8 SHL DUP2 DUP4 DUP2 MLOAD DUP2 LT PUSH2 0x455 JUMPI PUSH2 0x454 PUSH2 0x872 JUMP JUMPDEST JUMPDEST PUSH1 0x20 ADD ADD SWAP1 PUSH31 0xFFFFFFFFFFFFFFFFFFFFFFFFFFFFFFFFFFFFFFFFFFFFFFFFFFFFFFFFFFFFFF NOT AND SWAP1 DUP2 PUSH1 0x0 BYTE SWAP1 MSTORE8 POP PUSH1 0xA DUP6 PUSH2 0x491 SWAP2 SWAP1 PUSH2 0x7DE JUMP JUMPDEST SWAP5 POP PUSH2 0x40F JUMP JUMPDEST DUP1 SWAP4 POP POP POP POP JUMPDEST SWAP2 SWAP1 POP JUMP JUMPDEST PUSH1 0x60 DUP3 DUP3 PUSH1 0x40 MLOAD PUSH1 0x20 ADD PUSH2 0x4B9 SWAP3 SWAP2 SWAP1 PUSH2 0x90E JUMP JUMPDEST PUSH1 0x40 MLOAD PUSH1 0x20 DUP2 DUP4 SUB SUB DUP2 MSTORE SWAP1 PUSH1 0x40 MSTORE SWAP1 POP SWAP3 SWAP2 POP POP JUMP JUMPDEST PUSH1 0x0 DUP2 ISZERO ISZERO SWAP1 POP SWAP2 SWAP1 POP JUMP JUMPDEST PUSH2 0x4E5 DUP2 PUSH2 0x4D0 JUMP JUMPDEST DUP3 MSTORE POP POP JUMP JUMPDEST PUSH1 0x0 PUSH1 0x20 DUP3 ADD SWAP1 POP PUSH2 0x500 PUSH1 0x0 DUP4 ADD DUP5 PUSH2 0x4DC JUMP JUMPDEST SWAP3 SWAP2 POP POP JUMP JUMPDEST PUSH1 0x0 DUP1 REVERT JUMPDEST PUSH1 0x0 DUP2 SWAP1 POP SWAP2 SWAP1 POP JUMP JUMPDEST PUSH2 0x51E DUP2 PUSH2 0x50B JUMP JUMPDEST DUP2 EQ PUSH2 0x529 JUMPI PUSH1 0x0 DUP1 REVERT JUMPDEST POP JUMP JUMPDEST PUSH1 0x0 DUP2 CALLDATALOAD SWAP1 POP PUSH2 0x53B DUP2 PUSH2 0x515 JUMP JUMPDEST SWAP3 SWAP2 POP POP JUMP JUMPDEST PUSH1 0x0 PUSH1 0x20 DUP3 DUP5 SUB SLT ISZERO PUSH2 0x557 JUMPI PUSH2 0x556 PUSH2 0x506 JUMP JUMPDEST JUMPDEST PUSH1 0x0 PUSH2 0x565 DUP5 DUP3 DUP6 ADD PUSH2 0x52C JUMP JUMPDEST SWAP2 POP POP SWAP3 SWAP2 POP POP JUMP JUMPDEST PUSH1 0x0 DUP2 MLOAD SWAP1 POP SWAP2 SWAP1 POP JUMP JUMPDEST PUSH1 0x0 DUP3 DUP3 MSTORE PUSH1 0x20 DUP3 ADD SWAP1 POP SWAP3 SWAP2 POP POP JUMP JUMPDEST PUSH1 0x0 JUMPDEST DUP4 DUP2 LT ISZERO PUSH2 0x5A8 JUMPI DUP1 DUP3 ADD MLOAD DUP2 DUP5 ADD MSTORE PUSH1 0x20 DUP2 ADD SWAP1 POP PUSH2 0x58D JUMP JUMPDEST DUP4 DUP2 GT ISZERO PUSH2 0x5B7 JUMPI PUSH1 0x0 DUP5 DUP5 ADD MSTORE JUMPDEST POP POP POP POP JUMP JUMPDEST PUSH1 0x0 PUSH1 0x1F NOT PUSH1 0x1F DUP4 ADD AND SWAP1 POP SWAP2 SWAP1 POP JUMP JUMPDEST PUSH1 0x0 PUSH2 0x5D9 DUP3 PUSH2 0x56E JUMP JUMPDEST PUSH2 0x5E3 DUP2 DUP6 PUSH2 0x579 JUMP JUMPDEST SWAP4 POP PUSH2 0x5F3 DUP2 DUP6 PUSH1 0x20 DUP7 ADD PUSH2 0x58A JUMP JUMPDEST PUSH2 0x5FC DUP2 PUSH2 0x5BD JUMP JUMPDEST DUP5 ADD SWAP2 POP POP SWAP3 SWAP2 POP POP JUMP JUMPDEST PUSH1 0x0 PUSH1 0x20 DUP3 ADD SWAP1 POP DUP2 DUP2 SUB PUSH1 0x0 DUP4 ADD MSTORE PUSH2 0x621 DUP2 DUP5 PUSH2 0x5CE JUMP JUMPDEST SWAP1 POP SWAP3 SWAP2 POP POP JUMP JUMPDEST PUSH2 0x632 DUP2 PUSH2 0x50B JUMP JUMPDEST DUP3 MSTORE POP POP JUMP JUMPDEST PUSH1 0x0 PUSH1 0x20 DUP3 ADD SWAP1 POP PUSH2 0x64D PUSH1 0x0 DUP4 ADD DUP5 PUSH2 0x629 JUMP JUMPDEST SWAP3 SWAP2 POP POP JUMP JUMPDEST PUSH32 0x4E487B7100000000000000000000000000000000000000000000000000000000 PUSH1 0x0 MSTORE PUSH1 0x11 PUSH1 0x4 MSTORE PUSH1 0x24 PUSH1 0x0 REVERT JUMPDEST PUSH1 0x0 PUSH2 0x68D DUP3 PUSH2 0x50B JUMP JUMPDEST SWAP2 POP PUSH2 0x698 DUP4 PUSH2 0x50B JUMP JUMPDEST SWAP3 POP DUP3 PUSH32 0xFFFFFFFFFFFFFFFFFFFFFFFFFFFFFFFFFFFFFFFFFFFFFFFFFFFFFFFFFFFFFFFF SUB DUP3 GT ISZERO PUSH2 0x6CD JUMPI PUSH2 0x6CC PUSH2 0x653 JUMP JUMPDEST JUMPDEST DUP3 DUP3 ADD SWAP1 POP SWAP3 SWAP2 POP POP JUMP JUMPDEST PUSH1 0x0 DUP2 SWAP1 POP SWAP2 SWAP1 POP JUMP JUMPDEST PUSH2 0x6F3 PUSH2 0x6EE DUP3 PUSH2 0x50B JUMP JUMPDEST PUSH2 0x6D8 JUMP JUMPDEST DUP3 MSTORE POP POP JUMP JUMPDEST PUSH1 0x0 PUSH2 0x705 DUP3 DUP7 PUSH2 0x6E2 JUMP JUMPDEST PUSH1 0x20 DUP3 ADD SWAP2 POP PUSH2 0x715 DUP3 DUP6 PUSH2 0x6E2 JUMP JUMPDEST PUSH1 0x20 DUP3 ADD SWAP2 POP PUSH2 0x725 DUP3 DUP5 PUSH2 0x6E2 JUMP JUMPDEST PUSH1 0x20 DUP3 ADD SWAP2 POP DUP2 SWAP1 POP SWAP5 SWAP4 POP POP POP POP JUMP JUMPDEST PUSH32 0x4E487B7100000000000000000000000000000000000000000000000000000000 PUSH1 0x0 MSTORE PUSH1 0x12 PUSH1 0x4 MSTORE PUSH1 0x24 PUSH1 0x0 REVERT JUMPDEST PUSH1 0x0 PUSH2 0x770 DUP3 PUSH2 0x50B JUMP JUMPDEST SWAP2 POP PUSH2 0x77B DUP4 PUSH2 0x50B JUMP JUMPDEST SWAP3 POP DUP3 PUSH2 0x78B JUMPI PUSH2 0x78A PUSH2 0x736 JUMP JUMPDEST JUMPDEST DUP3 DUP3 MOD SWAP1 POP SWAP3 SWAP2 POP POP JUMP JUMPDEST PUSH1 0x0 PUSH2 0x7A1 DUP3 PUSH2 0x50B JUMP JUMPDEST SWAP2 POP PUSH32 0xFFFFFFFFFFFFFFFFFFFFFFFFFFFFFFFFFFFFFFFFFFFFFFFFFFFFFFFFFFFFFFFF DUP3 SUB PUSH2 0x7D3 JUMPI PUSH2 0x7D2 PUSH2 0x653 JUMP JUMPDEST JUMPDEST PUSH1 0x1 DUP3 ADD SWAP1 POP SWAP2 SWAP1 POP JUMP JUMPDEST PUSH1 0x0 PUSH2 0x7E9 DUP3 PUSH2 0x50B JUMP JUMPDEST SWAP2 POP PUSH2 0x7F4 DUP4 PUSH2 0x50B JUMP JUMPDEST SWAP3 POP DUP3 PUSH2 0x804 JUMPI PUSH2 0x803 PUSH2 0x736 JUMP JUMPDEST JUMPDEST DUP3 DUP3 DIV SWAP1 POP SWAP3 SWAP2 POP POP JUMP JUMPDEST PUSH32 0x4E487B7100000000000000000000000000000000000000000000000000000000 PUSH1 0x0 MSTORE PUSH1 0x41 PUSH1 0x4 MSTORE PUSH1 0x24 PUSH1 0x0 REVERT JUMPDEST PUSH1 0x0 PUSH2 0x849 DUP3 PUSH2 0x50B JUMP JUMPDEST SWAP2 POP PUSH2 0x854 DUP4 PUSH2 0x50B JUMP JUMPDEST SWAP3 POP DUP3 DUP3 LT ISZERO PUSH2 0x867 JUMPI PUSH2 0x866 PUSH2 0x653 JUMP JUMPDEST JUMPDEST DUP3 DUP3 SUB SWAP1 POP SWAP3 SWAP2 POP POP JUMP JUMPDEST PUSH32 0x4E487B7100000000000000000000000000000000000000000000000000000000 PUSH1 0x0 MSTORE PUSH1 0x32 PUSH1 0x4 MSTORE PUSH1 0x24 PUSH1 0x0 REVERT JUMPDEST PUSH1 0x0 DUP2 MLOAD SWAP1 POP SWAP2 SWAP1 POP JUMP JUMPDEST PUSH1 0x0 DUP2 SWAP1 POP SWAP3 SWAP2 POP POP JUMP JUMPDEST PUSH1 0x0 PUSH2 0x8C2 DUP3 PUSH2 0x8A1 JUMP JUMPDEST PUSH2 0x8CC DUP2 DUP6 PUSH2 0x8AC JUMP JUMPDEST SWAP4 POP PUSH2 0x8DC DUP2 DUP6 PUSH1 0x20 DUP7 ADD PUSH2 0x58A JUMP JUMPDEST DUP1 DUP5 ADD SWAP2 POP POP SWAP3 SWAP2 POP POP JUMP JUMPDEST PUSH32 0x2000000000000000000000000000000000000000000000000000000000000000 DUP2 MSTORE POP JUMP JUMPDEST PUSH1 0x0 PUSH2 0x91A DUP3 DUP6 PUSH2 0x8B7 JUMP JUMPDEST SWAP2 POP PUSH2 0x925 DUP3 PUSH2 0x8E8 JUMP JUMPDEST PUSH1 0x1 DUP3 ADD SWAP2 POP PUSH2 0x935 DUP3 DUP5 PUSH2 0x8B7 JUMP JUMPDEST SWAP2 POP DUP2 SWAP1 POP SWAP4 SWAP3 POP POP POP JUMP INVALID LOG2 PUSH5 0x6970667358 0x22 SLT KECCAK256 PUSH2 0x9F98 0xE0 0x5E SWAP3 PUSH31 0x8AE9CBE34F9950F1ADFBA8C58377182A8D91DFE4BF89D6599B64736F6C6343 STOP ADDMOD 0xD STOP CALLER "
				},
				"gasEstimates": {
					"creation": {
						"codeDepositCost": "484600",
						"executionCost": "34813",
						"totalCost": "519413"
					},
					"external": {
						"out()": "2449",
						"reset()": "infinite",
						"score()": "2473",
						"userinput(uint256)": "infinite"
					},
					"internal": {
						"concatenate(string memory,string memory)": "infinite",
						"randdomnumbergenerator()": "infinite"
					}
				},
				"methodIdentifiers": {
					"out()": "b2a1449b",
					"reset()": "d826f88f",
					"score()": "efedc669",
					"userinput(uint256)": "d74935b4"
				}
			},
			"storageLayout": {
				"storage": [
					{
						"astId": 230,
						"contract": "contracts/oddEveAjay.sol:oddEveAjay",
						"label": "score",
						"offset": 0,
						"slot": "0",
						"type": "t_uint256"
					},
					{
						"astId": 232,
						"contract": "contracts/oddEveAjay.sol:oddEveAjay",
						"label": "out",
						"offset": 0,
						"slot": "1",
						"type": "t_bool"
					},
					{
						"astId": 234,
						"contract": "contracts/oddEveAjay.sol:oddEveAjay",
						"label": "randomvariable",
						"offset": 0,
						"slot": "2",
						"type": "t_uint256"
					}
				],
				"types": {
					"t_bool": {
						"encoding": "inplace",
						"label": "bool",
						"numberOfBytes": "1"
					},
					"t_uint256": {
						"encoding": "inplace",
						"label": "uint256",
						"numberOfBytes": "32"
					}
				}
			},
			"userdoc": {
				"kind": "user",
				"methods": {},
				"version": 1
			}
		}
	}
}