{
	"contracts/4_OddEve.sol": {
		"oddEve": {
			"abi": [
				{
					"inputs": [],
					"stateMutability": "nonpayable",
					"type": "constructor"
				},
				{
					"inputs": [],
					"name": "out",
					"outputs": [
						{
							"internalType": "bool",
							"name": "",
							"type": "bool"
						}
					],
					"stateMutability": "view",
					"type": "function"
				},
				{
					"inputs": [],
					"name": "reset",
					"outputs": [
						{
							"internalType": "string",
							"name": "",
							"type": "string"
						}
					],
					"stateMutability": "nonpayable",
					"type": "function"
				},
				{
					"inputs": [],
					"name": "score",
					"outputs": [
						{
							"internalType": "uint256",
							"name": "",
							"type": "uint256"
						}
					],
					"stateMutability": "view",
					"type": "function"
				},
				{
					"inputs": [
						{
							"internalType": "uint256",
							"name": "_inputnumber",
							"type": "uint256"
						}
					],
					"name": "takeinput",
					"outputs": [
						{
							"internalType": "string",
							"name": "",
							"type": "string"
						}
					],
					"stateMutability": "nonpayable",
					"type": "function"
				}
			],
			"devdoc": {
				"kind": "dev",
				"methods": {},
				"version": 1
			},
			"evm": {
				"assembly": "    /* \"contracts/4_OddEve.sol\":72:1250  contract oddEve{... */\n  mstore(0x40, 0x80)\n    /* \"contracts/4_OddEve.sol\":882:883  1 */\n  0x01\n    /* \"contracts/4_OddEve.sol\":865:883  uint randNonce = 1 */\n  0x02\n  sstore\n    /* \"contracts/4_OddEve.sol\":142:209  constructor()... */\n  callvalue\n  dup1\n  iszero\n  tag_1\n  jumpi\n  0x00\n  dup1\n  revert\ntag_1:\n  pop\n    /* \"contracts/4_OddEve.sol\":180:181  0 */\n  0x00\n    /* \"contracts/4_OddEve.sol\":172:177  score */\n  dup1\n    /* \"contracts/4_OddEve.sol\":172:181  score = 0 */\n  dup2\n  swap1\n  sstore\n  pop\n    /* \"contracts/4_OddEve.sol\":196:201  false */\n  0x00\n    /* \"contracts/4_OddEve.sol\":192:195  out */\n  0x01\n  0x00\n    /* \"contracts/4_OddEve.sol\":192:201  out=false */\n  0x0100\n  exp\n  dup2\n  sload\n  dup2\n  0xff\n  mul\n  not\n  and\n  swap1\n  dup4\n  iszero\n  iszero\n  mul\n  or\n  swap1\n  sstore\n  pop\n    /* \"contracts/4_OddEve.sol\":72:1250  contract oddEve{... */\n  dataSize(sub_0)\n  dup1\n  dataOffset(sub_0)\n  0x00\n  codecopy\n  0x00\n  return\nstop\n\nsub_0: assembly {\n        /* \"contracts/4_OddEve.sol\":72:1250  contract oddEve{... */\n      mstore(0x40, 0x80)\n      callvalue\n      dup1\n      iszero\n      tag_1\n      jumpi\n      0x00\n      dup1\n      revert\n    tag_1:\n      pop\n      jumpi(tag_2, lt(calldatasize, 0x04))\n      shr(0xe0, calldataload(0x00))\n      dup1\n      0x0e7ccaf0\n      eq\n      tag_3\n      jumpi\n      dup1\n      0xb2a1449b\n      eq\n      tag_4\n      jumpi\n      dup1\n      0xd826f88f\n      eq\n      tag_5\n      jumpi\n      dup1\n      0xefedc669\n      eq\n      tag_6\n      jumpi\n    tag_2:\n      0x00\n      dup1\n      revert\n        /* \"contracts/4_OddEve.sol\":221:853  function takeinput(uint _inputnumber) public  returns (string memory){... */\n    tag_3:\n      tag_7\n      0x04\n      dup1\n      calldatasize\n      sub\n      dup2\n      add\n      swap1\n      tag_8\n      swap2\n      swap1\n      tag_9\n      jump\t// in\n    tag_8:\n      tag_10\n      jump\t// in\n    tag_7:\n      mload(0x40)\n      tag_11\n      swap2\n      swap1\n      tag_12\n      jump\t// in\n    tag_11:\n      mload(0x40)\n      dup1\n      swap2\n      sub\n      swap1\n      return\n        /* \"contracts/4_OddEve.sol\":118:133  bool public out */\n    tag_4:\n      tag_13\n      tag_14\n      jump\t// in\n    tag_13:\n      mload(0x40)\n      tag_15\n      swap2\n      swap1\n      tag_16\n      jump\t// in\n    tag_15:\n      mload(0x40)\n      dup1\n      swap2\n      sub\n      swap1\n      return\n        /* \"contracts/4_OddEve.sol\":1109:1247  function reset() public returns(string memory)... */\n    tag_5:\n      tag_17\n      tag_18\n      jump\t// in\n    tag_17:\n      mload(0x40)\n      tag_19\n      swap2\n      swap1\n      tag_12\n      jump\t// in\n    tag_19:\n      mload(0x40)\n      dup1\n      swap2\n      sub\n      swap1\n      return\n        /* \"contracts/4_OddEve.sol\":94:111  uint public score */\n    tag_6:\n      tag_20\n      tag_21\n      jump\t// in\n    tag_20:\n      mload(0x40)\n      tag_22\n      swap2\n      swap1\n      tag_23\n      jump\t// in\n    tag_22:\n      mload(0x40)\n      dup1\n      swap2\n      sub\n      swap1\n      return\n        /* \"contracts/4_OddEve.sol\":221:853  function takeinput(uint _inputnumber) public  returns (string memory){... */\n    tag_10:\n        /* \"contracts/4_OddEve.sol\":276:289  string memory */\n      0x60\n        /* \"contracts/4_OddEve.sol\":301:318  uint randomnumber */\n      0x00\n        /* \"contracts/4_OddEve.sol\":321:331  randMod(6) */\n      tag_25\n        /* \"contracts/4_OddEve.sol\":329:330  6 */\n      0x06\n        /* \"contracts/4_OddEve.sol\":321:328  randMod */\n      tag_26\n        /* \"contracts/4_OddEve.sol\":321:331  randMod(6) */\n      jump\t// in\n    tag_25:\n        /* \"contracts/4_OddEve.sol\":301:331  uint randomnumber = randMod(6) */\n      swap1\n      pop\n        /* \"contracts/4_OddEve.sol\":359:360  1 */\n      0x01\n        /* \"contracts/4_OddEve.sol\":346:358  _inputnumber */\n      dup4\n        /* \"contracts/4_OddEve.sol\":346:360  _inputnumber<1 */\n      lt\n        /* \"contracts/4_OddEve.sol\":346:379  _inputnumber<1 || _inputnumber >6 */\n      dup1\n      tag_27\n      jumpi\n      pop\n        /* \"contracts/4_OddEve.sol\":378:379  6 */\n      0x06\n        /* \"contracts/4_OddEve.sol\":364:376  _inputnumber */\n      dup4\n        /* \"contracts/4_OddEve.sol\":364:379  _inputnumber >6 */\n      gt\n        /* \"contracts/4_OddEve.sol\":346:379  _inputnumber<1 || _inputnumber >6 */\n    tag_27:\n        /* \"contracts/4_OddEve.sol\":342:846  if (_inputnumber<1 || _inputnumber >6){... */\n      iszero\n      tag_28\n      jumpi\n        /* \"contracts/4_OddEve.sol\":395:431  return \"Please Enter a Valid Number\" */\n      mload(0x40)\n      dup1\n      0x40\n      add\n      0x40\n      mstore\n      dup1\n      0x1b\n      dup2\n      mstore\n      0x20\n      add\n      0x506c6561736520456e74657220612056616c6964204e756d6265720000000000\n      dup2\n      mstore\n      pop\n      swap2\n      pop\n      pop\n      jump(tag_24)\n        /* \"contracts/4_OddEve.sol\":342:846  if (_inputnumber<1 || _inputnumber >6){... */\n    tag_28:\n        /* \"contracts/4_OddEve.sol\":510:511  0 */\n      0x00\n        /* \"contracts/4_OddEve.sol\":496:508  randomnumber */\n      dup2\n        /* \"contracts/4_OddEve.sol\":496:511  randomnumber==0 */\n      sub\n        /* \"contracts/4_OddEve.sol\":492:544  if (randomnumber==0)... */\n      tag_30\n      jumpi\n        /* \"contracts/4_OddEve.sol\":543:544  6 */\n      0x06\n        /* \"contracts/4_OddEve.sol\":530:544  randomnumber=6 */\n      swap1\n      pop\n        /* \"contracts/4_OddEve.sol\":492:544  if (randomnumber==0)... */\n    tag_30:\n        /* \"contracts/4_OddEve.sol\":579:591  _inputnumber */\n      dup3\n        /* \"contracts/4_OddEve.sol\":565:577  randomnumber */\n      dup2\n        /* \"contracts/4_OddEve.sol\":565:591  randomnumber==_inputnumber */\n      sub\n        /* \"contracts/4_OddEve.sol\":561:835  if (randomnumber==_inputnumber)... */\n      tag_31\n      jumpi\n        /* \"contracts/4_OddEve.sol\":625:640  return \"-- OUT\" */\n      mload(0x40)\n      dup1\n      0x40\n      add\n      0x40\n      mstore\n      dup1\n      0x06\n      dup2\n      mstore\n      0x20\n      add\n      0x2d2d204f55540000000000000000000000000000000000000000000000000000\n      dup2\n      mstore\n      pop\n      swap2\n      pop\n      pop\n      jump(tag_24)\n        /* \"contracts/4_OddEve.sol\":561:835  if (randomnumber==_inputnumber)... */\n    tag_31:\n        /* \"contracts/4_OddEve.sol\":744:756  randomnumber */\n      dup1\n        /* \"contracts/4_OddEve.sol\":736:741  score */\n      sload(0x00)\n        /* \"contracts/4_OddEve.sol\":736:756  score + randomnumber */\n      tag_33\n      swap2\n      swap1\n      tag_34\n      jump\t// in\n    tag_33:\n        /* \"contracts/4_OddEve.sol\":728:733  score */\n      0x00\n        /* \"contracts/4_OddEve.sol\":728:756  score = score + randomnumber */\n      dup2\n      swap1\n      sstore\n      pop\n        /* \"contracts/4_OddEve.sol\":775:800  return \"randonumber RUNS\" */\n      mload(0x40)\n      dup1\n      0x40\n      add\n      0x40\n      mstore\n      dup1\n      0x10\n      dup2\n      mstore\n      0x20\n      add\n      0x72616e646f6e756d6265722052554e5300000000000000000000000000000000\n      dup2\n      mstore\n      pop\n      swap2\n      pop\n      pop\n        /* \"contracts/4_OddEve.sol\":221:853  function takeinput(uint _inputnumber) public  returns (string memory){... */\n    tag_24:\n      swap2\n      swap1\n      pop\n      jump\t// out\n        /* \"contracts/4_OddEve.sol\":118:133  bool public out */\n    tag_14:\n      0x01\n      0x00\n      swap1\n      sload\n      swap1\n      0x0100\n      exp\n      swap1\n      div\n      0xff\n      and\n      dup2\n      jump\t// out\n        /* \"contracts/4_OddEve.sol\":1109:1247  function reset() public returns(string memory)... */\n    tag_18:\n        /* \"contracts/4_OddEve.sol\":1141:1154  string memory */\n      0x60\n        /* \"contracts/4_OddEve.sol\":1180:1181  0 */\n      0x00\n        /* \"contracts/4_OddEve.sol\":1172:1177  score */\n      dup1\n        /* \"contracts/4_OddEve.sol\":1172:1181  score = 0 */\n      dup2\n      swap1\n      sstore\n      pop\n        /* \"contracts/4_OddEve.sol\":1196:1201  false */\n      0x00\n        /* \"contracts/4_OddEve.sol\":1192:1195  out */\n      0x01\n      0x00\n        /* \"contracts/4_OddEve.sol\":1192:1201  out=false */\n      0x0100\n      exp\n      dup2\n      sload\n      dup2\n      0xff\n      mul\n      not\n      and\n      swap1\n      dup4\n      iszero\n      iszero\n      mul\n      or\n      swap1\n      sstore\n      pop\n        /* \"contracts/4_OddEve.sol\":1212:1239  return \"RESET Successfully\" */\n      mload(0x40)\n      dup1\n      0x40\n      add\n      0x40\n      mstore\n      dup1\n      0x12\n      dup2\n      mstore\n      0x20\n      add\n      0x5245534554205375636365737366756c6c790000000000000000000000000000\n      dup2\n      mstore\n      pop\n      swap1\n      pop\n        /* \"contracts/4_OddEve.sol\":1109:1247  function reset() public returns(string memory)... */\n      swap1\n      jump\t// out\n        /* \"contracts/4_OddEve.sol\":94:111  uint public score */\n    tag_21:\n      sload(0x00)\n      dup2\n      jump\t// out\n        /* \"contracts/4_OddEve.sol\":892:1101  function randMod(uint _modulus) private returns(uint)... */\n    tag_26:\n        /* \"contracts/4_OddEve.sol\":940:944  uint */\n      0x00\n        /* \"contracts/4_OddEve.sol\":985:994  randNonce */\n      0x02\n      0x00\n        /* \"contracts/4_OddEve.sol\":985:996  randNonce++ */\n      dup2\n      sload\n      dup1\n      swap3\n      swap2\n      swap1\n      tag_37\n      swap1\n      tag_38\n      jump\t// in\n    tag_37:\n      swap2\n      swap1\n      pop\n      sstore\n      pop\n        /* \"contracts/4_OddEve.sol\":1085:1093  _modulus */\n      dup2\n        /* \"contracts/4_OddEve.sol\":1047:1062  block.timestamp */\n      timestamp\n        /* \"contracts/4_OddEve.sol\":1063:1068  score */\n      sload(0x00)\n        /* \"contracts/4_OddEve.sol\":1070:1079  randNonce */\n      sload(0x02)\n        /* \"contracts/4_OddEve.sol\":1030:1080  abi.encodePacked(block.timestamp,score, randNonce) */\n      add(0x20, mload(0x40))\n      tag_39\n      swap4\n      swap3\n      swap2\n      swap1\n      tag_40\n      jump\t// in\n    tag_39:\n      mload(0x40)\n      0x20\n      dup2\n      dup4\n      sub\n      sub\n      dup2\n      mstore\n      swap1\n      0x40\n      mstore\n        /* \"contracts/4_OddEve.sol\":1020:1081  keccak256(abi.encodePacked(block.timestamp,score, randNonce)) */\n      dup1\n      mload\n      swap1\n      0x20\n      add\n      keccak256\n        /* \"contracts/4_OddEve.sol\":1015:1082  uint(keccak256(abi.encodePacked(block.timestamp,score, randNonce))) */\n      0x00\n      shr\n        /* \"contracts/4_OddEve.sol\":1015:1093  uint(keccak256(abi.encodePacked(block.timestamp,score, randNonce))) % _modulus */\n      tag_41\n      swap2\n      swap1\n      tag_42\n      jump\t// in\n    tag_41:\n        /* \"contracts/4_OddEve.sol\":1008:1093  return uint(keccak256(abi.encodePacked(block.timestamp,score, randNonce))) % _modulus */\n      swap1\n      pop\n        /* \"contracts/4_OddEve.sol\":892:1101  function randMod(uint _modulus) private returns(uint)... */\n      swap2\n      swap1\n      pop\n      jump\t// out\n        /* \"#utility.yul\":88:205   */\n    tag_44:\n        /* \"#utility.yul\":197:198   */\n      0x00\n        /* \"#utility.yul\":194:195   */\n      dup1\n        /* \"#utility.yul\":187:199   */\n      revert\n        /* \"#utility.yul\":334:411   */\n    tag_46:\n        /* \"#utility.yul\":371:378   */\n      0x00\n        /* \"#utility.yul\":400:405   */\n      dup2\n        /* \"#utility.yul\":389:405   */\n      swap1\n      pop\n        /* \"#utility.yul\":334:411   */\n      swap2\n      swap1\n      pop\n      jump\t// out\n        /* \"#utility.yul\":417:539   */\n    tag_47:\n        /* \"#utility.yul\":490:514   */\n      tag_67\n        /* \"#utility.yul\":508:513   */\n      dup2\n        /* \"#utility.yul\":490:514   */\n      tag_46\n      jump\t// in\n    tag_67:\n        /* \"#utility.yul\":483:488   */\n      dup2\n        /* \"#utility.yul\":480:515   */\n      eq\n        /* \"#utility.yul\":470:533   */\n      tag_68\n      jumpi\n        /* \"#utility.yul\":529:530   */\n      0x00\n        /* \"#utility.yul\":526:527   */\n      dup1\n        /* \"#utility.yul\":519:531   */\n      revert\n        /* \"#utility.yul\":470:533   */\n    tag_68:\n        /* \"#utility.yul\":417:539   */\n      pop\n      jump\t// out\n        /* \"#utility.yul\":545:684   */\n    tag_48:\n        /* \"#utility.yul\":591:596   */\n      0x00\n        /* \"#utility.yul\":629:635   */\n      dup2\n        /* \"#utility.yul\":616:636   */\n      calldataload\n        /* \"#utility.yul\":607:636   */\n      swap1\n      pop\n        /* \"#utility.yul\":645:678   */\n      tag_70\n        /* \"#utility.yul\":672:677   */\n      dup2\n        /* \"#utility.yul\":645:678   */\n      tag_47\n      jump\t// in\n    tag_70:\n        /* \"#utility.yul\":545:684   */\n      swap3\n      swap2\n      pop\n      pop\n      jump\t// out\n        /* \"#utility.yul\":690:1019   */\n    tag_9:\n        /* \"#utility.yul\":749:755   */\n      0x00\n        /* \"#utility.yul\":798:800   */\n      0x20\n        /* \"#utility.yul\":786:795   */\n      dup3\n        /* \"#utility.yul\":777:784   */\n      dup5\n        /* \"#utility.yul\":773:796   */\n      sub\n        /* \"#utility.yul\":769:801   */\n      slt\n        /* \"#utility.yul\":766:885   */\n      iszero\n      tag_72\n      jumpi\n        /* \"#utility.yul\":804:883   */\n      tag_73\n      tag_44\n      jump\t// in\n    tag_73:\n        /* \"#utility.yul\":766:885   */\n    tag_72:\n        /* \"#utility.yul\":924:925   */\n      0x00\n        /* \"#utility.yul\":949:1002   */\n      tag_74\n        /* \"#utility.yul\":994:1001   */\n      dup5\n        /* \"#utility.yul\":985:991   */\n      dup3\n        /* \"#utility.yul\":974:983   */\n      dup6\n        /* \"#utility.yul\":970:992   */\n      add\n        /* \"#utility.yul\":949:1002   */\n      tag_48\n      jump\t// in\n    tag_74:\n        /* \"#utility.yul\":939:1002   */\n      swap2\n      pop\n        /* \"#utility.yul\":895:1012   */\n      pop\n        /* \"#utility.yul\":690:1019   */\n      swap3\n      swap2\n      pop\n      pop\n      jump\t// out\n        /* \"#utility.yul\":1025:1124   */\n    tag_49:\n        /* \"#utility.yul\":1077:1083   */\n      0x00\n        /* \"#utility.yul\":1111:1116   */\n      dup2\n        /* \"#utility.yul\":1105:1117   */\n      mload\n        /* \"#utility.yul\":1095:1117   */\n      swap1\n      pop\n        /* \"#utility.yul\":1025:1124   */\n      swap2\n      swap1\n      pop\n      jump\t// out\n        /* \"#utility.yul\":1130:1299   */\n    tag_50:\n        /* \"#utility.yul\":1214:1225   */\n      0x00\n        /* \"#utility.yul\":1248:1254   */\n      dup3\n        /* \"#utility.yul\":1243:1246   */\n      dup3\n        /* \"#utility.yul\":1236:1255   */\n      mstore\n        /* \"#utility.yul\":1288:1292   */\n      0x20\n        /* \"#utility.yul\":1283:1286   */\n      dup3\n        /* \"#utility.yul\":1279:1293   */\n      add\n        /* \"#utility.yul\":1264:1293   */\n      swap1\n      pop\n        /* \"#utility.yul\":1130:1299   */\n      swap3\n      swap2\n      pop\n      pop\n      jump\t// out\n        /* \"#utility.yul\":1305:1612   */\n    tag_51:\n        /* \"#utility.yul\":1373:1374   */\n      0x00\n        /* \"#utility.yul\":1383:1496   */\n    tag_78:\n        /* \"#utility.yul\":1397:1403   */\n      dup4\n        /* \"#utility.yul\":1394:1395   */\n      dup2\n        /* \"#utility.yul\":1391:1404   */\n      lt\n        /* \"#utility.yul\":1383:1496   */\n      iszero\n      tag_80\n      jumpi\n        /* \"#utility.yul\":1482:1483   */\n      dup1\n        /* \"#utility.yul\":1477:1480   */\n      dup3\n        /* \"#utility.yul\":1473:1484   */\n      add\n        /* \"#utility.yul\":1467:1485   */\n      mload\n        /* \"#utility.yul\":1463:1464   */\n      dup2\n        /* \"#utility.yul\":1458:1461   */\n      dup5\n        /* \"#utility.yul\":1454:1465   */\n      add\n        /* \"#utility.yul\":1447:1486   */\n      mstore\n        /* \"#utility.yul\":1419:1421   */\n      0x20\n        /* \"#utility.yul\":1416:1417   */\n      dup2\n        /* \"#utility.yul\":1412:1422   */\n      add\n        /* \"#utility.yul\":1407:1422   */\n      swap1\n      pop\n        /* \"#utility.yul\":1383:1496   */\n      jump(tag_78)\n    tag_80:\n        /* \"#utility.yul\":1514:1520   */\n      dup4\n        /* \"#utility.yul\":1511:1512   */\n      dup2\n        /* \"#utility.yul\":1508:1521   */\n      gt\n        /* \"#utility.yul\":1505:1606   */\n      iszero\n      tag_81\n      jumpi\n        /* \"#utility.yul\":1594:1595   */\n      0x00\n        /* \"#utility.yul\":1585:1591   */\n      dup5\n        /* \"#utility.yul\":1580:1583   */\n      dup5\n        /* \"#utility.yul\":1576:1592   */\n      add\n        /* \"#utility.yul\":1569:1596   */\n      mstore\n        /* \"#utility.yul\":1505:1606   */\n    tag_81:\n        /* \"#utility.yul\":1354:1612   */\n      pop\n        /* \"#utility.yul\":1305:1612   */\n      pop\n      pop\n      pop\n      jump\t// out\n        /* \"#utility.yul\":1618:1720   */\n    tag_52:\n        /* \"#utility.yul\":1659:1665   */\n      0x00\n        /* \"#utility.yul\":1710:1712   */\n      0x1f\n        /* \"#utility.yul\":1706:1713   */\n      not\n        /* \"#utility.yul\":1701:1703   */\n      0x1f\n        /* \"#utility.yul\":1694:1699   */\n      dup4\n        /* \"#utility.yul\":1690:1704   */\n      add\n        /* \"#utility.yul\":1686:1714   */\n      and\n        /* \"#utility.yul\":1676:1714   */\n      swap1\n      pop\n        /* \"#utility.yul\":1618:1720   */\n      swap2\n      swap1\n      pop\n      jump\t// out\n        /* \"#utility.yul\":1726:2090   */\n    tag_53:\n        /* \"#utility.yul\":1814:1817   */\n      0x00\n        /* \"#utility.yul\":1842:1881   */\n      tag_84\n        /* \"#utility.yul\":1875:1880   */\n      dup3\n        /* \"#utility.yul\":1842:1881   */\n      tag_49\n      jump\t// in\n    tag_84:\n        /* \"#utility.yul\":1897:1968   */\n      tag_85\n        /* \"#utility.yul\":1961:1967   */\n      dup2\n        /* \"#utility.yul\":1956:1959   */\n      dup6\n        /* \"#utility.yul\":1897:1968   */\n      tag_50\n      jump\t// in\n    tag_85:\n        /* \"#utility.yul\":1890:1968   */\n      swap4\n      pop\n        /* \"#utility.yul\":1977:2029   */\n      tag_86\n        /* \"#utility.yul\":2022:2028   */\n      dup2\n        /* \"#utility.yul\":2017:2020   */\n      dup6\n        /* \"#utility.yul\":2010:2014   */\n      0x20\n        /* \"#utility.yul\":2003:2008   */\n      dup7\n        /* \"#utility.yul\":1999:2015   */\n      add\n        /* \"#utility.yul\":1977:2029   */\n      tag_51\n      jump\t// in\n    tag_86:\n        /* \"#utility.yul\":2054:2083   */\n      tag_87\n        /* \"#utility.yul\":2076:2082   */\n      dup2\n        /* \"#utility.yul\":2054:2083   */\n      tag_52\n      jump\t// in\n    tag_87:\n        /* \"#utility.yul\":2049:2052   */\n      dup5\n        /* \"#utility.yul\":2045:2084   */\n      add\n        /* \"#utility.yul\":2038:2084   */\n      swap2\n      pop\n        /* \"#utility.yul\":1818:2090   */\n      pop\n        /* \"#utility.yul\":1726:2090   */\n      swap3\n      swap2\n      pop\n      pop\n      jump\t// out\n        /* \"#utility.yul\":2096:2409   */\n    tag_12:\n        /* \"#utility.yul\":2209:2213   */\n      0x00\n        /* \"#utility.yul\":2247:2249   */\n      0x20\n        /* \"#utility.yul\":2236:2245   */\n      dup3\n        /* \"#utility.yul\":2232:2250   */\n      add\n        /* \"#utility.yul\":2224:2250   */\n      swap1\n      pop\n        /* \"#utility.yul\":2296:2305   */\n      dup2\n        /* \"#utility.yul\":2290:2294   */\n      dup2\n        /* \"#utility.yul\":2286:2306   */\n      sub\n        /* \"#utility.yul\":2282:2283   */\n      0x00\n        /* \"#utility.yul\":2271:2280   */\n      dup4\n        /* \"#utility.yul\":2267:2284   */\n      add\n        /* \"#utility.yul\":2260:2307   */\n      mstore\n        /* \"#utility.yul\":2324:2402   */\n      tag_89\n        /* \"#utility.yul\":2397:2401   */\n      dup2\n        /* \"#utility.yul\":2388:2394   */\n      dup5\n        /* \"#utility.yul\":2324:2402   */\n      tag_53\n      jump\t// in\n    tag_89:\n        /* \"#utility.yul\":2316:2402   */\n      swap1\n      pop\n        /* \"#utility.yul\":2096:2409   */\n      swap3\n      swap2\n      pop\n      pop\n      jump\t// out\n        /* \"#utility.yul\":2415:2505   */\n    tag_54:\n        /* \"#utility.yul\":2449:2456   */\n      0x00\n        /* \"#utility.yul\":2492:2497   */\n      dup2\n        /* \"#utility.yul\":2485:2498   */\n      iszero\n        /* \"#utility.yul\":2478:2499   */\n      iszero\n        /* \"#utility.yul\":2467:2499   */\n      swap1\n      pop\n        /* \"#utility.yul\":2415:2505   */\n      swap2\n      swap1\n      pop\n      jump\t// out\n        /* \"#utility.yul\":2511:2620   */\n    tag_55:\n        /* \"#utility.yul\":2592:2613   */\n      tag_92\n        /* \"#utility.yul\":2607:2612   */\n      dup2\n        /* \"#utility.yul\":2592:2613   */\n      tag_54\n      jump\t// in\n    tag_92:\n        /* \"#utility.yul\":2587:2590   */\n      dup3\n        /* \"#utility.yul\":2580:2614   */\n      mstore\n        /* \"#utility.yul\":2511:2620   */\n      pop\n      pop\n      jump\t// out\n        /* \"#utility.yul\":2626:2836   */\n    tag_16:\n        /* \"#utility.yul\":2713:2717   */\n      0x00\n        /* \"#utility.yul\":2751:2753   */\n      0x20\n        /* \"#utility.yul\":2740:2749   */\n      dup3\n        /* \"#utility.yul\":2736:2754   */\n      add\n        /* \"#utility.yul\":2728:2754   */\n      swap1\n      pop\n        /* \"#utility.yul\":2764:2829   */\n      tag_94\n        /* \"#utility.yul\":2826:2827   */\n      0x00\n        /* \"#utility.yul\":2815:2824   */\n      dup4\n        /* \"#utility.yul\":2811:2828   */\n      add\n        /* \"#utility.yul\":2802:2808   */\n      dup5\n        /* \"#utility.yul\":2764:2829   */\n      tag_55\n      jump\t// in\n    tag_94:\n        /* \"#utility.yul\":2626:2836   */\n      swap3\n      swap2\n      pop\n      pop\n      jump\t// out\n        /* \"#utility.yul\":2842:2960   */\n    tag_56:\n        /* \"#utility.yul\":2929:2953   */\n      tag_96\n        /* \"#utility.yul\":2947:2952   */\n      dup2\n        /* \"#utility.yul\":2929:2953   */\n      tag_46\n      jump\t// in\n    tag_96:\n        /* \"#utility.yul\":2924:2927   */\n      dup3\n        /* \"#utility.yul\":2917:2954   */\n      mstore\n        /* \"#utility.yul\":2842:2960   */\n      pop\n      pop\n      jump\t// out\n        /* \"#utility.yul\":2966:3188   */\n    tag_23:\n        /* \"#utility.yul\":3059:3063   */\n      0x00\n        /* \"#utility.yul\":3097:3099   */\n      0x20\n        /* \"#utility.yul\":3086:3095   */\n      dup3\n        /* \"#utility.yul\":3082:3100   */\n      add\n        /* \"#utility.yul\":3074:3100   */\n      swap1\n      pop\n        /* \"#utility.yul\":3110:3181   */\n      tag_98\n        /* \"#utility.yul\":3178:3179   */\n      0x00\n        /* \"#utility.yul\":3167:3176   */\n      dup4\n        /* \"#utility.yul\":3163:3180   */\n      add\n        /* \"#utility.yul\":3154:3160   */\n      dup5\n        /* \"#utility.yul\":3110:3181   */\n      tag_56\n      jump\t// in\n    tag_98:\n        /* \"#utility.yul\":2966:3188   */\n      swap3\n      swap2\n      pop\n      pop\n      jump\t// out\n        /* \"#utility.yul\":3194:3374   */\n    tag_57:\n        /* \"#utility.yul\":3242:3319   */\n      0x4e487b7100000000000000000000000000000000000000000000000000000000\n        /* \"#utility.yul\":3239:3240   */\n      0x00\n        /* \"#utility.yul\":3232:3320   */\n      mstore\n        /* \"#utility.yul\":3339:3343   */\n      0x11\n        /* \"#utility.yul\":3336:3337   */\n      0x04\n        /* \"#utility.yul\":3329:3344   */\n      mstore\n        /* \"#utility.yul\":3363:3367   */\n      0x24\n        /* \"#utility.yul\":3360:3361   */\n      0x00\n        /* \"#utility.yul\":3353:3368   */\n      revert\n        /* \"#utility.yul\":3380:3685   */\n    tag_34:\n        /* \"#utility.yul\":3420:3423   */\n      0x00\n        /* \"#utility.yul\":3439:3459   */\n      tag_101\n        /* \"#utility.yul\":3457:3458   */\n      dup3\n        /* \"#utility.yul\":3439:3459   */\n      tag_46\n      jump\t// in\n    tag_101:\n        /* \"#utility.yul\":3434:3459   */\n      swap2\n      pop\n        /* \"#utility.yul\":3473:3493   */\n      tag_102\n        /* \"#utility.yul\":3491:3492   */\n      dup4\n        /* \"#utility.yul\":3473:3493   */\n      tag_46\n      jump\t// in\n    tag_102:\n        /* \"#utility.yul\":3468:3493   */\n      swap3\n      pop\n        /* \"#utility.yul\":3627:3628   */\n      dup3\n        /* \"#utility.yul\":3559:3625   */\n      0xffffffffffffffffffffffffffffffffffffffffffffffffffffffffffffffff\n        /* \"#utility.yul\":3555:3629   */\n      sub\n        /* \"#utility.yul\":3552:3553   */\n      dup3\n        /* \"#utility.yul\":3549:3630   */\n      gt\n        /* \"#utility.yul\":3546:3653   */\n      iszero\n      tag_103\n      jumpi\n        /* \"#utility.yul\":3633:3651   */\n      tag_104\n      tag_57\n      jump\t// in\n    tag_104:\n        /* \"#utility.yul\":3546:3653   */\n    tag_103:\n        /* \"#utility.yul\":3677:3678   */\n      dup3\n        /* \"#utility.yul\":3674:3675   */\n      dup3\n        /* \"#utility.yul\":3670:3679   */\n      add\n        /* \"#utility.yul\":3663:3679   */\n      swap1\n      pop\n        /* \"#utility.yul\":3380:3685   */\n      swap3\n      swap2\n      pop\n      pop\n      jump\t// out\n        /* \"#utility.yul\":3691:3924   */\n    tag_38:\n        /* \"#utility.yul\":3730:3733   */\n      0x00\n        /* \"#utility.yul\":3753:3777   */\n      tag_106\n        /* \"#utility.yul\":3771:3776   */\n      dup3\n        /* \"#utility.yul\":3753:3777   */\n      tag_46\n      jump\t// in\n    tag_106:\n        /* \"#utility.yul\":3744:3777   */\n      swap2\n      pop\n        /* \"#utility.yul\":3799:3865   */\n      0xffffffffffffffffffffffffffffffffffffffffffffffffffffffffffffffff\n        /* \"#utility.yul\":3792:3797   */\n      dup3\n        /* \"#utility.yul\":3789:3866   */\n      sub\n        /* \"#utility.yul\":3786:3889   */\n      tag_107\n      jumpi\n        /* \"#utility.yul\":3869:3887   */\n      tag_108\n      tag_57\n      jump\t// in\n    tag_108:\n        /* \"#utility.yul\":3786:3889   */\n    tag_107:\n        /* \"#utility.yul\":3916:3917   */\n      0x01\n        /* \"#utility.yul\":3909:3914   */\n      dup3\n        /* \"#utility.yul\":3905:3918   */\n      add\n        /* \"#utility.yul\":3898:3918   */\n      swap1\n      pop\n        /* \"#utility.yul\":3691:3924   */\n      swap2\n      swap1\n      pop\n      jump\t// out\n        /* \"#utility.yul\":3930:4009   */\n    tag_58:\n        /* \"#utility.yul\":3969:3976   */\n      0x00\n        /* \"#utility.yul\":3998:4003   */\n      dup2\n        /* \"#utility.yul\":3987:4003   */\n      swap1\n      pop\n        /* \"#utility.yul\":3930:4009   */\n      swap2\n      swap1\n      pop\n      jump\t// out\n        /* \"#utility.yul\":4015:4172   */\n    tag_59:\n        /* \"#utility.yul\":4120:4165   */\n      tag_111\n        /* \"#utility.yul\":4140:4164   */\n      tag_112\n        /* \"#utility.yul\":4158:4163   */\n      dup3\n        /* \"#utility.yul\":4140:4164   */\n      tag_46\n      jump\t// in\n    tag_112:\n        /* \"#utility.yul\":4120:4165   */\n      tag_58\n      jump\t// in\n    tag_111:\n        /* \"#utility.yul\":4115:4118   */\n      dup3\n        /* \"#utility.yul\":4108:4166   */\n      mstore\n        /* \"#utility.yul\":4015:4172   */\n      pop\n      pop\n      jump\t// out\n        /* \"#utility.yul\":4178:4716   */\n    tag_40:\n        /* \"#utility.yul\":4346:4349   */\n      0x00\n        /* \"#utility.yul\":4361:4436   */\n      tag_114\n        /* \"#utility.yul\":4432:4435   */\n      dup3\n        /* \"#utility.yul\":4423:4429   */\n      dup7\n        /* \"#utility.yul\":4361:4436   */\n      tag_59\n      jump\t// in\n    tag_114:\n        /* \"#utility.yul\":4461:4463   */\n      0x20\n        /* \"#utility.yul\":4456:4459   */\n      dup3\n        /* \"#utility.yul\":4452:4464   */\n      add\n        /* \"#utility.yul\":4445:4464   */\n      swap2\n      pop\n        /* \"#utility.yul\":4474:4549   */\n      tag_115\n        /* \"#utility.yul\":4545:4548   */\n      dup3\n        /* \"#utility.yul\":4536:4542   */\n      dup6\n        /* \"#utility.yul\":4474:4549   */\n      tag_59\n      jump\t// in\n    tag_115:\n        /* \"#utility.yul\":4574:4576   */\n      0x20\n        /* \"#utility.yul\":4569:4572   */\n      dup3\n        /* \"#utility.yul\":4565:4577   */\n      add\n        /* \"#utility.yul\":4558:4577   */\n      swap2\n      pop\n        /* \"#utility.yul\":4587:4662   */\n      tag_116\n        /* \"#utility.yul\":4658:4661   */\n      dup3\n        /* \"#utility.yul\":4649:4655   */\n      dup5\n        /* \"#utility.yul\":4587:4662   */\n      tag_59\n      jump\t// in\n    tag_116:\n        /* \"#utility.yul\":4687:4689   */\n      0x20\n        /* \"#utility.yul\":4682:4685   */\n      dup3\n        /* \"#utility.yul\":4678:4690   */\n      add\n        /* \"#utility.yul\":4671:4690   */\n      swap2\n      pop\n        /* \"#utility.yul\":4707:4710   */\n      dup2\n        /* \"#utility.yul\":4700:4710   */\n      swap1\n      pop\n        /* \"#utility.yul\":4178:4716   */\n      swap5\n      swap4\n      pop\n      pop\n      pop\n      pop\n      jump\t// out\n        /* \"#utility.yul\":4722:4902   */\n    tag_60:\n        /* \"#utility.yul\":4770:4847   */\n      0x4e487b7100000000000000000000000000000000000000000000000000000000\n        /* \"#utility.yul\":4767:4768   */\n      0x00\n        /* \"#utility.yul\":4760:4848   */\n      mstore\n        /* \"#utility.yul\":4867:4871   */\n      0x12\n        /* \"#utility.yul\":4864:4865   */\n      0x04\n        /* \"#utility.yul\":4857:4872   */\n      mstore\n        /* \"#utility.yul\":4891:4895   */\n      0x24\n        /* \"#utility.yul\":4888:4889   */\n      0x00\n        /* \"#utility.yul\":4881:4896   */\n      revert\n        /* \"#utility.yul\":4908:5084   */\n    tag_42:\n        /* \"#utility.yul\":4940:4941   */\n      0x00\n        /* \"#utility.yul\":4957:4977   */\n      tag_119\n        /* \"#utility.yul\":4975:4976   */\n      dup3\n        /* \"#utility.yul\":4957:4977   */\n      tag_46\n      jump\t// in\n    tag_119:\n        /* \"#utility.yul\":4952:4977   */\n      swap2\n      pop\n        /* \"#utility.yul\":4991:5011   */\n      tag_120\n        /* \"#utility.yul\":5009:5010   */\n      dup4\n        /* \"#utility.yul\":4991:5011   */\n      tag_46\n      jump\t// in\n    tag_120:\n        /* \"#utility.yul\":4986:5011   */\n      swap3\n      pop\n        /* \"#utility.yul\":5030:5031   */\n      dup3\n        /* \"#utility.yul\":5020:5055   */\n      tag_121\n      jumpi\n        /* \"#utility.yul\":5035:5053   */\n      tag_122\n      tag_60\n      jump\t// in\n    tag_122:\n        /* \"#utility.yul\":5020:5055   */\n    tag_121:\n        /* \"#utility.yul\":5076:5077   */\n      dup3\n        /* \"#utility.yul\":5073:5074   */\n      dup3\n        /* \"#utility.yul\":5069:5078   */\n      mod\n        /* \"#utility.yul\":5064:5078   */\n      swap1\n      pop\n        /* \"#utility.yul\":4908:5084   */\n      swap3\n      swap2\n      pop\n      pop\n      jump\t// out\n\n    auxdata: 0xa2646970667358221220bcecfbf656bc20b6f5b5135bd8c22416813db6683b5ccdab9e65ee2f60f1c4f164736f6c634300080d0033\n}\n",
				"bytecode": {
					"linkReferences": {},
					"object": "6080604052600160025534801561001557600080fd5b50600080819055506000600160006101000a81548160ff0219169083151502179055506105fc806100476000396000f3fe608060405234801561001057600080fd5b506004361061004c5760003560e01c80630e7ccaf014610051578063b2a1449b14610081578063d826f88f1461009f578063efedc669146100bd575b600080fd5b61006b600480360381019061006691906102f3565b6100db565b60405161007891906103b9565b60405180910390f35b6100896101e2565b60405161009691906103f6565b60405180910390f35b6100a76101f5565b6040516100b491906103b9565b60405180910390f35b6100c5610254565b6040516100d29190610420565b60405180910390f35b606060006100e9600661025a565b905060018310806100fa5750600683115b1561013d576040518060400160405280601b81526020017f506c6561736520456e74657220612056616c6964204e756d62657200000000008152509150506101dd565b6000810361014a57600690505b82810361018f576040518060400160405280600681526020017f2d2d204f555400000000000000000000000000000000000000000000000000008152509150506101dd565b8060005461019d919061046a565b6000819055506040518060400160405280601081526020017f72616e646f6e756d6265722052554e53000000000000000000000000000000008152509150505b919050565b600160009054906101000a900460ff1681565b6060600080819055506000600160006101000a81548160ff0219169083151502179055506040518060400160405280601281526020017f5245534554205375636365737366756c6c790000000000000000000000000000815250905090565b60005481565b60006002600081548092919061026f906104c0565b9190505550814260005460025460405160200161028e93929190610529565b6040516020818303038152906040528051906020012060001c6102b19190610595565b9050919050565b600080fd5b6000819050919050565b6102d0816102bd565b81146102db57600080fd5b50565b6000813590506102ed816102c7565b92915050565b600060208284031215610309576103086102b8565b5b6000610317848285016102de565b91505092915050565b600081519050919050565b600082825260208201905092915050565b60005b8381101561035a57808201518184015260208101905061033f565b83811115610369576000848401525b50505050565b6000601f19601f8301169050919050565b600061038b82610320565b610395818561032b565b93506103a581856020860161033c565b6103ae8161036f565b840191505092915050565b600060208201905081810360008301526103d38184610380565b905092915050565b60008115159050919050565b6103f0816103db565b82525050565b600060208201905061040b60008301846103e7565b92915050565b61041a816102bd565b82525050565b60006020820190506104356000830184610411565b92915050565b7f4e487b7100000000000000000000000000000000000000000000000000000000600052601160045260246000fd5b6000610475826102bd565b9150610480836102bd565b9250827fffffffffffffffffffffffffffffffffffffffffffffffffffffffffffffffff038211156104b5576104b461043b565b5b828201905092915050565b60006104cb826102bd565b91507fffffffffffffffffffffffffffffffffffffffffffffffffffffffffffffffff82036104fd576104fc61043b565b5b600182019050919050565b6000819050919050565b61052361051e826102bd565b610508565b82525050565b60006105358286610512565b6020820191506105458285610512565b6020820191506105558284610512565b602082019150819050949350505050565b7f4e487b7100000000000000000000000000000000000000000000000000000000600052601260045260246000fd5b60006105a0826102bd565b91506105ab836102bd565b9250826105bb576105ba610566565b5b82820690509291505056fea2646970667358221220bcecfbf656bc20b6f5b5135bd8c22416813db6683b5ccdab9e65ee2f60f1c4f164736f6c634300080d0033",
					"opcodes": "PUSH1 0x80 PUSH1 0x40 MSTORE PUSH1 0x1 PUSH1 0x2 SSTORE CALLVALUE DUP1 ISZERO PUSH2 0x15 JUMPI PUSH1 0x0 DUP1 REVERT JUMPDEST POP PUSH1 0x0 DUP1 DUP2 SWAP1 SSTORE POP PUSH1 0x0 PUSH1 0x1 PUSH1 0x0 PUSH2 0x100 EXP DUP2 SLOAD DUP2 PUSH1 0xFF MUL NOT AND SWAP1 DUP4 ISZERO ISZERO MUL OR SWAP1 SSTORE POP PUSH2 0x5FC DUP1 PUSH2 0x47 PUSH1 0x0 CODECOPY PUSH1 0x0 RETURN INVALID PUSH1 0x80 PUSH1 0x40 MSTORE CALLVALUE DUP1 ISZERO PUSH2 0x10 JUMPI PUSH1 0x0 DUP1 REVERT JUMPDEST POP PUSH1 0x4 CALLDATASIZE LT PUSH2 0x4C JUMPI PUSH1 0x0 CALLDATALOAD PUSH1 0xE0 SHR DUP1 PUSH4 0xE7CCAF0 EQ PUSH2 0x51 JUMPI DUP1 PUSH4 0xB2A1449B EQ PUSH2 0x81 JUMPI DUP1 PUSH4 0xD826F88F EQ PUSH2 0x9F JUMPI DUP1 PUSH4 0xEFEDC669 EQ PUSH2 0xBD JUMPI JUMPDEST PUSH1 0x0 DUP1 REVERT JUMPDEST PUSH2 0x6B PUSH1 0x4 DUP1 CALLDATASIZE SUB DUP2 ADD SWAP1 PUSH2 0x66 SWAP2 SWAP1 PUSH2 0x2F3 JUMP JUMPDEST PUSH2 0xDB JUMP JUMPDEST PUSH1 0x40 MLOAD PUSH2 0x78 SWAP2 SWAP1 PUSH2 0x3B9 JUMP JUMPDEST PUSH1 0x40 MLOAD DUP1 SWAP2 SUB SWAP1 RETURN JUMPDEST PUSH2 0x89 PUSH2 0x1E2 JUMP JUMPDEST PUSH1 0x40 MLOAD PUSH2 0x96 SWAP2 SWAP1 PUSH2 0x3F6 JUMP JUMPDEST PUSH1 0x40 MLOAD DUP1 SWAP2 SUB SWAP1 RETURN JUMPDEST PUSH2 0xA7 PUSH2 0x1F5 JUMP JUMPDEST PUSH1 0x40 MLOAD PUSH2 0xB4 SWAP2 SWAP1 PUSH2 0x3B9 JUMP JUMPDEST PUSH1 0x40 MLOAD DUP1 SWAP2 SUB SWAP1 RETURN JUMPDEST PUSH2 0xC5 PUSH2 0x254 JUMP JUMPDEST PUSH1 0x40 MLOAD PUSH2 0xD2 SWAP2 SWAP1 PUSH2 0x420 JUMP JUMPDEST PUSH1 0x40 MLOAD DUP1 SWAP2 SUB SWAP1 RETURN JUMPDEST PUSH1 0x60 PUSH1 0x0 PUSH2 0xE9 PUSH1 0x6 PUSH2 0x25A JUMP JUMPDEST SWAP1 POP PUSH1 0x1 DUP4 LT DUP1 PUSH2 0xFA JUMPI POP PUSH1 0x6 DUP4 GT JUMPDEST ISZERO PUSH2 0x13D JUMPI PUSH1 0x40 MLOAD DUP1 PUSH1 0x40 ADD PUSH1 0x40 MSTORE DUP1 PUSH1 0x1B DUP2 MSTORE PUSH1 0x20 ADD PUSH32 0x506C6561736520456E74657220612056616C6964204E756D6265720000000000 DUP2 MSTORE POP SWAP2 POP POP PUSH2 0x1DD JUMP JUMPDEST PUSH1 0x0 DUP2 SUB PUSH2 0x14A JUMPI PUSH1 0x6 SWAP1 POP JUMPDEST DUP3 DUP2 SUB PUSH2 0x18F JUMPI PUSH1 0x40 MLOAD DUP1 PUSH1 0x40 ADD PUSH1 0x40 MSTORE DUP1 PUSH1 0x6 DUP2 MSTORE PUSH1 0x20 ADD PUSH32 0x2D2D204F55540000000000000000000000000000000000000000000000000000 DUP2 MSTORE POP SWAP2 POP POP PUSH2 0x1DD JUMP JUMPDEST DUP1 PUSH1 0x0 SLOAD PUSH2 0x19D SWAP2 SWAP1 PUSH2 0x46A JUMP JUMPDEST PUSH1 0x0 DUP2 SWAP1 SSTORE POP PUSH1 0x40 MLOAD DUP1 PUSH1 0x40 ADD PUSH1 0x40 MSTORE DUP1 PUSH1 0x10 DUP2 MSTORE PUSH1 0x20 ADD PUSH32 0x72616E646F6E756D6265722052554E5300000000000000000000000000000000 DUP2 MSTORE POP SWAP2 POP POP JUMPDEST SWAP2 SWAP1 POP JUMP JUMPDEST PUSH1 0x1 PUSH1 0x0 SWAP1 SLOAD SWAP1 PUSH2 0x100 EXP SWAP1 DIV PUSH1 0xFF AND DUP2 JUMP JUMPDEST PUSH1 0x60 PUSH1 0x0 DUP1 DUP2 SWAP1 SSTORE POP PUSH1 0x0 PUSH1 0x1 PUSH1 0x0 PUSH2 0x100 EXP DUP2 SLOAD DUP2 PUSH1 0xFF MUL NOT AND SWAP1 DUP4 ISZERO ISZERO MUL OR SWAP1 SSTORE POP PUSH1 0x40 MLOAD DUP1 PUSH1 0x40 ADD PUSH1 0x40 MSTORE DUP1 PUSH1 0x12 DUP2 MSTORE PUSH1 0x20 ADD PUSH32 0x5245534554205375636365737366756C6C790000000000000000000000000000 DUP2 MSTORE POP SWAP1 POP SWAP1 JUMP JUMPDEST PUSH1 0x0 SLOAD DUP2 JUMP JUMPDEST PUSH1 0x0 PUSH1 0x2 PUSH1 0x0 DUP2 SLOAD DUP1 SWAP3 SWAP2 SWAP1 PUSH2 0x26F SWAP1 PUSH2 0x4C0 JUMP JUMPDEST SWAP2 SWAP1 POP SSTORE POP DUP2 TIMESTAMP PUSH1 0x0 SLOAD PUSH1 0x2 SLOAD PUSH1 0x40 MLOAD PUSH1 0x20 ADD PUSH2 0x28E SWAP4 SWAP3 SWAP2 SWAP1 PUSH2 0x529 JUMP JUMPDEST PUSH1 0x40 MLOAD PUSH1 0x20 DUP2 DUP4 SUB SUB DUP2 MSTORE SWAP1 PUSH1 0x40 MSTORE DUP1 MLOAD SWAP1 PUSH1 0x20 ADD KECCAK256 PUSH1 0x0 SHR PUSH2 0x2B1 SWAP2 SWAP1 PUSH2 0x595 JUMP JUMPDEST SWAP1 POP SWAP2 SWAP1 POP JUMP JUMPDEST PUSH1 0x0 DUP1 REVERT JUMPDEST PUSH1 0x0 DUP2 SWAP1 POP SWAP2 SWAP1 POP JUMP JUMPDEST PUSH2 0x2D0 DUP2 PUSH2 0x2BD JUMP JUMPDEST DUP2 EQ PUSH2 0x2DB JUMPI PUSH1 0x0 DUP1 REVERT JUMPDEST POP JUMP JUMPDEST PUSH1 0x0 DUP2 CALLDATALOAD SWAP1 POP PUSH2 0x2ED DUP2 PUSH2 0x2C7 JUMP JUMPDEST SWAP3 SWAP2 POP POP JUMP JUMPDEST PUSH1 0x0 PUSH1 0x20 DUP3 DUP5 SUB SLT ISZERO PUSH2 0x309 JUMPI PUSH2 0x308 PUSH2 0x2B8 JUMP JUMPDEST JUMPDEST PUSH1 0x0 PUSH2 0x317 DUP5 DUP3 DUP6 ADD PUSH2 0x2DE JUMP JUMPDEST SWAP2 POP POP SWAP3 SWAP2 POP POP JUMP JUMPDEST PUSH1 0x0 DUP2 MLOAD SWAP1 POP SWAP2 SWAP1 POP JUMP JUMPDEST PUSH1 0x0 DUP3 DUP3 MSTORE PUSH1 0x20 DUP3 ADD SWAP1 POP SWAP3 SWAP2 POP POP JUMP JUMPDEST PUSH1 0x0 JUMPDEST DUP4 DUP2 LT ISZERO PUSH2 0x35A JUMPI DUP1 DUP3 ADD MLOAD DUP2 DUP5 ADD MSTORE PUSH1 0x20 DUP2 ADD SWAP1 POP PUSH2 0x33F JUMP JUMPDEST DUP4 DUP2 GT ISZERO PUSH2 0x369 JUMPI PUSH1 0x0 DUP5 DUP5 ADD MSTORE JUMPDEST POP POP POP POP JUMP JUMPDEST PUSH1 0x0 PUSH1 0x1F NOT PUSH1 0x1F DUP4 ADD AND SWAP1 POP SWAP2 SWAP1 POP JUMP JUMPDEST PUSH1 0x0 PUSH2 0x38B DUP3 PUSH2 0x320 JUMP JUMPDEST PUSH2 0x395 DUP2 DUP6 PUSH2 0x32B JUMP JUMPDEST SWAP4 POP PUSH2 0x3A5 DUP2 DUP6 PUSH1 0x20 DUP7 ADD PUSH2 0x33C JUMP JUMPDEST PUSH2 0x3AE DUP2 PUSH2 0x36F JUMP JUMPDEST DUP5 ADD SWAP2 POP POP SWAP3 SWAP2 POP POP JUMP JUMPDEST PUSH1 0x0 PUSH1 0x20 DUP3 ADD SWAP1 POP DUP2 DUP2 SUB PUSH1 0x0 DUP4 ADD MSTORE PUSH2 0x3D3 DUP2 DUP5 PUSH2 0x380 JUMP JUMPDEST SWAP1 POP SWAP3 SWAP2 POP POP JUMP JUMPDEST PUSH1 0x0 DUP2 ISZERO ISZERO SWAP1 POP SWAP2 SWAP1 POP JUMP JUMPDEST PUSH2 0x3F0 DUP2 PUSH2 0x3DB JUMP JUMPDEST DUP3 MSTORE POP POP JUMP JUMPDEST PUSH1 0x0 PUSH1 0x20 DUP3 ADD SWAP1 POP PUSH2 0x40B PUSH1 0x0 DUP4 ADD DUP5 PUSH2 0x3E7 JUMP JUMPDEST SWAP3 SWAP2 POP POP JUMP JUMPDEST PUSH2 0x41A DUP2 PUSH2 0x2BD JUMP JUMPDEST DUP3 MSTORE POP POP JUMP JUMPDEST PUSH1 0x0 PUSH1 0x20 DUP3 ADD SWAP1 POP PUSH2 0x435 PUSH1 0x0 DUP4 ADD DUP5 PUSH2 0x411 JUMP JUMPDEST SWAP3 SWAP2 POP POP JUMP JUMPDEST PUSH32 0x4E487B7100000000000000000000000000000000000000000000000000000000 PUSH1 0x0 MSTORE PUSH1 0x11 PUSH1 0x4 MSTORE PUSH1 0x24 PUSH1 0x0 REVERT JUMPDEST PUSH1 0x0 PUSH2 0x475 DUP3 PUSH2 0x2BD JUMP JUMPDEST SWAP2 POP PUSH2 0x480 DUP4 PUSH2 0x2BD JUMP JUMPDEST SWAP3 POP DUP3 PUSH32 0xFFFFFFFFFFFFFFFFFFFFFFFFFFFFFFFFFFFFFFFFFFFFFFFFFFFFFFFFFFFFFFFF SUB DUP3 GT ISZERO PUSH2 0x4B5 JUMPI PUSH2 0x4B4 PUSH2 0x43B JUMP JUMPDEST JUMPDEST DUP3 DUP3 ADD SWAP1 POP SWAP3 SWAP2 POP POP JUMP JUMPDEST PUSH1 0x0 PUSH2 0x4CB DUP3 PUSH2 0x2BD JUMP JUMPDEST SWAP2 POP PUSH32 0xFFFFFFFFFFFFFFFFFFFFFFFFFFFFFFFFFFFFFFFFFFFFFFFFFFFFFFFFFFFFFFFF DUP3 SUB PUSH2 0x4FD JUMPI PUSH2 0x4FC PUSH2 0x43B JUMP JUMPDEST JUMPDEST PUSH1 0x1 DUP3 ADD SWAP1 POP SWAP2 SWAP1 POP JUMP JUMPDEST PUSH1 0x0 DUP2 SWAP1 POP SWAP2 SWAP1 POP JUMP JUMPDEST PUSH2 0x523 PUSH2 0x51E DUP3 PUSH2 0x2BD JUMP JUMPDEST PUSH2 0x508 JUMP JUMPDEST DUP3 MSTORE POP POP JUMP JUMPDEST PUSH1 0x0 PUSH2 0x535 DUP3 DUP7 PUSH2 0x512 JUMP JUMPDEST PUSH1 0x20 DUP3 ADD SWAP2 POP PUSH2 0x545 DUP3 DUP6 PUSH2 0x512 JUMP JUMPDEST PUSH1 0x20 DUP3 ADD SWAP2 POP PUSH2 0x555 DUP3 DUP5 PUSH2 0x512 JUMP JUMPDEST PUSH1 0x20 DUP3 ADD SWAP2 POP DUP2 SWAP1 POP SWAP5 SWAP4 POP POP POP POP JUMP JUMPDEST PUSH32 0x4E487B7100000000000000000000000000000000000000000000000000000000 PUSH1 0x0 MSTORE PUSH1 0x12 PUSH1 0x4 MSTORE PUSH1 0x24 PUSH1 0x0 REVERT JUMPDEST PUSH1 0x0 PUSH2 0x5A0 DUP3 PUSH2 0x2BD JUMP JUMPDEST SWAP2 POP PUSH2 0x5AB DUP4 PUSH2 0x2BD JUMP JUMPDEST SWAP3 POP DUP3 PUSH2 0x5BB JUMPI PUSH2 0x5BA PUSH2 0x566 JUMP JUMPDEST JUMPDEST DUP3 DUP3 MOD SWAP1 POP SWAP3 SWAP2 POP POP JUMP INVALID LOG2 PUSH5 0x6970667358 0x22 SLT KECCAK256 0xBC 0xEC 0xFB 0xF6 JUMP 0xBC KECCAK256 0xB6 CREATE2 0xB5 SGT JUMPDEST 0xD8 0xC2 0x24 AND DUP2 RETURNDATASIZE 0xB6 PUSH9 0x3B5CCDAB9E65EE2F60 CALL 0xC4 CALL PUSH5 0x736F6C6343 STOP ADDMOD 0xD STOP CALLER "
				},
				"gasEstimates": {
					"creation": {
						"codeDepositCost": "306400",
						"executionCost": "51730",
						"totalCost": "358130"
					},
					"external": {
						"out()": "2471",
						"reset()": "infinite",
						"score()": "2473",
						"takeinput(uint256)": "infinite"
					},
					"internal": {
						"randMod(uint256)": "infinite"
					}
				},
				"methodIdentifiers": {
					"out()": "b2a1449b",
					"reset()": "d826f88f",
					"score()": "efedc669",
					"takeinput(uint256)": "0e7ccaf0"
				}
			},
			"storageLayout": {
				"storage": [
					{
						"astId": 3,
						"contract": "contracts/4_OddEve.sol:oddEve",
						"label": "score",
						"offset": 0,
						"slot": "0",
						"type": "t_uint256"
					},
					{
						"astId": 5,
						"contract": "contracts/4_OddEve.sol:oddEve",
						"label": "out",
						"offset": 0,
						"slot": "1",
						"type": "t_bool"
					},
					{
						"astId": 70,
						"contract": "contracts/4_OddEve.sol:oddEve",
						"label": "randNonce",
						"offset": 0,
						"slot": "2",
						"type": "t_uint256"
					}
				],
				"types": {
					"t_bool": {
						"encoding": "inplace",
						"label": "bool",
						"numberOfBytes": "1"
					},
					"t_uint256": {
						"encoding": "inplace",
						"label": "uint256",
						"numberOfBytes": "32"
					}
				}
			},
			"userdoc": {
				"kind": "user",
				"methods": {},
				"version": 1
			}
		}
	}
}