{
	"contracts/4_OddEve.sol": {
		"oddEve": {
			"abi": [
				{
					"inputs": [],
					"stateMutability": "nonpayable",
					"type": "constructor"
				},
				{
					"inputs": [
						{
							"internalType": "uint256",
							"name": "_modulus",
							"type": "uint256"
						}
					],
					"name": "randMod",
					"outputs": [
						{
							"internalType": "uint256",
							"name": "",
							"type": "uint256"
						}
					],
					"stateMutability": "nonpayable",
					"type": "function"
				},
				{
					"inputs": [],
					"name": "reset",
					"outputs": [
						{
							"internalType": "string",
							"name": "",
							"type": "string"
						}
					],
					"stateMutability": "nonpayable",
					"type": "function"
				},
				{
					"inputs": [],
					"name": "score",
					"outputs": [
						{
							"internalType": "uint256",
							"name": "",
							"type": "uint256"
						}
					],
					"stateMutability": "view",
					"type": "function"
				},
				{
					"inputs": [
						{
							"internalType": "uint256",
							"name": "_inputnumber",
							"type": "uint256"
						}
					],
					"name": "takeinput",
					"outputs": [
						{
							"internalType": "string",
							"name": "",
							"type": "string"
						}
					],
					"stateMutability": "nonpayable",
					"type": "function"
				}
			],
			"devdoc": {
				"kind": "dev",
				"methods": {},
				"version": 1
			},
			"evm": {
				"assembly": "    /* \"contracts/4_OddEve.sol\":72:1268  contract oddEve{... */\n  mstore(0x40, 0x80)\n    /* \"contracts/4_OddEve.sol\":1044:1045  0 */\n  0x00\n    /* \"contracts/4_OddEve.sol\":1027:1045  uint randNonce = 0 */\n  0x02\n  sstore\n    /* \"contracts/4_OddEve.sol\":144:191  constructor()... */\n  callvalue\n  dup1\n  iszero\n  tag_1\n  jumpi\n  0x00\n  dup1\n  revert\ntag_1:\n  pop\n    /* \"contracts/4_OddEve.sol\":182:183  0 */\n  0x00\n    /* \"contracts/4_OddEve.sol\":174:179  score */\n  dup1\n    /* \"contracts/4_OddEve.sol\":174:183  score = 0 */\n  dup2\n  swap1\n  sstore\n  pop\n    /* \"contracts/4_OddEve.sol\":72:1268  contract oddEve{... */\n  dataSize(sub_0)\n  dup1\n  dataOffset(sub_0)\n  0x00\n  codecopy\n  0x00\n  return\nstop\n\nsub_0: assembly {\n        /* \"contracts/4_OddEve.sol\":72:1268  contract oddEve{... */\n      mstore(0x40, 0x80)\n      callvalue\n      dup1\n      iszero\n      tag_1\n      jumpi\n      0x00\n      dup1\n      revert\n    tag_1:\n      pop\n      jumpi(tag_2, lt(calldatasize, 0x04))\n      shr(0xe0, calldataload(0x00))\n      dup1\n      0x0e7ccaf0\n      eq\n      tag_3\n      jumpi\n      dup1\n      0x805553e8\n      eq\n      tag_4\n      jumpi\n      dup1\n      0xd826f88f\n      eq\n      tag_5\n      jumpi\n      dup1\n      0xefedc669\n      eq\n      tag_6\n      jumpi\n    tag_2:\n      0x00\n      dup1\n      revert\n        /* \"contracts/4_OddEve.sol\":330:905  function takeinput(uint _inputnumber) public  returns (string memory){... */\n    tag_3:\n      tag_7\n      0x04\n      dup1\n      calldatasize\n      sub\n      dup2\n      add\n      swap1\n      tag_8\n      swap2\n      swap1\n      tag_9\n      jump\t// in\n    tag_8:\n      tag_10\n      jump\t// in\n    tag_7:\n      mload(0x40)\n      tag_11\n      swap2\n      swap1\n      tag_12\n      jump\t// in\n    tag_11:\n      mload(0x40)\n      dup1\n      swap2\n      sub\n      swap1\n      return\n        /* \"contracts/4_OddEve.sol\":1052:1265  function randMod(uint _modulus) public returns(uint)... */\n    tag_4:\n      tag_13\n      0x04\n      dup1\n      calldatasize\n      sub\n      dup2\n      add\n      swap1\n      tag_14\n      swap2\n      swap1\n      tag_9\n      jump\t// in\n    tag_14:\n      tag_15\n      jump\t// in\n    tag_13:\n      mload(0x40)\n      tag_16\n      swap2\n      swap1\n      tag_17\n      jump\t// in\n    tag_16:\n      mload(0x40)\n      dup1\n      swap2\n      sub\n      swap1\n      return\n        /* \"contracts/4_OddEve.sol\":913:1019  function reset() public  returns (string memory){... */\n    tag_5:\n      tag_18\n      tag_19\n      jump\t// in\n    tag_18:\n      mload(0x40)\n      tag_20\n      swap2\n      swap1\n      tag_12\n      jump\t// in\n    tag_20:\n      mload(0x40)\n      dup1\n      swap2\n      sub\n      swap1\n      return\n        /* \"contracts/4_OddEve.sol\":94:111  uint public score */\n    tag_6:\n      tag_21\n      tag_22\n      jump\t// in\n    tag_21:\n      mload(0x40)\n      tag_23\n      swap2\n      swap1\n      tag_17\n      jump\t// in\n    tag_23:\n      mload(0x40)\n      dup1\n      swap2\n      sub\n      swap1\n      return\n        /* \"contracts/4_OddEve.sol\":330:905  function takeinput(uint _inputnumber) public  returns (string memory){... */\n    tag_10:\n        /* \"contracts/4_OddEve.sol\":385:398  string memory */\n      0x60\n        /* \"contracts/4_OddEve.sol\":427:428  1 */\n      0x01\n        /* \"contracts/4_OddEve.sol\":414:426  _inputnumber */\n      dup3\n        /* \"contracts/4_OddEve.sol\":414:428  _inputnumber<1 */\n      lt\n        /* \"contracts/4_OddEve.sol\":414:447  _inputnumber<1 || _inputnumber >6 */\n      dup1\n      tag_25\n      jumpi\n      pop\n        /* \"contracts/4_OddEve.sol\":446:447  6 */\n      0x06\n        /* \"contracts/4_OddEve.sol\":432:444  _inputnumber */\n      dup3\n        /* \"contracts/4_OddEve.sol\":432:447  _inputnumber >6 */\n      gt\n        /* \"contracts/4_OddEve.sol\":414:447  _inputnumber<1 || _inputnumber >6 */\n    tag_25:\n        /* \"contracts/4_OddEve.sol\":410:898  if (_inputnumber<1 || _inputnumber >6){... */\n      iszero\n      tag_26\n      jumpi\n        /* \"contracts/4_OddEve.sol\":463:499  return \"Please Enter a Valid Number\" */\n      mload(0x40)\n      dup1\n      0x40\n      add\n      0x40\n      mstore\n      dup1\n      0x1b\n      dup2\n      mstore\n      0x20\n      add\n      0x506c6561736520456e74657220612056616c6964204e756d6265720000000000\n      dup2\n      mstore\n      pop\n      swap1\n      pop\n      jump(tag_24)\n        /* \"contracts/4_OddEve.sol\":410:898  if (_inputnumber<1 || _inputnumber >6){... */\n    tag_26:\n        /* \"contracts/4_OddEve.sol\":631:643  _inputnumber */\n      dup2\n        /* \"contracts/4_OddEve.sol\":617:629  randomnumber */\n      sload(0x01)\n        /* \"contracts/4_OddEve.sol\":617:643  randomnumber==_inputnumber */\n      sub\n        /* \"contracts/4_OddEve.sol\":613:887  if (randomnumber==_inputnumber)... */\n      tag_28\n      jumpi\n        /* \"contracts/4_OddEve.sol\":677:692  return \"-- OUT\" */\n      mload(0x40)\n      dup1\n      0x40\n      add\n      0x40\n      mstore\n      dup1\n      0x06\n      dup2\n      mstore\n      0x20\n      add\n      0x2d2d204f55540000000000000000000000000000000000000000000000000000\n      dup2\n      mstore\n      pop\n      swap1\n      pop\n      jump(tag_24)\n        /* \"contracts/4_OddEve.sol\":613:887  if (randomnumber==_inputnumber)... */\n    tag_28:\n        /* \"contracts/4_OddEve.sol\":796:808  randomnumber */\n      sload(0x01)\n        /* \"contracts/4_OddEve.sol\":788:793  score */\n      sload(0x00)\n        /* \"contracts/4_OddEve.sol\":788:808  score + randomnumber */\n      tag_30\n      swap2\n      swap1\n      tag_31\n      jump\t// in\n    tag_30:\n        /* \"contracts/4_OddEve.sol\":780:785  score */\n      0x00\n        /* \"contracts/4_OddEve.sol\":780:808  score = score + randomnumber */\n      dup2\n      swap1\n      sstore\n      pop\n        /* \"contracts/4_OddEve.sol\":827:852  return \"randonumber RUNS\" */\n      mload(0x40)\n      dup1\n      0x40\n      add\n      0x40\n      mstore\n      dup1\n      0x10\n      dup2\n      mstore\n      0x20\n      add\n      0x72616e646f6e756d6265722052554e5300000000000000000000000000000000\n      dup2\n      mstore\n      pop\n      swap1\n      pop\n        /* \"contracts/4_OddEve.sol\":330:905  function takeinput(uint _inputnumber) public  returns (string memory){... */\n    tag_24:\n      swap2\n      swap1\n      pop\n      jump\t// out\n        /* \"contracts/4_OddEve.sol\":1052:1265  function randMod(uint _modulus) public returns(uint)... */\n    tag_15:\n        /* \"contracts/4_OddEve.sol\":1099:1103  uint */\n      0x00\n        /* \"contracts/4_OddEve.sol\":1144:1153  randNonce */\n      0x02\n      0x00\n        /* \"contracts/4_OddEve.sol\":1144:1155  randNonce++ */\n      dup2\n      sload\n      dup1\n      swap3\n      swap2\n      swap1\n      tag_33\n      swap1\n      tag_34\n      jump\t// in\n    tag_33:\n      swap2\n      swap1\n      pop\n      sstore\n      pop\n        /* \"contracts/4_OddEve.sol\":1249:1257  _modulus */\n      dup2\n        /* \"contracts/4_OddEve.sol\":1206:1221  block.timestamp */\n      timestamp\n        /* \"contracts/4_OddEve.sol\":1222:1232  msg.sender */\n      caller\n        /* \"contracts/4_OddEve.sol\":1234:1243  randNonce */\n      sload(0x02)\n        /* \"contracts/4_OddEve.sol\":1189:1244  abi.encodePacked(block.timestamp,msg.sender, randNonce) */\n      add(0x20, mload(0x40))\n      tag_35\n      swap4\n      swap3\n      swap2\n      swap1\n      tag_36\n      jump\t// in\n    tag_35:\n      mload(0x40)\n      0x20\n      dup2\n      dup4\n      sub\n      sub\n      dup2\n      mstore\n      swap1\n      0x40\n      mstore\n        /* \"contracts/4_OddEve.sol\":1179:1245  keccak256(abi.encodePacked(block.timestamp,msg.sender, randNonce)) */\n      dup1\n      mload\n      swap1\n      0x20\n      add\n      keccak256\n        /* \"contracts/4_OddEve.sol\":1174:1246  uint(keccak256(abi.encodePacked(block.timestamp,msg.sender, randNonce))) */\n      0x00\n      shr\n        /* \"contracts/4_OddEve.sol\":1174:1257  uint(keccak256(abi.encodePacked(block.timestamp,msg.sender, randNonce))) % _modulus */\n      tag_37\n      swap2\n      swap1\n      tag_38\n      jump\t// in\n    tag_37:\n        /* \"contracts/4_OddEve.sol\":1167:1257  return uint(keccak256(abi.encodePacked(block.timestamp,msg.sender, randNonce))) % _modulus */\n      swap1\n      pop\n        /* \"contracts/4_OddEve.sol\":1052:1265  function randMod(uint _modulus) public returns(uint)... */\n      swap2\n      swap1\n      pop\n      jump\t// out\n        /* \"contracts/4_OddEve.sol\":913:1019  function reset() public  returns (string memory){... */\n    tag_19:\n        /* \"contracts/4_OddEve.sol\":947:960  string memory */\n      0x60\n        /* \"contracts/4_OddEve.sol\":980:981  0 */\n      0x00\n        /* \"contracts/4_OddEve.sol\":972:977  score */\n      dup1\n        /* \"contracts/4_OddEve.sol\":972:981  score = 0 */\n      dup2\n      swap1\n      sstore\n      pop\n        /* \"contracts/4_OddEve.sol\":992:1011  return \"Game RESET\" */\n      mload(0x40)\n      dup1\n      0x40\n      add\n      0x40\n      mstore\n      dup1\n      0x0a\n      dup2\n      mstore\n      0x20\n      add\n      0x47616d6520524553455400000000000000000000000000000000000000000000\n      dup2\n      mstore\n      pop\n      swap1\n      pop\n        /* \"contracts/4_OddEve.sol\":913:1019  function reset() public  returns (string memory){... */\n      swap1\n      jump\t// out\n        /* \"contracts/4_OddEve.sol\":94:111  uint public score */\n    tag_22:\n      sload(0x00)\n      dup2\n      jump\t// out\n        /* \"#utility.yul\":88:205   */\n    tag_41:\n        /* \"#utility.yul\":197:198   */\n      0x00\n        /* \"#utility.yul\":194:195   */\n      dup1\n        /* \"#utility.yul\":187:199   */\n      revert\n        /* \"#utility.yul\":334:411   */\n    tag_43:\n        /* \"#utility.yul\":371:378   */\n      0x00\n        /* \"#utility.yul\":400:405   */\n      dup2\n        /* \"#utility.yul\":389:405   */\n      swap1\n      pop\n        /* \"#utility.yul\":334:411   */\n      swap2\n      swap1\n      pop\n      jump\t// out\n        /* \"#utility.yul\":417:539   */\n    tag_44:\n        /* \"#utility.yul\":490:514   */\n      tag_68\n        /* \"#utility.yul\":508:513   */\n      dup2\n        /* \"#utility.yul\":490:514   */\n      tag_43\n      jump\t// in\n    tag_68:\n        /* \"#utility.yul\":483:488   */\n      dup2\n        /* \"#utility.yul\":480:515   */\n      eq\n        /* \"#utility.yul\":470:533   */\n      tag_69\n      jumpi\n        /* \"#utility.yul\":529:530   */\n      0x00\n        /* \"#utility.yul\":526:527   */\n      dup1\n        /* \"#utility.yul\":519:531   */\n      revert\n        /* \"#utility.yul\":470:533   */\n    tag_69:\n        /* \"#utility.yul\":417:539   */\n      pop\n      jump\t// out\n        /* \"#utility.yul\":545:684   */\n    tag_45:\n        /* \"#utility.yul\":591:596   */\n      0x00\n        /* \"#utility.yul\":629:635   */\n      dup2\n        /* \"#utility.yul\":616:636   */\n      calldataload\n        /* \"#utility.yul\":607:636   */\n      swap1\n      pop\n        /* \"#utility.yul\":645:678   */\n      tag_71\n        /* \"#utility.yul\":672:677   */\n      dup2\n        /* \"#utility.yul\":645:678   */\n      tag_44\n      jump\t// in\n    tag_71:\n        /* \"#utility.yul\":545:684   */\n      swap3\n      swap2\n      pop\n      pop\n      jump\t// out\n        /* \"#utility.yul\":690:1019   */\n    tag_9:\n        /* \"#utility.yul\":749:755   */\n      0x00\n        /* \"#utility.yul\":798:800   */\n      0x20\n        /* \"#utility.yul\":786:795   */\n      dup3\n        /* \"#utility.yul\":777:784   */\n      dup5\n        /* \"#utility.yul\":773:796   */\n      sub\n        /* \"#utility.yul\":769:801   */\n      slt\n        /* \"#utility.yul\":766:885   */\n      iszero\n      tag_73\n      jumpi\n        /* \"#utility.yul\":804:883   */\n      tag_74\n      tag_41\n      jump\t// in\n    tag_74:\n        /* \"#utility.yul\":766:885   */\n    tag_73:\n        /* \"#utility.yul\":924:925   */\n      0x00\n        /* \"#utility.yul\":949:1002   */\n      tag_75\n        /* \"#utility.yul\":994:1001   */\n      dup5\n        /* \"#utility.yul\":985:991   */\n      dup3\n        /* \"#utility.yul\":974:983   */\n      dup6\n        /* \"#utility.yul\":970:992   */\n      add\n        /* \"#utility.yul\":949:1002   */\n      tag_45\n      jump\t// in\n    tag_75:\n        /* \"#utility.yul\":939:1002   */\n      swap2\n      pop\n        /* \"#utility.yul\":895:1012   */\n      pop\n        /* \"#utility.yul\":690:1019   */\n      swap3\n      swap2\n      pop\n      pop\n      jump\t// out\n        /* \"#utility.yul\":1025:1124   */\n    tag_46:\n        /* \"#utility.yul\":1077:1083   */\n      0x00\n        /* \"#utility.yul\":1111:1116   */\n      dup2\n        /* \"#utility.yul\":1105:1117   */\n      mload\n        /* \"#utility.yul\":1095:1117   */\n      swap1\n      pop\n        /* \"#utility.yul\":1025:1124   */\n      swap2\n      swap1\n      pop\n      jump\t// out\n        /* \"#utility.yul\":1130:1299   */\n    tag_47:\n        /* \"#utility.yul\":1214:1225   */\n      0x00\n        /* \"#utility.yul\":1248:1254   */\n      dup3\n        /* \"#utility.yul\":1243:1246   */\n      dup3\n        /* \"#utility.yul\":1236:1255   */\n      mstore\n        /* \"#utility.yul\":1288:1292   */\n      0x20\n        /* \"#utility.yul\":1283:1286   */\n      dup3\n        /* \"#utility.yul\":1279:1293   */\n      add\n        /* \"#utility.yul\":1264:1293   */\n      swap1\n      pop\n        /* \"#utility.yul\":1130:1299   */\n      swap3\n      swap2\n      pop\n      pop\n      jump\t// out\n        /* \"#utility.yul\":1305:1612   */\n    tag_48:\n        /* \"#utility.yul\":1373:1374   */\n      0x00\n        /* \"#utility.yul\":1383:1496   */\n    tag_79:\n        /* \"#utility.yul\":1397:1403   */\n      dup4\n        /* \"#utility.yul\":1394:1395   */\n      dup2\n        /* \"#utility.yul\":1391:1404   */\n      lt\n        /* \"#utility.yul\":1383:1496   */\n      iszero\n      tag_81\n      jumpi\n        /* \"#utility.yul\":1482:1483   */\n      dup1\n        /* \"#utility.yul\":1477:1480   */\n      dup3\n        /* \"#utility.yul\":1473:1484   */\n      add\n        /* \"#utility.yul\":1467:1485   */\n      mload\n        /* \"#utility.yul\":1463:1464   */\n      dup2\n        /* \"#utility.yul\":1458:1461   */\n      dup5\n        /* \"#utility.yul\":1454:1465   */\n      add\n        /* \"#utility.yul\":1447:1486   */\n      mstore\n        /* \"#utility.yul\":1419:1421   */\n      0x20\n        /* \"#utility.yul\":1416:1417   */\n      dup2\n        /* \"#utility.yul\":1412:1422   */\n      add\n        /* \"#utility.yul\":1407:1422   */\n      swap1\n      pop\n        /* \"#utility.yul\":1383:1496   */\n      jump(tag_79)\n    tag_81:\n        /* \"#utility.yul\":1514:1520   */\n      dup4\n        /* \"#utility.yul\":1511:1512   */\n      dup2\n        /* \"#utility.yul\":1508:1521   */\n      gt\n        /* \"#utility.yul\":1505:1606   */\n      iszero\n      tag_82\n      jumpi\n        /* \"#utility.yul\":1594:1595   */\n      0x00\n        /* \"#utility.yul\":1585:1591   */\n      dup5\n        /* \"#utility.yul\":1580:1583   */\n      dup5\n        /* \"#utility.yul\":1576:1592   */\n      add\n        /* \"#utility.yul\":1569:1596   */\n      mstore\n        /* \"#utility.yul\":1505:1606   */\n    tag_82:\n        /* \"#utility.yul\":1354:1612   */\n      pop\n        /* \"#utility.yul\":1305:1612   */\n      pop\n      pop\n      pop\n      jump\t// out\n        /* \"#utility.yul\":1618:1720   */\n    tag_49:\n        /* \"#utility.yul\":1659:1665   */\n      0x00\n        /* \"#utility.yul\":1710:1712   */\n      0x1f\n        /* \"#utility.yul\":1706:1713   */\n      not\n        /* \"#utility.yul\":1701:1703   */\n      0x1f\n        /* \"#utility.yul\":1694:1699   */\n      dup4\n        /* \"#utility.yul\":1690:1704   */\n      add\n        /* \"#utility.yul\":1686:1714   */\n      and\n        /* \"#utility.yul\":1676:1714   */\n      swap1\n      pop\n        /* \"#utility.yul\":1618:1720   */\n      swap2\n      swap1\n      pop\n      jump\t// out\n        /* \"#utility.yul\":1726:2090   */\n    tag_50:\n        /* \"#utility.yul\":1814:1817   */\n      0x00\n        /* \"#utility.yul\":1842:1881   */\n      tag_85\n        /* \"#utility.yul\":1875:1880   */\n      dup3\n        /* \"#utility.yul\":1842:1881   */\n      tag_46\n      jump\t// in\n    tag_85:\n        /* \"#utility.yul\":1897:1968   */\n      tag_86\n        /* \"#utility.yul\":1961:1967   */\n      dup2\n        /* \"#utility.yul\":1956:1959   */\n      dup6\n        /* \"#utility.yul\":1897:1968   */\n      tag_47\n      jump\t// in\n    tag_86:\n        /* \"#utility.yul\":1890:1968   */\n      swap4\n      pop\n        /* \"#utility.yul\":1977:2029   */\n      tag_87\n        /* \"#utility.yul\":2022:2028   */\n      dup2\n        /* \"#utility.yul\":2017:2020   */\n      dup6\n        /* \"#utility.yul\":2010:2014   */\n      0x20\n        /* \"#utility.yul\":2003:2008   */\n      dup7\n        /* \"#utility.yul\":1999:2015   */\n      add\n        /* \"#utility.yul\":1977:2029   */\n      tag_48\n      jump\t// in\n    tag_87:\n        /* \"#utility.yul\":2054:2083   */\n      tag_88\n        /* \"#utility.yul\":2076:2082   */\n      dup2\n        /* \"#utility.yul\":2054:2083   */\n      tag_49\n      jump\t// in\n    tag_88:\n        /* \"#utility.yul\":2049:2052   */\n      dup5\n        /* \"#utility.yul\":2045:2084   */\n      add\n        /* \"#utility.yul\":2038:2084   */\n      swap2\n      pop\n        /* \"#utility.yul\":1818:2090   */\n      pop\n        /* \"#utility.yul\":1726:2090   */\n      swap3\n      swap2\n      pop\n      pop\n      jump\t// out\n        /* \"#utility.yul\":2096:2409   */\n    tag_12:\n        /* \"#utility.yul\":2209:2213   */\n      0x00\n        /* \"#utility.yul\":2247:2249   */\n      0x20\n        /* \"#utility.yul\":2236:2245   */\n      dup3\n        /* \"#utility.yul\":2232:2250   */\n      add\n        /* \"#utility.yul\":2224:2250   */\n      swap1\n      pop\n        /* \"#utility.yul\":2296:2305   */\n      dup2\n        /* \"#utility.yul\":2290:2294   */\n      dup2\n        /* \"#utility.yul\":2286:2306   */\n      sub\n        /* \"#utility.yul\":2282:2283   */\n      0x00\n        /* \"#utility.yul\":2271:2280   */\n      dup4\n        /* \"#utility.yul\":2267:2284   */\n      add\n        /* \"#utility.yul\":2260:2307   */\n      mstore\n        /* \"#utility.yul\":2324:2402   */\n      tag_90\n        /* \"#utility.yul\":2397:2401   */\n      dup2\n        /* \"#utility.yul\":2388:2394   */\n      dup5\n        /* \"#utility.yul\":2324:2402   */\n      tag_50\n      jump\t// in\n    tag_90:\n        /* \"#utility.yul\":2316:2402   */\n      swap1\n      pop\n        /* \"#utility.yul\":2096:2409   */\n      swap3\n      swap2\n      pop\n      pop\n      jump\t// out\n        /* \"#utility.yul\":2415:2533   */\n    tag_51:\n        /* \"#utility.yul\":2502:2526   */\n      tag_92\n        /* \"#utility.yul\":2520:2525   */\n      dup2\n        /* \"#utility.yul\":2502:2526   */\n      tag_43\n      jump\t// in\n    tag_92:\n        /* \"#utility.yul\":2497:2500   */\n      dup3\n        /* \"#utility.yul\":2490:2527   */\n      mstore\n        /* \"#utility.yul\":2415:2533   */\n      pop\n      pop\n      jump\t// out\n        /* \"#utility.yul\":2539:2761   */\n    tag_17:\n        /* \"#utility.yul\":2632:2636   */\n      0x00\n        /* \"#utility.yul\":2670:2672   */\n      0x20\n        /* \"#utility.yul\":2659:2668   */\n      dup3\n        /* \"#utility.yul\":2655:2673   */\n      add\n        /* \"#utility.yul\":2647:2673   */\n      swap1\n      pop\n        /* \"#utility.yul\":2683:2754   */\n      tag_94\n        /* \"#utility.yul\":2751:2752   */\n      0x00\n        /* \"#utility.yul\":2740:2749   */\n      dup4\n        /* \"#utility.yul\":2736:2753   */\n      add\n        /* \"#utility.yul\":2727:2733   */\n      dup5\n        /* \"#utility.yul\":2683:2754   */\n      tag_51\n      jump\t// in\n    tag_94:\n        /* \"#utility.yul\":2539:2761   */\n      swap3\n      swap2\n      pop\n      pop\n      jump\t// out\n        /* \"#utility.yul\":2767:2947   */\n    tag_52:\n        /* \"#utility.yul\":2815:2892   */\n      0x4e487b7100000000000000000000000000000000000000000000000000000000\n        /* \"#utility.yul\":2812:2813   */\n      0x00\n        /* \"#utility.yul\":2805:2893   */\n      mstore\n        /* \"#utility.yul\":2912:2916   */\n      0x11\n        /* \"#utility.yul\":2909:2910   */\n      0x04\n        /* \"#utility.yul\":2902:2917   */\n      mstore\n        /* \"#utility.yul\":2936:2940   */\n      0x24\n        /* \"#utility.yul\":2933:2934   */\n      0x00\n        /* \"#utility.yul\":2926:2941   */\n      revert\n        /* \"#utility.yul\":2953:3258   */\n    tag_31:\n        /* \"#utility.yul\":2993:2996   */\n      0x00\n        /* \"#utility.yul\":3012:3032   */\n      tag_97\n        /* \"#utility.yul\":3030:3031   */\n      dup3\n        /* \"#utility.yul\":3012:3032   */\n      tag_43\n      jump\t// in\n    tag_97:\n        /* \"#utility.yul\":3007:3032   */\n      swap2\n      pop\n        /* \"#utility.yul\":3046:3066   */\n      tag_98\n        /* \"#utility.yul\":3064:3065   */\n      dup4\n        /* \"#utility.yul\":3046:3066   */\n      tag_43\n      jump\t// in\n    tag_98:\n        /* \"#utility.yul\":3041:3066   */\n      swap3\n      pop\n        /* \"#utility.yul\":3200:3201   */\n      dup3\n        /* \"#utility.yul\":3132:3198   */\n      0xffffffffffffffffffffffffffffffffffffffffffffffffffffffffffffffff\n        /* \"#utility.yul\":3128:3202   */\n      sub\n        /* \"#utility.yul\":3125:3126   */\n      dup3\n        /* \"#utility.yul\":3122:3203   */\n      gt\n        /* \"#utility.yul\":3119:3226   */\n      iszero\n      tag_99\n      jumpi\n        /* \"#utility.yul\":3206:3224   */\n      tag_100\n      tag_52\n      jump\t// in\n    tag_100:\n        /* \"#utility.yul\":3119:3226   */\n    tag_99:\n        /* \"#utility.yul\":3250:3251   */\n      dup3\n        /* \"#utility.yul\":3247:3248   */\n      dup3\n        /* \"#utility.yul\":3243:3252   */\n      add\n        /* \"#utility.yul\":3236:3252   */\n      swap1\n      pop\n        /* \"#utility.yul\":2953:3258   */\n      swap3\n      swap2\n      pop\n      pop\n      jump\t// out\n        /* \"#utility.yul\":3264:3497   */\n    tag_34:\n        /* \"#utility.yul\":3303:3306   */\n      0x00\n        /* \"#utility.yul\":3326:3350   */\n      tag_102\n        /* \"#utility.yul\":3344:3349   */\n      dup3\n        /* \"#utility.yul\":3326:3350   */\n      tag_43\n      jump\t// in\n    tag_102:\n        /* \"#utility.yul\":3317:3350   */\n      swap2\n      pop\n        /* \"#utility.yul\":3372:3438   */\n      0xffffffffffffffffffffffffffffffffffffffffffffffffffffffffffffffff\n        /* \"#utility.yul\":3365:3370   */\n      dup3\n        /* \"#utility.yul\":3362:3439   */\n      sub\n        /* \"#utility.yul\":3359:3462   */\n      tag_103\n      jumpi\n        /* \"#utility.yul\":3442:3460   */\n      tag_104\n      tag_52\n      jump\t// in\n    tag_104:\n        /* \"#utility.yul\":3359:3462   */\n    tag_103:\n        /* \"#utility.yul\":3489:3490   */\n      0x01\n        /* \"#utility.yul\":3482:3487   */\n      dup3\n        /* \"#utility.yul\":3478:3491   */\n      add\n        /* \"#utility.yul\":3471:3491   */\n      swap1\n      pop\n        /* \"#utility.yul\":3264:3497   */\n      swap2\n      swap1\n      pop\n      jump\t// out\n        /* \"#utility.yul\":3503:3582   */\n    tag_53:\n        /* \"#utility.yul\":3542:3549   */\n      0x00\n        /* \"#utility.yul\":3571:3576   */\n      dup2\n        /* \"#utility.yul\":3560:3576   */\n      swap1\n      pop\n        /* \"#utility.yul\":3503:3582   */\n      swap2\n      swap1\n      pop\n      jump\t// out\n        /* \"#utility.yul\":3588:3745   */\n    tag_54:\n        /* \"#utility.yul\":3693:3738   */\n      tag_107\n        /* \"#utility.yul\":3713:3737   */\n      tag_108\n        /* \"#utility.yul\":3731:3736   */\n      dup3\n        /* \"#utility.yul\":3713:3737   */\n      tag_43\n      jump\t// in\n    tag_108:\n        /* \"#utility.yul\":3693:3738   */\n      tag_53\n      jump\t// in\n    tag_107:\n        /* \"#utility.yul\":3688:3691   */\n      dup3\n        /* \"#utility.yul\":3681:3739   */\n      mstore\n        /* \"#utility.yul\":3588:3745   */\n      pop\n      pop\n      jump\t// out\n        /* \"#utility.yul\":3751:3877   */\n    tag_55:\n        /* \"#utility.yul\":3788:3795   */\n      0x00\n        /* \"#utility.yul\":3828:3870   */\n      0xffffffffffffffffffffffffffffffffffffffff\n        /* \"#utility.yul\":3821:3826   */\n      dup3\n        /* \"#utility.yul\":3817:3871   */\n      and\n        /* \"#utility.yul\":3806:3871   */\n      swap1\n      pop\n        /* \"#utility.yul\":3751:3877   */\n      swap2\n      swap1\n      pop\n      jump\t// out\n        /* \"#utility.yul\":3883:3979   */\n    tag_56:\n        /* \"#utility.yul\":3920:3927   */\n      0x00\n        /* \"#utility.yul\":3949:3973   */\n      tag_111\n        /* \"#utility.yul\":3967:3972   */\n      dup3\n        /* \"#utility.yul\":3949:3973   */\n      tag_55\n      jump\t// in\n    tag_111:\n        /* \"#utility.yul\":3938:3973   */\n      swap1\n      pop\n        /* \"#utility.yul\":3883:3979   */\n      swap2\n      swap1\n      pop\n      jump\t// out\n        /* \"#utility.yul\":3985:4079   */\n    tag_57:\n        /* \"#utility.yul\":4018:4026   */\n      0x00\n        /* \"#utility.yul\":4066:4071   */\n      dup2\n        /* \"#utility.yul\":4062:4064   */\n      0x60\n        /* \"#utility.yul\":4058:4072   */\n      shl\n        /* \"#utility.yul\":4037:4072   */\n      swap1\n      pop\n        /* \"#utility.yul\":3985:4079   */\n      swap2\n      swap1\n      pop\n      jump\t// out\n        /* \"#utility.yul\":4085:4179   */\n    tag_58:\n        /* \"#utility.yul\":4124:4131   */\n      0x00\n        /* \"#utility.yul\":4153:4173   */\n      tag_114\n        /* \"#utility.yul\":4167:4172   */\n      dup3\n        /* \"#utility.yul\":4153:4173   */\n      tag_57\n      jump\t// in\n    tag_114:\n        /* \"#utility.yul\":4142:4173   */\n      swap1\n      pop\n        /* \"#utility.yul\":4085:4179   */\n      swap2\n      swap1\n      pop\n      jump\t// out\n        /* \"#utility.yul\":4185:4285   */\n    tag_59:\n        /* \"#utility.yul\":4224:4231   */\n      0x00\n        /* \"#utility.yul\":4253:4279   */\n      tag_116\n        /* \"#utility.yul\":4273:4278   */\n      dup3\n        /* \"#utility.yul\":4253:4279   */\n      tag_58\n      jump\t// in\n    tag_116:\n        /* \"#utility.yul\":4242:4279   */\n      swap1\n      pop\n        /* \"#utility.yul\":4185:4285   */\n      swap2\n      swap1\n      pop\n      jump\t// out\n        /* \"#utility.yul\":4291:4448   */\n    tag_60:\n        /* \"#utility.yul\":4396:4441   */\n      tag_118\n        /* \"#utility.yul\":4416:4440   */\n      tag_119\n        /* \"#utility.yul\":4434:4439   */\n      dup3\n        /* \"#utility.yul\":4416:4440   */\n      tag_56\n      jump\t// in\n    tag_119:\n        /* \"#utility.yul\":4396:4441   */\n      tag_59\n      jump\t// in\n    tag_118:\n        /* \"#utility.yul\":4391:4394   */\n      dup3\n        /* \"#utility.yul\":4384:4442   */\n      mstore\n        /* \"#utility.yul\":4291:4448   */\n      pop\n      pop\n      jump\t// out\n        /* \"#utility.yul\":4454:4992   */\n    tag_36:\n        /* \"#utility.yul\":4622:4625   */\n      0x00\n        /* \"#utility.yul\":4637:4712   */\n      tag_121\n        /* \"#utility.yul\":4708:4711   */\n      dup3\n        /* \"#utility.yul\":4699:4705   */\n      dup7\n        /* \"#utility.yul\":4637:4712   */\n      tag_54\n      jump\t// in\n    tag_121:\n        /* \"#utility.yul\":4737:4739   */\n      0x20\n        /* \"#utility.yul\":4732:4735   */\n      dup3\n        /* \"#utility.yul\":4728:4740   */\n      add\n        /* \"#utility.yul\":4721:4740   */\n      swap2\n      pop\n        /* \"#utility.yul\":4750:4825   */\n      tag_122\n        /* \"#utility.yul\":4821:4824   */\n      dup3\n        /* \"#utility.yul\":4812:4818   */\n      dup6\n        /* \"#utility.yul\":4750:4825   */\n      tag_60\n      jump\t// in\n    tag_122:\n        /* \"#utility.yul\":4850:4852   */\n      0x14\n        /* \"#utility.yul\":4845:4848   */\n      dup3\n        /* \"#utility.yul\":4841:4853   */\n      add\n        /* \"#utility.yul\":4834:4853   */\n      swap2\n      pop\n        /* \"#utility.yul\":4863:4938   */\n      tag_123\n        /* \"#utility.yul\":4934:4937   */\n      dup3\n        /* \"#utility.yul\":4925:4931   */\n      dup5\n        /* \"#utility.yul\":4863:4938   */\n      tag_54\n      jump\t// in\n    tag_123:\n        /* \"#utility.yul\":4963:4965   */\n      0x20\n        /* \"#utility.yul\":4958:4961   */\n      dup3\n        /* \"#utility.yul\":4954:4966   */\n      add\n        /* \"#utility.yul\":4947:4966   */\n      swap2\n      pop\n        /* \"#utility.yul\":4983:4986   */\n      dup2\n        /* \"#utility.yul\":4976:4986   */\n      swap1\n      pop\n        /* \"#utility.yul\":4454:4992   */\n      swap5\n      swap4\n      pop\n      pop\n      pop\n      pop\n      jump\t// out\n        /* \"#utility.yul\":4998:5178   */\n    tag_61:\n        /* \"#utility.yul\":5046:5123   */\n      0x4e487b7100000000000000000000000000000000000000000000000000000000\n        /* \"#utility.yul\":5043:5044   */\n      0x00\n        /* \"#utility.yul\":5036:5124   */\n      mstore\n        /* \"#utility.yul\":5143:5147   */\n      0x12\n        /* \"#utility.yul\":5140:5141   */\n      0x04\n        /* \"#utility.yul\":5133:5148   */\n      mstore\n        /* \"#utility.yul\":5167:5171   */\n      0x24\n        /* \"#utility.yul\":5164:5165   */\n      0x00\n        /* \"#utility.yul\":5157:5172   */\n      revert\n        /* \"#utility.yul\":5184:5360   */\n    tag_38:\n        /* \"#utility.yul\":5216:5217   */\n      0x00\n        /* \"#utility.yul\":5233:5253   */\n      tag_126\n        /* \"#utility.yul\":5251:5252   */\n      dup3\n        /* \"#utility.yul\":5233:5253   */\n      tag_43\n      jump\t// in\n    tag_126:\n        /* \"#utility.yul\":5228:5253   */\n      swap2\n      pop\n        /* \"#utility.yul\":5267:5287   */\n      tag_127\n        /* \"#utility.yul\":5285:5286   */\n      dup4\n        /* \"#utility.yul\":5267:5287   */\n      tag_43\n      jump\t// in\n    tag_127:\n        /* \"#utility.yul\":5262:5287   */\n      swap3\n      pop\n        /* \"#utility.yul\":5306:5307   */\n      dup3\n        /* \"#utility.yul\":5296:5331   */\n      tag_128\n      jumpi\n        /* \"#utility.yul\":5311:5329   */\n      tag_129\n      tag_61\n      jump\t// in\n    tag_129:\n        /* \"#utility.yul\":5296:5331   */\n    tag_128:\n        /* \"#utility.yul\":5352:5353   */\n      dup3\n        /* \"#utility.yul\":5349:5350   */\n      dup3\n        /* \"#utility.yul\":5345:5354   */\n      mod\n        /* \"#utility.yul\":5340:5354   */\n      swap1\n      pop\n        /* \"#utility.yul\":5184:5360   */\n      swap3\n      swap2\n      pop\n      pop\n      jump\t// out\n\n    auxdata: 0xa264697066735822122023997de6790d24913dccd650a8298c55818ea554c806ea9d61053251289942de64736f6c634300080d0033\n}\n",
				"bytecode": {
					"linkReferences": {},
					"object": "6080604052600060025534801561001557600080fd5b50600080819055506106088061002c6000396000f3fe608060405234801561001057600080fd5b506004361061004c5760003560e01c80630e7ccaf014610051578063805553e814610081578063d826f88f146100b1578063efedc669146100cf575b600080fd5b61006b600480360381019061006691906102bb565b6100ed565b6040516100789190610381565b60405180910390f35b61009b600480360381019061009691906102bb565b6101da565b6040516100a891906103b2565b60405180910390f35b6100b9610236565b6040516100c69190610381565b60405180910390f35b6100d761027a565b6040516100e491906103b2565b60405180910390f35b606060018210806100fe5750600682115b15610140576040518060400160405280601b81526020017f506c6561736520456e74657220612056616c6964204e756d626572000000000081525090506101d5565b8160015403610186576040518060400160405280600681526020017f2d2d204f5554000000000000000000000000000000000000000000000000000081525090506101d5565b60015460005461019691906103fc565b6000819055506040518060400160405280601081526020017f72616e646f6e756d6265722052554e530000000000000000000000000000000081525090505b919050565b6000600260008154809291906101ef90610452565b919050555081423360025460405160200161020c93929190610535565b6040516020818303038152906040528051906020012060001c61022f91906105a1565b9050919050565b6060600080819055506040518060400160405280600a81526020017f47616d6520524553455400000000000000000000000000000000000000000000815250905090565b60005481565b600080fd5b6000819050919050565b61029881610285565b81146102a357600080fd5b50565b6000813590506102b58161028f565b92915050565b6000602082840312156102d1576102d0610280565b5b60006102df848285016102a6565b91505092915050565b600081519050919050565b600082825260208201905092915050565b60005b83811015610322578082015181840152602081019050610307565b83811115610331576000848401525b50505050565b6000601f19601f8301169050919050565b6000610353826102e8565b61035d81856102f3565b935061036d818560208601610304565b61037681610337565b840191505092915050565b6000602082019050818103600083015261039b8184610348565b905092915050565b6103ac81610285565b82525050565b60006020820190506103c760008301846103a3565b92915050565b7f4e487b7100000000000000000000000000000000000000000000000000000000600052601160045260246000fd5b600061040782610285565b915061041283610285565b9250827fffffffffffffffffffffffffffffffffffffffffffffffffffffffffffffffff03821115610447576104466103cd565b5b828201905092915050565b600061045d82610285565b91507fffffffffffffffffffffffffffffffffffffffffffffffffffffffffffffffff820361048f5761048e6103cd565b5b600182019050919050565b6000819050919050565b6104b56104b082610285565b61049a565b82525050565b600073ffffffffffffffffffffffffffffffffffffffff82169050919050565b60006104e6826104bb565b9050919050565b60008160601b9050919050565b6000610505826104ed565b9050919050565b6000610517826104fa565b9050919050565b61052f61052a826104db565b61050c565b82525050565b600061054182866104a4565b602082019150610551828561051e565b60148201915061056182846104a4565b602082019150819050949350505050565b7f4e487b7100000000000000000000000000000000000000000000000000000000600052601260045260246000fd5b60006105ac82610285565b91506105b783610285565b9250826105c7576105c6610572565b5b82820690509291505056fea264697066735822122023997de6790d24913dccd650a8298c55818ea554c806ea9d61053251289942de64736f6c634300080d0033",
					"opcodes": "PUSH1 0x80 PUSH1 0x40 MSTORE PUSH1 0x0 PUSH1 0x2 SSTORE CALLVALUE DUP1 ISZERO PUSH2 0x15 JUMPI PUSH1 0x0 DUP1 REVERT JUMPDEST POP PUSH1 0x0 DUP1 DUP2 SWAP1 SSTORE POP PUSH2 0x608 DUP1 PUSH2 0x2C PUSH1 0x0 CODECOPY PUSH1 0x0 RETURN INVALID PUSH1 0x80 PUSH1 0x40 MSTORE CALLVALUE DUP1 ISZERO PUSH2 0x10 JUMPI PUSH1 0x0 DUP1 REVERT JUMPDEST POP PUSH1 0x4 CALLDATASIZE LT PUSH2 0x4C JUMPI PUSH1 0x0 CALLDATALOAD PUSH1 0xE0 SHR DUP1 PUSH4 0xE7CCAF0 EQ PUSH2 0x51 JUMPI DUP1 PUSH4 0x805553E8 EQ PUSH2 0x81 JUMPI DUP1 PUSH4 0xD826F88F EQ PUSH2 0xB1 JUMPI DUP1 PUSH4 0xEFEDC669 EQ PUSH2 0xCF JUMPI JUMPDEST PUSH1 0x0 DUP1 REVERT JUMPDEST PUSH2 0x6B PUSH1 0x4 DUP1 CALLDATASIZE SUB DUP2 ADD SWAP1 PUSH2 0x66 SWAP2 SWAP1 PUSH2 0x2BB JUMP JUMPDEST PUSH2 0xED JUMP JUMPDEST PUSH1 0x40 MLOAD PUSH2 0x78 SWAP2 SWAP1 PUSH2 0x381 JUMP JUMPDEST PUSH1 0x40 MLOAD DUP1 SWAP2 SUB SWAP1 RETURN JUMPDEST PUSH2 0x9B PUSH1 0x4 DUP1 CALLDATASIZE SUB DUP2 ADD SWAP1 PUSH2 0x96 SWAP2 SWAP1 PUSH2 0x2BB JUMP JUMPDEST PUSH2 0x1DA JUMP JUMPDEST PUSH1 0x40 MLOAD PUSH2 0xA8 SWAP2 SWAP1 PUSH2 0x3B2 JUMP JUMPDEST PUSH1 0x40 MLOAD DUP1 SWAP2 SUB SWAP1 RETURN JUMPDEST PUSH2 0xB9 PUSH2 0x236 JUMP JUMPDEST PUSH1 0x40 MLOAD PUSH2 0xC6 SWAP2 SWAP1 PUSH2 0x381 JUMP JUMPDEST PUSH1 0x40 MLOAD DUP1 SWAP2 SUB SWAP1 RETURN JUMPDEST PUSH2 0xD7 PUSH2 0x27A JUMP JUMPDEST PUSH1 0x40 MLOAD PUSH2 0xE4 SWAP2 SWAP1 PUSH2 0x3B2 JUMP JUMPDEST PUSH1 0x40 MLOAD DUP1 SWAP2 SUB SWAP1 RETURN JUMPDEST PUSH1 0x60 PUSH1 0x1 DUP3 LT DUP1 PUSH2 0xFE JUMPI POP PUSH1 0x6 DUP3 GT JUMPDEST ISZERO PUSH2 0x140 JUMPI PUSH1 0x40 MLOAD DUP1 PUSH1 0x40 ADD PUSH1 0x40 MSTORE DUP1 PUSH1 0x1B DUP2 MSTORE PUSH1 0x20 ADD PUSH32 0x506C6561736520456E74657220612056616C6964204E756D6265720000000000 DUP2 MSTORE POP SWAP1 POP PUSH2 0x1D5 JUMP JUMPDEST DUP2 PUSH1 0x1 SLOAD SUB PUSH2 0x186 JUMPI PUSH1 0x40 MLOAD DUP1 PUSH1 0x40 ADD PUSH1 0x40 MSTORE DUP1 PUSH1 0x6 DUP2 MSTORE PUSH1 0x20 ADD PUSH32 0x2D2D204F55540000000000000000000000000000000000000000000000000000 DUP2 MSTORE POP SWAP1 POP PUSH2 0x1D5 JUMP JUMPDEST PUSH1 0x1 SLOAD PUSH1 0x0 SLOAD PUSH2 0x196 SWAP2 SWAP1 PUSH2 0x3FC JUMP JUMPDEST PUSH1 0x0 DUP2 SWAP1 SSTORE POP PUSH1 0x40 MLOAD DUP1 PUSH1 0x40 ADD PUSH1 0x40 MSTORE DUP1 PUSH1 0x10 DUP2 MSTORE PUSH1 0x20 ADD PUSH32 0x72616E646F6E756D6265722052554E5300000000000000000000000000000000 DUP2 MSTORE POP SWAP1 POP JUMPDEST SWAP2 SWAP1 POP JUMP JUMPDEST PUSH1 0x0 PUSH1 0x2 PUSH1 0x0 DUP2 SLOAD DUP1 SWAP3 SWAP2 SWAP1 PUSH2 0x1EF SWAP1 PUSH2 0x452 JUMP JUMPDEST SWAP2 SWAP1 POP SSTORE POP DUP2 TIMESTAMP CALLER PUSH1 0x2 SLOAD PUSH1 0x40 MLOAD PUSH1 0x20 ADD PUSH2 0x20C SWAP4 SWAP3 SWAP2 SWAP1 PUSH2 0x535 JUMP JUMPDEST PUSH1 0x40 MLOAD PUSH1 0x20 DUP2 DUP4 SUB SUB DUP2 MSTORE SWAP1 PUSH1 0x40 MSTORE DUP1 MLOAD SWAP1 PUSH1 0x20 ADD KECCAK256 PUSH1 0x0 SHR PUSH2 0x22F SWAP2 SWAP1 PUSH2 0x5A1 JUMP JUMPDEST SWAP1 POP SWAP2 SWAP1 POP JUMP JUMPDEST PUSH1 0x60 PUSH1 0x0 DUP1 DUP2 SWAP1 SSTORE POP PUSH1 0x40 MLOAD DUP1 PUSH1 0x40 ADD PUSH1 0x40 MSTORE DUP1 PUSH1 0xA DUP2 MSTORE PUSH1 0x20 ADD PUSH32 0x47616D6520524553455400000000000000000000000000000000000000000000 DUP2 MSTORE POP SWAP1 POP SWAP1 JUMP JUMPDEST PUSH1 0x0 SLOAD DUP2 JUMP JUMPDEST PUSH1 0x0 DUP1 REVERT JUMPDEST PUSH1 0x0 DUP2 SWAP1 POP SWAP2 SWAP1 POP JUMP JUMPDEST PUSH2 0x298 DUP2 PUSH2 0x285 JUMP JUMPDEST DUP2 EQ PUSH2 0x2A3 JUMPI PUSH1 0x0 DUP1 REVERT JUMPDEST POP JUMP JUMPDEST PUSH1 0x0 DUP2 CALLDATALOAD SWAP1 POP PUSH2 0x2B5 DUP2 PUSH2 0x28F JUMP JUMPDEST SWAP3 SWAP2 POP POP JUMP JUMPDEST PUSH1 0x0 PUSH1 0x20 DUP3 DUP5 SUB SLT ISZERO PUSH2 0x2D1 JUMPI PUSH2 0x2D0 PUSH2 0x280 JUMP JUMPDEST JUMPDEST PUSH1 0x0 PUSH2 0x2DF DUP5 DUP3 DUP6 ADD PUSH2 0x2A6 JUMP JUMPDEST SWAP2 POP POP SWAP3 SWAP2 POP POP JUMP JUMPDEST PUSH1 0x0 DUP2 MLOAD SWAP1 POP SWAP2 SWAP1 POP JUMP JUMPDEST PUSH1 0x0 DUP3 DUP3 MSTORE PUSH1 0x20 DUP3 ADD SWAP1 POP SWAP3 SWAP2 POP POP JUMP JUMPDEST PUSH1 0x0 JUMPDEST DUP4 DUP2 LT ISZERO PUSH2 0x322 JUMPI DUP1 DUP3 ADD MLOAD DUP2 DUP5 ADD MSTORE PUSH1 0x20 DUP2 ADD SWAP1 POP PUSH2 0x307 JUMP JUMPDEST DUP4 DUP2 GT ISZERO PUSH2 0x331 JUMPI PUSH1 0x0 DUP5 DUP5 ADD MSTORE JUMPDEST POP POP POP POP JUMP JUMPDEST PUSH1 0x0 PUSH1 0x1F NOT PUSH1 0x1F DUP4 ADD AND SWAP1 POP SWAP2 SWAP1 POP JUMP JUMPDEST PUSH1 0x0 PUSH2 0x353 DUP3 PUSH2 0x2E8 JUMP JUMPDEST PUSH2 0x35D DUP2 DUP6 PUSH2 0x2F3 JUMP JUMPDEST SWAP4 POP PUSH2 0x36D DUP2 DUP6 PUSH1 0x20 DUP7 ADD PUSH2 0x304 JUMP JUMPDEST PUSH2 0x376 DUP2 PUSH2 0x337 JUMP JUMPDEST DUP5 ADD SWAP2 POP POP SWAP3 SWAP2 POP POP JUMP JUMPDEST PUSH1 0x0 PUSH1 0x20 DUP3 ADD SWAP1 POP DUP2 DUP2 SUB PUSH1 0x0 DUP4 ADD MSTORE PUSH2 0x39B DUP2 DUP5 PUSH2 0x348 JUMP JUMPDEST SWAP1 POP SWAP3 SWAP2 POP POP JUMP JUMPDEST PUSH2 0x3AC DUP2 PUSH2 0x285 JUMP JUMPDEST DUP3 MSTORE POP POP JUMP JUMPDEST PUSH1 0x0 PUSH1 0x20 DUP3 ADD SWAP1 POP PUSH2 0x3C7 PUSH1 0x0 DUP4 ADD DUP5 PUSH2 0x3A3 JUMP JUMPDEST SWAP3 SWAP2 POP POP JUMP JUMPDEST PUSH32 0x4E487B7100000000000000000000000000000000000000000000000000000000 PUSH1 0x0 MSTORE PUSH1 0x11 PUSH1 0x4 MSTORE PUSH1 0x24 PUSH1 0x0 REVERT JUMPDEST PUSH1 0x0 PUSH2 0x407 DUP3 PUSH2 0x285 JUMP JUMPDEST SWAP2 POP PUSH2 0x412 DUP4 PUSH2 0x285 JUMP JUMPDEST SWAP3 POP DUP3 PUSH32 0xFFFFFFFFFFFFFFFFFFFFFFFFFFFFFFFFFFFFFFFFFFFFFFFFFFFFFFFFFFFFFFFF SUB DUP3 GT ISZERO PUSH2 0x447 JUMPI PUSH2 0x446 PUSH2 0x3CD JUMP JUMPDEST JUMPDEST DUP3 DUP3 ADD SWAP1 POP SWAP3 SWAP2 POP POP JUMP JUMPDEST PUSH1 0x0 PUSH2 0x45D DUP3 PUSH2 0x285 JUMP JUMPDEST SWAP2 POP PUSH32 0xFFFFFFFFFFFFFFFFFFFFFFFFFFFFFFFFFFFFFFFFFFFFFFFFFFFFFFFFFFFFFFFF DUP3 SUB PUSH2 0x48F JUMPI PUSH2 0x48E PUSH2 0x3CD JUMP JUMPDEST JUMPDEST PUSH1 0x1 DUP3 ADD SWAP1 POP SWAP2 SWAP1 POP JUMP JUMPDEST PUSH1 0x0 DUP2 SWAP1 POP SWAP2 SWAP1 POP JUMP JUMPDEST PUSH2 0x4B5 PUSH2 0x4B0 DUP3 PUSH2 0x285 JUMP JUMPDEST PUSH2 0x49A JUMP JUMPDEST DUP3 MSTORE POP POP JUMP JUMPDEST PUSH1 0x0 PUSH20 0xFFFFFFFFFFFFFFFFFFFFFFFFFFFFFFFFFFFFFFFF DUP3 AND SWAP1 POP SWAP2 SWAP1 POP JUMP JUMPDEST PUSH1 0x0 PUSH2 0x4E6 DUP3 PUSH2 0x4BB JUMP JUMPDEST SWAP1 POP SWAP2 SWAP1 POP JUMP JUMPDEST PUSH1 0x0 DUP2 PUSH1 0x60 SHL SWAP1 POP SWAP2 SWAP1 POP JUMP JUMPDEST PUSH1 0x0 PUSH2 0x505 DUP3 PUSH2 0x4ED JUMP JUMPDEST SWAP1 POP SWAP2 SWAP1 POP JUMP JUMPDEST PUSH1 0x0 PUSH2 0x517 DUP3 PUSH2 0x4FA JUMP JUMPDEST SWAP1 POP SWAP2 SWAP1 POP JUMP JUMPDEST PUSH2 0x52F PUSH2 0x52A DUP3 PUSH2 0x4DB JUMP JUMPDEST PUSH2 0x50C JUMP JUMPDEST DUP3 MSTORE POP POP JUMP JUMPDEST PUSH1 0x0 PUSH2 0x541 DUP3 DUP7 PUSH2 0x4A4 JUMP JUMPDEST PUSH1 0x20 DUP3 ADD SWAP2 POP PUSH2 0x551 DUP3 DUP6 PUSH2 0x51E JUMP JUMPDEST PUSH1 0x14 DUP3 ADD SWAP2 POP PUSH2 0x561 DUP3 DUP5 PUSH2 0x4A4 JUMP JUMPDEST PUSH1 0x20 DUP3 ADD SWAP2 POP DUP2 SWAP1 POP SWAP5 SWAP4 POP POP POP POP JUMP JUMPDEST PUSH32 0x4E487B7100000000000000000000000000000000000000000000000000000000 PUSH1 0x0 MSTORE PUSH1 0x12 PUSH1 0x4 MSTORE PUSH1 0x24 PUSH1 0x0 REVERT JUMPDEST PUSH1 0x0 PUSH2 0x5AC DUP3 PUSH2 0x285 JUMP JUMPDEST SWAP2 POP PUSH2 0x5B7 DUP4 PUSH2 0x285 JUMP JUMPDEST SWAP3 POP DUP3 PUSH2 0x5C7 JUMPI PUSH2 0x5C6 PUSH2 0x572 JUMP JUMPDEST JUMPDEST DUP3 DUP3 MOD SWAP1 POP SWAP3 SWAP2 POP POP JUMP INVALID LOG2 PUSH5 0x6970667358 0x22 SLT KECCAK256 0x23 SWAP10 PUSH30 0xE6790D24913DCCD650A8298C55818EA554C806EA9D61053251289942DE64 PUSH20 0x6F6C634300080D00330000000000000000000000 "
				},
				"gasEstimates": {
					"creation": {
						"codeDepositCost": "308800",
						"executionCost": "10369",
						"totalCost": "319169"
					},
					"external": {
						"randMod(uint256)": "infinite",
						"reset()": "infinite",
						"score()": "2473",
						"takeinput(uint256)": "infinite"
					}
				},
				"methodIdentifiers": {
					"randMod(uint256)": "805553e8",
					"reset()": "d826f88f",
					"score()": "efedc669",
					"takeinput(uint256)": "0e7ccaf0"
				}
			},
			"storageLayout": {
				"storage": [
					{
						"astId": 3,
						"contract": "contracts/4_OddEve.sol:oddEve",
						"label": "score",
						"offset": 0,
						"slot": "0",
						"type": "t_uint256"
					},
					{
						"astId": 5,
						"contract": "contracts/4_OddEve.sol:oddEve",
						"label": "randomnumber",
						"offset": 0,
						"slot": "1",
						"type": "t_uint256"
					},
					{
						"astId": 64,
						"contract": "contracts/4_OddEve.sol:oddEve",
						"label": "randNonce",
						"offset": 0,
						"slot": "2",
						"type": "t_uint256"
					}
				],
				"types": {
					"t_uint256": {
						"encoding": "inplace",
						"label": "uint256",
						"numberOfBytes": "32"
					}
				}
			},
			"userdoc": {
				"kind": "user",
				"methods": {},
				"version": 1
			}
		}
	}
}