{
	"contracts/4_OddEve.sol": {
		"oddEve": {
			"abi": [
				{
					"inputs": [],
					"stateMutability": "nonpayable",
					"type": "constructor"
				},
				{
					"inputs": [
						{
							"internalType": "uint256",
							"name": "_modulus",
							"type": "uint256"
						}
					],
					"name": "randMod",
					"outputs": [
						{
							"internalType": "uint256",
							"name": "",
							"type": "uint256"
						}
					],
					"stateMutability": "view",
					"type": "function"
				},
				{
					"inputs": [],
					"name": "reset",
					"outputs": [
						{
							"internalType": "string",
							"name": "",
							"type": "string"
						}
					],
					"stateMutability": "nonpayable",
					"type": "function"
				},
				{
					"inputs": [],
					"name": "score",
					"outputs": [
						{
							"internalType": "uint256",
							"name": "",
							"type": "uint256"
						}
					],
					"stateMutability": "view",
					"type": "function"
				},
				{
					"inputs": [
						{
							"internalType": "uint256",
							"name": "_inputnumber",
							"type": "uint256"
						}
					],
					"name": "takeinput",
					"outputs": [
						{
							"internalType": "string",
							"name": "",
							"type": "string"
						}
					],
					"stateMutability": "nonpayable",
					"type": "function"
				}
			],
			"devdoc": {
				"kind": "dev",
				"methods": {},
				"version": 1
			},
			"evm": {
				"assembly": "    /* \"contracts/4_OddEve.sol\":72:1260  contract oddEve{... */\n  mstore(0x40, 0x80)\n    /* \"contracts/4_OddEve.sol\":1044:1045  0 */\n  0x00\n    /* \"contracts/4_OddEve.sol\":1027:1045  uint randNonce = 0 */\n  0x02\n  sstore\n    /* \"contracts/4_OddEve.sol\":144:191  constructor()... */\n  callvalue\n  dup1\n  iszero\n  tag_1\n  jumpi\n  0x00\n  dup1\n  revert\ntag_1:\n  pop\n    /* \"contracts/4_OddEve.sol\":182:183  0 */\n  0x00\n    /* \"contracts/4_OddEve.sol\":174:179  score */\n  dup1\n    /* \"contracts/4_OddEve.sol\":174:183  score = 0 */\n  dup2\n  swap1\n  sstore\n  pop\n    /* \"contracts/4_OddEve.sol\":72:1260  contract oddEve{... */\n  dataSize(sub_0)\n  dup1\n  dataOffset(sub_0)\n  0x00\n  codecopy\n  0x00\n  return\nstop\n\nsub_0: assembly {\n        /* \"contracts/4_OddEve.sol\":72:1260  contract oddEve{... */\n      mstore(0x40, 0x80)\n      callvalue\n      dup1\n      iszero\n      tag_1\n      jumpi\n      0x00\n      dup1\n      revert\n    tag_1:\n      pop\n      jumpi(tag_2, lt(calldatasize, 0x04))\n      shr(0xe0, calldataload(0x00))\n      dup1\n      0x0e7ccaf0\n      eq\n      tag_3\n      jumpi\n      dup1\n      0x805553e8\n      eq\n      tag_4\n      jumpi\n      dup1\n      0xd826f88f\n      eq\n      tag_5\n      jumpi\n      dup1\n      0xefedc669\n      eq\n      tag_6\n      jumpi\n    tag_2:\n      0x00\n      dup1\n      revert\n        /* \"contracts/4_OddEve.sol\":330:905  function takeinput(uint _inputnumber) public  returns (string memory){... */\n    tag_3:\n      tag_7\n      0x04\n      dup1\n      calldatasize\n      sub\n      dup2\n      add\n      swap1\n      tag_8\n      swap2\n      swap1\n      tag_9\n      jump\t// in\n    tag_8:\n      tag_10\n      jump\t// in\n    tag_7:\n      mload(0x40)\n      tag_11\n      swap2\n      swap1\n      tag_12\n      jump\t// in\n    tag_11:\n      mload(0x40)\n      dup1\n      swap2\n      sub\n      swap1\n      return\n        /* \"contracts/4_OddEve.sol\":1052:1257  function randMod(uint _modulus) public view returns(uint)... */\n    tag_4:\n      tag_13\n      0x04\n      dup1\n      calldatasize\n      sub\n      dup2\n      add\n      swap1\n      tag_14\n      swap2\n      swap1\n      tag_9\n      jump\t// in\n    tag_14:\n      tag_15\n      jump\t// in\n    tag_13:\n      mload(0x40)\n      tag_16\n      swap2\n      swap1\n      tag_17\n      jump\t// in\n    tag_16:\n      mload(0x40)\n      dup1\n      swap2\n      sub\n      swap1\n      return\n        /* \"contracts/4_OddEve.sol\":913:1019  function reset() public  returns (string memory){... */\n    tag_5:\n      tag_18\n      tag_19\n      jump\t// in\n    tag_18:\n      mload(0x40)\n      tag_20\n      swap2\n      swap1\n      tag_12\n      jump\t// in\n    tag_20:\n      mload(0x40)\n      dup1\n      swap2\n      sub\n      swap1\n      return\n        /* \"contracts/4_OddEve.sol\":94:111  uint public score */\n    tag_6:\n      tag_21\n      tag_22\n      jump\t// in\n    tag_21:\n      mload(0x40)\n      tag_23\n      swap2\n      swap1\n      tag_17\n      jump\t// in\n    tag_23:\n      mload(0x40)\n      dup1\n      swap2\n      sub\n      swap1\n      return\n        /* \"contracts/4_OddEve.sol\":330:905  function takeinput(uint _inputnumber) public  returns (string memory){... */\n    tag_10:\n        /* \"contracts/4_OddEve.sol\":385:398  string memory */\n      0x60\n        /* \"contracts/4_OddEve.sol\":427:428  1 */\n      0x01\n        /* \"contracts/4_OddEve.sol\":414:426  _inputnumber */\n      dup3\n        /* \"contracts/4_OddEve.sol\":414:428  _inputnumber<1 */\n      lt\n        /* \"contracts/4_OddEve.sol\":414:447  _inputnumber<1 || _inputnumber >6 */\n      dup1\n      tag_25\n      jumpi\n      pop\n        /* \"contracts/4_OddEve.sol\":446:447  6 */\n      0x06\n        /* \"contracts/4_OddEve.sol\":432:444  _inputnumber */\n      dup3\n        /* \"contracts/4_OddEve.sol\":432:447  _inputnumber >6 */\n      gt\n        /* \"contracts/4_OddEve.sol\":414:447  _inputnumber<1 || _inputnumber >6 */\n    tag_25:\n        /* \"contracts/4_OddEve.sol\":410:898  if (_inputnumber<1 || _inputnumber >6){... */\n      iszero\n      tag_26\n      jumpi\n        /* \"contracts/4_OddEve.sol\":463:499  return \"Please Enter a Valid Number\" */\n      mload(0x40)\n      dup1\n      0x40\n      add\n      0x40\n      mstore\n      dup1\n      0x1b\n      dup2\n      mstore\n      0x20\n      add\n      0x506c6561736520456e74657220612056616c6964204e756d6265720000000000\n      dup2\n      mstore\n      pop\n      swap1\n      pop\n      jump(tag_24)\n        /* \"contracts/4_OddEve.sol\":410:898  if (_inputnumber<1 || _inputnumber >6){... */\n    tag_26:\n        /* \"contracts/4_OddEve.sol\":631:643  _inputnumber */\n      dup2\n        /* \"contracts/4_OddEve.sol\":617:629  randomnumber */\n      sload(0x01)\n        /* \"contracts/4_OddEve.sol\":617:643  randomnumber==_inputnumber */\n      sub\n        /* \"contracts/4_OddEve.sol\":613:887  if (randomnumber==_inputnumber)... */\n      tag_28\n      jumpi\n        /* \"contracts/4_OddEve.sol\":677:692  return \"-- OUT\" */\n      mload(0x40)\n      dup1\n      0x40\n      add\n      0x40\n      mstore\n      dup1\n      0x06\n      dup2\n      mstore\n      0x20\n      add\n      0x2d2d204f55540000000000000000000000000000000000000000000000000000\n      dup2\n      mstore\n      pop\n      swap1\n      pop\n      jump(tag_24)\n        /* \"contracts/4_OddEve.sol\":613:887  if (randomnumber==_inputnumber)... */\n    tag_28:\n        /* \"contracts/4_OddEve.sol\":796:808  randomnumber */\n      sload(0x01)\n        /* \"contracts/4_OddEve.sol\":788:793  score */\n      sload(0x00)\n        /* \"contracts/4_OddEve.sol\":788:808  score + randomnumber */\n      tag_30\n      swap2\n      swap1\n      tag_31\n      jump\t// in\n    tag_30:\n        /* \"contracts/4_OddEve.sol\":780:785  score */\n      0x00\n        /* \"contracts/4_OddEve.sol\":780:808  score = score + randomnumber */\n      dup2\n      swap1\n      sstore\n      pop\n        /* \"contracts/4_OddEve.sol\":827:852  return \"randonumber RUNS\" */\n      mload(0x40)\n      dup1\n      0x40\n      add\n      0x40\n      mstore\n      dup1\n      0x10\n      dup2\n      mstore\n      0x20\n      add\n      0x72616e646f6e756d6265722052554e5300000000000000000000000000000000\n      dup2\n      mstore\n      pop\n      swap1\n      pop\n        /* \"contracts/4_OddEve.sol\":330:905  function takeinput(uint _inputnumber) public  returns (string memory){... */\n    tag_24:\n      swap2\n      swap1\n      pop\n      jump\t// out\n        /* \"contracts/4_OddEve.sol\":1052:1257  function randMod(uint _modulus) public view returns(uint)... */\n    tag_15:\n        /* \"contracts/4_OddEve.sol\":1104:1108  uint */\n      0x00\n        /* \"contracts/4_OddEve.sol\":1241:1249  _modulus */\n      dup2\n        /* \"contracts/4_OddEve.sol\":1198:1213  block.timestamp */\n      timestamp\n        /* \"contracts/4_OddEve.sol\":1214:1224  msg.sender */\n      caller\n        /* \"contracts/4_OddEve.sol\":1226:1235  randNonce */\n      sload(0x02)\n        /* \"contracts/4_OddEve.sol\":1181:1236  abi.encodePacked(block.timestamp,msg.sender, randNonce) */\n      add(0x20, mload(0x40))\n      tag_33\n      swap4\n      swap3\n      swap2\n      swap1\n      tag_34\n      jump\t// in\n    tag_33:\n      mload(0x40)\n      0x20\n      dup2\n      dup4\n      sub\n      sub\n      dup2\n      mstore\n      swap1\n      0x40\n      mstore\n        /* \"contracts/4_OddEve.sol\":1171:1237  keccak256(abi.encodePacked(block.timestamp,msg.sender, randNonce)) */\n      dup1\n      mload\n      swap1\n      0x20\n      add\n      keccak256\n        /* \"contracts/4_OddEve.sol\":1166:1238  uint(keccak256(abi.encodePacked(block.timestamp,msg.sender, randNonce))) */\n      0x00\n      shr\n        /* \"contracts/4_OddEve.sol\":1166:1249  uint(keccak256(abi.encodePacked(block.timestamp,msg.sender, randNonce))) % _modulus */\n      tag_35\n      swap2\n      swap1\n      tag_36\n      jump\t// in\n    tag_35:\n        /* \"contracts/4_OddEve.sol\":1159:1249  return uint(keccak256(abi.encodePacked(block.timestamp,msg.sender, randNonce))) % _modulus */\n      swap1\n      pop\n        /* \"contracts/4_OddEve.sol\":1052:1257  function randMod(uint _modulus) public view returns(uint)... */\n      swap2\n      swap1\n      pop\n      jump\t// out\n        /* \"contracts/4_OddEve.sol\":913:1019  function reset() public  returns (string memory){... */\n    tag_19:\n        /* \"contracts/4_OddEve.sol\":947:960  string memory */\n      0x60\n        /* \"contracts/4_OddEve.sol\":980:981  0 */\n      0x00\n        /* \"contracts/4_OddEve.sol\":972:977  score */\n      dup1\n        /* \"contracts/4_OddEve.sol\":972:981  score = 0 */\n      dup2\n      swap1\n      sstore\n      pop\n        /* \"contracts/4_OddEve.sol\":992:1011  return \"Game RESET\" */\n      mload(0x40)\n      dup1\n      0x40\n      add\n      0x40\n      mstore\n      dup1\n      0x0a\n      dup2\n      mstore\n      0x20\n      add\n      0x47616d6520524553455400000000000000000000000000000000000000000000\n      dup2\n      mstore\n      pop\n      swap1\n      pop\n        /* \"contracts/4_OddEve.sol\":913:1019  function reset() public  returns (string memory){... */\n      swap1\n      jump\t// out\n        /* \"contracts/4_OddEve.sol\":94:111  uint public score */\n    tag_22:\n      sload(0x00)\n      dup2\n      jump\t// out\n        /* \"#utility.yul\":88:205   */\n    tag_39:\n        /* \"#utility.yul\":197:198   */\n      0x00\n        /* \"#utility.yul\":194:195   */\n      dup1\n        /* \"#utility.yul\":187:199   */\n      revert\n        /* \"#utility.yul\":334:411   */\n    tag_41:\n        /* \"#utility.yul\":371:378   */\n      0x00\n        /* \"#utility.yul\":400:405   */\n      dup2\n        /* \"#utility.yul\":389:405   */\n      swap1\n      pop\n        /* \"#utility.yul\":334:411   */\n      swap2\n      swap1\n      pop\n      jump\t// out\n        /* \"#utility.yul\":417:539   */\n    tag_42:\n        /* \"#utility.yul\":490:514   */\n      tag_66\n        /* \"#utility.yul\":508:513   */\n      dup2\n        /* \"#utility.yul\":490:514   */\n      tag_41\n      jump\t// in\n    tag_66:\n        /* \"#utility.yul\":483:488   */\n      dup2\n        /* \"#utility.yul\":480:515   */\n      eq\n        /* \"#utility.yul\":470:533   */\n      tag_67\n      jumpi\n        /* \"#utility.yul\":529:530   */\n      0x00\n        /* \"#utility.yul\":526:527   */\n      dup1\n        /* \"#utility.yul\":519:531   */\n      revert\n        /* \"#utility.yul\":470:533   */\n    tag_67:\n        /* \"#utility.yul\":417:539   */\n      pop\n      jump\t// out\n        /* \"#utility.yul\":545:684   */\n    tag_43:\n        /* \"#utility.yul\":591:596   */\n      0x00\n        /* \"#utility.yul\":629:635   */\n      dup2\n        /* \"#utility.yul\":616:636   */\n      calldataload\n        /* \"#utility.yul\":607:636   */\n      swap1\n      pop\n        /* \"#utility.yul\":645:678   */\n      tag_69\n        /* \"#utility.yul\":672:677   */\n      dup2\n        /* \"#utility.yul\":645:678   */\n      tag_42\n      jump\t// in\n    tag_69:\n        /* \"#utility.yul\":545:684   */\n      swap3\n      swap2\n      pop\n      pop\n      jump\t// out\n        /* \"#utility.yul\":690:1019   */\n    tag_9:\n        /* \"#utility.yul\":749:755   */\n      0x00\n        /* \"#utility.yul\":798:800   */\n      0x20\n        /* \"#utility.yul\":786:795   */\n      dup3\n        /* \"#utility.yul\":777:784   */\n      dup5\n        /* \"#utility.yul\":773:796   */\n      sub\n        /* \"#utility.yul\":769:801   */\n      slt\n        /* \"#utility.yul\":766:885   */\n      iszero\n      tag_71\n      jumpi\n        /* \"#utility.yul\":804:883   */\n      tag_72\n      tag_39\n      jump\t// in\n    tag_72:\n        /* \"#utility.yul\":766:885   */\n    tag_71:\n        /* \"#utility.yul\":924:925   */\n      0x00\n        /* \"#utility.yul\":949:1002   */\n      tag_73\n        /* \"#utility.yul\":994:1001   */\n      dup5\n        /* \"#utility.yul\":985:991   */\n      dup3\n        /* \"#utility.yul\":974:983   */\n      dup6\n        /* \"#utility.yul\":970:992   */\n      add\n        /* \"#utility.yul\":949:1002   */\n      tag_43\n      jump\t// in\n    tag_73:\n        /* \"#utility.yul\":939:1002   */\n      swap2\n      pop\n        /* \"#utility.yul\":895:1012   */\n      pop\n        /* \"#utility.yul\":690:1019   */\n      swap3\n      swap2\n      pop\n      pop\n      jump\t// out\n        /* \"#utility.yul\":1025:1124   */\n    tag_44:\n        /* \"#utility.yul\":1077:1083   */\n      0x00\n        /* \"#utility.yul\":1111:1116   */\n      dup2\n        /* \"#utility.yul\":1105:1117   */\n      mload\n        /* \"#utility.yul\":1095:1117   */\n      swap1\n      pop\n        /* \"#utility.yul\":1025:1124   */\n      swap2\n      swap1\n      pop\n      jump\t// out\n        /* \"#utility.yul\":1130:1299   */\n    tag_45:\n        /* \"#utility.yul\":1214:1225   */\n      0x00\n        /* \"#utility.yul\":1248:1254   */\n      dup3\n        /* \"#utility.yul\":1243:1246   */\n      dup3\n        /* \"#utility.yul\":1236:1255   */\n      mstore\n        /* \"#utility.yul\":1288:1292   */\n      0x20\n        /* \"#utility.yul\":1283:1286   */\n      dup3\n        /* \"#utility.yul\":1279:1293   */\n      add\n        /* \"#utility.yul\":1264:1293   */\n      swap1\n      pop\n        /* \"#utility.yul\":1130:1299   */\n      swap3\n      swap2\n      pop\n      pop\n      jump\t// out\n        /* \"#utility.yul\":1305:1612   */\n    tag_46:\n        /* \"#utility.yul\":1373:1374   */\n      0x00\n        /* \"#utility.yul\":1383:1496   */\n    tag_77:\n        /* \"#utility.yul\":1397:1403   */\n      dup4\n        /* \"#utility.yul\":1394:1395   */\n      dup2\n        /* \"#utility.yul\":1391:1404   */\n      lt\n        /* \"#utility.yul\":1383:1496   */\n      iszero\n      tag_79\n      jumpi\n        /* \"#utility.yul\":1482:1483   */\n      dup1\n        /* \"#utility.yul\":1477:1480   */\n      dup3\n        /* \"#utility.yul\":1473:1484   */\n      add\n        /* \"#utility.yul\":1467:1485   */\n      mload\n        /* \"#utility.yul\":1463:1464   */\n      dup2\n        /* \"#utility.yul\":1458:1461   */\n      dup5\n        /* \"#utility.yul\":1454:1465   */\n      add\n        /* \"#utility.yul\":1447:1486   */\n      mstore\n        /* \"#utility.yul\":1419:1421   */\n      0x20\n        /* \"#utility.yul\":1416:1417   */\n      dup2\n        /* \"#utility.yul\":1412:1422   */\n      add\n        /* \"#utility.yul\":1407:1422   */\n      swap1\n      pop\n        /* \"#utility.yul\":1383:1496   */\n      jump(tag_77)\n    tag_79:\n        /* \"#utility.yul\":1514:1520   */\n      dup4\n        /* \"#utility.yul\":1511:1512   */\n      dup2\n        /* \"#utility.yul\":1508:1521   */\n      gt\n        /* \"#utility.yul\":1505:1606   */\n      iszero\n      tag_80\n      jumpi\n        /* \"#utility.yul\":1594:1595   */\n      0x00\n        /* \"#utility.yul\":1585:1591   */\n      dup5\n        /* \"#utility.yul\":1580:1583   */\n      dup5\n        /* \"#utility.yul\":1576:1592   */\n      add\n        /* \"#utility.yul\":1569:1596   */\n      mstore\n        /* \"#utility.yul\":1505:1606   */\n    tag_80:\n        /* \"#utility.yul\":1354:1612   */\n      pop\n        /* \"#utility.yul\":1305:1612   */\n      pop\n      pop\n      pop\n      jump\t// out\n        /* \"#utility.yul\":1618:1720   */\n    tag_47:\n        /* \"#utility.yul\":1659:1665   */\n      0x00\n        /* \"#utility.yul\":1710:1712   */\n      0x1f\n        /* \"#utility.yul\":1706:1713   */\n      not\n        /* \"#utility.yul\":1701:1703   */\n      0x1f\n        /* \"#utility.yul\":1694:1699   */\n      dup4\n        /* \"#utility.yul\":1690:1704   */\n      add\n        /* \"#utility.yul\":1686:1714   */\n      and\n        /* \"#utility.yul\":1676:1714   */\n      swap1\n      pop\n        /* \"#utility.yul\":1618:1720   */\n      swap2\n      swap1\n      pop\n      jump\t// out\n        /* \"#utility.yul\":1726:2090   */\n    tag_48:\n        /* \"#utility.yul\":1814:1817   */\n      0x00\n        /* \"#utility.yul\":1842:1881   */\n      tag_83\n        /* \"#utility.yul\":1875:1880   */\n      dup3\n        /* \"#utility.yul\":1842:1881   */\n      tag_44\n      jump\t// in\n    tag_83:\n        /* \"#utility.yul\":1897:1968   */\n      tag_84\n        /* \"#utility.yul\":1961:1967   */\n      dup2\n        /* \"#utility.yul\":1956:1959   */\n      dup6\n        /* \"#utility.yul\":1897:1968   */\n      tag_45\n      jump\t// in\n    tag_84:\n        /* \"#utility.yul\":1890:1968   */\n      swap4\n      pop\n        /* \"#utility.yul\":1977:2029   */\n      tag_85\n        /* \"#utility.yul\":2022:2028   */\n      dup2\n        /* \"#utility.yul\":2017:2020   */\n      dup6\n        /* \"#utility.yul\":2010:2014   */\n      0x20\n        /* \"#utility.yul\":2003:2008   */\n      dup7\n        /* \"#utility.yul\":1999:2015   */\n      add\n        /* \"#utility.yul\":1977:2029   */\n      tag_46\n      jump\t// in\n    tag_85:\n        /* \"#utility.yul\":2054:2083   */\n      tag_86\n        /* \"#utility.yul\":2076:2082   */\n      dup2\n        /* \"#utility.yul\":2054:2083   */\n      tag_47\n      jump\t// in\n    tag_86:\n        /* \"#utility.yul\":2049:2052   */\n      dup5\n        /* \"#utility.yul\":2045:2084   */\n      add\n        /* \"#utility.yul\":2038:2084   */\n      swap2\n      pop\n        /* \"#utility.yul\":1818:2090   */\n      pop\n        /* \"#utility.yul\":1726:2090   */\n      swap3\n      swap2\n      pop\n      pop\n      jump\t// out\n        /* \"#utility.yul\":2096:2409   */\n    tag_12:\n        /* \"#utility.yul\":2209:2213   */\n      0x00\n        /* \"#utility.yul\":2247:2249   */\n      0x20\n        /* \"#utility.yul\":2236:2245   */\n      dup3\n        /* \"#utility.yul\":2232:2250   */\n      add\n        /* \"#utility.yul\":2224:2250   */\n      swap1\n      pop\n        /* \"#utility.yul\":2296:2305   */\n      dup2\n        /* \"#utility.yul\":2290:2294   */\n      dup2\n        /* \"#utility.yul\":2286:2306   */\n      sub\n        /* \"#utility.yul\":2282:2283   */\n      0x00\n        /* \"#utility.yul\":2271:2280   */\n      dup4\n        /* \"#utility.yul\":2267:2284   */\n      add\n        /* \"#utility.yul\":2260:2307   */\n      mstore\n        /* \"#utility.yul\":2324:2402   */\n      tag_88\n        /* \"#utility.yul\":2397:2401   */\n      dup2\n        /* \"#utility.yul\":2388:2394   */\n      dup5\n        /* \"#utility.yul\":2324:2402   */\n      tag_48\n      jump\t// in\n    tag_88:\n        /* \"#utility.yul\":2316:2402   */\n      swap1\n      pop\n        /* \"#utility.yul\":2096:2409   */\n      swap3\n      swap2\n      pop\n      pop\n      jump\t// out\n        /* \"#utility.yul\":2415:2533   */\n    tag_49:\n        /* \"#utility.yul\":2502:2526   */\n      tag_90\n        /* \"#utility.yul\":2520:2525   */\n      dup2\n        /* \"#utility.yul\":2502:2526   */\n      tag_41\n      jump\t// in\n    tag_90:\n        /* \"#utility.yul\":2497:2500   */\n      dup3\n        /* \"#utility.yul\":2490:2527   */\n      mstore\n        /* \"#utility.yul\":2415:2533   */\n      pop\n      pop\n      jump\t// out\n        /* \"#utility.yul\":2539:2761   */\n    tag_17:\n        /* \"#utility.yul\":2632:2636   */\n      0x00\n        /* \"#utility.yul\":2670:2672   */\n      0x20\n        /* \"#utility.yul\":2659:2668   */\n      dup3\n        /* \"#utility.yul\":2655:2673   */\n      add\n        /* \"#utility.yul\":2647:2673   */\n      swap1\n      pop\n        /* \"#utility.yul\":2683:2754   */\n      tag_92\n        /* \"#utility.yul\":2751:2752   */\n      0x00\n        /* \"#utility.yul\":2740:2749   */\n      dup4\n        /* \"#utility.yul\":2736:2753   */\n      add\n        /* \"#utility.yul\":2727:2733   */\n      dup5\n        /* \"#utility.yul\":2683:2754   */\n      tag_49\n      jump\t// in\n    tag_92:\n        /* \"#utility.yul\":2539:2761   */\n      swap3\n      swap2\n      pop\n      pop\n      jump\t// out\n        /* \"#utility.yul\":2767:2947   */\n    tag_50:\n        /* \"#utility.yul\":2815:2892   */\n      0x4e487b7100000000000000000000000000000000000000000000000000000000\n        /* \"#utility.yul\":2812:2813   */\n      0x00\n        /* \"#utility.yul\":2805:2893   */\n      mstore\n        /* \"#utility.yul\":2912:2916   */\n      0x11\n        /* \"#utility.yul\":2909:2910   */\n      0x04\n        /* \"#utility.yul\":2902:2917   */\n      mstore\n        /* \"#utility.yul\":2936:2940   */\n      0x24\n        /* \"#utility.yul\":2933:2934   */\n      0x00\n        /* \"#utility.yul\":2926:2941   */\n      revert\n        /* \"#utility.yul\":2953:3258   */\n    tag_31:\n        /* \"#utility.yul\":2993:2996   */\n      0x00\n        /* \"#utility.yul\":3012:3032   */\n      tag_95\n        /* \"#utility.yul\":3030:3031   */\n      dup3\n        /* \"#utility.yul\":3012:3032   */\n      tag_41\n      jump\t// in\n    tag_95:\n        /* \"#utility.yul\":3007:3032   */\n      swap2\n      pop\n        /* \"#utility.yul\":3046:3066   */\n      tag_96\n        /* \"#utility.yul\":3064:3065   */\n      dup4\n        /* \"#utility.yul\":3046:3066   */\n      tag_41\n      jump\t// in\n    tag_96:\n        /* \"#utility.yul\":3041:3066   */\n      swap3\n      pop\n        /* \"#utility.yul\":3200:3201   */\n      dup3\n        /* \"#utility.yul\":3132:3198   */\n      0xffffffffffffffffffffffffffffffffffffffffffffffffffffffffffffffff\n        /* \"#utility.yul\":3128:3202   */\n      sub\n        /* \"#utility.yul\":3125:3126   */\n      dup3\n        /* \"#utility.yul\":3122:3203   */\n      gt\n        /* \"#utility.yul\":3119:3226   */\n      iszero\n      tag_97\n      jumpi\n        /* \"#utility.yul\":3206:3224   */\n      tag_98\n      tag_50\n      jump\t// in\n    tag_98:\n        /* \"#utility.yul\":3119:3226   */\n    tag_97:\n        /* \"#utility.yul\":3250:3251   */\n      dup3\n        /* \"#utility.yul\":3247:3248   */\n      dup3\n        /* \"#utility.yul\":3243:3252   */\n      add\n        /* \"#utility.yul\":3236:3252   */\n      swap1\n      pop\n        /* \"#utility.yul\":2953:3258   */\n      swap3\n      swap2\n      pop\n      pop\n      jump\t// out\n        /* \"#utility.yul\":3264:3343   */\n    tag_51:\n        /* \"#utility.yul\":3303:3310   */\n      0x00\n        /* \"#utility.yul\":3332:3337   */\n      dup2\n        /* \"#utility.yul\":3321:3337   */\n      swap1\n      pop\n        /* \"#utility.yul\":3264:3343   */\n      swap2\n      swap1\n      pop\n      jump\t// out\n        /* \"#utility.yul\":3349:3506   */\n    tag_52:\n        /* \"#utility.yul\":3454:3499   */\n      tag_101\n        /* \"#utility.yul\":3474:3498   */\n      tag_102\n        /* \"#utility.yul\":3492:3497   */\n      dup3\n        /* \"#utility.yul\":3474:3498   */\n      tag_41\n      jump\t// in\n    tag_102:\n        /* \"#utility.yul\":3454:3499   */\n      tag_51\n      jump\t// in\n    tag_101:\n        /* \"#utility.yul\":3449:3452   */\n      dup3\n        /* \"#utility.yul\":3442:3500   */\n      mstore\n        /* \"#utility.yul\":3349:3506   */\n      pop\n      pop\n      jump\t// out\n        /* \"#utility.yul\":3512:3638   */\n    tag_53:\n        /* \"#utility.yul\":3549:3556   */\n      0x00\n        /* \"#utility.yul\":3589:3631   */\n      0xffffffffffffffffffffffffffffffffffffffff\n        /* \"#utility.yul\":3582:3587   */\n      dup3\n        /* \"#utility.yul\":3578:3632   */\n      and\n        /* \"#utility.yul\":3567:3632   */\n      swap1\n      pop\n        /* \"#utility.yul\":3512:3638   */\n      swap2\n      swap1\n      pop\n      jump\t// out\n        /* \"#utility.yul\":3644:3740   */\n    tag_54:\n        /* \"#utility.yul\":3681:3688   */\n      0x00\n        /* \"#utility.yul\":3710:3734   */\n      tag_105\n        /* \"#utility.yul\":3728:3733   */\n      dup3\n        /* \"#utility.yul\":3710:3734   */\n      tag_53\n      jump\t// in\n    tag_105:\n        /* \"#utility.yul\":3699:3734   */\n      swap1\n      pop\n        /* \"#utility.yul\":3644:3740   */\n      swap2\n      swap1\n      pop\n      jump\t// out\n        /* \"#utility.yul\":3746:3840   */\n    tag_55:\n        /* \"#utility.yul\":3779:3787   */\n      0x00\n        /* \"#utility.yul\":3827:3832   */\n      dup2\n        /* \"#utility.yul\":3823:3825   */\n      0x60\n        /* \"#utility.yul\":3819:3833   */\n      shl\n        /* \"#utility.yul\":3798:3833   */\n      swap1\n      pop\n        /* \"#utility.yul\":3746:3840   */\n      swap2\n      swap1\n      pop\n      jump\t// out\n        /* \"#utility.yul\":3846:3940   */\n    tag_56:\n        /* \"#utility.yul\":3885:3892   */\n      0x00\n        /* \"#utility.yul\":3914:3934   */\n      tag_108\n        /* \"#utility.yul\":3928:3933   */\n      dup3\n        /* \"#utility.yul\":3914:3934   */\n      tag_55\n      jump\t// in\n    tag_108:\n        /* \"#utility.yul\":3903:3934   */\n      swap1\n      pop\n        /* \"#utility.yul\":3846:3940   */\n      swap2\n      swap1\n      pop\n      jump\t// out\n        /* \"#utility.yul\":3946:4046   */\n    tag_57:\n        /* \"#utility.yul\":3985:3992   */\n      0x00\n        /* \"#utility.yul\":4014:4040   */\n      tag_110\n        /* \"#utility.yul\":4034:4039   */\n      dup3\n        /* \"#utility.yul\":4014:4040   */\n      tag_56\n      jump\t// in\n    tag_110:\n        /* \"#utility.yul\":4003:4040   */\n      swap1\n      pop\n        /* \"#utility.yul\":3946:4046   */\n      swap2\n      swap1\n      pop\n      jump\t// out\n        /* \"#utility.yul\":4052:4209   */\n    tag_58:\n        /* \"#utility.yul\":4157:4202   */\n      tag_112\n        /* \"#utility.yul\":4177:4201   */\n      tag_113\n        /* \"#utility.yul\":4195:4200   */\n      dup3\n        /* \"#utility.yul\":4177:4201   */\n      tag_54\n      jump\t// in\n    tag_113:\n        /* \"#utility.yul\":4157:4202   */\n      tag_57\n      jump\t// in\n    tag_112:\n        /* \"#utility.yul\":4152:4155   */\n      dup3\n        /* \"#utility.yul\":4145:4203   */\n      mstore\n        /* \"#utility.yul\":4052:4209   */\n      pop\n      pop\n      jump\t// out\n        /* \"#utility.yul\":4215:4753   */\n    tag_34:\n        /* \"#utility.yul\":4383:4386   */\n      0x00\n        /* \"#utility.yul\":4398:4473   */\n      tag_115\n        /* \"#utility.yul\":4469:4472   */\n      dup3\n        /* \"#utility.yul\":4460:4466   */\n      dup7\n        /* \"#utility.yul\":4398:4473   */\n      tag_52\n      jump\t// in\n    tag_115:\n        /* \"#utility.yul\":4498:4500   */\n      0x20\n        /* \"#utility.yul\":4493:4496   */\n      dup3\n        /* \"#utility.yul\":4489:4501   */\n      add\n        /* \"#utility.yul\":4482:4501   */\n      swap2\n      pop\n        /* \"#utility.yul\":4511:4586   */\n      tag_116\n        /* \"#utility.yul\":4582:4585   */\n      dup3\n        /* \"#utility.yul\":4573:4579   */\n      dup6\n        /* \"#utility.yul\":4511:4586   */\n      tag_58\n      jump\t// in\n    tag_116:\n        /* \"#utility.yul\":4611:4613   */\n      0x14\n        /* \"#utility.yul\":4606:4609   */\n      dup3\n        /* \"#utility.yul\":4602:4614   */\n      add\n        /* \"#utility.yul\":4595:4614   */\n      swap2\n      pop\n        /* \"#utility.yul\":4624:4699   */\n      tag_117\n        /* \"#utility.yul\":4695:4698   */\n      dup3\n        /* \"#utility.yul\":4686:4692   */\n      dup5\n        /* \"#utility.yul\":4624:4699   */\n      tag_52\n      jump\t// in\n    tag_117:\n        /* \"#utility.yul\":4724:4726   */\n      0x20\n        /* \"#utility.yul\":4719:4722   */\n      dup3\n        /* \"#utility.yul\":4715:4727   */\n      add\n        /* \"#utility.yul\":4708:4727   */\n      swap2\n      pop\n        /* \"#utility.yul\":4744:4747   */\n      dup2\n        /* \"#utility.yul\":4737:4747   */\n      swap1\n      pop\n        /* \"#utility.yul\":4215:4753   */\n      swap5\n      swap4\n      pop\n      pop\n      pop\n      pop\n      jump\t// out\n        /* \"#utility.yul\":4759:4939   */\n    tag_59:\n        /* \"#utility.yul\":4807:4884   */\n      0x4e487b7100000000000000000000000000000000000000000000000000000000\n        /* \"#utility.yul\":4804:4805   */\n      0x00\n        /* \"#utility.yul\":4797:4885   */\n      mstore\n        /* \"#utility.yul\":4904:4908   */\n      0x12\n        /* \"#utility.yul\":4901:4902   */\n      0x04\n        /* \"#utility.yul\":4894:4909   */\n      mstore\n        /* \"#utility.yul\":4928:4932   */\n      0x24\n        /* \"#utility.yul\":4925:4926   */\n      0x00\n        /* \"#utility.yul\":4918:4933   */\n      revert\n        /* \"#utility.yul\":4945:5121   */\n    tag_36:\n        /* \"#utility.yul\":4977:4978   */\n      0x00\n        /* \"#utility.yul\":4994:5014   */\n      tag_120\n        /* \"#utility.yul\":5012:5013   */\n      dup3\n        /* \"#utility.yul\":4994:5014   */\n      tag_41\n      jump\t// in\n    tag_120:\n        /* \"#utility.yul\":4989:5014   */\n      swap2\n      pop\n        /* \"#utility.yul\":5028:5048   */\n      tag_121\n        /* \"#utility.yul\":5046:5047   */\n      dup4\n        /* \"#utility.yul\":5028:5048   */\n      tag_41\n      jump\t// in\n    tag_121:\n        /* \"#utility.yul\":5023:5048   */\n      swap3\n      pop\n        /* \"#utility.yul\":5067:5068   */\n      dup3\n        /* \"#utility.yul\":5057:5092   */\n      tag_122\n      jumpi\n        /* \"#utility.yul\":5072:5090   */\n      tag_123\n      tag_59\n      jump\t// in\n    tag_123:\n        /* \"#utility.yul\":5057:5092   */\n    tag_122:\n        /* \"#utility.yul\":5113:5114   */\n      dup3\n        /* \"#utility.yul\":5110:5111   */\n      dup3\n        /* \"#utility.yul\":5106:5115   */\n      mod\n        /* \"#utility.yul\":5101:5115   */\n      swap1\n      pop\n        /* \"#utility.yul\":4945:5121   */\n      swap3\n      swap2\n      pop\n      pop\n      jump\t// out\n\n    auxdata: 0xa2646970667358221220ab292a9148fb23048d2a11acea7738d7415136558df222989ce1127cc35fac3264736f6c634300080d0033\n}\n",
				"bytecode": {
					"linkReferences": {},
					"object": "6080604052600060025534801561001557600080fd5b50600080819055506105a88061002c6000396000f3fe608060405234801561001057600080fd5b506004361061004c5760003560e01c80630e7ccaf014610051578063805553e814610081578063d826f88f146100b1578063efedc669146100cf575b600080fd5b61006b600480360381019061006691906102a3565b6100ed565b6040516100789190610369565b60405180910390f35b61009b600480360381019061009691906102a3565b6101da565b6040516100a8919061039a565b60405180910390f35b6100b961021e565b6040516100c69190610369565b60405180910390f35b6100d7610262565b6040516100e4919061039a565b60405180910390f35b606060018210806100fe5750600682115b15610140576040518060400160405280601b81526020017f506c6561736520456e74657220612056616c6964204e756d626572000000000081525090506101d5565b8160015403610186576040518060400160405280600681526020017f2d2d204f5554000000000000000000000000000000000000000000000000000081525090506101d5565b60015460005461019691906103e4565b6000819055506040518060400160405280601081526020017f72616e646f6e756d6265722052554e530000000000000000000000000000000081525090505b919050565b60008142336002546040516020016101f4939291906104d5565b6040516020818303038152906040528051906020012060001c6102179190610541565b9050919050565b6060600080819055506040518060400160405280600a81526020017f47616d6520524553455400000000000000000000000000000000000000000000815250905090565b60005481565b600080fd5b6000819050919050565b6102808161026d565b811461028b57600080fd5b50565b60008135905061029d81610277565b92915050565b6000602082840312156102b9576102b8610268565b5b60006102c78482850161028e565b91505092915050565b600081519050919050565b600082825260208201905092915050565b60005b8381101561030a5780820151818401526020810190506102ef565b83811115610319576000848401525b50505050565b6000601f19601f8301169050919050565b600061033b826102d0565b61034581856102db565b93506103558185602086016102ec565b61035e8161031f565b840191505092915050565b600060208201905081810360008301526103838184610330565b905092915050565b6103948161026d565b82525050565b60006020820190506103af600083018461038b565b92915050565b7f4e487b7100000000000000000000000000000000000000000000000000000000600052601160045260246000fd5b60006103ef8261026d565b91506103fa8361026d565b9250827fffffffffffffffffffffffffffffffffffffffffffffffffffffffffffffffff0382111561042f5761042e6103b5565b5b828201905092915050565b6000819050919050565b6104556104508261026d565b61043a565b82525050565b600073ffffffffffffffffffffffffffffffffffffffff82169050919050565b60006104868261045b565b9050919050565b60008160601b9050919050565b60006104a58261048d565b9050919050565b60006104b78261049a565b9050919050565b6104cf6104ca8261047b565b6104ac565b82525050565b60006104e18286610444565b6020820191506104f182856104be565b6014820191506105018284610444565b602082019150819050949350505050565b7f4e487b7100000000000000000000000000000000000000000000000000000000600052601260045260246000fd5b600061054c8261026d565b91506105578361026d565b92508261056757610566610512565b5b82820690509291505056fea2646970667358221220ab292a9148fb23048d2a11acea7738d7415136558df222989ce1127cc35fac3264736f6c634300080d0033",
					"opcodes": "PUSH1 0x80 PUSH1 0x40 MSTORE PUSH1 0x0 PUSH1 0x2 SSTORE CALLVALUE DUP1 ISZERO PUSH2 0x15 JUMPI PUSH1 0x0 DUP1 REVERT JUMPDEST POP PUSH1 0x0 DUP1 DUP2 SWAP1 SSTORE POP PUSH2 0x5A8 DUP1 PUSH2 0x2C PUSH1 0x0 CODECOPY PUSH1 0x0 RETURN INVALID PUSH1 0x80 PUSH1 0x40 MSTORE CALLVALUE DUP1 ISZERO PUSH2 0x10 JUMPI PUSH1 0x0 DUP1 REVERT JUMPDEST POP PUSH1 0x4 CALLDATASIZE LT PUSH2 0x4C JUMPI PUSH1 0x0 CALLDATALOAD PUSH1 0xE0 SHR DUP1 PUSH4 0xE7CCAF0 EQ PUSH2 0x51 JUMPI DUP1 PUSH4 0x805553E8 EQ PUSH2 0x81 JUMPI DUP1 PUSH4 0xD826F88F EQ PUSH2 0xB1 JUMPI DUP1 PUSH4 0xEFEDC669 EQ PUSH2 0xCF JUMPI JUMPDEST PUSH1 0x0 DUP1 REVERT JUMPDEST PUSH2 0x6B PUSH1 0x4 DUP1 CALLDATASIZE SUB DUP2 ADD SWAP1 PUSH2 0x66 SWAP2 SWAP1 PUSH2 0x2A3 JUMP JUMPDEST PUSH2 0xED JUMP JUMPDEST PUSH1 0x40 MLOAD PUSH2 0x78 SWAP2 SWAP1 PUSH2 0x369 JUMP JUMPDEST PUSH1 0x40 MLOAD DUP1 SWAP2 SUB SWAP1 RETURN JUMPDEST PUSH2 0x9B PUSH1 0x4 DUP1 CALLDATASIZE SUB DUP2 ADD SWAP1 PUSH2 0x96 SWAP2 SWAP1 PUSH2 0x2A3 JUMP JUMPDEST PUSH2 0x1DA JUMP JUMPDEST PUSH1 0x40 MLOAD PUSH2 0xA8 SWAP2 SWAP1 PUSH2 0x39A JUMP JUMPDEST PUSH1 0x40 MLOAD DUP1 SWAP2 SUB SWAP1 RETURN JUMPDEST PUSH2 0xB9 PUSH2 0x21E JUMP JUMPDEST PUSH1 0x40 MLOAD PUSH2 0xC6 SWAP2 SWAP1 PUSH2 0x369 JUMP JUMPDEST PUSH1 0x40 MLOAD DUP1 SWAP2 SUB SWAP1 RETURN JUMPDEST PUSH2 0xD7 PUSH2 0x262 JUMP JUMPDEST PUSH1 0x40 MLOAD PUSH2 0xE4 SWAP2 SWAP1 PUSH2 0x39A JUMP JUMPDEST PUSH1 0x40 MLOAD DUP1 SWAP2 SUB SWAP1 RETURN JUMPDEST PUSH1 0x60 PUSH1 0x1 DUP3 LT DUP1 PUSH2 0xFE JUMPI POP PUSH1 0x6 DUP3 GT JUMPDEST ISZERO PUSH2 0x140 JUMPI PUSH1 0x40 MLOAD DUP1 PUSH1 0x40 ADD PUSH1 0x40 MSTORE DUP1 PUSH1 0x1B DUP2 MSTORE PUSH1 0x20 ADD PUSH32 0x506C6561736520456E74657220612056616C6964204E756D6265720000000000 DUP2 MSTORE POP SWAP1 POP PUSH2 0x1D5 JUMP JUMPDEST DUP2 PUSH1 0x1 SLOAD SUB PUSH2 0x186 JUMPI PUSH1 0x40 MLOAD DUP1 PUSH1 0x40 ADD PUSH1 0x40 MSTORE DUP1 PUSH1 0x6 DUP2 MSTORE PUSH1 0x20 ADD PUSH32 0x2D2D204F55540000000000000000000000000000000000000000000000000000 DUP2 MSTORE POP SWAP1 POP PUSH2 0x1D5 JUMP JUMPDEST PUSH1 0x1 SLOAD PUSH1 0x0 SLOAD PUSH2 0x196 SWAP2 SWAP1 PUSH2 0x3E4 JUMP JUMPDEST PUSH1 0x0 DUP2 SWAP1 SSTORE POP PUSH1 0x40 MLOAD DUP1 PUSH1 0x40 ADD PUSH1 0x40 MSTORE DUP1 PUSH1 0x10 DUP2 MSTORE PUSH1 0x20 ADD PUSH32 0x72616E646F6E756D6265722052554E5300000000000000000000000000000000 DUP2 MSTORE POP SWAP1 POP JUMPDEST SWAP2 SWAP1 POP JUMP JUMPDEST PUSH1 0x0 DUP2 TIMESTAMP CALLER PUSH1 0x2 SLOAD PUSH1 0x40 MLOAD PUSH1 0x20 ADD PUSH2 0x1F4 SWAP4 SWAP3 SWAP2 SWAP1 PUSH2 0x4D5 JUMP JUMPDEST PUSH1 0x40 MLOAD PUSH1 0x20 DUP2 DUP4 SUB SUB DUP2 MSTORE SWAP1 PUSH1 0x40 MSTORE DUP1 MLOAD SWAP1 PUSH1 0x20 ADD KECCAK256 PUSH1 0x0 SHR PUSH2 0x217 SWAP2 SWAP1 PUSH2 0x541 JUMP JUMPDEST SWAP1 POP SWAP2 SWAP1 POP JUMP JUMPDEST PUSH1 0x60 PUSH1 0x0 DUP1 DUP2 SWAP1 SSTORE POP PUSH1 0x40 MLOAD DUP1 PUSH1 0x40 ADD PUSH1 0x40 MSTORE DUP1 PUSH1 0xA DUP2 MSTORE PUSH1 0x20 ADD PUSH32 0x47616D6520524553455400000000000000000000000000000000000000000000 DUP2 MSTORE POP SWAP1 POP SWAP1 JUMP JUMPDEST PUSH1 0x0 SLOAD DUP2 JUMP JUMPDEST PUSH1 0x0 DUP1 REVERT JUMPDEST PUSH1 0x0 DUP2 SWAP1 POP SWAP2 SWAP1 POP JUMP JUMPDEST PUSH2 0x280 DUP2 PUSH2 0x26D JUMP JUMPDEST DUP2 EQ PUSH2 0x28B JUMPI PUSH1 0x0 DUP1 REVERT JUMPDEST POP JUMP JUMPDEST PUSH1 0x0 DUP2 CALLDATALOAD SWAP1 POP PUSH2 0x29D DUP2 PUSH2 0x277 JUMP JUMPDEST SWAP3 SWAP2 POP POP JUMP JUMPDEST PUSH1 0x0 PUSH1 0x20 DUP3 DUP5 SUB SLT ISZERO PUSH2 0x2B9 JUMPI PUSH2 0x2B8 PUSH2 0x268 JUMP JUMPDEST JUMPDEST PUSH1 0x0 PUSH2 0x2C7 DUP5 DUP3 DUP6 ADD PUSH2 0x28E JUMP JUMPDEST SWAP2 POP POP SWAP3 SWAP2 POP POP JUMP JUMPDEST PUSH1 0x0 DUP2 MLOAD SWAP1 POP SWAP2 SWAP1 POP JUMP JUMPDEST PUSH1 0x0 DUP3 DUP3 MSTORE PUSH1 0x20 DUP3 ADD SWAP1 POP SWAP3 SWAP2 POP POP JUMP JUMPDEST PUSH1 0x0 JUMPDEST DUP4 DUP2 LT ISZERO PUSH2 0x30A JUMPI DUP1 DUP3 ADD MLOAD DUP2 DUP5 ADD MSTORE PUSH1 0x20 DUP2 ADD SWAP1 POP PUSH2 0x2EF JUMP JUMPDEST DUP4 DUP2 GT ISZERO PUSH2 0x319 JUMPI PUSH1 0x0 DUP5 DUP5 ADD MSTORE JUMPDEST POP POP POP POP JUMP JUMPDEST PUSH1 0x0 PUSH1 0x1F NOT PUSH1 0x1F DUP4 ADD AND SWAP1 POP SWAP2 SWAP1 POP JUMP JUMPDEST PUSH1 0x0 PUSH2 0x33B DUP3 PUSH2 0x2D0 JUMP JUMPDEST PUSH2 0x345 DUP2 DUP6 PUSH2 0x2DB JUMP JUMPDEST SWAP4 POP PUSH2 0x355 DUP2 DUP6 PUSH1 0x20 DUP7 ADD PUSH2 0x2EC JUMP JUMPDEST PUSH2 0x35E DUP2 PUSH2 0x31F JUMP JUMPDEST DUP5 ADD SWAP2 POP POP SWAP3 SWAP2 POP POP JUMP JUMPDEST PUSH1 0x0 PUSH1 0x20 DUP3 ADD SWAP1 POP DUP2 DUP2 SUB PUSH1 0x0 DUP4 ADD MSTORE PUSH2 0x383 DUP2 DUP5 PUSH2 0x330 JUMP JUMPDEST SWAP1 POP SWAP3 SWAP2 POP POP JUMP JUMPDEST PUSH2 0x394 DUP2 PUSH2 0x26D JUMP JUMPDEST DUP3 MSTORE POP POP JUMP JUMPDEST PUSH1 0x0 PUSH1 0x20 DUP3 ADD SWAP1 POP PUSH2 0x3AF PUSH1 0x0 DUP4 ADD DUP5 PUSH2 0x38B JUMP JUMPDEST SWAP3 SWAP2 POP POP JUMP JUMPDEST PUSH32 0x4E487B7100000000000000000000000000000000000000000000000000000000 PUSH1 0x0 MSTORE PUSH1 0x11 PUSH1 0x4 MSTORE PUSH1 0x24 PUSH1 0x0 REVERT JUMPDEST PUSH1 0x0 PUSH2 0x3EF DUP3 PUSH2 0x26D JUMP JUMPDEST SWAP2 POP PUSH2 0x3FA DUP4 PUSH2 0x26D JUMP JUMPDEST SWAP3 POP DUP3 PUSH32 0xFFFFFFFFFFFFFFFFFFFFFFFFFFFFFFFFFFFFFFFFFFFFFFFFFFFFFFFFFFFFFFFF SUB DUP3 GT ISZERO PUSH2 0x42F JUMPI PUSH2 0x42E PUSH2 0x3B5 JUMP JUMPDEST JUMPDEST DUP3 DUP3 ADD SWAP1 POP SWAP3 SWAP2 POP POP JUMP JUMPDEST PUSH1 0x0 DUP2 SWAP1 POP SWAP2 SWAP1 POP JUMP JUMPDEST PUSH2 0x455 PUSH2 0x450 DUP3 PUSH2 0x26D JUMP JUMPDEST PUSH2 0x43A JUMP JUMPDEST DUP3 MSTORE POP POP JUMP JUMPDEST PUSH1 0x0 PUSH20 0xFFFFFFFFFFFFFFFFFFFFFFFFFFFFFFFFFFFFFFFF DUP3 AND SWAP1 POP SWAP2 SWAP1 POP JUMP JUMPDEST PUSH1 0x0 PUSH2 0x486 DUP3 PUSH2 0x45B JUMP JUMPDEST SWAP1 POP SWAP2 SWAP1 POP JUMP JUMPDEST PUSH1 0x0 DUP2 PUSH1 0x60 SHL SWAP1 POP SWAP2 SWAP1 POP JUMP JUMPDEST PUSH1 0x0 PUSH2 0x4A5 DUP3 PUSH2 0x48D JUMP JUMPDEST SWAP1 POP SWAP2 SWAP1 POP JUMP JUMPDEST PUSH1 0x0 PUSH2 0x4B7 DUP3 PUSH2 0x49A JUMP JUMPDEST SWAP1 POP SWAP2 SWAP1 POP JUMP JUMPDEST PUSH2 0x4CF PUSH2 0x4CA DUP3 PUSH2 0x47B JUMP JUMPDEST PUSH2 0x4AC JUMP JUMPDEST DUP3 MSTORE POP POP JUMP JUMPDEST PUSH1 0x0 PUSH2 0x4E1 DUP3 DUP7 PUSH2 0x444 JUMP JUMPDEST PUSH1 0x20 DUP3 ADD SWAP2 POP PUSH2 0x4F1 DUP3 DUP6 PUSH2 0x4BE JUMP JUMPDEST PUSH1 0x14 DUP3 ADD SWAP2 POP PUSH2 0x501 DUP3 DUP5 PUSH2 0x444 JUMP JUMPDEST PUSH1 0x20 DUP3 ADD SWAP2 POP DUP2 SWAP1 POP SWAP5 SWAP4 POP POP POP POP JUMP JUMPDEST PUSH32 0x4E487B7100000000000000000000000000000000000000000000000000000000 PUSH1 0x0 MSTORE PUSH1 0x12 PUSH1 0x4 MSTORE PUSH1 0x24 PUSH1 0x0 REVERT JUMPDEST PUSH1 0x0 PUSH2 0x54C DUP3 PUSH2 0x26D JUMP JUMPDEST SWAP2 POP PUSH2 0x557 DUP4 PUSH2 0x26D JUMP JUMPDEST SWAP3 POP DUP3 PUSH2 0x567 JUMPI PUSH2 0x566 PUSH2 0x512 JUMP JUMPDEST JUMPDEST DUP3 DUP3 MOD SWAP1 POP SWAP3 SWAP2 POP POP JUMP INVALID LOG2 PUSH5 0x6970667358 0x22 SLT KECCAK256 0xAB 0x29 0x2A SWAP2 BASEFEE 0xFB 0x23 DIV DUP14 0x2A GT 0xAC 0xEA PUSH24 0x38D7415136558DF222989CE1127CC35FAC3264736F6C6343 STOP ADDMOD 0xD STOP CALLER "
				},
				"gasEstimates": {
					"creation": {
						"codeDepositCost": "289600",
						"executionCost": "10351",
						"totalCost": "299951"
					},
					"external": {
						"randMod(uint256)": "infinite",
						"reset()": "infinite",
						"score()": "2473",
						"takeinput(uint256)": "infinite"
					}
				},
				"methodIdentifiers": {
					"randMod(uint256)": "805553e8",
					"reset()": "d826f88f",
					"score()": "efedc669",
					"takeinput(uint256)": "0e7ccaf0"
				}
			},
			"storageLayout": {
				"storage": [
					{
						"astId": 3,
						"contract": "contracts/4_OddEve.sol:oddEve",
						"label": "score",
						"offset": 0,
						"slot": "0",
						"type": "t_uint256"
					},
					{
						"astId": 5,
						"contract": "contracts/4_OddEve.sol:oddEve",
						"label": "randomnumber",
						"offset": 0,
						"slot": "1",
						"type": "t_uint256"
					},
					{
						"astId": 64,
						"contract": "contracts/4_OddEve.sol:oddEve",
						"label": "randNonce",
						"offset": 0,
						"slot": "2",
						"type": "t_uint256"
					}
				],
				"types": {
					"t_uint256": {
						"encoding": "inplace",
						"label": "uint256",
						"numberOfBytes": "32"
					}
				}
			},
			"userdoc": {
				"kind": "user",
				"methods": {},
				"version": 1
			}
		}
	}
}