{
	"contracts/4_OddEve.sol": {
		"oddEve": {
			"abi": [
				{
					"inputs": [],
					"stateMutability": "nonpayable",
					"type": "constructor"
				},
				{
					"inputs": [],
					"name": "out",
					"outputs": [
						{
							"internalType": "bool",
							"name": "",
							"type": "bool"
						}
					],
					"stateMutability": "view",
					"type": "function"
				},
				{
					"inputs": [],
					"name": "reset",
					"outputs": [
						{
							"internalType": "string",
							"name": "",
							"type": "string"
						}
					],
					"stateMutability": "nonpayable",
					"type": "function"
				},
				{
					"inputs": [],
					"name": "score",
					"outputs": [
						{
							"internalType": "uint256",
							"name": "",
							"type": "uint256"
						}
					],
					"stateMutability": "view",
					"type": "function"
				},
				{
					"inputs": [
						{
							"internalType": "uint256",
							"name": "_inputnumber",
							"type": "uint256"
						}
					],
					"name": "takeinput",
					"outputs": [
						{
							"internalType": "string",
							"name": "stringg",
							"type": "string"
						}
					],
					"stateMutability": "nonpayable",
					"type": "function"
				}
			],
			"devdoc": {
				"kind": "dev",
				"methods": {},
				"version": 1
			},
			"evm": {
				"assembly": "    /* \"contracts/4_OddEve.sol\":148:1945  contract oddEve{... */\n  mstore(0x40, 0x80)\n    /* \"contracts/4_OddEve.sol\":244:338  constructor()... */\n  callvalue\n  dup1\n  iszero\n  tag_1\n  jumpi\n  0x00\n  dup1\n  revert\ntag_1:\n  pop\n    /* \"contracts/4_OddEve.sol\":282:283  0 */\n  0x00\n    /* \"contracts/4_OddEve.sol\":274:279  score */\n  dup1\n    /* \"contracts/4_OddEve.sol\":274:283  score = 0 */\n  dup2\n  swap1\n  sstore\n  pop\n    /* \"contracts/4_OddEve.sol\":298:303  false */\n  0x00\n    /* \"contracts/4_OddEve.sol\":294:297  out */\n  0x01\n  0x00\n    /* \"contracts/4_OddEve.sol\":294:303  out=false */\n  0x0100\n  exp\n  dup2\n  sload\n  dup2\n  0xff\n  mul\n  not\n  and\n  swap1\n  dup4\n  iszero\n  iszero\n  mul\n  or\n  swap1\n  sstore\n  pop\n    /* \"contracts/4_OddEve.sol\":329:330  1 */\n  0x01\n    /* \"contracts/4_OddEve.sol\":314:328  randomvariable */\n  0x02\n    /* \"contracts/4_OddEve.sol\":314:330  randomvariable=1 */\n  dup2\n  swap1\n  sstore\n  pop\n    /* \"contracts/4_OddEve.sol\":148:1945  contract oddEve{... */\n  dataSize(sub_0)\n  dup1\n  dataOffset(sub_0)\n  0x00\n  codecopy\n  0x00\n  return\nstop\n\nsub_0: assembly {\n        /* \"contracts/4_OddEve.sol\":148:1945  contract oddEve{... */\n      mstore(0x40, 0x80)\n      callvalue\n      dup1\n      iszero\n      tag_1\n      jumpi\n      0x00\n      dup1\n      revert\n    tag_1:\n      pop\n      jumpi(tag_2, lt(calldatasize, 0x04))\n      shr(0xe0, calldataload(0x00))\n      dup1\n      0x0e7ccaf0\n      eq\n      tag_3\n      jumpi\n      dup1\n      0xb2a1449b\n      eq\n      tag_4\n      jumpi\n      dup1\n      0xd826f88f\n      eq\n      tag_5\n      jumpi\n      dup1\n      0xefedc669\n      eq\n      tag_6\n      jumpi\n    tag_2:\n      0x00\n      dup1\n      revert\n        /* \"contracts/4_OddEve.sol\":350:1354  function takeinput(uint _inputnumber) public returns (string memory stringg){... */\n    tag_3:\n      tag_7\n      0x04\n      dup1\n      calldatasize\n      sub\n      dup2\n      add\n      swap1\n      tag_8\n      swap2\n      swap1\n      tag_9\n      jump\t// in\n    tag_8:\n      tag_10\n      jump\t// in\n    tag_7:\n      mload(0x40)\n      tag_11\n      swap2\n      swap1\n      tag_12\n      jump\t// in\n    tag_11:\n      mload(0x40)\n      dup1\n      swap2\n      sub\n      swap1\n      return\n        /* \"contracts/4_OddEve.sol\":194:209  bool public out */\n    tag_4:\n      tag_13\n      tag_14\n      jump\t// in\n    tag_13:\n      mload(0x40)\n      tag_15\n      swap2\n      swap1\n      tag_16\n      jump\t// in\n    tag_15:\n      mload(0x40)\n      dup1\n      swap2\n      sub\n      swap1\n      return\n        /* \"contracts/4_OddEve.sol\":1620:1768  function reset() public returns(string memory)... */\n    tag_5:\n      tag_17\n      tag_18\n      jump\t// in\n    tag_17:\n      mload(0x40)\n      tag_19\n      swap2\n      swap1\n      tag_12\n      jump\t// in\n    tag_19:\n      mload(0x40)\n      dup1\n      swap2\n      sub\n      swap1\n      return\n        /* \"contracts/4_OddEve.sol\":170:187  uint public score */\n    tag_6:\n      tag_20\n      tag_21\n      jump\t// in\n    tag_20:\n      mload(0x40)\n      tag_22\n      swap2\n      swap1\n      tag_23\n      jump\t// in\n    tag_22:\n      mload(0x40)\n      dup1\n      swap2\n      sub\n      swap1\n      return\n        /* \"contracts/4_OddEve.sol\":350:1354  function takeinput(uint _inputnumber) public returns (string memory stringg){... */\n    tag_10:\n        /* \"contracts/4_OddEve.sol\":404:425  string memory stringg */\n      0x60\n        /* \"contracts/4_OddEve.sol\":456:460  true */\n      0x01\n        /* \"contracts/4_OddEve.sol\":451:460  out==true */\n      iszero\n      iszero\n        /* \"contracts/4_OddEve.sol\":451:454  out */\n      0x01\n      0x00\n      swap1\n      sload\n      swap1\n      0x0100\n      exp\n      swap1\n      div\n      0xff\n      and\n        /* \"contracts/4_OddEve.sol\":451:460  out==true */\n      iszero\n      iszero\n      sub\n        /* \"contracts/4_OddEve.sol\":447:1347  if (out==true)... */\n      tag_25\n      jumpi\n        /* \"contracts/4_OddEve.sol\":486:508  return \"BatsmanIsOut.\" */\n      mload(0x40)\n      dup1\n      0x40\n      add\n      0x40\n      mstore\n      dup1\n      0x0d\n      dup2\n      mstore\n      0x20\n      add\n      0x426174736d616e49734f75742e00000000000000000000000000000000000000\n      dup2\n      mstore\n      pop\n      swap1\n      pop\n      jump(tag_24)\n        /* \"contracts/4_OddEve.sol\":447:1347  if (out==true)... */\n    tag_25:\n        /* \"contracts/4_OddEve.sol\":559:576  uint randomnumber */\n      0x00\n        /* \"contracts/4_OddEve.sol\":578:602  randdomnumbergenerator() */\n      tag_27\n        /* \"contracts/4_OddEve.sol\":578:600  randdomnumbergenerator */\n      tag_28\n        /* \"contracts/4_OddEve.sol\":578:602  randdomnumbergenerator() */\n      jump\t// in\n    tag_27:\n        /* \"contracts/4_OddEve.sol\":559:602  uint randomnumber =randdomnumbergenerator() */\n      swap1\n      pop\n        /* \"contracts/4_OddEve.sol\":634:635  1 */\n      0x01\n        /* \"contracts/4_OddEve.sol\":621:633  _inputnumber */\n      dup4\n        /* \"contracts/4_OddEve.sol\":621:635  _inputnumber<1 */\n      lt\n        /* \"contracts/4_OddEve.sol\":621:654  _inputnumber<1 || _inputnumber >6 */\n      dup1\n      tag_29\n      jumpi\n      pop\n        /* \"contracts/4_OddEve.sol\":653:654  6 */\n      0x06\n        /* \"contracts/4_OddEve.sol\":639:651  _inputnumber */\n      dup4\n        /* \"contracts/4_OddEve.sol\":639:654  _inputnumber >6 */\n      gt\n        /* \"contracts/4_OddEve.sol\":621:654  _inputnumber<1 || _inputnumber >6 */\n    tag_29:\n        /* \"contracts/4_OddEve.sol\":617:1336  if (_inputnumber<1 || _inputnumber >6){... */\n      iszero\n      tag_30\n      jumpi\n        /* \"contracts/4_OddEve.sol\":674:699  return \"EnterValidNumber\" */\n      mload(0x40)\n      dup1\n      0x40\n      add\n      0x40\n      mstore\n      dup1\n      0x10\n      dup2\n      mstore\n      0x20\n      add\n      0x456e74657256616c69644e756d62657200000000000000000000000000000000\n      dup2\n      mstore\n      pop\n      swap2\n      pop\n      pop\n      jump(tag_24)\n        /* \"contracts/4_OddEve.sol\":617:1336  if (_inputnumber<1 || _inputnumber >6){... */\n    tag_30:\n        /* \"contracts/4_OddEve.sol\":757:762  false */\n      0x00\n        /* \"contracts/4_OddEve.sol\":752:762  out==false */\n      iszero\n      iszero\n        /* \"contracts/4_OddEve.sol\":752:755  out */\n      0x01\n      0x00\n      swap1\n      sload\n      swap1\n      0x0100\n      exp\n      swap1\n      div\n      0xff\n      and\n        /* \"contracts/4_OddEve.sol\":752:762  out==false */\n      iszero\n      iszero\n      sub\n        /* \"contracts/4_OddEve.sol\":748:1336  if (out==false)... */\n      tag_32\n      jumpi\n        /* \"contracts/4_OddEve.sol\":814:815  0 */\n      0x00\n        /* \"contracts/4_OddEve.sol\":800:812  randomnumber */\n      dup2\n        /* \"contracts/4_OddEve.sol\":800:815  randomnumber==0 */\n      sub\n        /* \"contracts/4_OddEve.sol\":796:852  if (randomnumber==0)... */\n      tag_33\n      jumpi\n        /* \"contracts/4_OddEve.sol\":851:852  6 */\n      0x06\n        /* \"contracts/4_OddEve.sol\":838:852  randomnumber=6 */\n      swap1\n      pop\n        /* \"contracts/4_OddEve.sol\":796:852  if (randomnumber==0)... */\n    tag_33:\n        /* \"contracts/4_OddEve.sol\":891:903  _inputnumber */\n      dup3\n        /* \"contracts/4_OddEve.sol\":877:889  randomnumber */\n      dup2\n        /* \"contracts/4_OddEve.sol\":877:903  randomnumber==_inputnumber */\n      sub\n        /* \"contracts/4_OddEve.sol\":873:1321  if (randomnumber==_inputnumber)... */\n      tag_34\n      jumpi\n        /* \"contracts/4_OddEve.sol\":955:978  Strings.toString(score) */\n      tag_35\n        /* \"contracts/4_OddEve.sol\":972:977  score */\n      sload(0x00)\n        /* \"contracts/4_OddEve.sol\":955:971  Strings.toString */\n      tag_36\n        /* \"contracts/4_OddEve.sol\":955:978  Strings.toString(score) */\n      jump\t// in\n    tag_35:\n        /* \"contracts/4_OddEve.sol\":945:978  stringg = Strings.toString(score) */\n      swap2\n      pop\n        /* \"contracts/4_OddEve.sol\":1005:1009  true */\n      0x01\n        /* \"contracts/4_OddEve.sol\":1001:1004  out */\n      dup1\n      0x00\n        /* \"contracts/4_OddEve.sol\":1001:1009  out=true */\n      0x0100\n      exp\n      dup2\n      sload\n      dup2\n      0xff\n      mul\n      not\n      and\n      swap1\n      dup4\n      iszero\n      iszero\n      mul\n      or\n      swap1\n      sstore\n      pop\n        /* \"contracts/4_OddEve.sol\":1032:1046  return stringg */\n      pop\n      jump(tag_24)\n        /* \"contracts/4_OddEve.sol\":873:1321  if (randomnumber==_inputnumber)... */\n    tag_34:\n        /* \"contracts/4_OddEve.sol\":1166:1178  randomnumber */\n      dup1\n        /* \"contracts/4_OddEve.sol\":1158:1163  score */\n      sload(0x00)\n        /* \"contracts/4_OddEve.sol\":1158:1178  score + randomnumber */\n      tag_38\n      swap2\n      swap1\n      tag_39\n      jump\t// in\n    tag_38:\n        /* \"contracts/4_OddEve.sol\":1150:1155  score */\n      0x00\n        /* \"contracts/4_OddEve.sol\":1150:1178  score = score + randomnumber */\n      dup2\n      swap1\n      sstore\n      pop\n        /* \"contracts/4_OddEve.sol\":1211:1234  Strings.toString(score) */\n      tag_40\n        /* \"contracts/4_OddEve.sol\":1228:1233  score */\n      sload(0x00)\n        /* \"contracts/4_OddEve.sol\":1211:1227  Strings.toString */\n      tag_36\n        /* \"contracts/4_OddEve.sol\":1211:1234  Strings.toString(score) */\n      jump\t// in\n    tag_40:\n        /* \"contracts/4_OddEve.sol\":1201:1234  stringg = Strings.toString(score) */\n      swap2\n      pop\n        /* \"contracts/4_OddEve.sol\":1257:1282  return \"randonumber RUNS\" */\n      mload(0x40)\n      dup1\n      0x40\n      add\n      0x40\n      mstore\n      dup1\n      0x10\n      dup2\n      mstore\n      0x20\n      add\n      0x72616e646f6e756d6265722052554e5300000000000000000000000000000000\n      dup2\n      mstore\n      pop\n      swap2\n      pop\n      pop\n      jump(tag_24)\n        /* \"contracts/4_OddEve.sol\":748:1336  if (out==false)... */\n    tag_32:\n        /* \"contracts/4_OddEve.sol\":544:1347  {... */\n      pop\n        /* \"contracts/4_OddEve.sol\":350:1354  function takeinput(uint _inputnumber) public returns (string memory stringg){... */\n    tag_24:\n      swap2\n      swap1\n      pop\n      jump\t// out\n        /* \"contracts/4_OddEve.sol\":194:209  bool public out */\n    tag_14:\n      0x01\n      0x00\n      swap1\n      sload\n      swap1\n      0x0100\n      exp\n      swap1\n      div\n      0xff\n      and\n      dup2\n      jump\t// out\n        /* \"contracts/4_OddEve.sol\":1620:1768  function reset() public returns(string memory)... */\n    tag_18:\n        /* \"contracts/4_OddEve.sol\":1652:1665  string memory */\n      0x60\n        /* \"contracts/4_OddEve.sol\":1691:1692  0 */\n      0x00\n        /* \"contracts/4_OddEve.sol\":1683:1688  score */\n      dup1\n        /* \"contracts/4_OddEve.sol\":1683:1692  score = 0 */\n      dup2\n      swap1\n      sstore\n      pop\n        /* \"contracts/4_OddEve.sol\":1707:1712  false */\n      0x00\n        /* \"contracts/4_OddEve.sol\":1703:1706  out */\n      0x01\n      0x00\n        /* \"contracts/4_OddEve.sol\":1703:1712  out=false */\n      0x0100\n      exp\n      dup2\n      sload\n      dup2\n      0xff\n      mul\n      not\n      and\n      swap1\n      dup4\n      iszero\n      iszero\n      mul\n      or\n      swap1\n      sstore\n      pop\n        /* \"contracts/4_OddEve.sol\":1733:1760  return \"RESET Successfully\" */\n      mload(0x40)\n      dup1\n      0x40\n      add\n      0x40\n      mstore\n      dup1\n      0x12\n      dup2\n      mstore\n      0x20\n      add\n      0x5245534554205375636365737366756c6c790000000000000000000000000000\n      dup2\n      mstore\n      pop\n      swap1\n      pop\n        /* \"contracts/4_OddEve.sol\":1620:1768  function reset() public returns(string memory)... */\n      swap1\n      jump\t// out\n        /* \"contracts/4_OddEve.sol\":170:187  uint public score */\n    tag_21:\n      sload(0x00)\n      dup2\n      jump\t// out\n        /* \"contracts/4_OddEve.sol\":1362:1612  function randdomnumbergenerator() private returns(uint)... */\n    tag_28:\n        /* \"contracts/4_OddEve.sol\":1412:1416  uint */\n      0x00\n        /* \"contracts/4_OddEve.sol\":1481:1495  randomvariable */\n      0x02\n      0x00\n        /* \"contracts/4_OddEve.sol\":1481:1497  randomvariable++ */\n      dup2\n      sload\n      dup1\n      swap3\n      swap2\n      swap1\n      0x01\n      add\n      swap2\n      swap1\n      pop\n      sstore\n      pop\n        /* \"contracts/4_OddEve.sol\":1603:1604  6 */\n      0x06\n        /* \"contracts/4_OddEve.sol\":1559:1574  block.timestamp */\n      timestamp\n        /* \"contracts/4_OddEve.sol\":1576:1581  score */\n      sload(0x00)\n        /* \"contracts/4_OddEve.sol\":1583:1597  randomvariable */\n      sload(0x02)\n        /* \"contracts/4_OddEve.sol\":1542:1598  abi.encodePacked(block.timestamp, score, randomvariable) */\n      add(0x20, mload(0x40))\n      tag_43\n      swap4\n      swap3\n      swap2\n      swap1\n      tag_44\n      jump\t// in\n    tag_43:\n      mload(0x40)\n      0x20\n      dup2\n      dup4\n      sub\n      sub\n      dup2\n      mstore\n      swap1\n      0x40\n      mstore\n        /* \"contracts/4_OddEve.sol\":1532:1599  keccak256(abi.encodePacked(block.timestamp, score, randomvariable)) */\n      dup1\n      mload\n      swap1\n      0x20\n      add\n      keccak256\n        /* \"contracts/4_OddEve.sol\":1527:1600  uint(keccak256(abi.encodePacked(block.timestamp, score, randomvariable))) */\n      0x00\n      shr\n        /* \"contracts/4_OddEve.sol\":1527:1604  uint(keccak256(abi.encodePacked(block.timestamp, score, randomvariable))) % 6 */\n      tag_45\n      swap2\n      swap1\n      tag_46\n      jump\t// in\n    tag_45:\n        /* \"contracts/4_OddEve.sol\":1520:1604  return uint(keccak256(abi.encodePacked(block.timestamp, score, randomvariable))) % 6 */\n      swap1\n      pop\n        /* \"contracts/4_OddEve.sol\":1362:1612  function randdomnumbergenerator() private returns(uint)... */\n      swap1\n      jump\t// out\n        /* \"@openzeppelin/contracts/utils/Strings.sol\":392:1095  function toString(uint256 value) internal pure returns (string memory) {... */\n    tag_36:\n        /* \"@openzeppelin/contracts/utils/Strings.sol\":448:461  string memory */\n      0x60\n        /* \"@openzeppelin/contracts/utils/Strings.sol\":674:675  0 */\n      0x00\n        /* \"@openzeppelin/contracts/utils/Strings.sol\":665:670  value */\n      dup3\n        /* \"@openzeppelin/contracts/utils/Strings.sol\":665:675  value == 0 */\n      sub\n        /* \"@openzeppelin/contracts/utils/Strings.sol\":661:712  if (value == 0) {... */\n      tag_48\n      jumpi\n        /* \"@openzeppelin/contracts/utils/Strings.sol\":691:701  return \"0\" */\n      mload(0x40)\n      dup1\n      0x40\n      add\n      0x40\n      mstore\n      dup1\n      0x01\n      dup2\n      mstore\n      0x20\n      add\n      0x3000000000000000000000000000000000000000000000000000000000000000\n      dup2\n      mstore\n      pop\n      swap1\n      pop\n      jump(tag_47)\n        /* \"@openzeppelin/contracts/utils/Strings.sol\":661:712  if (value == 0) {... */\n    tag_48:\n        /* \"@openzeppelin/contracts/utils/Strings.sol\":721:733  uint256 temp */\n      0x00\n        /* \"@openzeppelin/contracts/utils/Strings.sol\":736:741  value */\n      dup3\n        /* \"@openzeppelin/contracts/utils/Strings.sol\":721:741  uint256 temp = value */\n      swap1\n      pop\n        /* \"@openzeppelin/contracts/utils/Strings.sol\":751:765  uint256 digits */\n      0x00\n        /* \"@openzeppelin/contracts/utils/Strings.sol\":775:850  while (temp != 0) {... */\n    tag_49:\n        /* \"@openzeppelin/contracts/utils/Strings.sol\":790:791  0 */\n      0x00\n        /* \"@openzeppelin/contracts/utils/Strings.sol\":782:786  temp */\n      dup3\n        /* \"@openzeppelin/contracts/utils/Strings.sol\":782:791  temp != 0 */\n      eq\n        /* \"@openzeppelin/contracts/utils/Strings.sol\":775:850  while (temp != 0) {... */\n      tag_50\n      jumpi\n        /* \"@openzeppelin/contracts/utils/Strings.sol\":807:815  digits++ */\n      dup1\n      dup1\n      tag_51\n      swap1\n      tag_52\n      jump\t// in\n    tag_51:\n      swap2\n      pop\n      pop\n        /* \"@openzeppelin/contracts/utils/Strings.sol\":837:839  10 */\n      0x0a\n        /* \"@openzeppelin/contracts/utils/Strings.sol\":829:839  temp /= 10 */\n      dup3\n      tag_53\n      swap2\n      swap1\n      tag_54\n      jump\t// in\n    tag_53:\n      swap2\n      pop\n        /* \"@openzeppelin/contracts/utils/Strings.sol\":775:850  while (temp != 0) {... */\n      jump(tag_49)\n    tag_50:\n        /* \"@openzeppelin/contracts/utils/Strings.sol\":859:878  bytes memory buffer */\n      0x00\n        /* \"@openzeppelin/contracts/utils/Strings.sol\":891:897  digits */\n      dup2\n        /* \"@openzeppelin/contracts/utils/Strings.sol\":881:898  new bytes(digits) */\n      0xffffffffffffffff\n      dup2\n      gt\n      iszero\n      tag_55\n      jumpi\n      tag_56\n      tag_57\n      jump\t// in\n    tag_56:\n    tag_55:\n      mload(0x40)\n      swap1\n      dup1\n      dup3\n      mstore\n      dup1\n      0x1f\n      add\n      not(0x1f)\n      and\n      0x20\n      add\n      dup3\n      add\n      0x40\n      mstore\n      dup1\n      iszero\n      tag_58\n      jumpi\n      dup2\n      0x20\n      add\n      0x01\n      dup3\n      mul\n      dup1\n      calldatasize\n      dup4\n      calldatacopy\n      dup1\n      dup3\n      add\n      swap2\n      pop\n      pop\n      swap1\n      pop\n    tag_58:\n      pop\n        /* \"@openzeppelin/contracts/utils/Strings.sol\":859:898  bytes memory buffer = new bytes(digits) */\n      swap1\n      pop\n        /* \"@openzeppelin/contracts/utils/Strings.sol\":908:1058  while (value != 0) {... */\n    tag_59:\n        /* \"@openzeppelin/contracts/utils/Strings.sol\":924:925  0 */\n      0x00\n        /* \"@openzeppelin/contracts/utils/Strings.sol\":915:920  value */\n      dup6\n        /* \"@openzeppelin/contracts/utils/Strings.sol\":915:925  value != 0 */\n      eq\n        /* \"@openzeppelin/contracts/utils/Strings.sol\":908:1058  while (value != 0) {... */\n      tag_60\n      jumpi\n        /* \"@openzeppelin/contracts/utils/Strings.sol\":951:952  1 */\n      0x01\n        /* \"@openzeppelin/contracts/utils/Strings.sol\":941:952  digits -= 1 */\n      dup3\n      tag_61\n      swap2\n      swap1\n      tag_62\n      jump\t// in\n    tag_61:\n      swap2\n      pop\n        /* \"@openzeppelin/contracts/utils/Strings.sol\":1017:1019  10 */\n      0x0a\n        /* \"@openzeppelin/contracts/utils/Strings.sol\":1009:1014  value */\n      dup6\n        /* \"@openzeppelin/contracts/utils/Strings.sol\":1009:1019  value % 10 */\n      tag_63\n      swap2\n      swap1\n      tag_46\n      jump\t// in\n    tag_63:\n        /* \"@openzeppelin/contracts/utils/Strings.sol\":996:998  48 */\n      0x30\n        /* \"@openzeppelin/contracts/utils/Strings.sol\":996:1020  48 + uint256(value % 10) */\n      tag_64\n      swap2\n      swap1\n      tag_39\n      jump\t// in\n    tag_64:\n        /* \"@openzeppelin/contracts/utils/Strings.sol\":983:1022  bytes1(uint8(48 + uint256(value % 10))) */\n      0xf8\n      shl\n        /* \"@openzeppelin/contracts/utils/Strings.sol\":966:972  buffer */\n      dup2\n        /* \"@openzeppelin/contracts/utils/Strings.sol\":973:979  digits */\n      dup4\n        /* \"@openzeppelin/contracts/utils/Strings.sol\":966:980  buffer[digits] */\n      dup2\n      mload\n      dup2\n      lt\n      tag_65\n      jumpi\n      tag_66\n      tag_67\n      jump\t// in\n    tag_66:\n    tag_65:\n      0x20\n      add\n      add\n        /* \"@openzeppelin/contracts/utils/Strings.sol\":966:1022  buffer[digits] = bytes1(uint8(48 + uint256(value % 10))) */\n      swap1\n      not(0xffffffffffffffffffffffffffffffffffffffffffffffffffffffffffffff)\n      and\n      swap1\n      dup2\n      0x00\n      byte\n      swap1\n      mstore8\n      pop\n        /* \"@openzeppelin/contracts/utils/Strings.sol\":1045:1047  10 */\n      0x0a\n        /* \"@openzeppelin/contracts/utils/Strings.sol\":1036:1047  value /= 10 */\n      dup6\n      tag_68\n      swap2\n      swap1\n      tag_54\n      jump\t// in\n    tag_68:\n      swap5\n      pop\n        /* \"@openzeppelin/contracts/utils/Strings.sol\":908:1058  while (value != 0) {... */\n      jump(tag_59)\n    tag_60:\n        /* \"@openzeppelin/contracts/utils/Strings.sol\":1081:1087  buffer */\n      dup1\n        /* \"@openzeppelin/contracts/utils/Strings.sol\":1067:1088  return string(buffer) */\n      swap4\n      pop\n      pop\n      pop\n      pop\n        /* \"@openzeppelin/contracts/utils/Strings.sol\":392:1095  function toString(uint256 value) internal pure returns (string memory) {... */\n    tag_47:\n      swap2\n      swap1\n      pop\n      jump\t// out\n        /* \"#utility.yul\":88:205   */\n    tag_70:\n        /* \"#utility.yul\":197:198   */\n      0x00\n        /* \"#utility.yul\":194:195   */\n      dup1\n        /* \"#utility.yul\":187:199   */\n      revert\n        /* \"#utility.yul\":334:411   */\n    tag_72:\n        /* \"#utility.yul\":371:378   */\n      0x00\n        /* \"#utility.yul\":400:405   */\n      dup2\n        /* \"#utility.yul\":389:405   */\n      swap1\n      pop\n        /* \"#utility.yul\":334:411   */\n      swap2\n      swap1\n      pop\n      jump\t// out\n        /* \"#utility.yul\":417:539   */\n    tag_73:\n        /* \"#utility.yul\":490:514   */\n      tag_93\n        /* \"#utility.yul\":508:513   */\n      dup2\n        /* \"#utility.yul\":490:514   */\n      tag_72\n      jump\t// in\n    tag_93:\n        /* \"#utility.yul\":483:488   */\n      dup2\n        /* \"#utility.yul\":480:515   */\n      eq\n        /* \"#utility.yul\":470:533   */\n      tag_94\n      jumpi\n        /* \"#utility.yul\":529:530   */\n      0x00\n        /* \"#utility.yul\":526:527   */\n      dup1\n        /* \"#utility.yul\":519:531   */\n      revert\n        /* \"#utility.yul\":470:533   */\n    tag_94:\n        /* \"#utility.yul\":417:539   */\n      pop\n      jump\t// out\n        /* \"#utility.yul\":545:684   */\n    tag_74:\n        /* \"#utility.yul\":591:596   */\n      0x00\n        /* \"#utility.yul\":629:635   */\n      dup2\n        /* \"#utility.yul\":616:636   */\n      calldataload\n        /* \"#utility.yul\":607:636   */\n      swap1\n      pop\n        /* \"#utility.yul\":645:678   */\n      tag_96\n        /* \"#utility.yul\":672:677   */\n      dup2\n        /* \"#utility.yul\":645:678   */\n      tag_73\n      jump\t// in\n    tag_96:\n        /* \"#utility.yul\":545:684   */\n      swap3\n      swap2\n      pop\n      pop\n      jump\t// out\n        /* \"#utility.yul\":690:1019   */\n    tag_9:\n        /* \"#utility.yul\":749:755   */\n      0x00\n        /* \"#utility.yul\":798:800   */\n      0x20\n        /* \"#utility.yul\":786:795   */\n      dup3\n        /* \"#utility.yul\":777:784   */\n      dup5\n        /* \"#utility.yul\":773:796   */\n      sub\n        /* \"#utility.yul\":769:801   */\n      slt\n        /* \"#utility.yul\":766:885   */\n      iszero\n      tag_98\n      jumpi\n        /* \"#utility.yul\":804:883   */\n      tag_99\n      tag_70\n      jump\t// in\n    tag_99:\n        /* \"#utility.yul\":766:885   */\n    tag_98:\n        /* \"#utility.yul\":924:925   */\n      0x00\n        /* \"#utility.yul\":949:1002   */\n      tag_100\n        /* \"#utility.yul\":994:1001   */\n      dup5\n        /* \"#utility.yul\":985:991   */\n      dup3\n        /* \"#utility.yul\":974:983   */\n      dup6\n        /* \"#utility.yul\":970:992   */\n      add\n        /* \"#utility.yul\":949:1002   */\n      tag_74\n      jump\t// in\n    tag_100:\n        /* \"#utility.yul\":939:1002   */\n      swap2\n      pop\n        /* \"#utility.yul\":895:1012   */\n      pop\n        /* \"#utility.yul\":690:1019   */\n      swap3\n      swap2\n      pop\n      pop\n      jump\t// out\n        /* \"#utility.yul\":1025:1124   */\n    tag_75:\n        /* \"#utility.yul\":1077:1083   */\n      0x00\n        /* \"#utility.yul\":1111:1116   */\n      dup2\n        /* \"#utility.yul\":1105:1117   */\n      mload\n        /* \"#utility.yul\":1095:1117   */\n      swap1\n      pop\n        /* \"#utility.yul\":1025:1124   */\n      swap2\n      swap1\n      pop\n      jump\t// out\n        /* \"#utility.yul\":1130:1299   */\n    tag_76:\n        /* \"#utility.yul\":1214:1225   */\n      0x00\n        /* \"#utility.yul\":1248:1254   */\n      dup3\n        /* \"#utility.yul\":1243:1246   */\n      dup3\n        /* \"#utility.yul\":1236:1255   */\n      mstore\n        /* \"#utility.yul\":1288:1292   */\n      0x20\n        /* \"#utility.yul\":1283:1286   */\n      dup3\n        /* \"#utility.yul\":1279:1293   */\n      add\n        /* \"#utility.yul\":1264:1293   */\n      swap1\n      pop\n        /* \"#utility.yul\":1130:1299   */\n      swap3\n      swap2\n      pop\n      pop\n      jump\t// out\n        /* \"#utility.yul\":1305:1612   */\n    tag_77:\n        /* \"#utility.yul\":1373:1374   */\n      0x00\n        /* \"#utility.yul\":1383:1496   */\n    tag_104:\n        /* \"#utility.yul\":1397:1403   */\n      dup4\n        /* \"#utility.yul\":1394:1395   */\n      dup2\n        /* \"#utility.yul\":1391:1404   */\n      lt\n        /* \"#utility.yul\":1383:1496   */\n      iszero\n      tag_106\n      jumpi\n        /* \"#utility.yul\":1482:1483   */\n      dup1\n        /* \"#utility.yul\":1477:1480   */\n      dup3\n        /* \"#utility.yul\":1473:1484   */\n      add\n        /* \"#utility.yul\":1467:1485   */\n      mload\n        /* \"#utility.yul\":1463:1464   */\n      dup2\n        /* \"#utility.yul\":1458:1461   */\n      dup5\n        /* \"#utility.yul\":1454:1465   */\n      add\n        /* \"#utility.yul\":1447:1486   */\n      mstore\n        /* \"#utility.yul\":1419:1421   */\n      0x20\n        /* \"#utility.yul\":1416:1417   */\n      dup2\n        /* \"#utility.yul\":1412:1422   */\n      add\n        /* \"#utility.yul\":1407:1422   */\n      swap1\n      pop\n        /* \"#utility.yul\":1383:1496   */\n      jump(tag_104)\n    tag_106:\n        /* \"#utility.yul\":1514:1520   */\n      dup4\n        /* \"#utility.yul\":1511:1512   */\n      dup2\n        /* \"#utility.yul\":1508:1521   */\n      gt\n        /* \"#utility.yul\":1505:1606   */\n      iszero\n      tag_107\n      jumpi\n        /* \"#utility.yul\":1594:1595   */\n      0x00\n        /* \"#utility.yul\":1585:1591   */\n      dup5\n        /* \"#utility.yul\":1580:1583   */\n      dup5\n        /* \"#utility.yul\":1576:1592   */\n      add\n        /* \"#utility.yul\":1569:1596   */\n      mstore\n        /* \"#utility.yul\":1505:1606   */\n    tag_107:\n        /* \"#utility.yul\":1354:1612   */\n      pop\n        /* \"#utility.yul\":1305:1612   */\n      pop\n      pop\n      pop\n      jump\t// out\n        /* \"#utility.yul\":1618:1720   */\n    tag_78:\n        /* \"#utility.yul\":1659:1665   */\n      0x00\n        /* \"#utility.yul\":1710:1712   */\n      0x1f\n        /* \"#utility.yul\":1706:1713   */\n      not\n        /* \"#utility.yul\":1701:1703   */\n      0x1f\n        /* \"#utility.yul\":1694:1699   */\n      dup4\n        /* \"#utility.yul\":1690:1704   */\n      add\n        /* \"#utility.yul\":1686:1714   */\n      and\n        /* \"#utility.yul\":1676:1714   */\n      swap1\n      pop\n        /* \"#utility.yul\":1618:1720   */\n      swap2\n      swap1\n      pop\n      jump\t// out\n        /* \"#utility.yul\":1726:2090   */\n    tag_79:\n        /* \"#utility.yul\":1814:1817   */\n      0x00\n        /* \"#utility.yul\":1842:1881   */\n      tag_110\n        /* \"#utility.yul\":1875:1880   */\n      dup3\n        /* \"#utility.yul\":1842:1881   */\n      tag_75\n      jump\t// in\n    tag_110:\n        /* \"#utility.yul\":1897:1968   */\n      tag_111\n        /* \"#utility.yul\":1961:1967   */\n      dup2\n        /* \"#utility.yul\":1956:1959   */\n      dup6\n        /* \"#utility.yul\":1897:1968   */\n      tag_76\n      jump\t// in\n    tag_111:\n        /* \"#utility.yul\":1890:1968   */\n      swap4\n      pop\n        /* \"#utility.yul\":1977:2029   */\n      tag_112\n        /* \"#utility.yul\":2022:2028   */\n      dup2\n        /* \"#utility.yul\":2017:2020   */\n      dup6\n        /* \"#utility.yul\":2010:2014   */\n      0x20\n        /* \"#utility.yul\":2003:2008   */\n      dup7\n        /* \"#utility.yul\":1999:2015   */\n      add\n        /* \"#utility.yul\":1977:2029   */\n      tag_77\n      jump\t// in\n    tag_112:\n        /* \"#utility.yul\":2054:2083   */\n      tag_113\n        /* \"#utility.yul\":2076:2082   */\n      dup2\n        /* \"#utility.yul\":2054:2083   */\n      tag_78\n      jump\t// in\n    tag_113:\n        /* \"#utility.yul\":2049:2052   */\n      dup5\n        /* \"#utility.yul\":2045:2084   */\n      add\n        /* \"#utility.yul\":2038:2084   */\n      swap2\n      pop\n        /* \"#utility.yul\":1818:2090   */\n      pop\n        /* \"#utility.yul\":1726:2090   */\n      swap3\n      swap2\n      pop\n      pop\n      jump\t// out\n        /* \"#utility.yul\":2096:2409   */\n    tag_12:\n        /* \"#utility.yul\":2209:2213   */\n      0x00\n        /* \"#utility.yul\":2247:2249   */\n      0x20\n        /* \"#utility.yul\":2236:2245   */\n      dup3\n        /* \"#utility.yul\":2232:2250   */\n      add\n        /* \"#utility.yul\":2224:2250   */\n      swap1\n      pop\n        /* \"#utility.yul\":2296:2305   */\n      dup2\n        /* \"#utility.yul\":2290:2294   */\n      dup2\n        /* \"#utility.yul\":2286:2306   */\n      sub\n        /* \"#utility.yul\":2282:2283   */\n      0x00\n        /* \"#utility.yul\":2271:2280   */\n      dup4\n        /* \"#utility.yul\":2267:2284   */\n      add\n        /* \"#utility.yul\":2260:2307   */\n      mstore\n        /* \"#utility.yul\":2324:2402   */\n      tag_115\n        /* \"#utility.yul\":2397:2401   */\n      dup2\n        /* \"#utility.yul\":2388:2394   */\n      dup5\n        /* \"#utility.yul\":2324:2402   */\n      tag_79\n      jump\t// in\n    tag_115:\n        /* \"#utility.yul\":2316:2402   */\n      swap1\n      pop\n        /* \"#utility.yul\":2096:2409   */\n      swap3\n      swap2\n      pop\n      pop\n      jump\t// out\n        /* \"#utility.yul\":2415:2505   */\n    tag_80:\n        /* \"#utility.yul\":2449:2456   */\n      0x00\n        /* \"#utility.yul\":2492:2497   */\n      dup2\n        /* \"#utility.yul\":2485:2498   */\n      iszero\n        /* \"#utility.yul\":2478:2499   */\n      iszero\n        /* \"#utility.yul\":2467:2499   */\n      swap1\n      pop\n        /* \"#utility.yul\":2415:2505   */\n      swap2\n      swap1\n      pop\n      jump\t// out\n        /* \"#utility.yul\":2511:2620   */\n    tag_81:\n        /* \"#utility.yul\":2592:2613   */\n      tag_118\n        /* \"#utility.yul\":2607:2612   */\n      dup2\n        /* \"#utility.yul\":2592:2613   */\n      tag_80\n      jump\t// in\n    tag_118:\n        /* \"#utility.yul\":2587:2590   */\n      dup3\n        /* \"#utility.yul\":2580:2614   */\n      mstore\n        /* \"#utility.yul\":2511:2620   */\n      pop\n      pop\n      jump\t// out\n        /* \"#utility.yul\":2626:2836   */\n    tag_16:\n        /* \"#utility.yul\":2713:2717   */\n      0x00\n        /* \"#utility.yul\":2751:2753   */\n      0x20\n        /* \"#utility.yul\":2740:2749   */\n      dup3\n        /* \"#utility.yul\":2736:2754   */\n      add\n        /* \"#utility.yul\":2728:2754   */\n      swap1\n      pop\n        /* \"#utility.yul\":2764:2829   */\n      tag_120\n        /* \"#utility.yul\":2826:2827   */\n      0x00\n        /* \"#utility.yul\":2815:2824   */\n      dup4\n        /* \"#utility.yul\":2811:2828   */\n      add\n        /* \"#utility.yul\":2802:2808   */\n      dup5\n        /* \"#utility.yul\":2764:2829   */\n      tag_81\n      jump\t// in\n    tag_120:\n        /* \"#utility.yul\":2626:2836   */\n      swap3\n      swap2\n      pop\n      pop\n      jump\t// out\n        /* \"#utility.yul\":2842:2960   */\n    tag_82:\n        /* \"#utility.yul\":2929:2953   */\n      tag_122\n        /* \"#utility.yul\":2947:2952   */\n      dup2\n        /* \"#utility.yul\":2929:2953   */\n      tag_72\n      jump\t// in\n    tag_122:\n        /* \"#utility.yul\":2924:2927   */\n      dup3\n        /* \"#utility.yul\":2917:2954   */\n      mstore\n        /* \"#utility.yul\":2842:2960   */\n      pop\n      pop\n      jump\t// out\n        /* \"#utility.yul\":2966:3188   */\n    tag_23:\n        /* \"#utility.yul\":3059:3063   */\n      0x00\n        /* \"#utility.yul\":3097:3099   */\n      0x20\n        /* \"#utility.yul\":3086:3095   */\n      dup3\n        /* \"#utility.yul\":3082:3100   */\n      add\n        /* \"#utility.yul\":3074:3100   */\n      swap1\n      pop\n        /* \"#utility.yul\":3110:3181   */\n      tag_124\n        /* \"#utility.yul\":3178:3179   */\n      0x00\n        /* \"#utility.yul\":3167:3176   */\n      dup4\n        /* \"#utility.yul\":3163:3180   */\n      add\n        /* \"#utility.yul\":3154:3160   */\n      dup5\n        /* \"#utility.yul\":3110:3181   */\n      tag_82\n      jump\t// in\n    tag_124:\n        /* \"#utility.yul\":2966:3188   */\n      swap3\n      swap2\n      pop\n      pop\n      jump\t// out\n        /* \"#utility.yul\":3194:3374   */\n    tag_83:\n        /* \"#utility.yul\":3242:3319   */\n      0x4e487b7100000000000000000000000000000000000000000000000000000000\n        /* \"#utility.yul\":3239:3240   */\n      0x00\n        /* \"#utility.yul\":3232:3320   */\n      mstore\n        /* \"#utility.yul\":3339:3343   */\n      0x11\n        /* \"#utility.yul\":3336:3337   */\n      0x04\n        /* \"#utility.yul\":3329:3344   */\n      mstore\n        /* \"#utility.yul\":3363:3367   */\n      0x24\n        /* \"#utility.yul\":3360:3361   */\n      0x00\n        /* \"#utility.yul\":3353:3368   */\n      revert\n        /* \"#utility.yul\":3380:3685   */\n    tag_39:\n        /* \"#utility.yul\":3420:3423   */\n      0x00\n        /* \"#utility.yul\":3439:3459   */\n      tag_127\n        /* \"#utility.yul\":3457:3458   */\n      dup3\n        /* \"#utility.yul\":3439:3459   */\n      tag_72\n      jump\t// in\n    tag_127:\n        /* \"#utility.yul\":3434:3459   */\n      swap2\n      pop\n        /* \"#utility.yul\":3473:3493   */\n      tag_128\n        /* \"#utility.yul\":3491:3492   */\n      dup4\n        /* \"#utility.yul\":3473:3493   */\n      tag_72\n      jump\t// in\n    tag_128:\n        /* \"#utility.yul\":3468:3493   */\n      swap3\n      pop\n        /* \"#utility.yul\":3627:3628   */\n      dup3\n        /* \"#utility.yul\":3559:3625   */\n      0xffffffffffffffffffffffffffffffffffffffffffffffffffffffffffffffff\n        /* \"#utility.yul\":3555:3629   */\n      sub\n        /* \"#utility.yul\":3552:3553   */\n      dup3\n        /* \"#utility.yul\":3549:3630   */\n      gt\n        /* \"#utility.yul\":3546:3653   */\n      iszero\n      tag_129\n      jumpi\n        /* \"#utility.yul\":3633:3651   */\n      tag_130\n      tag_83\n      jump\t// in\n    tag_130:\n        /* \"#utility.yul\":3546:3653   */\n    tag_129:\n        /* \"#utility.yul\":3677:3678   */\n      dup3\n        /* \"#utility.yul\":3674:3675   */\n      dup3\n        /* \"#utility.yul\":3670:3679   */\n      add\n        /* \"#utility.yul\":3663:3679   */\n      swap1\n      pop\n        /* \"#utility.yul\":3380:3685   */\n      swap3\n      swap2\n      pop\n      pop\n      jump\t// out\n        /* \"#utility.yul\":3691:3770   */\n    tag_84:\n        /* \"#utility.yul\":3730:3737   */\n      0x00\n        /* \"#utility.yul\":3759:3764   */\n      dup2\n        /* \"#utility.yul\":3748:3764   */\n      swap1\n      pop\n        /* \"#utility.yul\":3691:3770   */\n      swap2\n      swap1\n      pop\n      jump\t// out\n        /* \"#utility.yul\":3776:3933   */\n    tag_85:\n        /* \"#utility.yul\":3881:3926   */\n      tag_133\n        /* \"#utility.yul\":3901:3925   */\n      tag_134\n        /* \"#utility.yul\":3919:3924   */\n      dup3\n        /* \"#utility.yul\":3901:3925   */\n      tag_72\n      jump\t// in\n    tag_134:\n        /* \"#utility.yul\":3881:3926   */\n      tag_84\n      jump\t// in\n    tag_133:\n        /* \"#utility.yul\":3876:3879   */\n      dup3\n        /* \"#utility.yul\":3869:3927   */\n      mstore\n        /* \"#utility.yul\":3776:3933   */\n      pop\n      pop\n      jump\t// out\n        /* \"#utility.yul\":3939:4477   */\n    tag_44:\n        /* \"#utility.yul\":4107:4110   */\n      0x00\n        /* \"#utility.yul\":4122:4197   */\n      tag_136\n        /* \"#utility.yul\":4193:4196   */\n      dup3\n        /* \"#utility.yul\":4184:4190   */\n      dup7\n        /* \"#utility.yul\":4122:4197   */\n      tag_85\n      jump\t// in\n    tag_136:\n        /* \"#utility.yul\":4222:4224   */\n      0x20\n        /* \"#utility.yul\":4217:4220   */\n      dup3\n        /* \"#utility.yul\":4213:4225   */\n      add\n        /* \"#utility.yul\":4206:4225   */\n      swap2\n      pop\n        /* \"#utility.yul\":4235:4310   */\n      tag_137\n        /* \"#utility.yul\":4306:4309   */\n      dup3\n        /* \"#utility.yul\":4297:4303   */\n      dup6\n        /* \"#utility.yul\":4235:4310   */\n      tag_85\n      jump\t// in\n    tag_137:\n        /* \"#utility.yul\":4335:4337   */\n      0x20\n        /* \"#utility.yul\":4330:4333   */\n      dup3\n        /* \"#utility.yul\":4326:4338   */\n      add\n        /* \"#utility.yul\":4319:4338   */\n      swap2\n      pop\n        /* \"#utility.yul\":4348:4423   */\n      tag_138\n        /* \"#utility.yul\":4419:4422   */\n      dup3\n        /* \"#utility.yul\":4410:4416   */\n      dup5\n        /* \"#utility.yul\":4348:4423   */\n      tag_85\n      jump\t// in\n    tag_138:\n        /* \"#utility.yul\":4448:4450   */\n      0x20\n        /* \"#utility.yul\":4443:4446   */\n      dup3\n        /* \"#utility.yul\":4439:4451   */\n      add\n        /* \"#utility.yul\":4432:4451   */\n      swap2\n      pop\n        /* \"#utility.yul\":4468:4471   */\n      dup2\n        /* \"#utility.yul\":4461:4471   */\n      swap1\n      pop\n        /* \"#utility.yul\":3939:4477   */\n      swap5\n      swap4\n      pop\n      pop\n      pop\n      pop\n      jump\t// out\n        /* \"#utility.yul\":4483:4663   */\n    tag_86:\n        /* \"#utility.yul\":4531:4608   */\n      0x4e487b7100000000000000000000000000000000000000000000000000000000\n        /* \"#utility.yul\":4528:4529   */\n      0x00\n        /* \"#utility.yul\":4521:4609   */\n      mstore\n        /* \"#utility.yul\":4628:4632   */\n      0x12\n        /* \"#utility.yul\":4625:4626   */\n      0x04\n        /* \"#utility.yul\":4618:4633   */\n      mstore\n        /* \"#utility.yul\":4652:4656   */\n      0x24\n        /* \"#utility.yul\":4649:4650   */\n      0x00\n        /* \"#utility.yul\":4642:4657   */\n      revert\n        /* \"#utility.yul\":4669:4845   */\n    tag_46:\n        /* \"#utility.yul\":4701:4702   */\n      0x00\n        /* \"#utility.yul\":4718:4738   */\n      tag_141\n        /* \"#utility.yul\":4736:4737   */\n      dup3\n        /* \"#utility.yul\":4718:4738   */\n      tag_72\n      jump\t// in\n    tag_141:\n        /* \"#utility.yul\":4713:4738   */\n      swap2\n      pop\n        /* \"#utility.yul\":4752:4772   */\n      tag_142\n        /* \"#utility.yul\":4770:4771   */\n      dup4\n        /* \"#utility.yul\":4752:4772   */\n      tag_72\n      jump\t// in\n    tag_142:\n        /* \"#utility.yul\":4747:4772   */\n      swap3\n      pop\n        /* \"#utility.yul\":4791:4792   */\n      dup3\n        /* \"#utility.yul\":4781:4816   */\n      tag_143\n      jumpi\n        /* \"#utility.yul\":4796:4814   */\n      tag_144\n      tag_86\n      jump\t// in\n    tag_144:\n        /* \"#utility.yul\":4781:4816   */\n    tag_143:\n        /* \"#utility.yul\":4837:4838   */\n      dup3\n        /* \"#utility.yul\":4834:4835   */\n      dup3\n        /* \"#utility.yul\":4830:4839   */\n      mod\n        /* \"#utility.yul\":4825:4839   */\n      swap1\n      pop\n        /* \"#utility.yul\":4669:4845   */\n      swap3\n      swap2\n      pop\n      pop\n      jump\t// out\n        /* \"#utility.yul\":4851:5084   */\n    tag_52:\n        /* \"#utility.yul\":4890:4893   */\n      0x00\n        /* \"#utility.yul\":4913:4937   */\n      tag_146\n        /* \"#utility.yul\":4931:4936   */\n      dup3\n        /* \"#utility.yul\":4913:4937   */\n      tag_72\n      jump\t// in\n    tag_146:\n        /* \"#utility.yul\":4904:4937   */\n      swap2\n      pop\n        /* \"#utility.yul\":4959:5025   */\n      0xffffffffffffffffffffffffffffffffffffffffffffffffffffffffffffffff\n        /* \"#utility.yul\":4952:4957   */\n      dup3\n        /* \"#utility.yul\":4949:5026   */\n      sub\n        /* \"#utility.yul\":4946:5049   */\n      tag_147\n      jumpi\n        /* \"#utility.yul\":5029:5047   */\n      tag_148\n      tag_83\n      jump\t// in\n    tag_148:\n        /* \"#utility.yul\":4946:5049   */\n    tag_147:\n        /* \"#utility.yul\":5076:5077   */\n      0x01\n        /* \"#utility.yul\":5069:5074   */\n      dup3\n        /* \"#utility.yul\":5065:5078   */\n      add\n        /* \"#utility.yul\":5058:5078   */\n      swap1\n      pop\n        /* \"#utility.yul\":4851:5084   */\n      swap2\n      swap1\n      pop\n      jump\t// out\n        /* \"#utility.yul\":5090:5275   */\n    tag_54:\n        /* \"#utility.yul\":5130:5131   */\n      0x00\n        /* \"#utility.yul\":5147:5167   */\n      tag_150\n        /* \"#utility.yul\":5165:5166   */\n      dup3\n        /* \"#utility.yul\":5147:5167   */\n      tag_72\n      jump\t// in\n    tag_150:\n        /* \"#utility.yul\":5142:5167   */\n      swap2\n      pop\n        /* \"#utility.yul\":5181:5201   */\n      tag_151\n        /* \"#utility.yul\":5199:5200   */\n      dup4\n        /* \"#utility.yul\":5181:5201   */\n      tag_72\n      jump\t// in\n    tag_151:\n        /* \"#utility.yul\":5176:5201   */\n      swap3\n      pop\n        /* \"#utility.yul\":5220:5221   */\n      dup3\n        /* \"#utility.yul\":5210:5245   */\n      tag_152\n      jumpi\n        /* \"#utility.yul\":5225:5243   */\n      tag_153\n      tag_86\n      jump\t// in\n    tag_153:\n        /* \"#utility.yul\":5210:5245   */\n    tag_152:\n        /* \"#utility.yul\":5267:5268   */\n      dup3\n        /* \"#utility.yul\":5264:5265   */\n      dup3\n        /* \"#utility.yul\":5260:5269   */\n      div\n        /* \"#utility.yul\":5255:5269   */\n      swap1\n      pop\n        /* \"#utility.yul\":5090:5275   */\n      swap3\n      swap2\n      pop\n      pop\n      jump\t// out\n        /* \"#utility.yul\":5281:5461   */\n    tag_57:\n        /* \"#utility.yul\":5329:5406   */\n      0x4e487b7100000000000000000000000000000000000000000000000000000000\n        /* \"#utility.yul\":5326:5327   */\n      0x00\n        /* \"#utility.yul\":5319:5407   */\n      mstore\n        /* \"#utility.yul\":5426:5430   */\n      0x41\n        /* \"#utility.yul\":5423:5424   */\n      0x04\n        /* \"#utility.yul\":5416:5431   */\n      mstore\n        /* \"#utility.yul\":5450:5454   */\n      0x24\n        /* \"#utility.yul\":5447:5448   */\n      0x00\n        /* \"#utility.yul\":5440:5455   */\n      revert\n        /* \"#utility.yul\":5467:5658   */\n    tag_62:\n        /* \"#utility.yul\":5507:5511   */\n      0x00\n        /* \"#utility.yul\":5527:5547   */\n      tag_156\n        /* \"#utility.yul\":5545:5546   */\n      dup3\n        /* \"#utility.yul\":5527:5547   */\n      tag_72\n      jump\t// in\n    tag_156:\n        /* \"#utility.yul\":5522:5547   */\n      swap2\n      pop\n        /* \"#utility.yul\":5561:5581   */\n      tag_157\n        /* \"#utility.yul\":5579:5580   */\n      dup4\n        /* \"#utility.yul\":5561:5581   */\n      tag_72\n      jump\t// in\n    tag_157:\n        /* \"#utility.yul\":5556:5581   */\n      swap3\n      pop\n        /* \"#utility.yul\":5600:5601   */\n      dup3\n        /* \"#utility.yul\":5597:5598   */\n      dup3\n        /* \"#utility.yul\":5594:5602   */\n      lt\n        /* \"#utility.yul\":5591:5625   */\n      iszero\n      tag_158\n      jumpi\n        /* \"#utility.yul\":5605:5623   */\n      tag_159\n      tag_83\n      jump\t// in\n    tag_159:\n        /* \"#utility.yul\":5591:5625   */\n    tag_158:\n        /* \"#utility.yul\":5650:5651   */\n      dup3\n        /* \"#utility.yul\":5647:5648   */\n      dup3\n        /* \"#utility.yul\":5643:5652   */\n      sub\n        /* \"#utility.yul\":5635:5652   */\n      swap1\n      pop\n        /* \"#utility.yul\":5467:5658   */\n      swap3\n      swap2\n      pop\n      pop\n      jump\t// out\n        /* \"#utility.yul\":5664:5844   */\n    tag_67:\n        /* \"#utility.yul\":5712:5789   */\n      0x4e487b7100000000000000000000000000000000000000000000000000000000\n        /* \"#utility.yul\":5709:5710   */\n      0x00\n        /* \"#utility.yul\":5702:5790   */\n      mstore\n        /* \"#utility.yul\":5809:5813   */\n      0x32\n        /* \"#utility.yul\":5806:5807   */\n      0x04\n        /* \"#utility.yul\":5799:5814   */\n      mstore\n        /* \"#utility.yul\":5833:5837   */\n      0x24\n        /* \"#utility.yul\":5830:5831   */\n      0x00\n        /* \"#utility.yul\":5823:5838   */\n      revert\n\n    auxdata: 0xa2646970667358221220b51dc635578abb8b4685629b826f02b7085938542596d6cbe6dd7199113293b964736f6c634300080d0033\n}\n",
				"bytecode": {
					"linkReferences": {},
					"object": "608060405234801561001057600080fd5b50600080819055506000600160006101000a81548160ff021916908315150217905550600160028190555061088b8061004a6000396000f3fe608060405234801561001057600080fd5b506004361061004c5760003560e01c80630e7ccaf014610051578063b2a1449b14610081578063d826f88f1461009f578063efedc669146100bd575b600080fd5b61006b600480360381019061006691906104bf565b6100db565b6040516100789190610585565b60405180910390f35b610089610255565b60405161009691906105c2565b60405180910390f35b6100a7610268565b6040516100b49190610585565b60405180910390f35b6100c56102c7565b6040516100d291906105ec565b60405180910390f35b606060011515600160009054906101000a900460ff16151503610135576040518060400160405280600d81526020017f426174736d616e49734f75742e000000000000000000000000000000000000008152509050610250565b600061013f6102cd565b905060018310806101505750600683115b15610193576040518060400160405280601081526020017f456e74657256616c69644e756d62657200000000000000000000000000000000815250915050610250565b60001515600160009054906101000a900460ff1615150361024e57600081036101bb57600690505b8281036101ef576101cd600054610324565b915060018060006101000a81548160ff02191690831515021790555050610250565b806000546101fd9190610636565b60008190555061020e600054610324565b91506040518060400160405280601081526020017f72616e646f6e756d6265722052554e5300000000000000000000000000000000815250915050610250565b505b919050565b600160009054906101000a900460ff1681565b6060600080819055506000600160006101000a81548160ff0219169083151502179055506040518060400160405280601281526020017f5245534554205375636365737366756c6c790000000000000000000000000000815250905090565b60005481565b60006002600081548092919060010191905055506006426000546002546040516020016102fc939291906106ad565b6040516020818303038152906040528051906020012060001c61031f9190610719565b905090565b60606000820361036b576040518060400160405280600181526020017f3000000000000000000000000000000000000000000000000000000000000000815250905061047f565b600082905060005b6000821461039d5780806103869061074a565b915050600a826103969190610792565b9150610373565b60008167ffffffffffffffff8111156103b9576103b86107c3565b5b6040519080825280601f01601f1916602001820160405280156103eb5781602001600182028036833780820191505090505b5090505b600085146104785760018261040491906107f2565b9150600a856104139190610719565b603061041f9190610636565b60f81b81838151811061043557610434610826565b5b60200101907effffffffffffffffffffffffffffffffffffffffffffffffffffffffffffff1916908160001a905350600a856104719190610792565b94506103ef565b8093505050505b919050565b600080fd5b6000819050919050565b61049c81610489565b81146104a757600080fd5b50565b6000813590506104b981610493565b92915050565b6000602082840312156104d5576104d4610484565b5b60006104e3848285016104aa565b91505092915050565b600081519050919050565b600082825260208201905092915050565b60005b8381101561052657808201518184015260208101905061050b565b83811115610535576000848401525b50505050565b6000601f19601f8301169050919050565b6000610557826104ec565b61056181856104f7565b9350610571818560208601610508565b61057a8161053b565b840191505092915050565b6000602082019050818103600083015261059f818461054c565b905092915050565b60008115159050919050565b6105bc816105a7565b82525050565b60006020820190506105d760008301846105b3565b92915050565b6105e681610489565b82525050565b600060208201905061060160008301846105dd565b92915050565b7f4e487b7100000000000000000000000000000000000000000000000000000000600052601160045260246000fd5b600061064182610489565b915061064c83610489565b9250827fffffffffffffffffffffffffffffffffffffffffffffffffffffffffffffffff0382111561068157610680610607565b5b828201905092915050565b6000819050919050565b6106a76106a282610489565b61068c565b82525050565b60006106b98286610696565b6020820191506106c98285610696565b6020820191506106d98284610696565b602082019150819050949350505050565b7f4e487b7100000000000000000000000000000000000000000000000000000000600052601260045260246000fd5b600061072482610489565b915061072f83610489565b92508261073f5761073e6106ea565b5b828206905092915050565b600061075582610489565b91507fffffffffffffffffffffffffffffffffffffffffffffffffffffffffffffffff820361078757610786610607565b5b600182019050919050565b600061079d82610489565b91506107a883610489565b9250826107b8576107b76106ea565b5b828204905092915050565b7f4e487b7100000000000000000000000000000000000000000000000000000000600052604160045260246000fd5b60006107fd82610489565b915061080883610489565b92508282101561081b5761081a610607565b5b828203905092915050565b7f4e487b7100000000000000000000000000000000000000000000000000000000600052603260045260246000fdfea2646970667358221220b51dc635578abb8b4685629b826f02b7085938542596d6cbe6dd7199113293b964736f6c634300080d0033",
					"opcodes": "PUSH1 0x80 PUSH1 0x40 MSTORE CALLVALUE DUP1 ISZERO PUSH2 0x10 JUMPI PUSH1 0x0 DUP1 REVERT JUMPDEST POP PUSH1 0x0 DUP1 DUP2 SWAP1 SSTORE POP PUSH1 0x0 PUSH1 0x1 PUSH1 0x0 PUSH2 0x100 EXP DUP2 SLOAD DUP2 PUSH1 0xFF MUL NOT AND SWAP1 DUP4 ISZERO ISZERO MUL OR SWAP1 SSTORE POP PUSH1 0x1 PUSH1 0x2 DUP2 SWAP1 SSTORE POP PUSH2 0x88B DUP1 PUSH2 0x4A PUSH1 0x0 CODECOPY PUSH1 0x0 RETURN INVALID PUSH1 0x80 PUSH1 0x40 MSTORE CALLVALUE DUP1 ISZERO PUSH2 0x10 JUMPI PUSH1 0x0 DUP1 REVERT JUMPDEST POP PUSH1 0x4 CALLDATASIZE LT PUSH2 0x4C JUMPI PUSH1 0x0 CALLDATALOAD PUSH1 0xE0 SHR DUP1 PUSH4 0xE7CCAF0 EQ PUSH2 0x51 JUMPI DUP1 PUSH4 0xB2A1449B EQ PUSH2 0x81 JUMPI DUP1 PUSH4 0xD826F88F EQ PUSH2 0x9F JUMPI DUP1 PUSH4 0xEFEDC669 EQ PUSH2 0xBD JUMPI JUMPDEST PUSH1 0x0 DUP1 REVERT JUMPDEST PUSH2 0x6B PUSH1 0x4 DUP1 CALLDATASIZE SUB DUP2 ADD SWAP1 PUSH2 0x66 SWAP2 SWAP1 PUSH2 0x4BF JUMP JUMPDEST PUSH2 0xDB JUMP JUMPDEST PUSH1 0x40 MLOAD PUSH2 0x78 SWAP2 SWAP1 PUSH2 0x585 JUMP JUMPDEST PUSH1 0x40 MLOAD DUP1 SWAP2 SUB SWAP1 RETURN JUMPDEST PUSH2 0x89 PUSH2 0x255 JUMP JUMPDEST PUSH1 0x40 MLOAD PUSH2 0x96 SWAP2 SWAP1 PUSH2 0x5C2 JUMP JUMPDEST PUSH1 0x40 MLOAD DUP1 SWAP2 SUB SWAP1 RETURN JUMPDEST PUSH2 0xA7 PUSH2 0x268 JUMP JUMPDEST PUSH1 0x40 MLOAD PUSH2 0xB4 SWAP2 SWAP1 PUSH2 0x585 JUMP JUMPDEST PUSH1 0x40 MLOAD DUP1 SWAP2 SUB SWAP1 RETURN JUMPDEST PUSH2 0xC5 PUSH2 0x2C7 JUMP JUMPDEST PUSH1 0x40 MLOAD PUSH2 0xD2 SWAP2 SWAP1 PUSH2 0x5EC JUMP JUMPDEST PUSH1 0x40 MLOAD DUP1 SWAP2 SUB SWAP1 RETURN JUMPDEST PUSH1 0x60 PUSH1 0x1 ISZERO ISZERO PUSH1 0x1 PUSH1 0x0 SWAP1 SLOAD SWAP1 PUSH2 0x100 EXP SWAP1 DIV PUSH1 0xFF AND ISZERO ISZERO SUB PUSH2 0x135 JUMPI PUSH1 0x40 MLOAD DUP1 PUSH1 0x40 ADD PUSH1 0x40 MSTORE DUP1 PUSH1 0xD DUP2 MSTORE PUSH1 0x20 ADD PUSH32 0x426174736D616E49734F75742E00000000000000000000000000000000000000 DUP2 MSTORE POP SWAP1 POP PUSH2 0x250 JUMP JUMPDEST PUSH1 0x0 PUSH2 0x13F PUSH2 0x2CD JUMP JUMPDEST SWAP1 POP PUSH1 0x1 DUP4 LT DUP1 PUSH2 0x150 JUMPI POP PUSH1 0x6 DUP4 GT JUMPDEST ISZERO PUSH2 0x193 JUMPI PUSH1 0x40 MLOAD DUP1 PUSH1 0x40 ADD PUSH1 0x40 MSTORE DUP1 PUSH1 0x10 DUP2 MSTORE PUSH1 0x20 ADD PUSH32 0x456E74657256616C69644E756D62657200000000000000000000000000000000 DUP2 MSTORE POP SWAP2 POP POP PUSH2 0x250 JUMP JUMPDEST PUSH1 0x0 ISZERO ISZERO PUSH1 0x1 PUSH1 0x0 SWAP1 SLOAD SWAP1 PUSH2 0x100 EXP SWAP1 DIV PUSH1 0xFF AND ISZERO ISZERO SUB PUSH2 0x24E JUMPI PUSH1 0x0 DUP2 SUB PUSH2 0x1BB JUMPI PUSH1 0x6 SWAP1 POP JUMPDEST DUP3 DUP2 SUB PUSH2 0x1EF JUMPI PUSH2 0x1CD PUSH1 0x0 SLOAD PUSH2 0x324 JUMP JUMPDEST SWAP2 POP PUSH1 0x1 DUP1 PUSH1 0x0 PUSH2 0x100 EXP DUP2 SLOAD DUP2 PUSH1 0xFF MUL NOT AND SWAP1 DUP4 ISZERO ISZERO MUL OR SWAP1 SSTORE POP POP PUSH2 0x250 JUMP JUMPDEST DUP1 PUSH1 0x0 SLOAD PUSH2 0x1FD SWAP2 SWAP1 PUSH2 0x636 JUMP JUMPDEST PUSH1 0x0 DUP2 SWAP1 SSTORE POP PUSH2 0x20E PUSH1 0x0 SLOAD PUSH2 0x324 JUMP JUMPDEST SWAP2 POP PUSH1 0x40 MLOAD DUP1 PUSH1 0x40 ADD PUSH1 0x40 MSTORE DUP1 PUSH1 0x10 DUP2 MSTORE PUSH1 0x20 ADD PUSH32 0x72616E646F6E756D6265722052554E5300000000000000000000000000000000 DUP2 MSTORE POP SWAP2 POP POP PUSH2 0x250 JUMP JUMPDEST POP JUMPDEST SWAP2 SWAP1 POP JUMP JUMPDEST PUSH1 0x1 PUSH1 0x0 SWAP1 SLOAD SWAP1 PUSH2 0x100 EXP SWAP1 DIV PUSH1 0xFF AND DUP2 JUMP JUMPDEST PUSH1 0x60 PUSH1 0x0 DUP1 DUP2 SWAP1 SSTORE POP PUSH1 0x0 PUSH1 0x1 PUSH1 0x0 PUSH2 0x100 EXP DUP2 SLOAD DUP2 PUSH1 0xFF MUL NOT AND SWAP1 DUP4 ISZERO ISZERO MUL OR SWAP1 SSTORE POP PUSH1 0x40 MLOAD DUP1 PUSH1 0x40 ADD PUSH1 0x40 MSTORE DUP1 PUSH1 0x12 DUP2 MSTORE PUSH1 0x20 ADD PUSH32 0x5245534554205375636365737366756C6C790000000000000000000000000000 DUP2 MSTORE POP SWAP1 POP SWAP1 JUMP JUMPDEST PUSH1 0x0 SLOAD DUP2 JUMP JUMPDEST PUSH1 0x0 PUSH1 0x2 PUSH1 0x0 DUP2 SLOAD DUP1 SWAP3 SWAP2 SWAP1 PUSH1 0x1 ADD SWAP2 SWAP1 POP SSTORE POP PUSH1 0x6 TIMESTAMP PUSH1 0x0 SLOAD PUSH1 0x2 SLOAD PUSH1 0x40 MLOAD PUSH1 0x20 ADD PUSH2 0x2FC SWAP4 SWAP3 SWAP2 SWAP1 PUSH2 0x6AD JUMP JUMPDEST PUSH1 0x40 MLOAD PUSH1 0x20 DUP2 DUP4 SUB SUB DUP2 MSTORE SWAP1 PUSH1 0x40 MSTORE DUP1 MLOAD SWAP1 PUSH1 0x20 ADD KECCAK256 PUSH1 0x0 SHR PUSH2 0x31F SWAP2 SWAP1 PUSH2 0x719 JUMP JUMPDEST SWAP1 POP SWAP1 JUMP JUMPDEST PUSH1 0x60 PUSH1 0x0 DUP3 SUB PUSH2 0x36B JUMPI PUSH1 0x40 MLOAD DUP1 PUSH1 0x40 ADD PUSH1 0x40 MSTORE DUP1 PUSH1 0x1 DUP2 MSTORE PUSH1 0x20 ADD PUSH32 0x3000000000000000000000000000000000000000000000000000000000000000 DUP2 MSTORE POP SWAP1 POP PUSH2 0x47F JUMP JUMPDEST PUSH1 0x0 DUP3 SWAP1 POP PUSH1 0x0 JUMPDEST PUSH1 0x0 DUP3 EQ PUSH2 0x39D JUMPI DUP1 DUP1 PUSH2 0x386 SWAP1 PUSH2 0x74A JUMP JUMPDEST SWAP2 POP POP PUSH1 0xA DUP3 PUSH2 0x396 SWAP2 SWAP1 PUSH2 0x792 JUMP JUMPDEST SWAP2 POP PUSH2 0x373 JUMP JUMPDEST PUSH1 0x0 DUP2 PUSH8 0xFFFFFFFFFFFFFFFF DUP2 GT ISZERO PUSH2 0x3B9 JUMPI PUSH2 0x3B8 PUSH2 0x7C3 JUMP JUMPDEST JUMPDEST PUSH1 0x40 MLOAD SWAP1 DUP1 DUP3 MSTORE DUP1 PUSH1 0x1F ADD PUSH1 0x1F NOT AND PUSH1 0x20 ADD DUP3 ADD PUSH1 0x40 MSTORE DUP1 ISZERO PUSH2 0x3EB JUMPI DUP2 PUSH1 0x20 ADD PUSH1 0x1 DUP3 MUL DUP1 CALLDATASIZE DUP4 CALLDATACOPY DUP1 DUP3 ADD SWAP2 POP POP SWAP1 POP JUMPDEST POP SWAP1 POP JUMPDEST PUSH1 0x0 DUP6 EQ PUSH2 0x478 JUMPI PUSH1 0x1 DUP3 PUSH2 0x404 SWAP2 SWAP1 PUSH2 0x7F2 JUMP JUMPDEST SWAP2 POP PUSH1 0xA DUP6 PUSH2 0x413 SWAP2 SWAP1 PUSH2 0x719 JUMP JUMPDEST PUSH1 0x30 PUSH2 0x41F SWAP2 SWAP1 PUSH2 0x636 JUMP JUMPDEST PUSH1 0xF8 SHL DUP2 DUP4 DUP2 MLOAD DUP2 LT PUSH2 0x435 JUMPI PUSH2 0x434 PUSH2 0x826 JUMP JUMPDEST JUMPDEST PUSH1 0x20 ADD ADD SWAP1 PUSH31 0xFFFFFFFFFFFFFFFFFFFFFFFFFFFFFFFFFFFFFFFFFFFFFFFFFFFFFFFFFFFFFF NOT AND SWAP1 DUP2 PUSH1 0x0 BYTE SWAP1 MSTORE8 POP PUSH1 0xA DUP6 PUSH2 0x471 SWAP2 SWAP1 PUSH2 0x792 JUMP JUMPDEST SWAP5 POP PUSH2 0x3EF JUMP JUMPDEST DUP1 SWAP4 POP POP POP POP JUMPDEST SWAP2 SWAP1 POP JUMP JUMPDEST PUSH1 0x0 DUP1 REVERT JUMPDEST PUSH1 0x0 DUP2 SWAP1 POP SWAP2 SWAP1 POP JUMP JUMPDEST PUSH2 0x49C DUP2 PUSH2 0x489 JUMP JUMPDEST DUP2 EQ PUSH2 0x4A7 JUMPI PUSH1 0x0 DUP1 REVERT JUMPDEST POP JUMP JUMPDEST PUSH1 0x0 DUP2 CALLDATALOAD SWAP1 POP PUSH2 0x4B9 DUP2 PUSH2 0x493 JUMP JUMPDEST SWAP3 SWAP2 POP POP JUMP JUMPDEST PUSH1 0x0 PUSH1 0x20 DUP3 DUP5 SUB SLT ISZERO PUSH2 0x4D5 JUMPI PUSH2 0x4D4 PUSH2 0x484 JUMP JUMPDEST JUMPDEST PUSH1 0x0 PUSH2 0x4E3 DUP5 DUP3 DUP6 ADD PUSH2 0x4AA JUMP JUMPDEST SWAP2 POP POP SWAP3 SWAP2 POP POP JUMP JUMPDEST PUSH1 0x0 DUP2 MLOAD SWAP1 POP SWAP2 SWAP1 POP JUMP JUMPDEST PUSH1 0x0 DUP3 DUP3 MSTORE PUSH1 0x20 DUP3 ADD SWAP1 POP SWAP3 SWAP2 POP POP JUMP JUMPDEST PUSH1 0x0 JUMPDEST DUP4 DUP2 LT ISZERO PUSH2 0x526 JUMPI DUP1 DUP3 ADD MLOAD DUP2 DUP5 ADD MSTORE PUSH1 0x20 DUP2 ADD SWAP1 POP PUSH2 0x50B JUMP JUMPDEST DUP4 DUP2 GT ISZERO PUSH2 0x535 JUMPI PUSH1 0x0 DUP5 DUP5 ADD MSTORE JUMPDEST POP POP POP POP JUMP JUMPDEST PUSH1 0x0 PUSH1 0x1F NOT PUSH1 0x1F DUP4 ADD AND SWAP1 POP SWAP2 SWAP1 POP JUMP JUMPDEST PUSH1 0x0 PUSH2 0x557 DUP3 PUSH2 0x4EC JUMP JUMPDEST PUSH2 0x561 DUP2 DUP6 PUSH2 0x4F7 JUMP JUMPDEST SWAP4 POP PUSH2 0x571 DUP2 DUP6 PUSH1 0x20 DUP7 ADD PUSH2 0x508 JUMP JUMPDEST PUSH2 0x57A DUP2 PUSH2 0x53B JUMP JUMPDEST DUP5 ADD SWAP2 POP POP SWAP3 SWAP2 POP POP JUMP JUMPDEST PUSH1 0x0 PUSH1 0x20 DUP3 ADD SWAP1 POP DUP2 DUP2 SUB PUSH1 0x0 DUP4 ADD MSTORE PUSH2 0x59F DUP2 DUP5 PUSH2 0x54C JUMP JUMPDEST SWAP1 POP SWAP3 SWAP2 POP POP JUMP JUMPDEST PUSH1 0x0 DUP2 ISZERO ISZERO SWAP1 POP SWAP2 SWAP1 POP JUMP JUMPDEST PUSH2 0x5BC DUP2 PUSH2 0x5A7 JUMP JUMPDEST DUP3 MSTORE POP POP JUMP JUMPDEST PUSH1 0x0 PUSH1 0x20 DUP3 ADD SWAP1 POP PUSH2 0x5D7 PUSH1 0x0 DUP4 ADD DUP5 PUSH2 0x5B3 JUMP JUMPDEST SWAP3 SWAP2 POP POP JUMP JUMPDEST PUSH2 0x5E6 DUP2 PUSH2 0x489 JUMP JUMPDEST DUP3 MSTORE POP POP JUMP JUMPDEST PUSH1 0x0 PUSH1 0x20 DUP3 ADD SWAP1 POP PUSH2 0x601 PUSH1 0x0 DUP4 ADD DUP5 PUSH2 0x5DD JUMP JUMPDEST SWAP3 SWAP2 POP POP JUMP JUMPDEST PUSH32 0x4E487B7100000000000000000000000000000000000000000000000000000000 PUSH1 0x0 MSTORE PUSH1 0x11 PUSH1 0x4 MSTORE PUSH1 0x24 PUSH1 0x0 REVERT JUMPDEST PUSH1 0x0 PUSH2 0x641 DUP3 PUSH2 0x489 JUMP JUMPDEST SWAP2 POP PUSH2 0x64C DUP4 PUSH2 0x489 JUMP JUMPDEST SWAP3 POP DUP3 PUSH32 0xFFFFFFFFFFFFFFFFFFFFFFFFFFFFFFFFFFFFFFFFFFFFFFFFFFFFFFFFFFFFFFFF SUB DUP3 GT ISZERO PUSH2 0x681 JUMPI PUSH2 0x680 PUSH2 0x607 JUMP JUMPDEST JUMPDEST DUP3 DUP3 ADD SWAP1 POP SWAP3 SWAP2 POP POP JUMP JUMPDEST PUSH1 0x0 DUP2 SWAP1 POP SWAP2 SWAP1 POP JUMP JUMPDEST PUSH2 0x6A7 PUSH2 0x6A2 DUP3 PUSH2 0x489 JUMP JUMPDEST PUSH2 0x68C JUMP JUMPDEST DUP3 MSTORE POP POP JUMP JUMPDEST PUSH1 0x0 PUSH2 0x6B9 DUP3 DUP7 PUSH2 0x696 JUMP JUMPDEST PUSH1 0x20 DUP3 ADD SWAP2 POP PUSH2 0x6C9 DUP3 DUP6 PUSH2 0x696 JUMP JUMPDEST PUSH1 0x20 DUP3 ADD SWAP2 POP PUSH2 0x6D9 DUP3 DUP5 PUSH2 0x696 JUMP JUMPDEST PUSH1 0x20 DUP3 ADD SWAP2 POP DUP2 SWAP1 POP SWAP5 SWAP4 POP POP POP POP JUMP JUMPDEST PUSH32 0x4E487B7100000000000000000000000000000000000000000000000000000000 PUSH1 0x0 MSTORE PUSH1 0x12 PUSH1 0x4 MSTORE PUSH1 0x24 PUSH1 0x0 REVERT JUMPDEST PUSH1 0x0 PUSH2 0x724 DUP3 PUSH2 0x489 JUMP JUMPDEST SWAP2 POP PUSH2 0x72F DUP4 PUSH2 0x489 JUMP JUMPDEST SWAP3 POP DUP3 PUSH2 0x73F JUMPI PUSH2 0x73E PUSH2 0x6EA JUMP JUMPDEST JUMPDEST DUP3 DUP3 MOD SWAP1 POP SWAP3 SWAP2 POP POP JUMP JUMPDEST PUSH1 0x0 PUSH2 0x755 DUP3 PUSH2 0x489 JUMP JUMPDEST SWAP2 POP PUSH32 0xFFFFFFFFFFFFFFFFFFFFFFFFFFFFFFFFFFFFFFFFFFFFFFFFFFFFFFFFFFFFFFFF DUP3 SUB PUSH2 0x787 JUMPI PUSH2 0x786 PUSH2 0x607 JUMP JUMPDEST JUMPDEST PUSH1 0x1 DUP3 ADD SWAP1 POP SWAP2 SWAP1 POP JUMP JUMPDEST PUSH1 0x0 PUSH2 0x79D DUP3 PUSH2 0x489 JUMP JUMPDEST SWAP2 POP PUSH2 0x7A8 DUP4 PUSH2 0x489 JUMP JUMPDEST SWAP3 POP DUP3 PUSH2 0x7B8 JUMPI PUSH2 0x7B7 PUSH2 0x6EA JUMP JUMPDEST JUMPDEST DUP3 DUP3 DIV SWAP1 POP SWAP3 SWAP2 POP POP JUMP JUMPDEST PUSH32 0x4E487B7100000000000000000000000000000000000000000000000000000000 PUSH1 0x0 MSTORE PUSH1 0x41 PUSH1 0x4 MSTORE PUSH1 0x24 PUSH1 0x0 REVERT JUMPDEST PUSH1 0x0 PUSH2 0x7FD DUP3 PUSH2 0x489 JUMP JUMPDEST SWAP2 POP PUSH2 0x808 DUP4 PUSH2 0x489 JUMP JUMPDEST SWAP3 POP DUP3 DUP3 LT ISZERO PUSH2 0x81B JUMPI PUSH2 0x81A PUSH2 0x607 JUMP JUMPDEST JUMPDEST DUP3 DUP3 SUB SWAP1 POP SWAP3 SWAP2 POP POP JUMP JUMPDEST PUSH32 0x4E487B7100000000000000000000000000000000000000000000000000000000 PUSH1 0x0 MSTORE PUSH1 0x32 PUSH1 0x4 MSTORE PUSH1 0x24 PUSH1 0x0 REVERT INVALID LOG2 PUSH5 0x6970667358 0x22 SLT KECCAK256 0xB5 SAR 0xC6 CALLDATALOAD JUMPI DUP11 0xBB DUP12 CHAINID DUP6 PUSH3 0x9B826F MUL 0xB7 ADDMOD MSIZE CODESIZE SLOAD 0x25 SWAP7 0xD6 0xCB 0xE6 0xDD PUSH18 0x99113293B964736F6C634300080D00330000 "
				},
				"gasEstimates": {
					"creation": {
						"codeDepositCost": "437400",
						"executionCost": "51869",
						"totalCost": "489269"
					},
					"external": {
						"out()": "2471",
						"reset()": "infinite",
						"score()": "2473",
						"takeinput(uint256)": "infinite"
					},
					"internal": {
						"concatenate(string memory,string memory)": "infinite",
						"randdomnumbergenerator()": "infinite"
					}
				},
				"methodIdentifiers": {
					"out()": "b2a1449b",
					"reset()": "d826f88f",
					"score()": "efedc669",
					"takeinput(uint256)": "0e7ccaf0"
				}
			},
			"storageLayout": {
				"storage": [
					{
						"astId": 230,
						"contract": "contracts/4_OddEve.sol:oddEve",
						"label": "score",
						"offset": 0,
						"slot": "0",
						"type": "t_uint256"
					},
					{
						"astId": 232,
						"contract": "contracts/4_OddEve.sol:oddEve",
						"label": "out",
						"offset": 0,
						"slot": "1",
						"type": "t_bool"
					},
					{
						"astId": 234,
						"contract": "contracts/4_OddEve.sol:oddEve",
						"label": "randomvariable",
						"offset": 0,
						"slot": "2",
						"type": "t_uint256"
					}
				],
				"types": {
					"t_bool": {
						"encoding": "inplace",
						"label": "bool",
						"numberOfBytes": "1"
					},
					"t_uint256": {
						"encoding": "inplace",
						"label": "uint256",
						"numberOfBytes": "32"
					}
				}
			},
			"userdoc": {
				"kind": "user",
				"methods": {},
				"version": 1
			}
		}
	}
}