{
	"contracts/4_OddEve.sol": {
		"oddEve": {
			"abi": [
				{
					"inputs": [],
					"stateMutability": "nonpayable",
					"type": "constructor"
				},
				{
					"inputs": [],
					"name": "reset",
					"outputs": [
						{
							"internalType": "string",
							"name": "",
							"type": "string"
						}
					],
					"stateMutability": "nonpayable",
					"type": "function"
				},
				{
					"inputs": [],
					"name": "score",
					"outputs": [
						{
							"internalType": "uint256",
							"name": "",
							"type": "uint256"
						}
					],
					"stateMutability": "view",
					"type": "function"
				},
				{
					"inputs": [
						{
							"internalType": "uint256",
							"name": "_inputnumber",
							"type": "uint256"
						}
					],
					"name": "takeinput",
					"outputs": [
						{
							"internalType": "uint256",
							"name": "",
							"type": "uint256"
						}
					],
					"stateMutability": "nonpayable",
					"type": "function"
				}
			],
			"devdoc": {
				"kind": "dev",
				"methods": {},
				"version": 1
			},
			"evm": {
				"assembly": "    /* \"contracts/4_OddEve.sol\":72:1014  contract oddEve{\r... */\n  mstore(0x40, 0x80)\n    /* \"contracts/4_OddEve.sol\":144:216  constructor()\r... */\n  callvalue\n  dup1\n  iszero\n  tag_1\n  jumpi\n  0x00\n  dup1\n  revert\ntag_1:\n  pop\n    /* \"contracts/4_OddEve.sol\":182:183  0 */\n  0x00\n    /* \"contracts/4_OddEve.sol\":174:179  score */\n  dup1\n    /* \"contracts/4_OddEve.sol\":174:183  score = 0 */\n  dup2\n  swap1\n  sstore\n  pop\n    /* \"contracts/4_OddEve.sol\":207:208  4 */\n  0x04\n    /* \"contracts/4_OddEve.sol\":194:206  randomnumber */\n  0x01\n    /* \"contracts/4_OddEve.sol\":194:208  randomnumber=4 */\n  dup2\n  swap1\n  sstore\n  pop\n    /* \"contracts/4_OddEve.sol\":72:1014  contract oddEve{\r... */\n  dataSize(sub_0)\n  dup1\n  dataOffset(sub_0)\n  0x00\n  codecopy\n  0x00\n  return\nstop\n\nsub_0: assembly {\n        /* \"contracts/4_OddEve.sol\":72:1014  contract oddEve{\r... */\n      mstore(0x40, 0x80)\n      callvalue\n      dup1\n      iszero\n      tag_1\n      jumpi\n      0x00\n      dup1\n      revert\n    tag_1:\n      pop\n      jumpi(tag_2, lt(calldatasize, 0x04))\n      shr(0xe0, calldataload(0x00))\n      dup1\n      0x0e7ccaf0\n      eq\n      tag_3\n      jumpi\n      dup1\n      0xd826f88f\n      eq\n      tag_4\n      jumpi\n      dup1\n      0xefedc669\n      eq\n      tag_5\n      jumpi\n    tag_2:\n      0x00\n      dup1\n      revert\n        /* \"contracts/4_OddEve.sol\":355:895  function takeinput(uint _inputnumber) public  returns (uint){\r... */\n    tag_3:\n      tag_6\n      0x04\n      dup1\n      calldatasize\n      sub\n      dup2\n      add\n      swap1\n      tag_7\n      swap2\n      swap1\n      tag_8\n      jump\t// in\n    tag_7:\n      tag_9\n      jump\t// in\n    tag_6:\n      mload(0x40)\n      tag_10\n      swap2\n      swap1\n      tag_11\n      jump\t// in\n    tag_10:\n      mload(0x40)\n      dup1\n      swap2\n      sub\n      swap1\n      return\n        /* \"contracts/4_OddEve.sol\":903:1009  function reset() public  returns (string memory){\r... */\n    tag_4:\n      tag_12\n      tag_13\n      jump\t// in\n    tag_12:\n      mload(0x40)\n      tag_14\n      swap2\n      swap1\n      tag_15\n      jump\t// in\n    tag_14:\n      mload(0x40)\n      dup1\n      swap2\n      sub\n      swap1\n      return\n        /* \"contracts/4_OddEve.sol\":94:111  uint public score */\n    tag_5:\n      tag_16\n      tag_17\n      jump\t// in\n    tag_16:\n      mload(0x40)\n      tag_18\n      swap2\n      swap1\n      tag_11\n      jump\t// in\n    tag_18:\n      mload(0x40)\n      dup1\n      swap2\n      sub\n      swap1\n      return\n        /* \"contracts/4_OddEve.sol\":355:895  function takeinput(uint _inputnumber) public  returns (uint){\r... */\n    tag_9:\n        /* \"contracts/4_OddEve.sol\":410:414  uint */\n      0x00\n        /* \"contracts/4_OddEve.sol\":443:444  1 */\n      0x01\n        /* \"contracts/4_OddEve.sol\":430:442  _inputnumber */\n      dup3\n        /* \"contracts/4_OddEve.sol\":430:444  _inputnumber<1 */\n      lt\n        /* \"contracts/4_OddEve.sol\":430:463  _inputnumber<1 || _inputnumber >6 */\n      dup1\n      tag_20\n      jumpi\n      pop\n        /* \"contracts/4_OddEve.sol\":462:463  6 */\n      0x06\n        /* \"contracts/4_OddEve.sol\":448:460  _inputnumber */\n      dup3\n        /* \"contracts/4_OddEve.sol\":448:463  _inputnumber >6 */\n      gt\n        /* \"contracts/4_OddEve.sol\":430:463  _inputnumber<1 || _inputnumber >6 */\n    tag_20:\n        /* \"contracts/4_OddEve.sol\":426:888  if (_inputnumber<1 || _inputnumber >6){\r... */\n      iszero\n      tag_21\n      jumpi\n        /* \"contracts/4_OddEve.sol\":486:487  0 */\n      0x00\n        /* \"contracts/4_OddEve.sol\":479:487  return 0 */\n      swap1\n      pop\n      jump(tag_19)\n        /* \"contracts/4_OddEve.sol\":426:888  if (_inputnumber<1 || _inputnumber >6){\r... */\n    tag_21:\n        /* \"contracts/4_OddEve.sol\":623:635  _inputnumber */\n      dup2\n        /* \"contracts/4_OddEve.sol\":609:621  randomnumber */\n      sload(0x01)\n        /* \"contracts/4_OddEve.sol\":609:635  randomnumber==_inputnumber */\n      eq\n        /* \"contracts/4_OddEve.sol\":605:877  if (randomnumber==_inputnumber)\r... */\n      iszero\n      tag_23\n      jumpi\n        /* \"contracts/4_OddEve.sol\":676:688  _inputnumber */\n      dup2\n        /* \"contracts/4_OddEve.sol\":669:688  return _inputnumber */\n      swap1\n      pop\n      jump(tag_19)\n        /* \"contracts/4_OddEve.sol\":605:877  if (randomnumber==_inputnumber)\r... */\n    tag_23:\n        /* \"contracts/4_OddEve.sol\":792:804  randomnumber */\n      sload(0x01)\n        /* \"contracts/4_OddEve.sol\":784:789  score */\n      sload(0x00)\n        /* \"contracts/4_OddEve.sol\":784:804  score + randomnumber */\n      tag_25\n      swap2\n      swap1\n      tag_26\n      jump\t// in\n    tag_25:\n        /* \"contracts/4_OddEve.sol\":776:781  score */\n      0x00\n        /* \"contracts/4_OddEve.sol\":776:804  score = score + randomnumber */\n      dup2\n      swap1\n      sstore\n      pop\n        /* \"contracts/4_OddEve.sol\":830:842  _inputnumber */\n      dup2\n        /* \"contracts/4_OddEve.sol\":823:842  return _inputnumber */\n      swap1\n      pop\n        /* \"contracts/4_OddEve.sol\":355:895  function takeinput(uint _inputnumber) public  returns (uint){\r... */\n    tag_19:\n      swap2\n      swap1\n      pop\n      jump\t// out\n        /* \"contracts/4_OddEve.sol\":903:1009  function reset() public  returns (string memory){\r... */\n    tag_13:\n        /* \"contracts/4_OddEve.sol\":937:950  string memory */\n      0x60\n        /* \"contracts/4_OddEve.sol\":970:971  0 */\n      0x00\n        /* \"contracts/4_OddEve.sol\":962:967  score */\n      dup1\n        /* \"contracts/4_OddEve.sol\":962:971  score = 0 */\n      dup2\n      swap1\n      sstore\n      pop\n        /* \"contracts/4_OddEve.sol\":982:1001  return \"Game RESET\" */\n      mload(0x40)\n      dup1\n      0x40\n      add\n      0x40\n      mstore\n      dup1\n      0x0a\n      dup2\n      mstore\n      0x20\n      add\n      0x47616d6520524553455400000000000000000000000000000000000000000000\n      dup2\n      mstore\n      pop\n      swap1\n      pop\n        /* \"contracts/4_OddEve.sol\":903:1009  function reset() public  returns (string memory){\r... */\n      swap1\n      jump\t// out\n        /* \"contracts/4_OddEve.sol\":94:111  uint public score */\n    tag_17:\n      sload(0x00)\n      dup2\n      jump\t// out\n        /* \"#utility.yul\":7:146   */\n    tag_29:\n        /* \"#utility.yul\":53:58   */\n      0x00\n        /* \"#utility.yul\":91:97   */\n      dup2\n        /* \"#utility.yul\":78:98   */\n      calldataload\n        /* \"#utility.yul\":69:98   */\n      swap1\n      pop\n        /* \"#utility.yul\":107:140   */\n      tag_31\n        /* \"#utility.yul\":134:139   */\n      dup2\n        /* \"#utility.yul\":107:140   */\n      tag_32\n      jump\t// in\n    tag_31:\n        /* \"#utility.yul\":7:146   */\n      swap3\n      swap2\n      pop\n      pop\n      jump\t// out\n        /* \"#utility.yul\":152:481   */\n    tag_8:\n        /* \"#utility.yul\":211:217   */\n      0x00\n        /* \"#utility.yul\":260:262   */\n      0x20\n        /* \"#utility.yul\":248:257   */\n      dup3\n        /* \"#utility.yul\":239:246   */\n      dup5\n        /* \"#utility.yul\":235:258   */\n      sub\n        /* \"#utility.yul\":231:263   */\n      slt\n        /* \"#utility.yul\":228:347   */\n      iszero\n      tag_34\n      jumpi\n        /* \"#utility.yul\":266:345   */\n      tag_35\n      tag_36\n      jump\t// in\n    tag_35:\n        /* \"#utility.yul\":228:347   */\n    tag_34:\n        /* \"#utility.yul\":386:387   */\n      0x00\n        /* \"#utility.yul\":411:464   */\n      tag_37\n        /* \"#utility.yul\":456:463   */\n      dup5\n        /* \"#utility.yul\":447:453   */\n      dup3\n        /* \"#utility.yul\":436:445   */\n      dup6\n        /* \"#utility.yul\":432:454   */\n      add\n        /* \"#utility.yul\":411:464   */\n      tag_29\n      jump\t// in\n    tag_37:\n        /* \"#utility.yul\":401:464   */\n      swap2\n      pop\n        /* \"#utility.yul\":357:474   */\n      pop\n        /* \"#utility.yul\":152:481   */\n      swap3\n      swap2\n      pop\n      pop\n      jump\t// out\n        /* \"#utility.yul\":487:851   */\n    tag_38:\n        /* \"#utility.yul\":575:578   */\n      0x00\n        /* \"#utility.yul\":603:642   */\n      tag_40\n        /* \"#utility.yul\":636:641   */\n      dup3\n        /* \"#utility.yul\":603:642   */\n      tag_41\n      jump\t// in\n    tag_40:\n        /* \"#utility.yul\":658:729   */\n      tag_42\n        /* \"#utility.yul\":722:728   */\n      dup2\n        /* \"#utility.yul\":717:720   */\n      dup6\n        /* \"#utility.yul\":658:729   */\n      tag_43\n      jump\t// in\n    tag_42:\n        /* \"#utility.yul\":651:729   */\n      swap4\n      pop\n        /* \"#utility.yul\":738:790   */\n      tag_44\n        /* \"#utility.yul\":783:789   */\n      dup2\n        /* \"#utility.yul\":778:781   */\n      dup6\n        /* \"#utility.yul\":771:775   */\n      0x20\n        /* \"#utility.yul\":764:769   */\n      dup7\n        /* \"#utility.yul\":760:776   */\n      add\n        /* \"#utility.yul\":738:790   */\n      tag_45\n      jump\t// in\n    tag_44:\n        /* \"#utility.yul\":815:844   */\n      tag_46\n        /* \"#utility.yul\":837:843   */\n      dup2\n        /* \"#utility.yul\":815:844   */\n      tag_47\n      jump\t// in\n    tag_46:\n        /* \"#utility.yul\":810:813   */\n      dup5\n        /* \"#utility.yul\":806:845   */\n      add\n        /* \"#utility.yul\":799:845   */\n      swap2\n      pop\n        /* \"#utility.yul\":579:851   */\n      pop\n        /* \"#utility.yul\":487:851   */\n      swap3\n      swap2\n      pop\n      pop\n      jump\t// out\n        /* \"#utility.yul\":857:975   */\n    tag_48:\n        /* \"#utility.yul\":944:968   */\n      tag_50\n        /* \"#utility.yul\":962:967   */\n      dup2\n        /* \"#utility.yul\":944:968   */\n      tag_51\n      jump\t// in\n    tag_50:\n        /* \"#utility.yul\":939:942   */\n      dup3\n        /* \"#utility.yul\":932:969   */\n      mstore\n        /* \"#utility.yul\":857:975   */\n      pop\n      pop\n      jump\t// out\n        /* \"#utility.yul\":981:1294   */\n    tag_15:\n        /* \"#utility.yul\":1094:1098   */\n      0x00\n        /* \"#utility.yul\":1132:1134   */\n      0x20\n        /* \"#utility.yul\":1121:1130   */\n      dup3\n        /* \"#utility.yul\":1117:1135   */\n      add\n        /* \"#utility.yul\":1109:1135   */\n      swap1\n      pop\n        /* \"#utility.yul\":1181:1190   */\n      dup2\n        /* \"#utility.yul\":1175:1179   */\n      dup2\n        /* \"#utility.yul\":1171:1191   */\n      sub\n        /* \"#utility.yul\":1167:1168   */\n      0x00\n        /* \"#utility.yul\":1156:1165   */\n      dup4\n        /* \"#utility.yul\":1152:1169   */\n      add\n        /* \"#utility.yul\":1145:1192   */\n      mstore\n        /* \"#utility.yul\":1209:1287   */\n      tag_53\n        /* \"#utility.yul\":1282:1286   */\n      dup2\n        /* \"#utility.yul\":1273:1279   */\n      dup5\n        /* \"#utility.yul\":1209:1287   */\n      tag_38\n      jump\t// in\n    tag_53:\n        /* \"#utility.yul\":1201:1287   */\n      swap1\n      pop\n        /* \"#utility.yul\":981:1294   */\n      swap3\n      swap2\n      pop\n      pop\n      jump\t// out\n        /* \"#utility.yul\":1300:1522   */\n    tag_11:\n        /* \"#utility.yul\":1393:1397   */\n      0x00\n        /* \"#utility.yul\":1431:1433   */\n      0x20\n        /* \"#utility.yul\":1420:1429   */\n      dup3\n        /* \"#utility.yul\":1416:1434   */\n      add\n        /* \"#utility.yul\":1408:1434   */\n      swap1\n      pop\n        /* \"#utility.yul\":1444:1515   */\n      tag_55\n        /* \"#utility.yul\":1512:1513   */\n      0x00\n        /* \"#utility.yul\":1501:1510   */\n      dup4\n        /* \"#utility.yul\":1497:1514   */\n      add\n        /* \"#utility.yul\":1488:1494   */\n      dup5\n        /* \"#utility.yul\":1444:1515   */\n      tag_48\n      jump\t// in\n    tag_55:\n        /* \"#utility.yul\":1300:1522   */\n      swap3\n      swap2\n      pop\n      pop\n      jump\t// out\n        /* \"#utility.yul\":1609:1708   */\n    tag_41:\n        /* \"#utility.yul\":1661:1667   */\n      0x00\n        /* \"#utility.yul\":1695:1700   */\n      dup2\n        /* \"#utility.yul\":1689:1701   */\n      mload\n        /* \"#utility.yul\":1679:1701   */\n      swap1\n      pop\n        /* \"#utility.yul\":1609:1708   */\n      swap2\n      swap1\n      pop\n      jump\t// out\n        /* \"#utility.yul\":1714:1883   */\n    tag_43:\n        /* \"#utility.yul\":1798:1809   */\n      0x00\n        /* \"#utility.yul\":1832:1838   */\n      dup3\n        /* \"#utility.yul\":1827:1830   */\n      dup3\n        /* \"#utility.yul\":1820:1839   */\n      mstore\n        /* \"#utility.yul\":1872:1876   */\n      0x20\n        /* \"#utility.yul\":1867:1870   */\n      dup3\n        /* \"#utility.yul\":1863:1877   */\n      add\n        /* \"#utility.yul\":1848:1877   */\n      swap1\n      pop\n        /* \"#utility.yul\":1714:1883   */\n      swap3\n      swap2\n      pop\n      pop\n      jump\t// out\n        /* \"#utility.yul\":1889:2194   */\n    tag_26:\n        /* \"#utility.yul\":1929:1932   */\n      0x00\n        /* \"#utility.yul\":1948:1968   */\n      tag_61\n        /* \"#utility.yul\":1966:1967   */\n      dup3\n        /* \"#utility.yul\":1948:1968   */\n      tag_51\n      jump\t// in\n    tag_61:\n        /* \"#utility.yul\":1943:1968   */\n      swap2\n      pop\n        /* \"#utility.yul\":1982:2002   */\n      tag_62\n        /* \"#utility.yul\":2000:2001   */\n      dup4\n        /* \"#utility.yul\":1982:2002   */\n      tag_51\n      jump\t// in\n    tag_62:\n        /* \"#utility.yul\":1977:2002   */\n      swap3\n      pop\n        /* \"#utility.yul\":2136:2137   */\n      dup3\n        /* \"#utility.yul\":2068:2134   */\n      0xffffffffffffffffffffffffffffffffffffffffffffffffffffffffffffffff\n        /* \"#utility.yul\":2064:2138   */\n      sub\n        /* \"#utility.yul\":2061:2062   */\n      dup3\n        /* \"#utility.yul\":2058:2139   */\n      gt\n        /* \"#utility.yul\":2055:2162   */\n      iszero\n      tag_63\n      jumpi\n        /* \"#utility.yul\":2142:2160   */\n      tag_64\n      tag_65\n      jump\t// in\n    tag_64:\n        /* \"#utility.yul\":2055:2162   */\n    tag_63:\n        /* \"#utility.yul\":2186:2187   */\n      dup3\n        /* \"#utility.yul\":2183:2184   */\n      dup3\n        /* \"#utility.yul\":2179:2188   */\n      add\n        /* \"#utility.yul\":2172:2188   */\n      swap1\n      pop\n        /* \"#utility.yul\":1889:2194   */\n      swap3\n      swap2\n      pop\n      pop\n      jump\t// out\n        /* \"#utility.yul\":2200:2277   */\n    tag_51:\n        /* \"#utility.yul\":2237:2244   */\n      0x00\n        /* \"#utility.yul\":2266:2271   */\n      dup2\n        /* \"#utility.yul\":2255:2271   */\n      swap1\n      pop\n        /* \"#utility.yul\":2200:2277   */\n      swap2\n      swap1\n      pop\n      jump\t// out\n        /* \"#utility.yul\":2283:2590   */\n    tag_45:\n        /* \"#utility.yul\":2351:2352   */\n      0x00\n        /* \"#utility.yul\":2361:2474   */\n    tag_68:\n        /* \"#utility.yul\":2375:2381   */\n      dup4\n        /* \"#utility.yul\":2372:2373   */\n      dup2\n        /* \"#utility.yul\":2369:2382   */\n      lt\n        /* \"#utility.yul\":2361:2474   */\n      iszero\n      tag_70\n      jumpi\n        /* \"#utility.yul\":2460:2461   */\n      dup1\n        /* \"#utility.yul\":2455:2458   */\n      dup3\n        /* \"#utility.yul\":2451:2462   */\n      add\n        /* \"#utility.yul\":2445:2463   */\n      mload\n        /* \"#utility.yul\":2441:2442   */\n      dup2\n        /* \"#utility.yul\":2436:2439   */\n      dup5\n        /* \"#utility.yul\":2432:2443   */\n      add\n        /* \"#utility.yul\":2425:2464   */\n      mstore\n        /* \"#utility.yul\":2397:2399   */\n      0x20\n        /* \"#utility.yul\":2394:2395   */\n      dup2\n        /* \"#utility.yul\":2390:2400   */\n      add\n        /* \"#utility.yul\":2385:2400   */\n      swap1\n      pop\n        /* \"#utility.yul\":2361:2474   */\n      jump(tag_68)\n    tag_70:\n        /* \"#utility.yul\":2492:2498   */\n      dup4\n        /* \"#utility.yul\":2489:2490   */\n      dup2\n        /* \"#utility.yul\":2486:2499   */\n      gt\n        /* \"#utility.yul\":2483:2584   */\n      iszero\n      tag_71\n      jumpi\n        /* \"#utility.yul\":2572:2573   */\n      0x00\n        /* \"#utility.yul\":2563:2569   */\n      dup5\n        /* \"#utility.yul\":2558:2561   */\n      dup5\n        /* \"#utility.yul\":2554:2570   */\n      add\n        /* \"#utility.yul\":2547:2574   */\n      mstore\n        /* \"#utility.yul\":2483:2584   */\n    tag_71:\n        /* \"#utility.yul\":2332:2590   */\n      pop\n        /* \"#utility.yul\":2283:2590   */\n      pop\n      pop\n      pop\n      jump\t// out\n        /* \"#utility.yul\":2596:2776   */\n    tag_65:\n        /* \"#utility.yul\":2644:2721   */\n      0x4e487b7100000000000000000000000000000000000000000000000000000000\n        /* \"#utility.yul\":2641:2642   */\n      0x00\n        /* \"#utility.yul\":2634:2722   */\n      mstore\n        /* \"#utility.yul\":2741:2745   */\n      0x11\n        /* \"#utility.yul\":2738:2739   */\n      0x04\n        /* \"#utility.yul\":2731:2746   */\n      mstore\n        /* \"#utility.yul\":2765:2769   */\n      0x24\n        /* \"#utility.yul\":2762:2763   */\n      0x00\n        /* \"#utility.yul\":2755:2770   */\n      revert\n        /* \"#utility.yul\":2905:3022   */\n    tag_36:\n        /* \"#utility.yul\":3014:3015   */\n      0x00\n        /* \"#utility.yul\":3011:3012   */\n      dup1\n        /* \"#utility.yul\":3004:3016   */\n      revert\n        /* \"#utility.yul\":3028:3130   */\n    tag_47:\n        /* \"#utility.yul\":3069:3075   */\n      0x00\n        /* \"#utility.yul\":3120:3122   */\n      0x1f\n        /* \"#utility.yul\":3116:3123   */\n      not\n        /* \"#utility.yul\":3111:3113   */\n      0x1f\n        /* \"#utility.yul\":3104:3109   */\n      dup4\n        /* \"#utility.yul\":3100:3114   */\n      add\n        /* \"#utility.yul\":3096:3124   */\n      and\n        /* \"#utility.yul\":3086:3124   */\n      swap1\n      pop\n        /* \"#utility.yul\":3028:3130   */\n      swap2\n      swap1\n      pop\n      jump\t// out\n        /* \"#utility.yul\":3136:3258   */\n    tag_32:\n        /* \"#utility.yul\":3209:3233   */\n      tag_78\n        /* \"#utility.yul\":3227:3232   */\n      dup2\n        /* \"#utility.yul\":3209:3233   */\n      tag_51\n      jump\t// in\n    tag_78:\n        /* \"#utility.yul\":3202:3207   */\n      dup2\n        /* \"#utility.yul\":3199:3234   */\n      eq\n        /* \"#utility.yul\":3189:3252   */\n      tag_79\n      jumpi\n        /* \"#utility.yul\":3248:3249   */\n      0x00\n        /* \"#utility.yul\":3245:3246   */\n      dup1\n        /* \"#utility.yul\":3238:3250   */\n      revert\n        /* \"#utility.yul\":3189:3252   */\n    tag_79:\n        /* \"#utility.yul\":3136:3258   */\n      pop\n      jump\t// out\n\n    auxdata: 0xa264697066735822122071a5c926036fc7588da43ecfbcdc03e4dce415935a2c27412ef3a2468e87668864736f6c63430008070033\n}\n",
				"bytecode": {
					"linkReferences": {},
					"object": "608060405234801561001057600080fd5b506000808190555060046001819055506103548061002f6000396000f3fe608060405234801561001057600080fd5b50600436106100415760003560e01c80630e7ccaf014610046578063d826f88f14610076578063efedc66914610094575b600080fd5b610060600480360381019061005b9190610161565b6100b2565b60405161006d91906101f8565b60405180910390f35b61007e610102565b60405161008b91906101d6565b60405180910390f35b61009c610146565b6040516100a991906101f8565b60405180910390f35b600060018210806100c35750600682115b156100d157600090506100fd565b8160015414156100e3578190506100fd565b6001546000546100f3919061022f565b6000819055508190505b919050565b6060600080819055506040518060400160405280600a81526020017f47616d6520524553455400000000000000000000000000000000000000000000815250905090565b60005481565b60008135905061015b81610307565b92915050565b600060208284031215610177576101766102f1565b5b60006101858482850161014c565b91505092915050565b600061019982610213565b6101a3818561021e565b93506101b381856020860161028f565b6101bc816102f6565b840191505092915050565b6101d081610285565b82525050565b600060208201905081810360008301526101f0818461018e565b905092915050565b600060208201905061020d60008301846101c7565b92915050565b600081519050919050565b600082825260208201905092915050565b600061023a82610285565b915061024583610285565b9250827fffffffffffffffffffffffffffffffffffffffffffffffffffffffffffffffff0382111561027a576102796102c2565b5b828201905092915050565b6000819050919050565b60005b838110156102ad578082015181840152602081019050610292565b838111156102bc576000848401525b50505050565b7f4e487b7100000000000000000000000000000000000000000000000000000000600052601160045260246000fd5b600080fd5b6000601f19601f8301169050919050565b61031081610285565b811461031b57600080fd5b5056fea264697066735822122071a5c926036fc7588da43ecfbcdc03e4dce415935a2c27412ef3a2468e87668864736f6c63430008070033",
					"opcodes": "PUSH1 0x80 PUSH1 0x40 MSTORE CALLVALUE DUP1 ISZERO PUSH2 0x10 JUMPI PUSH1 0x0 DUP1 REVERT JUMPDEST POP PUSH1 0x0 DUP1 DUP2 SWAP1 SSTORE POP PUSH1 0x4 PUSH1 0x1 DUP2 SWAP1 SSTORE POP PUSH2 0x354 DUP1 PUSH2 0x2F PUSH1 0x0 CODECOPY PUSH1 0x0 RETURN INVALID PUSH1 0x80 PUSH1 0x40 MSTORE CALLVALUE DUP1 ISZERO PUSH2 0x10 JUMPI PUSH1 0x0 DUP1 REVERT JUMPDEST POP PUSH1 0x4 CALLDATASIZE LT PUSH2 0x41 JUMPI PUSH1 0x0 CALLDATALOAD PUSH1 0xE0 SHR DUP1 PUSH4 0xE7CCAF0 EQ PUSH2 0x46 JUMPI DUP1 PUSH4 0xD826F88F EQ PUSH2 0x76 JUMPI DUP1 PUSH4 0xEFEDC669 EQ PUSH2 0x94 JUMPI JUMPDEST PUSH1 0x0 DUP1 REVERT JUMPDEST PUSH2 0x60 PUSH1 0x4 DUP1 CALLDATASIZE SUB DUP2 ADD SWAP1 PUSH2 0x5B SWAP2 SWAP1 PUSH2 0x161 JUMP JUMPDEST PUSH2 0xB2 JUMP JUMPDEST PUSH1 0x40 MLOAD PUSH2 0x6D SWAP2 SWAP1 PUSH2 0x1F8 JUMP JUMPDEST PUSH1 0x40 MLOAD DUP1 SWAP2 SUB SWAP1 RETURN JUMPDEST PUSH2 0x7E PUSH2 0x102 JUMP JUMPDEST PUSH1 0x40 MLOAD PUSH2 0x8B SWAP2 SWAP1 PUSH2 0x1D6 JUMP JUMPDEST PUSH1 0x40 MLOAD DUP1 SWAP2 SUB SWAP1 RETURN JUMPDEST PUSH2 0x9C PUSH2 0x146 JUMP JUMPDEST PUSH1 0x40 MLOAD PUSH2 0xA9 SWAP2 SWAP1 PUSH2 0x1F8 JUMP JUMPDEST PUSH1 0x40 MLOAD DUP1 SWAP2 SUB SWAP1 RETURN JUMPDEST PUSH1 0x0 PUSH1 0x1 DUP3 LT DUP1 PUSH2 0xC3 JUMPI POP PUSH1 0x6 DUP3 GT JUMPDEST ISZERO PUSH2 0xD1 JUMPI PUSH1 0x0 SWAP1 POP PUSH2 0xFD JUMP JUMPDEST DUP2 PUSH1 0x1 SLOAD EQ ISZERO PUSH2 0xE3 JUMPI DUP2 SWAP1 POP PUSH2 0xFD JUMP JUMPDEST PUSH1 0x1 SLOAD PUSH1 0x0 SLOAD PUSH2 0xF3 SWAP2 SWAP1 PUSH2 0x22F JUMP JUMPDEST PUSH1 0x0 DUP2 SWAP1 SSTORE POP DUP2 SWAP1 POP JUMPDEST SWAP2 SWAP1 POP JUMP JUMPDEST PUSH1 0x60 PUSH1 0x0 DUP1 DUP2 SWAP1 SSTORE POP PUSH1 0x40 MLOAD DUP1 PUSH1 0x40 ADD PUSH1 0x40 MSTORE DUP1 PUSH1 0xA DUP2 MSTORE PUSH1 0x20 ADD PUSH32 0x47616D6520524553455400000000000000000000000000000000000000000000 DUP2 MSTORE POP SWAP1 POP SWAP1 JUMP JUMPDEST PUSH1 0x0 SLOAD DUP2 JUMP JUMPDEST PUSH1 0x0 DUP2 CALLDATALOAD SWAP1 POP PUSH2 0x15B DUP2 PUSH2 0x307 JUMP JUMPDEST SWAP3 SWAP2 POP POP JUMP JUMPDEST PUSH1 0x0 PUSH1 0x20 DUP3 DUP5 SUB SLT ISZERO PUSH2 0x177 JUMPI PUSH2 0x176 PUSH2 0x2F1 JUMP JUMPDEST JUMPDEST PUSH1 0x0 PUSH2 0x185 DUP5 DUP3 DUP6 ADD PUSH2 0x14C JUMP JUMPDEST SWAP2 POP POP SWAP3 SWAP2 POP POP JUMP JUMPDEST PUSH1 0x0 PUSH2 0x199 DUP3 PUSH2 0x213 JUMP JUMPDEST PUSH2 0x1A3 DUP2 DUP6 PUSH2 0x21E JUMP JUMPDEST SWAP4 POP PUSH2 0x1B3 DUP2 DUP6 PUSH1 0x20 DUP7 ADD PUSH2 0x28F JUMP JUMPDEST PUSH2 0x1BC DUP2 PUSH2 0x2F6 JUMP JUMPDEST DUP5 ADD SWAP2 POP POP SWAP3 SWAP2 POP POP JUMP JUMPDEST PUSH2 0x1D0 DUP2 PUSH2 0x285 JUMP JUMPDEST DUP3 MSTORE POP POP JUMP JUMPDEST PUSH1 0x0 PUSH1 0x20 DUP3 ADD SWAP1 POP DUP2 DUP2 SUB PUSH1 0x0 DUP4 ADD MSTORE PUSH2 0x1F0 DUP2 DUP5 PUSH2 0x18E JUMP JUMPDEST SWAP1 POP SWAP3 SWAP2 POP POP JUMP JUMPDEST PUSH1 0x0 PUSH1 0x20 DUP3 ADD SWAP1 POP PUSH2 0x20D PUSH1 0x0 DUP4 ADD DUP5 PUSH2 0x1C7 JUMP JUMPDEST SWAP3 SWAP2 POP POP JUMP JUMPDEST PUSH1 0x0 DUP2 MLOAD SWAP1 POP SWAP2 SWAP1 POP JUMP JUMPDEST PUSH1 0x0 DUP3 DUP3 MSTORE PUSH1 0x20 DUP3 ADD SWAP1 POP SWAP3 SWAP2 POP POP JUMP JUMPDEST PUSH1 0x0 PUSH2 0x23A DUP3 PUSH2 0x285 JUMP JUMPDEST SWAP2 POP PUSH2 0x245 DUP4 PUSH2 0x285 JUMP JUMPDEST SWAP3 POP DUP3 PUSH32 0xFFFFFFFFFFFFFFFFFFFFFFFFFFFFFFFFFFFFFFFFFFFFFFFFFFFFFFFFFFFFFFFF SUB DUP3 GT ISZERO PUSH2 0x27A JUMPI PUSH2 0x279 PUSH2 0x2C2 JUMP JUMPDEST JUMPDEST DUP3 DUP3 ADD SWAP1 POP SWAP3 SWAP2 POP POP JUMP JUMPDEST PUSH1 0x0 DUP2 SWAP1 POP SWAP2 SWAP1 POP JUMP JUMPDEST PUSH1 0x0 JUMPDEST DUP4 DUP2 LT ISZERO PUSH2 0x2AD JUMPI DUP1 DUP3 ADD MLOAD DUP2 DUP5 ADD MSTORE PUSH1 0x20 DUP2 ADD SWAP1 POP PUSH2 0x292 JUMP JUMPDEST DUP4 DUP2 GT ISZERO PUSH2 0x2BC JUMPI PUSH1 0x0 DUP5 DUP5 ADD MSTORE JUMPDEST POP POP POP POP JUMP JUMPDEST PUSH32 0x4E487B7100000000000000000000000000000000000000000000000000000000 PUSH1 0x0 MSTORE PUSH1 0x11 PUSH1 0x4 MSTORE PUSH1 0x24 PUSH1 0x0 REVERT JUMPDEST PUSH1 0x0 DUP1 REVERT JUMPDEST PUSH1 0x0 PUSH1 0x1F NOT PUSH1 0x1F DUP4 ADD AND SWAP1 POP SWAP2 SWAP1 POP JUMP JUMPDEST PUSH2 0x310 DUP2 PUSH2 0x285 JUMP JUMPDEST DUP2 EQ PUSH2 0x31B JUMPI PUSH1 0x0 DUP1 REVERT JUMPDEST POP JUMP INVALID LOG2 PUSH5 0x6970667358 0x22 SLT KECCAK256 PUSH18 0xA5C926036FC7588DA43ECFBCDC03E4DCE415 SWAP4 GAS 0x2C 0x27 COINBASE 0x2E RETURN LOG2 CHAINID DUP15 DUP8 PUSH7 0x8864736F6C6343 STOP ADDMOD SMOD STOP CALLER "
				},
				"gasEstimates": {
					"creation": {
						"codeDepositCost": "170400",
						"executionCost": "27342",
						"totalCost": "197742"
					},
					"external": {
						"reset()": "infinite",
						"score()": "2451",
						"takeinput(uint256)": "infinite"
					}
				},
				"methodIdentifiers": {
					"reset()": "d826f88f",
					"score()": "efedc669",
					"takeinput(uint256)": "0e7ccaf0"
				}
			},
			"storageLayout": {
				"storage": [
					{
						"astId": 3,
						"contract": "contracts/4_OddEve.sol:oddEve",
						"label": "score",
						"offset": 0,
						"slot": "0",
						"type": "t_uint256"
					},
					{
						"astId": 5,
						"contract": "contracts/4_OddEve.sol:oddEve",
						"label": "randomnumber",
						"offset": 0,
						"slot": "1",
						"type": "t_uint256"
					}
				],
				"types": {
					"t_uint256": {
						"encoding": "inplace",
						"label": "uint256",
						"numberOfBytes": "32"
					}
				}
			},
			"userdoc": {
				"kind": "user",
				"methods": {},
				"version": 1
			}
		}
	}
}