{
	"contracts/4_OddEve.sol": {
		"oddEve": {
			"abi": [
				{
					"inputs": [],
					"stateMutability": "nonpayable",
					"type": "constructor"
				},
				{
					"inputs": [],
					"name": "reset",
					"outputs": [
						{
							"internalType": "string",
							"name": "",
							"type": "string"
						}
					],
					"stateMutability": "nonpayable",
					"type": "function"
				},
				{
					"inputs": [],
					"name": "score",
					"outputs": [
						{
							"internalType": "uint256",
							"name": "",
							"type": "uint256"
						}
					],
					"stateMutability": "view",
					"type": "function"
				},
				{
					"inputs": [
						{
							"internalType": "uint256",
							"name": "_inputnumber",
							"type": "uint256"
						}
					],
					"name": "takeinput",
					"outputs": [
						{
							"internalType": "uint256",
							"name": "",
							"type": "uint256"
						}
					],
					"stateMutability": "payable",
					"type": "function"
				}
			],
			"devdoc": {
				"kind": "dev",
				"methods": {},
				"version": 1
			},
			"evm": {
				"assembly": "    /* \"contracts/4_OddEve.sol\":72:1022  contract oddEve{\r... */\n  mstore(0x40, 0x80)\n    /* \"contracts/4_OddEve.sol\":144:216  constructor()\r... */\n  callvalue\n  dup1\n  iszero\n  tag_1\n  jumpi\n  0x00\n  dup1\n  revert\ntag_1:\n  pop\n    /* \"contracts/4_OddEve.sol\":182:183  0 */\n  0x00\n    /* \"contracts/4_OddEve.sol\":174:179  score */\n  dup1\n    /* \"contracts/4_OddEve.sol\":174:183  score = 0 */\n  dup2\n  swap1\n  sstore\n  pop\n    /* \"contracts/4_OddEve.sol\":207:208  4 */\n  0x04\n    /* \"contracts/4_OddEve.sol\":194:206  randomnumber */\n  0x01\n    /* \"contracts/4_OddEve.sol\":194:208  randomnumber=4 */\n  dup2\n  swap1\n  sstore\n  pop\n    /* \"contracts/4_OddEve.sol\":72:1022  contract oddEve{\r... */\n  dataSize(sub_0)\n  dup1\n  dataOffset(sub_0)\n  0x00\n  codecopy\n  0x00\n  return\nstop\n\nsub_0: assembly {\n        /* \"contracts/4_OddEve.sol\":72:1022  contract oddEve{\r... */\n      mstore(0x40, 0x80)\n      jumpi(tag_1, lt(calldatasize, 0x04))\n      shr(0xe0, calldataload(0x00))\n      dup1\n      0x0e7ccaf0\n      eq\n      tag_2\n      jumpi\n      dup1\n      0xd826f88f\n      eq\n      tag_3\n      jumpi\n      dup1\n      0xefedc669\n      eq\n      tag_4\n      jumpi\n    tag_1:\n      0x00\n      dup1\n      revert\n        /* \"contracts/4_OddEve.sol\":355:903  function takeinput(uint _inputnumber) public  payable returns (uint){\r... */\n    tag_2:\n      tag_5\n      0x04\n      dup1\n      calldatasize\n      sub\n      dup2\n      add\n      swap1\n      tag_6\n      swap2\n      swap1\n      tag_7\n      jump\t// in\n    tag_6:\n      tag_8\n      jump\t// in\n    tag_5:\n      mload(0x40)\n      tag_9\n      swap2\n      swap1\n      tag_10\n      jump\t// in\n    tag_9:\n      mload(0x40)\n      dup1\n      swap2\n      sub\n      swap1\n      return\n        /* \"contracts/4_OddEve.sol\":911:1017  function reset() public  returns (string memory){\r... */\n    tag_3:\n      callvalue\n      dup1\n      iszero\n      tag_11\n      jumpi\n      0x00\n      dup1\n      revert\n    tag_11:\n      pop\n      tag_12\n      tag_13\n      jump\t// in\n    tag_12:\n      mload(0x40)\n      tag_14\n      swap2\n      swap1\n      tag_15\n      jump\t// in\n    tag_14:\n      mload(0x40)\n      dup1\n      swap2\n      sub\n      swap1\n      return\n        /* \"contracts/4_OddEve.sol\":94:111  uint public score */\n    tag_4:\n      callvalue\n      dup1\n      iszero\n      tag_16\n      jumpi\n      0x00\n      dup1\n      revert\n    tag_16:\n      pop\n      tag_17\n      tag_18\n      jump\t// in\n    tag_17:\n      mload(0x40)\n      tag_19\n      swap2\n      swap1\n      tag_10\n      jump\t// in\n    tag_19:\n      mload(0x40)\n      dup1\n      swap2\n      sub\n      swap1\n      return\n        /* \"contracts/4_OddEve.sol\":355:903  function takeinput(uint _inputnumber) public  payable returns (uint){\r... */\n    tag_8:\n        /* \"contracts/4_OddEve.sol\":418:422  uint */\n      0x00\n        /* \"contracts/4_OddEve.sol\":451:452  1 */\n      0x01\n        /* \"contracts/4_OddEve.sol\":438:450  _inputnumber */\n      dup3\n        /* \"contracts/4_OddEve.sol\":438:452  _inputnumber<1 */\n      lt\n        /* \"contracts/4_OddEve.sol\":438:471  _inputnumber<1 || _inputnumber >6 */\n      dup1\n      tag_21\n      jumpi\n      pop\n        /* \"contracts/4_OddEve.sol\":470:471  6 */\n      0x06\n        /* \"contracts/4_OddEve.sol\":456:468  _inputnumber */\n      dup3\n        /* \"contracts/4_OddEve.sol\":456:471  _inputnumber >6 */\n      gt\n        /* \"contracts/4_OddEve.sol\":438:471  _inputnumber<1 || _inputnumber >6 */\n    tag_21:\n        /* \"contracts/4_OddEve.sol\":434:896  if (_inputnumber<1 || _inputnumber >6){\r... */\n      iszero\n      tag_22\n      jumpi\n        /* \"contracts/4_OddEve.sol\":494:495  0 */\n      0x00\n        /* \"contracts/4_OddEve.sol\":487:495  return 0 */\n      swap1\n      pop\n      jump(tag_20)\n        /* \"contracts/4_OddEve.sol\":434:896  if (_inputnumber<1 || _inputnumber >6){\r... */\n    tag_22:\n        /* \"contracts/4_OddEve.sol\":631:643  _inputnumber */\n      dup2\n        /* \"contracts/4_OddEve.sol\":617:629  randomnumber */\n      sload(0x01)\n        /* \"contracts/4_OddEve.sol\":617:643  randomnumber==_inputnumber */\n      eq\n        /* \"contracts/4_OddEve.sol\":613:885  if (randomnumber==_inputnumber)\r... */\n      iszero\n      tag_24\n      jumpi\n        /* \"contracts/4_OddEve.sol\":684:696  _inputnumber */\n      dup2\n        /* \"contracts/4_OddEve.sol\":677:696  return _inputnumber */\n      swap1\n      pop\n      jump(tag_20)\n        /* \"contracts/4_OddEve.sol\":613:885  if (randomnumber==_inputnumber)\r... */\n    tag_24:\n        /* \"contracts/4_OddEve.sol\":800:812  randomnumber */\n      sload(0x01)\n        /* \"contracts/4_OddEve.sol\":792:797  score */\n      sload(0x00)\n        /* \"contracts/4_OddEve.sol\":792:812  score + randomnumber */\n      tag_26\n      swap2\n      swap1\n      tag_27\n      jump\t// in\n    tag_26:\n        /* \"contracts/4_OddEve.sol\":784:789  score */\n      0x00\n        /* \"contracts/4_OddEve.sol\":784:812  score = score + randomnumber */\n      dup2\n      swap1\n      sstore\n      pop\n        /* \"contracts/4_OddEve.sol\":838:850  _inputnumber */\n      dup2\n        /* \"contracts/4_OddEve.sol\":831:850  return _inputnumber */\n      swap1\n      pop\n        /* \"contracts/4_OddEve.sol\":355:903  function takeinput(uint _inputnumber) public  payable returns (uint){\r... */\n    tag_20:\n      swap2\n      swap1\n      pop\n      jump\t// out\n        /* \"contracts/4_OddEve.sol\":911:1017  function reset() public  returns (string memory){\r... */\n    tag_13:\n        /* \"contracts/4_OddEve.sol\":945:958  string memory */\n      0x60\n        /* \"contracts/4_OddEve.sol\":978:979  0 */\n      0x00\n        /* \"contracts/4_OddEve.sol\":970:975  score */\n      dup1\n        /* \"contracts/4_OddEve.sol\":970:979  score = 0 */\n      dup2\n      swap1\n      sstore\n      pop\n        /* \"contracts/4_OddEve.sol\":990:1009  return \"Game RESET\" */\n      mload(0x40)\n      dup1\n      0x40\n      add\n      0x40\n      mstore\n      dup1\n      0x0a\n      dup2\n      mstore\n      0x20\n      add\n      0x47616d6520524553455400000000000000000000000000000000000000000000\n      dup2\n      mstore\n      pop\n      swap1\n      pop\n        /* \"contracts/4_OddEve.sol\":911:1017  function reset() public  returns (string memory){\r... */\n      swap1\n      jump\t// out\n        /* \"contracts/4_OddEve.sol\":94:111  uint public score */\n    tag_18:\n      sload(0x00)\n      dup2\n      jump\t// out\n        /* \"#utility.yul\":7:146   */\n    tag_30:\n        /* \"#utility.yul\":53:58   */\n      0x00\n        /* \"#utility.yul\":91:97   */\n      dup2\n        /* \"#utility.yul\":78:98   */\n      calldataload\n        /* \"#utility.yul\":69:98   */\n      swap1\n      pop\n        /* \"#utility.yul\":107:140   */\n      tag_32\n        /* \"#utility.yul\":134:139   */\n      dup2\n        /* \"#utility.yul\":107:140   */\n      tag_33\n      jump\t// in\n    tag_32:\n        /* \"#utility.yul\":7:146   */\n      swap3\n      swap2\n      pop\n      pop\n      jump\t// out\n        /* \"#utility.yul\":152:481   */\n    tag_7:\n        /* \"#utility.yul\":211:217   */\n      0x00\n        /* \"#utility.yul\":260:262   */\n      0x20\n        /* \"#utility.yul\":248:257   */\n      dup3\n        /* \"#utility.yul\":239:246   */\n      dup5\n        /* \"#utility.yul\":235:258   */\n      sub\n        /* \"#utility.yul\":231:263   */\n      slt\n        /* \"#utility.yul\":228:347   */\n      iszero\n      tag_35\n      jumpi\n        /* \"#utility.yul\":266:345   */\n      tag_36\n      tag_37\n      jump\t// in\n    tag_36:\n        /* \"#utility.yul\":228:347   */\n    tag_35:\n        /* \"#utility.yul\":386:387   */\n      0x00\n        /* \"#utility.yul\":411:464   */\n      tag_38\n        /* \"#utility.yul\":456:463   */\n      dup5\n        /* \"#utility.yul\":447:453   */\n      dup3\n        /* \"#utility.yul\":436:445   */\n      dup6\n        /* \"#utility.yul\":432:454   */\n      add\n        /* \"#utility.yul\":411:464   */\n      tag_30\n      jump\t// in\n    tag_38:\n        /* \"#utility.yul\":401:464   */\n      swap2\n      pop\n        /* \"#utility.yul\":357:474   */\n      pop\n        /* \"#utility.yul\":152:481   */\n      swap3\n      swap2\n      pop\n      pop\n      jump\t// out\n        /* \"#utility.yul\":487:851   */\n    tag_39:\n        /* \"#utility.yul\":575:578   */\n      0x00\n        /* \"#utility.yul\":603:642   */\n      tag_41\n        /* \"#utility.yul\":636:641   */\n      dup3\n        /* \"#utility.yul\":603:642   */\n      tag_42\n      jump\t// in\n    tag_41:\n        /* \"#utility.yul\":658:729   */\n      tag_43\n        /* \"#utility.yul\":722:728   */\n      dup2\n        /* \"#utility.yul\":717:720   */\n      dup6\n        /* \"#utility.yul\":658:729   */\n      tag_44\n      jump\t// in\n    tag_43:\n        /* \"#utility.yul\":651:729   */\n      swap4\n      pop\n        /* \"#utility.yul\":738:790   */\n      tag_45\n        /* \"#utility.yul\":783:789   */\n      dup2\n        /* \"#utility.yul\":778:781   */\n      dup6\n        /* \"#utility.yul\":771:775   */\n      0x20\n        /* \"#utility.yul\":764:769   */\n      dup7\n        /* \"#utility.yul\":760:776   */\n      add\n        /* \"#utility.yul\":738:790   */\n      tag_46\n      jump\t// in\n    tag_45:\n        /* \"#utility.yul\":815:844   */\n      tag_47\n        /* \"#utility.yul\":837:843   */\n      dup2\n        /* \"#utility.yul\":815:844   */\n      tag_48\n      jump\t// in\n    tag_47:\n        /* \"#utility.yul\":810:813   */\n      dup5\n        /* \"#utility.yul\":806:845   */\n      add\n        /* \"#utility.yul\":799:845   */\n      swap2\n      pop\n        /* \"#utility.yul\":579:851   */\n      pop\n        /* \"#utility.yul\":487:851   */\n      swap3\n      swap2\n      pop\n      pop\n      jump\t// out\n        /* \"#utility.yul\":857:975   */\n    tag_49:\n        /* \"#utility.yul\":944:968   */\n      tag_51\n        /* \"#utility.yul\":962:967   */\n      dup2\n        /* \"#utility.yul\":944:968   */\n      tag_52\n      jump\t// in\n    tag_51:\n        /* \"#utility.yul\":939:942   */\n      dup3\n        /* \"#utility.yul\":932:969   */\n      mstore\n        /* \"#utility.yul\":857:975   */\n      pop\n      pop\n      jump\t// out\n        /* \"#utility.yul\":981:1294   */\n    tag_15:\n        /* \"#utility.yul\":1094:1098   */\n      0x00\n        /* \"#utility.yul\":1132:1134   */\n      0x20\n        /* \"#utility.yul\":1121:1130   */\n      dup3\n        /* \"#utility.yul\":1117:1135   */\n      add\n        /* \"#utility.yul\":1109:1135   */\n      swap1\n      pop\n        /* \"#utility.yul\":1181:1190   */\n      dup2\n        /* \"#utility.yul\":1175:1179   */\n      dup2\n        /* \"#utility.yul\":1171:1191   */\n      sub\n        /* \"#utility.yul\":1167:1168   */\n      0x00\n        /* \"#utility.yul\":1156:1165   */\n      dup4\n        /* \"#utility.yul\":1152:1169   */\n      add\n        /* \"#utility.yul\":1145:1192   */\n      mstore\n        /* \"#utility.yul\":1209:1287   */\n      tag_54\n        /* \"#utility.yul\":1282:1286   */\n      dup2\n        /* \"#utility.yul\":1273:1279   */\n      dup5\n        /* \"#utility.yul\":1209:1287   */\n      tag_39\n      jump\t// in\n    tag_54:\n        /* \"#utility.yul\":1201:1287   */\n      swap1\n      pop\n        /* \"#utility.yul\":981:1294   */\n      swap3\n      swap2\n      pop\n      pop\n      jump\t// out\n        /* \"#utility.yul\":1300:1522   */\n    tag_10:\n        /* \"#utility.yul\":1393:1397   */\n      0x00\n        /* \"#utility.yul\":1431:1433   */\n      0x20\n        /* \"#utility.yul\":1420:1429   */\n      dup3\n        /* \"#utility.yul\":1416:1434   */\n      add\n        /* \"#utility.yul\":1408:1434   */\n      swap1\n      pop\n        /* \"#utility.yul\":1444:1515   */\n      tag_56\n        /* \"#utility.yul\":1512:1513   */\n      0x00\n        /* \"#utility.yul\":1501:1510   */\n      dup4\n        /* \"#utility.yul\":1497:1514   */\n      add\n        /* \"#utility.yul\":1488:1494   */\n      dup5\n        /* \"#utility.yul\":1444:1515   */\n      tag_49\n      jump\t// in\n    tag_56:\n        /* \"#utility.yul\":1300:1522   */\n      swap3\n      swap2\n      pop\n      pop\n      jump\t// out\n        /* \"#utility.yul\":1609:1708   */\n    tag_42:\n        /* \"#utility.yul\":1661:1667   */\n      0x00\n        /* \"#utility.yul\":1695:1700   */\n      dup2\n        /* \"#utility.yul\":1689:1701   */\n      mload\n        /* \"#utility.yul\":1679:1701   */\n      swap1\n      pop\n        /* \"#utility.yul\":1609:1708   */\n      swap2\n      swap1\n      pop\n      jump\t// out\n        /* \"#utility.yul\":1714:1883   */\n    tag_44:\n        /* \"#utility.yul\":1798:1809   */\n      0x00\n        /* \"#utility.yul\":1832:1838   */\n      dup3\n        /* \"#utility.yul\":1827:1830   */\n      dup3\n        /* \"#utility.yul\":1820:1839   */\n      mstore\n        /* \"#utility.yul\":1872:1876   */\n      0x20\n        /* \"#utility.yul\":1867:1870   */\n      dup3\n        /* \"#utility.yul\":1863:1877   */\n      add\n        /* \"#utility.yul\":1848:1877   */\n      swap1\n      pop\n        /* \"#utility.yul\":1714:1883   */\n      swap3\n      swap2\n      pop\n      pop\n      jump\t// out\n        /* \"#utility.yul\":1889:2194   */\n    tag_27:\n        /* \"#utility.yul\":1929:1932   */\n      0x00\n        /* \"#utility.yul\":1948:1968   */\n      tag_62\n        /* \"#utility.yul\":1966:1967   */\n      dup3\n        /* \"#utility.yul\":1948:1968   */\n      tag_52\n      jump\t// in\n    tag_62:\n        /* \"#utility.yul\":1943:1968   */\n      swap2\n      pop\n        /* \"#utility.yul\":1982:2002   */\n      tag_63\n        /* \"#utility.yul\":2000:2001   */\n      dup4\n        /* \"#utility.yul\":1982:2002   */\n      tag_52\n      jump\t// in\n    tag_63:\n        /* \"#utility.yul\":1977:2002   */\n      swap3\n      pop\n        /* \"#utility.yul\":2136:2137   */\n      dup3\n        /* \"#utility.yul\":2068:2134   */\n      0xffffffffffffffffffffffffffffffffffffffffffffffffffffffffffffffff\n        /* \"#utility.yul\":2064:2138   */\n      sub\n        /* \"#utility.yul\":2061:2062   */\n      dup3\n        /* \"#utility.yul\":2058:2139   */\n      gt\n        /* \"#utility.yul\":2055:2162   */\n      iszero\n      tag_64\n      jumpi\n        /* \"#utility.yul\":2142:2160   */\n      tag_65\n      tag_66\n      jump\t// in\n    tag_65:\n        /* \"#utility.yul\":2055:2162   */\n    tag_64:\n        /* \"#utility.yul\":2186:2187   */\n      dup3\n        /* \"#utility.yul\":2183:2184   */\n      dup3\n        /* \"#utility.yul\":2179:2188   */\n      add\n        /* \"#utility.yul\":2172:2188   */\n      swap1\n      pop\n        /* \"#utility.yul\":1889:2194   */\n      swap3\n      swap2\n      pop\n      pop\n      jump\t// out\n        /* \"#utility.yul\":2200:2277   */\n    tag_52:\n        /* \"#utility.yul\":2237:2244   */\n      0x00\n        /* \"#utility.yul\":2266:2271   */\n      dup2\n        /* \"#utility.yul\":2255:2271   */\n      swap1\n      pop\n        /* \"#utility.yul\":2200:2277   */\n      swap2\n      swap1\n      pop\n      jump\t// out\n        /* \"#utility.yul\":2283:2590   */\n    tag_46:\n        /* \"#utility.yul\":2351:2352   */\n      0x00\n        /* \"#utility.yul\":2361:2474   */\n    tag_69:\n        /* \"#utility.yul\":2375:2381   */\n      dup4\n        /* \"#utility.yul\":2372:2373   */\n      dup2\n        /* \"#utility.yul\":2369:2382   */\n      lt\n        /* \"#utility.yul\":2361:2474   */\n      iszero\n      tag_71\n      jumpi\n        /* \"#utility.yul\":2460:2461   */\n      dup1\n        /* \"#utility.yul\":2455:2458   */\n      dup3\n        /* \"#utility.yul\":2451:2462   */\n      add\n        /* \"#utility.yul\":2445:2463   */\n      mload\n        /* \"#utility.yul\":2441:2442   */\n      dup2\n        /* \"#utility.yul\":2436:2439   */\n      dup5\n        /* \"#utility.yul\":2432:2443   */\n      add\n        /* \"#utility.yul\":2425:2464   */\n      mstore\n        /* \"#utility.yul\":2397:2399   */\n      0x20\n        /* \"#utility.yul\":2394:2395   */\n      dup2\n        /* \"#utility.yul\":2390:2400   */\n      add\n        /* \"#utility.yul\":2385:2400   */\n      swap1\n      pop\n        /* \"#utility.yul\":2361:2474   */\n      jump(tag_69)\n    tag_71:\n        /* \"#utility.yul\":2492:2498   */\n      dup4\n        /* \"#utility.yul\":2489:2490   */\n      dup2\n        /* \"#utility.yul\":2486:2499   */\n      gt\n        /* \"#utility.yul\":2483:2584   */\n      iszero\n      tag_72\n      jumpi\n        /* \"#utility.yul\":2572:2573   */\n      0x00\n        /* \"#utility.yul\":2563:2569   */\n      dup5\n        /* \"#utility.yul\":2558:2561   */\n      dup5\n        /* \"#utility.yul\":2554:2570   */\n      add\n        /* \"#utility.yul\":2547:2574   */\n      mstore\n        /* \"#utility.yul\":2483:2584   */\n    tag_72:\n        /* \"#utility.yul\":2332:2590   */\n      pop\n        /* \"#utility.yul\":2283:2590   */\n      pop\n      pop\n      pop\n      jump\t// out\n        /* \"#utility.yul\":2596:2776   */\n    tag_66:\n        /* \"#utility.yul\":2644:2721   */\n      0x4e487b7100000000000000000000000000000000000000000000000000000000\n        /* \"#utility.yul\":2641:2642   */\n      0x00\n        /* \"#utility.yul\":2634:2722   */\n      mstore\n        /* \"#utility.yul\":2741:2745   */\n      0x11\n        /* \"#utility.yul\":2738:2739   */\n      0x04\n        /* \"#utility.yul\":2731:2746   */\n      mstore\n        /* \"#utility.yul\":2765:2769   */\n      0x24\n        /* \"#utility.yul\":2762:2763   */\n      0x00\n        /* \"#utility.yul\":2755:2770   */\n      revert\n        /* \"#utility.yul\":2905:3022   */\n    tag_37:\n        /* \"#utility.yul\":3014:3015   */\n      0x00\n        /* \"#utility.yul\":3011:3012   */\n      dup1\n        /* \"#utility.yul\":3004:3016   */\n      revert\n        /* \"#utility.yul\":3028:3130   */\n    tag_48:\n        /* \"#utility.yul\":3069:3075   */\n      0x00\n        /* \"#utility.yul\":3120:3122   */\n      0x1f\n        /* \"#utility.yul\":3116:3123   */\n      not\n        /* \"#utility.yul\":3111:3113   */\n      0x1f\n        /* \"#utility.yul\":3104:3109   */\n      dup4\n        /* \"#utility.yul\":3100:3114   */\n      add\n        /* \"#utility.yul\":3096:3124   */\n      and\n        /* \"#utility.yul\":3086:3124   */\n      swap1\n      pop\n        /* \"#utility.yul\":3028:3130   */\n      swap2\n      swap1\n      pop\n      jump\t// out\n        /* \"#utility.yul\":3136:3258   */\n    tag_33:\n        /* \"#utility.yul\":3209:3233   */\n      tag_79\n        /* \"#utility.yul\":3227:3232   */\n      dup2\n        /* \"#utility.yul\":3209:3233   */\n      tag_52\n      jump\t// in\n    tag_79:\n        /* \"#utility.yul\":3202:3207   */\n      dup2\n        /* \"#utility.yul\":3199:3234   */\n      eq\n        /* \"#utility.yul\":3189:3252   */\n      tag_80\n      jumpi\n        /* \"#utility.yul\":3248:3249   */\n      0x00\n        /* \"#utility.yul\":3245:3246   */\n      dup1\n        /* \"#utility.yul\":3238:3250   */\n      revert\n        /* \"#utility.yul\":3189:3252   */\n    tag_80:\n        /* \"#utility.yul\":3136:3258   */\n      pop\n      jump\t// out\n\n    auxdata: 0xa264697066735822122018a7bdd30cab5a04f841c434a5386d75ec66f61b577701cf6c7b52d4cc9b5a4864736f6c63430008070033\n}\n",
				"bytecode": {
					"linkReferences": {},
					"object": "608060405234801561001057600080fd5b506000808190555060046001819055506103618061002f6000396000f3fe6080604052600436106100345760003560e01c80630e7ccaf014610039578063d826f88f14610069578063efedc66914610094575b600080fd5b610053600480360381019061004e919061016e565b6100bf565b6040516100609190610205565b60405180910390f35b34801561007557600080fd5b5061007e61010f565b60405161008b91906101e3565b60405180910390f35b3480156100a057600080fd5b506100a9610153565b6040516100b69190610205565b60405180910390f35b600060018210806100d05750600682115b156100de576000905061010a565b8160015414156100f05781905061010a565b600154600054610100919061023c565b6000819055508190505b919050565b6060600080819055506040518060400160405280600a81526020017f47616d6520524553455400000000000000000000000000000000000000000000815250905090565b60005481565b60008135905061016881610314565b92915050565b600060208284031215610184576101836102fe565b5b600061019284828501610159565b91505092915050565b60006101a682610220565b6101b0818561022b565b93506101c081856020860161029c565b6101c981610303565b840191505092915050565b6101dd81610292565b82525050565b600060208201905081810360008301526101fd818461019b565b905092915050565b600060208201905061021a60008301846101d4565b92915050565b600081519050919050565b600082825260208201905092915050565b600061024782610292565b915061025283610292565b9250827fffffffffffffffffffffffffffffffffffffffffffffffffffffffffffffffff03821115610287576102866102cf565b5b828201905092915050565b6000819050919050565b60005b838110156102ba57808201518184015260208101905061029f565b838111156102c9576000848401525b50505050565b7f4e487b7100000000000000000000000000000000000000000000000000000000600052601160045260246000fd5b600080fd5b6000601f19601f8301169050919050565b61031d81610292565b811461032857600080fd5b5056fea264697066735822122018a7bdd30cab5a04f841c434a5386d75ec66f61b577701cf6c7b52d4cc9b5a4864736f6c63430008070033",
					"opcodes": "PUSH1 0x80 PUSH1 0x40 MSTORE CALLVALUE DUP1 ISZERO PUSH2 0x10 JUMPI PUSH1 0x0 DUP1 REVERT JUMPDEST POP PUSH1 0x0 DUP1 DUP2 SWAP1 SSTORE POP PUSH1 0x4 PUSH1 0x1 DUP2 SWAP1 SSTORE POP PUSH2 0x361 DUP1 PUSH2 0x2F PUSH1 0x0 CODECOPY PUSH1 0x0 RETURN INVALID PUSH1 0x80 PUSH1 0x40 MSTORE PUSH1 0x4 CALLDATASIZE LT PUSH2 0x34 JUMPI PUSH1 0x0 CALLDATALOAD PUSH1 0xE0 SHR DUP1 PUSH4 0xE7CCAF0 EQ PUSH2 0x39 JUMPI DUP1 PUSH4 0xD826F88F EQ PUSH2 0x69 JUMPI DUP1 PUSH4 0xEFEDC669 EQ PUSH2 0x94 JUMPI JUMPDEST PUSH1 0x0 DUP1 REVERT JUMPDEST PUSH2 0x53 PUSH1 0x4 DUP1 CALLDATASIZE SUB DUP2 ADD SWAP1 PUSH2 0x4E SWAP2 SWAP1 PUSH2 0x16E JUMP JUMPDEST PUSH2 0xBF JUMP JUMPDEST PUSH1 0x40 MLOAD PUSH2 0x60 SWAP2 SWAP1 PUSH2 0x205 JUMP JUMPDEST PUSH1 0x40 MLOAD DUP1 SWAP2 SUB SWAP1 RETURN JUMPDEST CALLVALUE DUP1 ISZERO PUSH2 0x75 JUMPI PUSH1 0x0 DUP1 REVERT JUMPDEST POP PUSH2 0x7E PUSH2 0x10F JUMP JUMPDEST PUSH1 0x40 MLOAD PUSH2 0x8B SWAP2 SWAP1 PUSH2 0x1E3 JUMP JUMPDEST PUSH1 0x40 MLOAD DUP1 SWAP2 SUB SWAP1 RETURN JUMPDEST CALLVALUE DUP1 ISZERO PUSH2 0xA0 JUMPI PUSH1 0x0 DUP1 REVERT JUMPDEST POP PUSH2 0xA9 PUSH2 0x153 JUMP JUMPDEST PUSH1 0x40 MLOAD PUSH2 0xB6 SWAP2 SWAP1 PUSH2 0x205 JUMP JUMPDEST PUSH1 0x40 MLOAD DUP1 SWAP2 SUB SWAP1 RETURN JUMPDEST PUSH1 0x0 PUSH1 0x1 DUP3 LT DUP1 PUSH2 0xD0 JUMPI POP PUSH1 0x6 DUP3 GT JUMPDEST ISZERO PUSH2 0xDE JUMPI PUSH1 0x0 SWAP1 POP PUSH2 0x10A JUMP JUMPDEST DUP2 PUSH1 0x1 SLOAD EQ ISZERO PUSH2 0xF0 JUMPI DUP2 SWAP1 POP PUSH2 0x10A JUMP JUMPDEST PUSH1 0x1 SLOAD PUSH1 0x0 SLOAD PUSH2 0x100 SWAP2 SWAP1 PUSH2 0x23C JUMP JUMPDEST PUSH1 0x0 DUP2 SWAP1 SSTORE POP DUP2 SWAP1 POP JUMPDEST SWAP2 SWAP1 POP JUMP JUMPDEST PUSH1 0x60 PUSH1 0x0 DUP1 DUP2 SWAP1 SSTORE POP PUSH1 0x40 MLOAD DUP1 PUSH1 0x40 ADD PUSH1 0x40 MSTORE DUP1 PUSH1 0xA DUP2 MSTORE PUSH1 0x20 ADD PUSH32 0x47616D6520524553455400000000000000000000000000000000000000000000 DUP2 MSTORE POP SWAP1 POP SWAP1 JUMP JUMPDEST PUSH1 0x0 SLOAD DUP2 JUMP JUMPDEST PUSH1 0x0 DUP2 CALLDATALOAD SWAP1 POP PUSH2 0x168 DUP2 PUSH2 0x314 JUMP JUMPDEST SWAP3 SWAP2 POP POP JUMP JUMPDEST PUSH1 0x0 PUSH1 0x20 DUP3 DUP5 SUB SLT ISZERO PUSH2 0x184 JUMPI PUSH2 0x183 PUSH2 0x2FE JUMP JUMPDEST JUMPDEST PUSH1 0x0 PUSH2 0x192 DUP5 DUP3 DUP6 ADD PUSH2 0x159 JUMP JUMPDEST SWAP2 POP POP SWAP3 SWAP2 POP POP JUMP JUMPDEST PUSH1 0x0 PUSH2 0x1A6 DUP3 PUSH2 0x220 JUMP JUMPDEST PUSH2 0x1B0 DUP2 DUP6 PUSH2 0x22B JUMP JUMPDEST SWAP4 POP PUSH2 0x1C0 DUP2 DUP6 PUSH1 0x20 DUP7 ADD PUSH2 0x29C JUMP JUMPDEST PUSH2 0x1C9 DUP2 PUSH2 0x303 JUMP JUMPDEST DUP5 ADD SWAP2 POP POP SWAP3 SWAP2 POP POP JUMP JUMPDEST PUSH2 0x1DD DUP2 PUSH2 0x292 JUMP JUMPDEST DUP3 MSTORE POP POP JUMP JUMPDEST PUSH1 0x0 PUSH1 0x20 DUP3 ADD SWAP1 POP DUP2 DUP2 SUB PUSH1 0x0 DUP4 ADD MSTORE PUSH2 0x1FD DUP2 DUP5 PUSH2 0x19B JUMP JUMPDEST SWAP1 POP SWAP3 SWAP2 POP POP JUMP JUMPDEST PUSH1 0x0 PUSH1 0x20 DUP3 ADD SWAP1 POP PUSH2 0x21A PUSH1 0x0 DUP4 ADD DUP5 PUSH2 0x1D4 JUMP JUMPDEST SWAP3 SWAP2 POP POP JUMP JUMPDEST PUSH1 0x0 DUP2 MLOAD SWAP1 POP SWAP2 SWAP1 POP JUMP JUMPDEST PUSH1 0x0 DUP3 DUP3 MSTORE PUSH1 0x20 DUP3 ADD SWAP1 POP SWAP3 SWAP2 POP POP JUMP JUMPDEST PUSH1 0x0 PUSH2 0x247 DUP3 PUSH2 0x292 JUMP JUMPDEST SWAP2 POP PUSH2 0x252 DUP4 PUSH2 0x292 JUMP JUMPDEST SWAP3 POP DUP3 PUSH32 0xFFFFFFFFFFFFFFFFFFFFFFFFFFFFFFFFFFFFFFFFFFFFFFFFFFFFFFFFFFFFFFFF SUB DUP3 GT ISZERO PUSH2 0x287 JUMPI PUSH2 0x286 PUSH2 0x2CF JUMP JUMPDEST JUMPDEST DUP3 DUP3 ADD SWAP1 POP SWAP3 SWAP2 POP POP JUMP JUMPDEST PUSH1 0x0 DUP2 SWAP1 POP SWAP2 SWAP1 POP JUMP JUMPDEST PUSH1 0x0 JUMPDEST DUP4 DUP2 LT ISZERO PUSH2 0x2BA JUMPI DUP1 DUP3 ADD MLOAD DUP2 DUP5 ADD MSTORE PUSH1 0x20 DUP2 ADD SWAP1 POP PUSH2 0x29F JUMP JUMPDEST DUP4 DUP2 GT ISZERO PUSH2 0x2C9 JUMPI PUSH1 0x0 DUP5 DUP5 ADD MSTORE JUMPDEST POP POP POP POP JUMP JUMPDEST PUSH32 0x4E487B7100000000000000000000000000000000000000000000000000000000 PUSH1 0x0 MSTORE PUSH1 0x11 PUSH1 0x4 MSTORE PUSH1 0x24 PUSH1 0x0 REVERT JUMPDEST PUSH1 0x0 DUP1 REVERT JUMPDEST PUSH1 0x0 PUSH1 0x1F NOT PUSH1 0x1F DUP4 ADD AND SWAP1 POP SWAP2 SWAP1 POP JUMP JUMPDEST PUSH2 0x31D DUP2 PUSH2 0x292 JUMP JUMPDEST DUP2 EQ PUSH2 0x328 JUMPI PUSH1 0x0 DUP1 REVERT JUMPDEST POP JUMP INVALID LOG2 PUSH5 0x6970667358 0x22 SLT KECCAK256 XOR 0xA7 0xBD 0xD3 0xC 0xAB GAS DIV 0xF8 COINBASE 0xC4 CALLVALUE 0xA5 CODESIZE PUSH14 0x75EC66F61B577701CF6C7B52D4CC SWAP12 GAS BASEFEE PUSH5 0x736F6C6343 STOP ADDMOD SMOD STOP CALLER "
				},
				"gasEstimates": {
					"creation": {
						"codeDepositCost": "173000",
						"executionCost": "27348",
						"totalCost": "200348"
					},
					"external": {
						"reset()": "infinite",
						"score()": "2451",
						"takeinput(uint256)": "infinite"
					}
				},
				"methodIdentifiers": {
					"reset()": "d826f88f",
					"score()": "efedc669",
					"takeinput(uint256)": "0e7ccaf0"
				}
			},
			"storageLayout": {
				"storage": [
					{
						"astId": 3,
						"contract": "contracts/4_OddEve.sol:oddEve",
						"label": "score",
						"offset": 0,
						"slot": "0",
						"type": "t_uint256"
					},
					{
						"astId": 5,
						"contract": "contracts/4_OddEve.sol:oddEve",
						"label": "randomnumber",
						"offset": 0,
						"slot": "1",
						"type": "t_uint256"
					}
				],
				"types": {
					"t_uint256": {
						"encoding": "inplace",
						"label": "uint256",
						"numberOfBytes": "32"
					}
				}
			},
			"userdoc": {
				"kind": "user",
				"methods": {},
				"version": 1
			}
		}
	}
}